{
	"contracts/TenkStablePair.sol": {
		"TenkStablePair": {
			"abi": [
				{
					"inputs": [],
					"payable": false,
					"stateMutability": "nonpayable",
					"type": "constructor"
				},
				{
					"anonymous": false,
					"inputs": [
						{
							"indexed": true,
							"internalType": "address",
							"name": "owner",
							"type": "address"
						},
						{
							"indexed": true,
							"internalType": "address",
							"name": "spender",
							"type": "address"
						},
						{
							"indexed": false,
							"internalType": "uint256",
							"name": "value",
							"type": "uint256"
						}
					],
					"name": "Approval",
					"type": "event"
				},
				{
					"anonymous": false,
					"inputs": [
						{
							"indexed": true,
							"internalType": "address",
							"name": "sender",
							"type": "address"
						},
						{
							"indexed": false,
							"internalType": "uint256",
							"name": "amount0",
							"type": "uint256"
						},
						{
							"indexed": false,
							"internalType": "uint256",
							"name": "amount1",
							"type": "uint256"
						},
						{
							"indexed": true,
							"internalType": "address",
							"name": "to",
							"type": "address"
						}
					],
					"name": "Burn",
					"type": "event"
				},
				{
					"anonymous": false,
					"inputs": [
						{
							"indexed": true,
							"internalType": "address",
							"name": "token",
							"type": "address"
						},
						{
							"indexed": false,
							"internalType": "address",
							"name": "to",
							"type": "address"
						}
					],
					"name": "DrainWrongToken",
					"type": "event"
				},
				{
					"anonymous": false,
					"inputs": [
						{
							"indexed": false,
							"internalType": "uint16",
							"name": "token0FeePercent",
							"type": "uint16"
						},
						{
							"indexed": false,
							"internalType": "uint16",
							"name": "token1FeePercent",
							"type": "uint16"
						}
					],
					"name": "FeePercentUpdated",
					"type": "event"
				},
				{
					"anonymous": false,
					"inputs": [
						{
							"indexed": true,
							"internalType": "address",
							"name": "sender",
							"type": "address"
						},
						{
							"indexed": false,
							"internalType": "uint256",
							"name": "amount0",
							"type": "uint256"
						},
						{
							"indexed": false,
							"internalType": "uint256",
							"name": "amount1",
							"type": "uint256"
						}
					],
					"name": "Mint",
					"type": "event"
				},
				{
					"anonymous": false,
					"inputs": [],
					"name": "SetPairTypeImmutable",
					"type": "event"
				},
				{
					"anonymous": false,
					"inputs": [
						{
							"indexed": false,
							"internalType": "bool",
							"name": "prevStableSwap",
							"type": "bool"
						},
						{
							"indexed": false,
							"internalType": "bool",
							"name": "stableSwap",
							"type": "bool"
						}
					],
					"name": "SetStableSwap",
					"type": "event"
				},
				{
					"anonymous": false,
					"inputs": [],
					"name": "Skim",
					"type": "event"
				},
				{
					"anonymous": false,
					"inputs": [
						{
							"indexed": true,
							"internalType": "address",
							"name": "sender",
							"type": "address"
						},
						{
							"indexed": false,
							"internalType": "uint256",
							"name": "amount0In",
							"type": "uint256"
						},
						{
							"indexed": false,
							"internalType": "uint256",
							"name": "amount1In",
							"type": "uint256"
						},
						{
							"indexed": false,
							"internalType": "uint256",
							"name": "amount0Out",
							"type": "uint256"
						},
						{
							"indexed": false,
							"internalType": "uint256",
							"name": "amount1Out",
							"type": "uint256"
						},
						{
							"indexed": true,
							"internalType": "address",
							"name": "to",
							"type": "address"
						}
					],
					"name": "Swap",
					"type": "event"
				},
				{
					"anonymous": false,
					"inputs": [
						{
							"indexed": false,
							"internalType": "uint112",
							"name": "reserve0",
							"type": "uint112"
						},
						{
							"indexed": false,
							"internalType": "uint112",
							"name": "reserve1",
							"type": "uint112"
						}
					],
					"name": "Sync",
					"type": "event"
				},
				{
					"anonymous": false,
					"inputs": [
						{
							"indexed": true,
							"internalType": "address",
							"name": "from",
							"type": "address"
						},
						{
							"indexed": true,
							"internalType": "address",
							"name": "to",
							"type": "address"
						},
						{
							"indexed": false,
							"internalType": "uint256",
							"name": "value",
							"type": "uint256"
						}
					],
					"name": "Transfer",
					"type": "event"
				},
				{
					"constant": true,
					"inputs": [],
					"name": "DOMAIN_SEPARATOR",
					"outputs": [
						{
							"internalType": "bytes32",
							"name": "",
							"type": "bytes32"
						}
					],
					"payable": false,
					"stateMutability": "view",
					"type": "function"
				},
				{
					"constant": true,
					"inputs": [],
					"name": "FEE_DENOMINATOR",
					"outputs": [
						{
							"internalType": "uint256",
							"name": "",
							"type": "uint256"
						}
					],
					"payable": false,
					"stateMutability": "view",
					"type": "function"
				},
				{
					"constant": true,
					"inputs": [],
					"name": "MAX_FEE_PERCENT",
					"outputs": [
						{
							"internalType": "uint256",
							"name": "",
							"type": "uint256"
						}
					],
					"payable": false,
					"stateMutability": "view",
					"type": "function"
				},
				{
					"constant": true,
					"inputs": [],
					"name": "MINIMUM_LIQUIDITY",
					"outputs": [
						{
							"internalType": "uint256",
							"name": "",
							"type": "uint256"
						}
					],
					"payable": false,
					"stateMutability": "view",
					"type": "function"
				},
				{
					"constant": true,
					"inputs": [],
					"name": "PERMIT_TYPEHASH",
					"outputs": [
						{
							"internalType": "bytes32",
							"name": "",
							"type": "bytes32"
						}
					],
					"payable": false,
					"stateMutability": "view",
					"type": "function"
				},
				{
					"constant": true,
					"inputs": [
						{
							"internalType": "address",
							"name": "",
							"type": "address"
						},
						{
							"internalType": "address",
							"name": "",
							"type": "address"
						}
					],
					"name": "allowance",
					"outputs": [
						{
							"internalType": "uint256",
							"name": "",
							"type": "uint256"
						}
					],
					"payable": false,
					"stateMutability": "view",
					"type": "function"
				},
				{
					"constant": false,
					"inputs": [
						{
							"internalType": "address",
							"name": "spender",
							"type": "address"
						},
						{
							"internalType": "uint256",
							"name": "value",
							"type": "uint256"
						}
					],
					"name": "approve",
					"outputs": [
						{
							"internalType": "bool",
							"name": "",
							"type": "bool"
						}
					],
					"payable": false,
					"stateMutability": "nonpayable",
					"type": "function"
				},
				{
					"constant": true,
					"inputs": [
						{
							"internalType": "address",
							"name": "",
							"type": "address"
						}
					],
					"name": "balanceOf",
					"outputs": [
						{
							"internalType": "uint256",
							"name": "",
							"type": "uint256"
						}
					],
					"payable": false,
					"stateMutability": "view",
					"type": "function"
				},
				{
					"constant": false,
					"inputs": [
						{
							"internalType": "address",
							"name": "to",
							"type": "address"
						}
					],
					"name": "burn",
					"outputs": [
						{
							"internalType": "uint256",
							"name": "amount0",
							"type": "uint256"
						},
						{
							"internalType": "uint256",
							"name": "amount1",
							"type": "uint256"
						}
					],
					"payable": false,
					"stateMutability": "nonpayable",
					"type": "function"
				},
				{
					"constant": true,
					"inputs": [],
					"name": "decimals",
					"outputs": [
						{
							"internalType": "uint8",
							"name": "",
							"type": "uint8"
						}
					],
					"payable": false,
					"stateMutability": "view",
					"type": "function"
				},
				{
					"constant": false,
					"inputs": [
						{
							"internalType": "address",
							"name": "token",
							"type": "address"
						},
						{
							"internalType": "address",
							"name": "to",
							"type": "address"
						}
					],
					"name": "drainWrongToken",
					"outputs": [],
					"payable": false,
					"stateMutability": "nonpayable",
					"type": "function"
				},
				{
					"constant": true,
					"inputs": [],
					"name": "factory",
					"outputs": [
						{
							"internalType": "address",
							"name": "",
							"type": "address"
						}
					],
					"payable": false,
					"stateMutability": "view",
					"type": "function"
				},
				{
					"constant": true,
					"inputs": [
						{
							"internalType": "uint256",
							"name": "amountIn",
							"type": "uint256"
						},
						{
							"internalType": "address",
							"name": "tokenIn",
							"type": "address"
						}
					],
					"name": "getAmountOut",
					"outputs": [
						{
							"internalType": "uint256",
							"name": "",
							"type": "uint256"
						}
					],
					"payable": false,
					"stateMutability": "view",
					"type": "function"
				},
				{
					"constant": true,
					"inputs": [],
					"name": "getReserves",
					"outputs": [
						{
							"internalType": "uint112",
							"name": "_reserve0",
							"type": "uint112"
						},
						{
							"internalType": "uint112",
							"name": "_reserve1",
							"type": "uint112"
						},
						{
							"internalType": "uint16",
							"name": "_token0FeePercent",
							"type": "uint16"
						},
						{
							"internalType": "uint16",
							"name": "_token1FeePercent",
							"type": "uint16"
						}
					],
					"payable": false,
					"stateMutability": "view",
					"type": "function"
				},
				{
					"constant": false,
					"inputs": [
						{
							"internalType": "address",
							"name": "_token0",
							"type": "address"
						},
						{
							"internalType": "address",
							"name": "_token1",
							"type": "address"
						}
					],
					"name": "initialize",
					"outputs": [],
					"payable": false,
					"stateMutability": "nonpayable",
					"type": "function"
				},
				{
					"constant": true,
					"inputs": [],
					"name": "initialized",
					"outputs": [
						{
							"internalType": "bool",
							"name": "",
							"type": "bool"
						}
					],
					"payable": false,
					"stateMutability": "view",
					"type": "function"
				},
				{
					"constant": true,
					"inputs": [],
					"name": "kLast",
					"outputs": [
						{
							"internalType": "uint256",
							"name": "",
							"type": "uint256"
						}
					],
					"payable": false,
					"stateMutability": "view",
					"type": "function"
				},
				{
					"constant": false,
					"inputs": [
						{
							"internalType": "address",
							"name": "to",
							"type": "address"
						}
					],
					"name": "mint",
					"outputs": [
						{
							"internalType": "uint256",
							"name": "liquidity",
							"type": "uint256"
						}
					],
					"payable": false,
					"stateMutability": "nonpayable",
					"type": "function"
				},
				{
					"constant": true,
					"inputs": [],
					"name": "name",
					"outputs": [
						{
							"internalType": "string",
							"name": "",
							"type": "string"
						}
					],
					"payable": false,
					"stateMutability": "view",
					"type": "function"
				},
				{
					"constant": true,
					"inputs": [
						{
							"internalType": "address",
							"name": "",
							"type": "address"
						}
					],
					"name": "nonces",
					"outputs": [
						{
							"internalType": "uint256",
							"name": "",
							"type": "uint256"
						}
					],
					"payable": false,
					"stateMutability": "view",
					"type": "function"
				},
				{
					"constant": true,
					"inputs": [],
					"name": "pairTypeImmutable",
					"outputs": [
						{
							"internalType": "bool",
							"name": "",
							"type": "bool"
						}
					],
					"payable": false,
					"stateMutability": "view",
					"type": "function"
				},
				{
					"constant": false,
					"inputs": [
						{
							"internalType": "address",
							"name": "owner",
							"type": "address"
						},
						{
							"internalType": "address",
							"name": "spender",
							"type": "address"
						},
						{
							"internalType": "uint256",
							"name": "value",
							"type": "uint256"
						},
						{
							"internalType": "uint256",
							"name": "deadline",
							"type": "uint256"
						},
						{
							"internalType": "uint8",
							"name": "v",
							"type": "uint8"
						},
						{
							"internalType": "bytes32",
							"name": "r",
							"type": "bytes32"
						},
						{
							"internalType": "bytes32",
							"name": "s",
							"type": "bytes32"
						}
					],
					"name": "permit",
					"outputs": [],
					"payable": false,
					"stateMutability": "nonpayable",
					"type": "function"
				},
				{
					"constant": true,
					"inputs": [],
					"name": "precisionMultiplier0",
					"outputs": [
						{
							"internalType": "uint256",
							"name": "",
							"type": "uint256"
						}
					],
					"payable": false,
					"stateMutability": "view",
					"type": "function"
				},
				{
					"constant": true,
					"inputs": [],
					"name": "precisionMultiplier1",
					"outputs": [
						{
							"internalType": "uint256",
							"name": "",
							"type": "uint256"
						}
					],
					"payable": false,
					"stateMutability": "view",
					"type": "function"
				},
				{
					"constant": false,
					"inputs": [
						{
							"internalType": "uint16",
							"name": "newToken0FeePercent",
							"type": "uint16"
						},
						{
							"internalType": "uint16",
							"name": "newToken1FeePercent",
							"type": "uint16"
						}
					],
					"name": "setFeePercent",
					"outputs": [],
					"payable": false,
					"stateMutability": "nonpayable",
					"type": "function"
				},
				{
					"constant": false,
					"inputs": [],
					"name": "setPairTypeImmutable",
					"outputs": [],
					"payable": false,
					"stateMutability": "nonpayable",
					"type": "function"
				},
				{
					"constant": false,
					"inputs": [
						{
							"internalType": "bool",
							"name": "stable",
							"type": "bool"
						},
						{
							"internalType": "uint112",
							"name": "expectedReserve0",
							"type": "uint112"
						},
						{
							"internalType": "uint112",
							"name": "expectedReserve1",
							"type": "uint112"
						}
					],
					"name": "setStableSwap",
					"outputs": [],
					"payable": false,
					"stateMutability": "nonpayable",
					"type": "function"
				},
				{
					"constant": false,
					"inputs": [
						{
							"internalType": "address",
							"name": "to",
							"type": "address"
						}
					],
					"name": "skim",
					"outputs": [],
					"payable": false,
					"stateMutability": "nonpayable",
					"type": "function"
				},
				{
					"constant": true,
					"inputs": [],
					"name": "stableSwap",
					"outputs": [
						{
							"internalType": "bool",
							"name": "",
							"type": "bool"
						}
					],
					"payable": false,
					"stateMutability": "view",
					"type": "function"
				},
				{
					"constant": false,
					"inputs": [
						{
							"internalType": "uint256",
							"name": "amount0Out",
							"type": "uint256"
						},
						{
							"internalType": "uint256",
							"name": "amount1Out",
							"type": "uint256"
						},
						{
							"internalType": "address",
							"name": "to",
							"type": "address"
						},
						{
							"internalType": "bytes",
							"name": "data",
							"type": "bytes"
						}
					],
					"name": "swap",
					"outputs": [],
					"payable": false,
					"stateMutability": "nonpayable",
					"type": "function"
				},
				{
					"constant": false,
					"inputs": [
						{
							"internalType": "uint256",
							"name": "amount0Out",
							"type": "uint256"
						},
						{
							"internalType": "uint256",
							"name": "amount1Out",
							"type": "uint256"
						},
						{
							"internalType": "address",
							"name": "to",
							"type": "address"
						},
						{
							"internalType": "bytes",
							"name": "data",
							"type": "bytes"
						},
						{
							"internalType": "address",
							"name": "referrer",
							"type": "address"
						}
					],
					"name": "swap",
					"outputs": [],
					"payable": false,
					"stateMutability": "nonpayable",
					"type": "function"
				},
				{
					"constant": true,
					"inputs": [],
					"name": "symbol",
					"outputs": [
						{
							"internalType": "string",
							"name": "",
							"type": "string"
						}
					],
					"payable": false,
					"stateMutability": "view",
					"type": "function"
				},
				{
					"constant": false,
					"inputs": [],
					"name": "sync",
					"outputs": [],
					"payable": false,
					"stateMutability": "nonpayable",
					"type": "function"
				},
				{
					"constant": true,
					"inputs": [],
					"name": "token0",
					"outputs": [
						{
							"internalType": "address",
							"name": "",
							"type": "address"
						}
					],
					"payable": false,
					"stateMutability": "view",
					"type": "function"
				},
				{
					"constant": true,
					"inputs": [],
					"name": "token0FeePercent",
					"outputs": [
						{
							"internalType": "uint16",
							"name": "",
							"type": "uint16"
						}
					],
					"payable": false,
					"stateMutability": "view",
					"type": "function"
				},
				{
					"constant": true,
					"inputs": [],
					"name": "token1",
					"outputs": [
						{
							"internalType": "address",
							"name": "",
							"type": "address"
						}
					],
					"payable": false,
					"stateMutability": "view",
					"type": "function"
				},
				{
					"constant": true,
					"inputs": [],
					"name": "token1FeePercent",
					"outputs": [
						{
							"internalType": "uint16",
							"name": "",
							"type": "uint16"
						}
					],
					"payable": false,
					"stateMutability": "view",
					"type": "function"
				},
				{
					"constant": true,
					"inputs": [],
					"name": "totalSupply",
					"outputs": [
						{
							"internalType": "uint256",
							"name": "",
							"type": "uint256"
						}
					],
					"payable": false,
					"stateMutability": "view",
					"type": "function"
				},
				{
					"constant": false,
					"inputs": [
						{
							"internalType": "address",
							"name": "to",
							"type": "address"
						},
						{
							"internalType": "uint256",
							"name": "value",
							"type": "uint256"
						}
					],
					"name": "transfer",
					"outputs": [
						{
							"internalType": "bool",
							"name": "",
							"type": "bool"
						}
					],
					"payable": false,
					"stateMutability": "nonpayable",
					"type": "function"
				},
				{
					"constant": false,
					"inputs": [
						{
							"internalType": "address",
							"name": "from",
							"type": "address"
						},
						{
							"internalType": "address",
							"name": "to",
							"type": "address"
						},
						{
							"internalType": "uint256",
							"name": "value",
							"type": "uint256"
						}
					],
					"name": "transferFrom",
					"outputs": [
						{
							"internalType": "bool",
							"name": "",
							"type": "bool"
						}
					],
					"payable": false,
					"stateMutability": "nonpayable",
					"type": "function"
				}
			],
			"devdoc": {
				"methods": {
					"drainWrongToken(address,address)": {
						"details": "Allow to recover token sent here by mistake   * Can only be called by factory's owner"
					},
					"setFeePercent(uint16,uint16)": {
						"details": "Updates the swap fees percent   * Can only be called by the factory's feeAmountOwner"
					}
				}
			},
			"evm": {
				"assembly": "    /* \"contracts/TenkStablePair.sol\":263:18101  contract TenkStablePair is I10kStablePair, TenkERC20 {\r... */\n  mstore(0x40, 0x80)\n    /* \"contracts/TenkStablePair.sol\":942:945  300 */\n  0x012c\n    /* \"contracts/TenkStablePair.sol\":909:945  uint16 public token0FeePercent = 300 */\n  0x08\n  exp(0x0100, 0x1c)\n  dup2\n  sload\n  dup2\n  0xffff\n  mul\n  not\n  and\n  swap1\n  dup4\n  0xffff\n  and\n  mul\n  or\n  swap1\n  sstore\n  pop\n    /* \"contracts/TenkStablePair.sol\":1058:1061  300 */\n  0x012c\n    /* \"contracts/TenkStablePair.sol\":1025:1061  uint16 public token1FeePercent = 300 */\n  0x08\n  exp(0x0100, 0x1e)\n  dup2\n  sload\n  dup2\n  0xffff\n  mul\n  not\n  and\n  swap1\n  dup4\n  0xffff\n  and\n  mul\n  or\n  swap1\n  sstore\n  pop\n    /* \"contracts/TenkStablePair.sol\":1520:1521  1 */\n  0x01\n    /* \"contracts/TenkStablePair.sol\":1496:1521  uint private unlocked = 1 */\n  0x0d\n  sstore\n    /* \"contracts/TenkStablePair.sol\":2825:2879  constructor() public {\r... */\n  callvalue\n    /* \"--CODEGEN--\":8:17   */\n  dup1\n    /* \"--CODEGEN--\":5:7   */\n  iszero\n  tag_1\n  jumpi\n    /* \"--CODEGEN--\":30:31   */\n  0x00\n    /* \"--CODEGEN--\":27:28   */\n  dup1\n    /* \"--CODEGEN--\":20:32   */\n  revert\n    /* \"--CODEGEN--\":5:7   */\ntag_1:\n    /* \"contracts/TenkStablePair.sol\":2825:2879  constructor() public {\r... */\n  pop\n    /* \"contracts/TenkERC20.sol\":960:972  uint chainId */\n  0x00\n    /* \"contracts/TenkERC20.sol\":1018:1025  chainid */\n  chainid\n    /* \"contracts/TenkERC20.sol\":1007:1025  chainId := chainid */\n  swap1\n  pop\n    /* \"contracts/TenkERC20.sol\":1118:1213  keccak256('EIP712Domain(string name,string version,uint256 chainId,address verifyingContract)') */\n  mload(0x40)\n  dup1\n  dup1\n  data_8b73c3c69bb8fe3d512ecc4cf759cc79239f7b179b0ffacaa9a75d522b39400f\n  0x52\n  swap2\n  codecopy\n  0x52\n  add\n  swap1\n  pop\n  mload(0x40)\n  dup1\n  swap2\n  sub\n  swap1\n  keccak256\n    /* \"contracts/TenkERC20.sol\":1248:1252  name */\n  mload(0x40)\n  dup1\n  0x40\n  add\n  0x40\n  mstore\n  dup1\n  0x0a\n  dup2\n  mstore\n  0x20\n  add\n  0x43616d656c6f74204c5000000000000000000000000000000000000000000000\n  dup2\n  mstore\n  pop\n    /* \"contracts/TenkERC20.sol\":1232:1254  keccak256(bytes(name)) */\n  dup1\n  mload\n  swap1\n  0x20\n  add\n  keccak256\n    /* \"contracts/TenkERC20.sol\":1283:1293  bytes('1') */\n  mload(0x40)\n  dup1\n  0x40\n  add\n  0x40\n  mstore\n  dup1\n  0x01\n  dup2\n  mstore\n  0x20\n  add\n  0x3100000000000000000000000000000000000000000000000000000000000000\n  dup2\n  mstore\n  pop\n    /* \"contracts/TenkERC20.sol\":1273:1294  keccak256(bytes('1')) */\n  dup1\n  mload\n  swap1\n  0x20\n  add\n  keccak256\n    /* \"contracts/TenkERC20.sol\":1313:1320  chainId */\n  dup4\n    /* \"contracts/TenkERC20.sol\":1347:1351  this */\n  address\n    /* \"contracts/TenkERC20.sol\":1089:1367  abi.encode(\r... */\n  add(0x20, mload(0x40))\n  dup1\n  dup7\n  dup2\n  mstore\n  0x20\n  add\n  dup6\n  dup2\n  mstore\n  0x20\n  add\n  dup5\n  dup2\n  mstore\n  0x20\n  add\n  dup4\n  dup2\n  mstore\n  0x20\n  add\n  dup3\n  0xffffffffffffffffffffffffffffffffffffffff\n  and\n  0xffffffffffffffffffffffffffffffffffffffff\n  and\n  dup2\n  mstore\n  0x20\n  add\n  swap6\n  pop\n  pop\n  pop\n  pop\n  pop\n  pop\n  mload(0x40)\n    /* \"--CODEGEN--\":49:53   */\n  0x20\n    /* \"--CODEGEN--\":39:46   */\n  dup2\n    /* \"--CODEGEN--\":30:37   */\n  dup4\n    /* \"--CODEGEN--\":26:47   */\n  sub\n    /* \"--CODEGEN--\":22:54   */\n  sub\n    /* \"--CODEGEN--\":13:20   */\n  dup2\n    /* \"--CODEGEN--\":6:55   */\n  mstore\n    /* \"contracts/TenkERC20.sol\":1089:1367  abi.encode(\r... */\n  swap1\n  0x40\n  mstore\n    /* \"contracts/TenkERC20.sol\":1065:1378  keccak256(\r... */\n  dup1\n  mload\n  swap1\n  0x20\n  add\n  keccak256\n    /* \"contracts/TenkERC20.sol\":1046:1062  DOMAIN_SEPARATOR */\n  0x03\n    /* \"contracts/TenkERC20.sol\":1046:1378  DOMAIN_SEPARATOR = keccak256(\r... */\n  dup2\n  swap1\n  sstore\n  pop\n    /* \"contracts/TenkERC20.sol\":928:1386  constructor() public {\r... */\n  pop\n    /* \"contracts/TenkStablePair.sol\":2863:2873  msg.sender */\n  caller\n    /* \"contracts/TenkStablePair.sol\":2853:2860  factory */\n  0x05\n  0x00\n    /* \"contracts/TenkStablePair.sol\":2853:2873  factory = msg.sender */\n  0x0100\n  exp\n  dup2\n  sload\n  dup2\n  0xffffffffffffffffffffffffffffffffffffffff\n  mul\n  not\n  and\n  swap1\n  dup4\n  0xffffffffffffffffffffffffffffffffffffffff\n  and\n  mul\n  or\n  swap1\n  sstore\n  pop\n    /* \"contracts/TenkStablePair.sol\":263:18101  contract TenkStablePair is I10kStablePair, TenkERC20 {\r... */\n  dataSize(sub_0)\n  dup1\n  dataOffset(sub_0)\n  0x00\n  codecopy\n  0x00\n  return\nstop\ndata_8b73c3c69bb8fe3d512ecc4cf759cc79239f7b179b0ffacaa9a75d522b39400f 454950373132446f6d61696e28737472696e67206e616d652c737472696e672076657273696f6e2c75696e7432353620636861696e49642c6164647265737320766572696679696e67436f6e747261637429\n\nsub_0: assembly {\n        /* \"contracts/TenkStablePair.sol\":263:18101  contract TenkStablePair is I10kStablePair, TenkERC20 {\r... */\n      mstore(0x40, 0x80)\n      callvalue\n        /* \"--CODEGEN--\":8:17   */\n      dup1\n        /* \"--CODEGEN--\":5:7   */\n      iszero\n      tag_1\n      jumpi\n        /* \"--CODEGEN--\":30:31   */\n      0x00\n        /* \"--CODEGEN--\":27:28   */\n      dup1\n        /* \"--CODEGEN--\":20:32   */\n      revert\n        /* \"--CODEGEN--\":5:7   */\n    tag_1:\n        /* \"contracts/TenkStablePair.sol\":263:18101  contract TenkStablePair is I10kStablePair, TenkERC20 {\r... */\n      pop\n      jumpi(tag_2, lt(calldatasize, 0x04))\n      shr(0xe0, calldataload(0x00))\n      dup1\n      0x6a627842\n      gt\n      tag_43\n      jumpi\n      dup1\n      0xba9a7a56\n      gt\n      tag_44\n      jumpi\n      dup1\n      0xd73792a9\n      gt\n      tag_45\n      jumpi\n      dup1\n      0xd73792a9\n      eq\n      tag_38\n      jumpi\n      dup1\n      0xdd62ed3e\n      eq\n      tag_39\n      jumpi\n      dup1\n      0xf140a35a\n      eq\n      tag_40\n      jumpi\n      dup1\n      0xf39ac11f\n      eq\n      tag_41\n      jumpi\n      dup1\n      0xfff6cae9\n      eq\n      tag_42\n      jumpi\n      jump(tag_2)\n    tag_45:\n      dup1\n      0xba9a7a56\n      eq\n      tag_33\n      jumpi\n      dup1\n      0xbc25cf77\n      eq\n      tag_34\n      jumpi\n      dup1\n      0xc45a0155\n      eq\n      tag_35\n      jumpi\n      dup1\n      0xd21220a7\n      eq\n      tag_36\n      jumpi\n      dup1\n      0xd505accf\n      eq\n      tag_37\n      jumpi\n      jump(tag_2)\n    tag_44:\n      dup1\n      0x89afcb44\n      gt\n      tag_46\n      jumpi\n      dup1\n      0x89afcb44\n      eq\n      tag_28\n      jumpi\n      dup1\n      0x95d89b41\n      eq\n      tag_29\n      jumpi\n      dup1\n      0x9e548b7f\n      eq\n      tag_30\n      jumpi\n      dup1\n      0xa9059cbb\n      eq\n      tag_31\n      jumpi\n      dup1\n      0xb6200b07\n      eq\n      tag_32\n      jumpi\n      jump(tag_2)\n    tag_46:\n      dup1\n      0x6a627842\n      eq\n      tag_23\n      jumpi\n      dup1\n      0x6e1fdd7f\n      eq\n      tag_24\n      jumpi\n      dup1\n      0x70a08231\n      eq\n      tag_25\n      jumpi\n      dup1\n      0x7464fc3d\n      eq\n      tag_26\n      jumpi\n      dup1\n      0x7ecebe00\n      eq\n      tag_27\n      jumpi\n      jump(tag_2)\n    tag_43:\n      dup1\n      0x3029e5d4\n      gt\n      tag_47\n      jumpi\n      dup1\n      0x3ba17077\n      gt\n      tag_48\n      jumpi\n      dup1\n      0x3ba17077\n      eq\n      tag_18\n      jumpi\n      dup1\n      0x485cc955\n      eq\n      tag_19\n      jumpi\n      dup1\n      0x48e5d260\n      eq\n      tag_20\n      jumpi\n      dup1\n      0x62ecec03\n      eq\n      tag_21\n      jumpi\n      dup1\n      0x67d81740\n      eq\n      tag_22\n      jumpi\n      jump(tag_2)\n    tag_48:\n      dup1\n      0x3029e5d4\n      eq\n      tag_13\n      jumpi\n      dup1\n      0x30adf81f\n      eq\n      tag_14\n      jumpi\n      dup1\n      0x313ce567\n      eq\n      tag_15\n      jumpi\n      dup1\n      0x3644e515\n      eq\n      tag_16\n      jumpi\n      dup1\n      0x3b9f1dc0\n      eq\n      tag_17\n      jumpi\n      jump(tag_2)\n    tag_47:\n      dup1\n      0x158ef93e\n      gt\n      tag_49\n      jumpi\n      dup1\n      0x158ef93e\n      eq\n      tag_8\n      jumpi\n      dup1\n      0x18160ddd\n      eq\n      tag_9\n      jumpi\n      dup1\n      0x23b872dd\n      eq\n      tag_10\n      jumpi\n      dup1\n      0x288e5d02\n      eq\n      tag_11\n      jumpi\n      dup1\n      0x2fcd1692\n      eq\n      tag_12\n      jumpi\n      jump(tag_2)\n    tag_49:\n      dup1\n      0x022c0d9f\n      eq\n      tag_3\n      jumpi\n      dup1\n      0x06fdde03\n      eq\n      tag_4\n      jumpi\n      dup1\n      0x0902f1ac\n      eq\n      tag_5\n      jumpi\n      dup1\n      0x095ea7b3\n      eq\n      tag_6\n      jumpi\n      dup1\n      0x0dfe1681\n      eq\n      tag_7\n      jumpi\n    tag_2:\n      0x00\n      dup1\n      revert\n        /* \"contracts/TenkStablePair.sol\":9279:9676  function swap(uint amount0Out, uint amount1Out, address to, bytes calldata data) external {\r... */\n    tag_3:\n      tag_50\n      0x04\n      dup1\n      calldatasize\n      sub\n        /* \"--CODEGEN--\":13:16   */\n      0x80\n        /* \"--CODEGEN--\":8:11   */\n      dup2\n        /* \"--CODEGEN--\":5:17   */\n      lt\n        /* \"--CODEGEN--\":2:4   */\n      iszero\n      tag_51\n      jumpi\n        /* \"--CODEGEN--\":30:31   */\n      0x00\n        /* \"--CODEGEN--\":27:28   */\n      dup1\n        /* \"--CODEGEN--\":20:32   */\n      revert\n        /* \"--CODEGEN--\":2:4   */\n    tag_51:\n        /* \"contracts/TenkStablePair.sol\":9279:9676  function swap(uint amount0Out, uint amount1Out, address to, bytes calldata data) external {\r... */\n      dup2\n      add\n      swap1\n      dup1\n      dup1\n      calldataload\n      swap1\n      0x20\n      add\n      swap1\n      swap3\n      swap2\n      swap1\n      dup1\n      calldataload\n      swap1\n      0x20\n      add\n      swap1\n      swap3\n      swap2\n      swap1\n      dup1\n      calldataload\n      0xffffffffffffffffffffffffffffffffffffffff\n      and\n      swap1\n      0x20\n      add\n      swap1\n      swap3\n      swap2\n      swap1\n      dup1\n      calldataload\n      swap1\n      0x20\n      add\n      swap1\n        /* \"--CODEGEN--\":21:32   */\n      0x0100000000\n        /* \"--CODEGEN--\":8:19   */\n      dup2\n        /* \"--CODEGEN--\":5:33   */\n      gt\n        /* \"--CODEGEN--\":2:4   */\n      iszero\n      tag_52\n      jumpi\n        /* \"--CODEGEN--\":46:47   */\n      0x00\n        /* \"--CODEGEN--\":43:44   */\n      dup1\n        /* \"--CODEGEN--\":36:48   */\n      revert\n        /* \"--CODEGEN--\":2:4   */\n    tag_52:\n        /* \"contracts/TenkStablePair.sol\":9279:9676  function swap(uint amount0Out, uint amount1Out, address to, bytes calldata data) external {\r... */\n      dup3\n      add\n        /* \"--CODEGEN--\":35:44   */\n      dup4\n        /* \"--CODEGEN--\":28:32   */\n      0x20\n        /* \"--CODEGEN--\":12:26   */\n      dup3\n        /* \"--CODEGEN--\":8:33   */\n      add\n        /* \"--CODEGEN--\":5:45   */\n      gt\n        /* \"--CODEGEN--\":2:4   */\n      iszero\n      tag_53\n      jumpi\n        /* \"--CODEGEN--\":58:59   */\n      0x00\n        /* \"--CODEGEN--\":55:56   */\n      dup1\n        /* \"--CODEGEN--\":48:60   */\n      revert\n        /* \"--CODEGEN--\":2:4   */\n    tag_53:\n        /* \"contracts/TenkStablePair.sol\":9279:9676  function swap(uint amount0Out, uint amount1Out, address to, bytes calldata data) external {\r... */\n      dup1\n      calldataload\n      swap1\n      0x20\n      add\n      swap2\n        /* \"--CODEGEN--\":100:109   */\n      dup5\n        /* \"--CODEGEN--\":95:96   */\n      0x01\n        /* \"--CODEGEN--\":81:93   */\n      dup4\n        /* \"--CODEGEN--\":77:97   */\n      mul\n        /* \"--CODEGEN--\":67:75   */\n      dup5\n        /* \"--CODEGEN--\":63:98   */\n      add\n        /* \"--CODEGEN--\":60:110   */\n      gt\n        /* \"--CODEGEN--\":39:50   */\n      0x0100000000\n        /* \"--CODEGEN--\":25:37   */\n      dup4\n        /* \"--CODEGEN--\":22:51   */\n      gt\n        /* \"--CODEGEN--\":11:118   */\n      or\n        /* \"--CODEGEN--\":8:10   */\n      iszero\n      tag_54\n      jumpi\n        /* \"--CODEGEN--\":131:132   */\n      0x00\n        /* \"--CODEGEN--\":128:129   */\n      dup1\n        /* \"--CODEGEN--\":121:133   */\n      revert\n        /* \"--CODEGEN--\":8:10   */\n    tag_54:\n        /* \"contracts/TenkStablePair.sol\":9279:9676  function swap(uint amount0Out, uint amount1Out, address to, bytes calldata data) external {\r... */\n      swap1\n      swap2\n      swap3\n      swap4\n      swap2\n      swap3\n      swap4\n      swap1\n      pop\n      pop\n      pop\n      tag_55\n      jump\t// in\n    tag_50:\n      stop\n        /* \"contracts/TenkERC20.sol\":177:219  string public constant name = 'Camelot LP' */\n    tag_4:\n      tag_56\n      tag_57\n      jump\t// in\n    tag_56:\n      mload(0x40)\n      dup1\n      dup1\n      0x20\n      add\n      dup3\n      dup2\n      sub\n      dup3\n      mstore\n      dup4\n      dup2\n      dup2\n      mload\n      dup2\n      mstore\n      0x20\n      add\n      swap2\n      pop\n      dup1\n      mload\n      swap1\n      0x20\n      add\n      swap1\n      dup1\n      dup4\n      dup4\n        /* \"--CODEGEN--\":23:24   */\n      0x00\n        /* \"--CODEGEN--\":8:108   */\n    tag_58:\n        /* \"--CODEGEN--\":33:36   */\n      dup4\n        /* \"--CODEGEN--\":30:31   */\n      dup2\n        /* \"--CODEGEN--\":27:37   */\n      lt\n        /* \"--CODEGEN--\":8:108   */\n      iszero\n      tag_60\n      jumpi\n        /* \"--CODEGEN--\":99:100   */\n      dup1\n        /* \"--CODEGEN--\":94:97   */\n      dup3\n        /* \"--CODEGEN--\":90:101   */\n      add\n        /* \"--CODEGEN--\":84:102   */\n      mload\n        /* \"--CODEGEN--\":80:81   */\n      dup2\n        /* \"--CODEGEN--\":75:78   */\n      dup5\n        /* \"--CODEGEN--\":71:82   */\n      add\n        /* \"--CODEGEN--\":64:103   */\n      mstore\n        /* \"--CODEGEN--\":52:54   */\n      0x20\n        /* \"--CODEGEN--\":49:50   */\n      dup2\n        /* \"--CODEGEN--\":45:55   */\n      add\n        /* \"--CODEGEN--\":40:55   */\n      swap1\n      pop\n        /* \"--CODEGEN--\":8:108   */\n      jump(tag_58)\n    tag_60:\n        /* \"--CODEGEN--\":12:26   */\n      pop\n        /* \"contracts/TenkERC20.sol\":177:219  string public constant name = 'Camelot LP' */\n      pop\n      pop\n      pop\n      swap1\n      pop\n      swap1\n      dup2\n      add\n      swap1\n      0x1f\n      and\n      dup1\n      iszero\n      tag_61\n      jumpi\n      dup1\n      dup3\n      sub\n      dup1\n      mload\n      0x01\n      dup4\n      0x20\n      sub\n      0x0100\n      exp\n      sub\n      not\n      and\n      dup2\n      mstore\n      0x20\n      add\n      swap2\n      pop\n    tag_61:\n      pop\n      swap3\n      pop\n      pop\n      pop\n      mload(0x40)\n      dup1\n      swap2\n      sub\n      swap1\n      return\n        /* \"contracts/TenkStablePair.sol\":1644:1924  function getReserves() public view returns (uint112 _reserve0, uint112 _reserve1, uint16 _token0FeePercent, uint16 _token1FeePercent) {\r... */\n    tag_5:\n      tag_62\n      tag_63\n      jump\t// in\n    tag_62:\n      mload(0x40)\n      dup1\n      dup6\n      0xffffffffffffffffffffffffffff\n      and\n      0xffffffffffffffffffffffffffff\n      and\n      dup2\n      mstore\n      0x20\n      add\n      dup5\n      0xffffffffffffffffffffffffffff\n      and\n      0xffffffffffffffffffffffffffff\n      and\n      dup2\n      mstore\n      0x20\n      add\n      dup4\n      0xffff\n      and\n      0xffff\n      and\n      dup2\n      mstore\n      0x20\n      add\n      dup3\n      0xffff\n      and\n      0xffff\n      and\n      dup2\n      mstore\n      0x20\n      add\n      swap5\n      pop\n      pop\n      pop\n      pop\n      pop\n      mload(0x40)\n      dup1\n      swap2\n      sub\n      swap1\n      return\n        /* \"contracts/TenkERC20.sol\":2225:2372  function approve(address spender, uint value) external returns (bool) {\r... */\n    tag_6:\n      tag_64\n      0x04\n      dup1\n      calldatasize\n      sub\n        /* \"--CODEGEN--\":13:15   */\n      0x40\n        /* \"--CODEGEN--\":8:11   */\n      dup2\n        /* \"--CODEGEN--\":5:16   */\n      lt\n        /* \"--CODEGEN--\":2:4   */\n      iszero\n      tag_65\n      jumpi\n        /* \"--CODEGEN--\":29:30   */\n      0x00\n        /* \"--CODEGEN--\":26:27   */\n      dup1\n        /* \"--CODEGEN--\":19:31   */\n      revert\n        /* \"--CODEGEN--\":2:4   */\n    tag_65:\n        /* \"contracts/TenkERC20.sol\":2225:2372  function approve(address spender, uint value) external returns (bool) {\r... */\n      dup2\n      add\n      swap1\n      dup1\n      dup1\n      calldataload\n      0xffffffffffffffffffffffffffffffffffffffff\n      and\n      swap1\n      0x20\n      add\n      swap1\n      swap3\n      swap2\n      swap1\n      dup1\n      calldataload\n      swap1\n      0x20\n      add\n      swap1\n      swap3\n      swap2\n      swap1\n      pop\n      pop\n      pop\n      tag_66\n      jump\t// in\n    tag_64:\n      mload(0x40)\n      dup1\n      dup3\n      iszero\n      iszero\n      iszero\n      iszero\n      dup2\n      mstore\n      0x20\n      add\n      swap2\n      pop\n      pop\n      mload(0x40)\n      dup1\n      swap2\n      sub\n      swap1\n      return\n        /* \"contracts/TenkStablePair.sol\":527:548  address public token0 */\n    tag_7:\n      tag_67\n      tag_68\n      jump\t// in\n    tag_67:\n      mload(0x40)\n      dup1\n      dup3\n      0xffffffffffffffffffffffffffffffffffffffff\n      and\n      0xffffffffffffffffffffffffffffffffffffffff\n      and\n      dup2\n      mstore\n      0x20\n      add\n      swap2\n      pop\n      pop\n      mload(0x40)\n      dup1\n      swap2\n      sub\n      swap1\n      return\n        /* \"contracts/TenkStablePair.sol\":581:604  bool public initialized */\n    tag_8:\n      tag_69\n      tag_70\n      jump\t// in\n    tag_69:\n      mload(0x40)\n      dup1\n      dup3\n      iszero\n      iszero\n      iszero\n      iszero\n      dup2\n      mstore\n      0x20\n      add\n      swap2\n      pop\n      pop\n      mload(0x40)\n      dup1\n      swap2\n      sub\n      swap1\n      return\n        /* \"contracts/TenkERC20.sol\":316:340  uint  public totalSupply */\n    tag_9:\n      tag_71\n      tag_72\n      jump\t// in\n    tag_71:\n      mload(0x40)\n      dup1\n      dup3\n      dup2\n      mstore\n      0x20\n      add\n      swap2\n      pop\n      pop\n      mload(0x40)\n      dup1\n      swap2\n      sub\n      swap1\n      return\n        /* \"contracts/TenkERC20.sol\":2527:2926  function transferFrom(address from, address to, uint value) external returns (bool) {\r... */\n    tag_10:\n      tag_73\n      0x04\n      dup1\n      calldatasize\n      sub\n        /* \"--CODEGEN--\":13:15   */\n      0x60\n        /* \"--CODEGEN--\":8:11   */\n      dup2\n        /* \"--CODEGEN--\":5:16   */\n      lt\n        /* \"--CODEGEN--\":2:4   */\n      iszero\n      tag_74\n      jumpi\n        /* \"--CODEGEN--\":29:30   */\n      0x00\n        /* \"--CODEGEN--\":26:27   */\n      dup1\n        /* \"--CODEGEN--\":19:31   */\n      revert\n        /* \"--CODEGEN--\":2:4   */\n    tag_74:\n        /* \"contracts/TenkERC20.sol\":2527:2926  function transferFrom(address from, address to, uint value) external returns (bool) {\r... */\n      dup2\n      add\n      swap1\n      dup1\n      dup1\n      calldataload\n      0xffffffffffffffffffffffffffffffffffffffff\n      and\n      swap1\n      0x20\n      add\n      swap1\n      swap3\n      swap2\n      swap1\n      dup1\n      calldataload\n      0xffffffffffffffffffffffffffffffffffffffff\n      and\n      swap1\n      0x20\n      add\n      swap1\n      swap3\n      swap2\n      swap1\n      dup1\n      calldataload\n      swap1\n      0x20\n      add\n      swap1\n      swap3\n      swap2\n      swap1\n      pop\n      pop\n      pop\n      tag_75\n      jump\t// in\n    tag_73:\n      mload(0x40)\n      dup1\n      dup3\n      iszero\n      iszero\n      iszero\n      iszero\n      dup2\n      mstore\n      0x20\n      add\n      swap2\n      pop\n      pop\n      mload(0x40)\n      dup1\n      swap2\n      sub\n      swap1\n      return\n        /* \"contracts/TenkStablePair.sol\":1180:1212  uint public precisionMultiplier1 */\n    tag_11:\n      tag_76\n      tag_77\n      jump\t// in\n    tag_76:\n      mload(0x40)\n      dup1\n      dup3\n      dup2\n      mstore\n      0x20\n      add\n      swap2\n      pop\n      pop\n      mload(0x40)\n      dup1\n      swap2\n      sub\n      swap1\n      return\n        /* \"contracts/TenkStablePair.sol\":1025:1061  uint16 public token1FeePercent = 300 */\n    tag_12:\n      tag_78\n      tag_79\n      jump\t// in\n    tag_78:\n      mload(0x40)\n      dup1\n      dup3\n      0xffff\n      and\n      0xffff\n      and\n      dup2\n      mstore\n      0x20\n      add\n      swap2\n      pop\n      pop\n      mload(0x40)\n      dup1\n      swap2\n      sub\n      swap1\n      return\n        /* \"contracts/TenkStablePair.sol\":4068:4682  function setStableSwap(bool stable, uint112 expectedReserve0, uint112 expectedReserve1) external lock {\r... */\n    tag_13:\n      tag_80\n      0x04\n      dup1\n      calldatasize\n      sub\n        /* \"--CODEGEN--\":13:15   */\n      0x60\n        /* \"--CODEGEN--\":8:11   */\n      dup2\n        /* \"--CODEGEN--\":5:16   */\n      lt\n        /* \"--CODEGEN--\":2:4   */\n      iszero\n      tag_81\n      jumpi\n        /* \"--CODEGEN--\":29:30   */\n      0x00\n        /* \"--CODEGEN--\":26:27   */\n      dup1\n        /* \"--CODEGEN--\":19:31   */\n      revert\n        /* \"--CODEGEN--\":2:4   */\n    tag_81:\n        /* \"contracts/TenkStablePair.sol\":4068:4682  function setStableSwap(bool stable, uint112 expectedReserve0, uint112 expectedReserve1) external lock {\r... */\n      dup2\n      add\n      swap1\n      dup1\n      dup1\n      calldataload\n      iszero\n      iszero\n      swap1\n      0x20\n      add\n      swap1\n      swap3\n      swap2\n      swap1\n      dup1\n      calldataload\n      0xffffffffffffffffffffffffffff\n      and\n      swap1\n      0x20\n      add\n      swap1\n      swap3\n      swap2\n      swap1\n      dup1\n      calldataload\n      0xffffffffffffffffffffffffffff\n      and\n      swap1\n      0x20\n      add\n      swap1\n      swap3\n      swap2\n      swap1\n      pop\n      pop\n      pop\n      tag_82\n      jump\t// in\n    tag_80:\n      stop\n        /* \"contracts/TenkERC20.sol\":608:716  bytes32 public constant PERMIT_TYPEHASH = 0x6e71edae12b1b97f4d1f60370fef10105fa2faae0126114a169c64845d6126c9 */\n    tag_14:\n      tag_83\n      tag_84\n      jump\t// in\n    tag_83:\n      mload(0x40)\n      dup1\n      dup3\n      dup2\n      mstore\n      0x20\n      add\n      swap2\n      pop\n      pop\n      mload(0x40)\n      dup1\n      swap2\n      sub\n      swap1\n      return\n        /* \"contracts/TenkERC20.sol\":274:309  uint8 public constant decimals = 18 */\n    tag_15:\n      tag_85\n      tag_86\n      jump\t// in\n    tag_85:\n      mload(0x40)\n      dup1\n      dup3\n      0xff\n      and\n      0xff\n      and\n      dup2\n      mstore\n      0x20\n      add\n      swap2\n      pop\n      pop\n      mload(0x40)\n      dup1\n      swap2\n      sub\n      swap1\n      return\n        /* \"contracts/TenkERC20.sol\":465:496  bytes32 public DOMAIN_SEPARATOR */\n    tag_16:\n      tag_87\n      tag_88\n      jump\t// in\n    tag_87:\n      mload(0x40)\n      dup1\n      dup3\n      dup2\n      mstore\n      0x20\n      add\n      swap2\n      pop\n      pop\n      mload(0x40)\n      dup1\n      swap2\n      sub\n      swap1\n      return\n        /* \"contracts/TenkStablePair.sol\":1143:1175  uint public precisionMultiplier0 */\n    tag_17:\n      tag_89\n      tag_90\n      jump\t// in\n    tag_89:\n      mload(0x40)\n      dup1\n      dup3\n      dup2\n      mstore\n      0x20\n      add\n      swap2\n      pop\n      pop\n      mload(0x40)\n      dup1\n      swap2\n      sub\n      swap1\n      return\n        /* \"contracts/TenkStablePair.sol\":4688:4960  function setPairTypeImmutable() external lock {\r... */\n    tag_18:\n      tag_91\n      tag_92\n      jump\t// in\n    tag_91:\n      stop\n        /* \"contracts/TenkStablePair.sol\":2940:3316  function initialize(address _token0, address _token1) external {\r... */\n    tag_19:\n      tag_93\n      0x04\n      dup1\n      calldatasize\n      sub\n        /* \"--CODEGEN--\":13:15   */\n      0x40\n        /* \"--CODEGEN--\":8:11   */\n      dup2\n        /* \"--CODEGEN--\":5:16   */\n      lt\n        /* \"--CODEGEN--\":2:4   */\n      iszero\n      tag_94\n      jumpi\n        /* \"--CODEGEN--\":29:30   */\n      0x00\n        /* \"--CODEGEN--\":26:27   */\n      dup1\n        /* \"--CODEGEN--\":19:31   */\n      revert\n        /* \"--CODEGEN--\":2:4   */\n    tag_94:\n        /* \"contracts/TenkStablePair.sol\":2940:3316  function initialize(address _token0, address _token1) external {\r... */\n      dup2\n      add\n      swap1\n      dup1\n      dup1\n      calldataload\n      0xffffffffffffffffffffffffffffffffffffffff\n      and\n      swap1\n      0x20\n      add\n      swap1\n      swap3\n      swap2\n      swap1\n      dup1\n      calldataload\n      0xffffffffffffffffffffffffffffffffffffffff\n      and\n      swap1\n      0x20\n      add\n      swap1\n      swap3\n      swap2\n      swap1\n      pop\n      pop\n      pop\n      tag_95\n      jump\t// in\n    tag_93:\n      stop\n        /* \"contracts/TenkStablePair.sol\":3436:4062  function setFeePercent(uint16 newToken0FeePercent, uint16 newToken1FeePercent) external lock {\r... */\n    tag_20:\n      tag_96\n      0x04\n      dup1\n      calldatasize\n      sub\n        /* \"--CODEGEN--\":13:15   */\n      0x40\n        /* \"--CODEGEN--\":8:11   */\n      dup2\n        /* \"--CODEGEN--\":5:16   */\n      lt\n        /* \"--CODEGEN--\":2:4   */\n      iszero\n      tag_97\n      jumpi\n        /* \"--CODEGEN--\":29:30   */\n      0x00\n        /* \"--CODEGEN--\":26:27   */\n      dup1\n        /* \"--CODEGEN--\":19:31   */\n      revert\n        /* \"--CODEGEN--\":2:4   */\n    tag_97:\n        /* \"contracts/TenkStablePair.sol\":3436:4062  function setFeePercent(uint16 newToken0FeePercent, uint16 newToken1FeePercent) external lock {\r... */\n      dup2\n      add\n      swap1\n      dup1\n      dup1\n      calldataload\n      0xffff\n      and\n      swap1\n      0x20\n      add\n      swap1\n      swap3\n      swap2\n      swap1\n      dup1\n      calldataload\n      0xffff\n      and\n      swap1\n      0x20\n      add\n      swap1\n      swap3\n      swap2\n      swap1\n      pop\n      pop\n      pop\n      tag_98\n      jump\t// in\n    tag_96:\n      stop\n        /* \"contracts/TenkStablePair.sol\":909:945  uint16 public token0FeePercent = 300 */\n    tag_21:\n      tag_99\n      tag_100\n      jump\t// in\n    tag_99:\n      mload(0x40)\n      dup1\n      dup3\n      0xffff\n      and\n      0xffff\n      and\n      dup2\n      mstore\n      0x20\n      add\n      swap2\n      pop\n      pop\n      mload(0x40)\n      dup1\n      swap2\n      sub\n      swap1\n      return\n        /* \"contracts/TenkStablePair.sol\":661:704  uint public constant MAX_FEE_PERCENT = 2000 */\n    tag_22:\n      tag_101\n      tag_102\n      jump\t// in\n    tag_101:\n      mload(0x40)\n      dup1\n      dup3\n      dup2\n      mstore\n      0x20\n      add\n      swap2\n      pop\n      pop\n      mload(0x40)\n      dup1\n      swap2\n      sub\n      swap1\n      return\n        /* \"contracts/TenkStablePair.sol\":6390:7552  function mint(address to) external lock returns (uint liquidity) {\r... */\n    tag_23:\n      tag_103\n      0x04\n      dup1\n      calldatasize\n      sub\n        /* \"--CODEGEN--\":13:15   */\n      0x20\n        /* \"--CODEGEN--\":8:11   */\n      dup2\n        /* \"--CODEGEN--\":5:16   */\n      lt\n        /* \"--CODEGEN--\":2:4   */\n      iszero\n      tag_104\n      jumpi\n        /* \"--CODEGEN--\":29:30   */\n      0x00\n        /* \"--CODEGEN--\":26:27   */\n      dup1\n        /* \"--CODEGEN--\":19:31   */\n      revert\n        /* \"--CODEGEN--\":2:4   */\n    tag_104:\n        /* \"contracts/TenkStablePair.sol\":6390:7552  function mint(address to) external lock returns (uint liquidity) {\r... */\n      dup2\n      add\n      swap1\n      dup1\n      dup1\n      calldataload\n      0xffffffffffffffffffffffffffffffffffffffff\n      and\n      swap1\n      0x20\n      add\n      swap1\n      swap3\n      swap2\n      swap1\n      pop\n      pop\n      pop\n      tag_105\n      jump\t// in\n    tag_103:\n      mload(0x40)\n      dup1\n      dup3\n      dup2\n      mstore\n      0x20\n      add\n      swap2\n      pop\n      pop\n      mload(0x40)\n      dup1\n      swap2\n      sub\n      swap1\n      return\n        /* \"contracts/TenkStablePair.sol\":9784:10197  function swap(uint amount0Out, uint amount1Out, address to, bytes calldata data, address referrer) external {\r... */\n    tag_24:\n      tag_106\n      0x04\n      dup1\n      calldatasize\n      sub\n        /* \"--CODEGEN--\":13:16   */\n      0xa0\n        /* \"--CODEGEN--\":8:11   */\n      dup2\n        /* \"--CODEGEN--\":5:17   */\n      lt\n        /* \"--CODEGEN--\":2:4   */\n      iszero\n      tag_107\n      jumpi\n        /* \"--CODEGEN--\":30:31   */\n      0x00\n        /* \"--CODEGEN--\":27:28   */\n      dup1\n        /* \"--CODEGEN--\":20:32   */\n      revert\n        /* \"--CODEGEN--\":2:4   */\n    tag_107:\n        /* \"contracts/TenkStablePair.sol\":9784:10197  function swap(uint amount0Out, uint amount1Out, address to, bytes calldata data, address referrer) external {\r... */\n      dup2\n      add\n      swap1\n      dup1\n      dup1\n      calldataload\n      swap1\n      0x20\n      add\n      swap1\n      swap3\n      swap2\n      swap1\n      dup1\n      calldataload\n      swap1\n      0x20\n      add\n      swap1\n      swap3\n      swap2\n      swap1\n      dup1\n      calldataload\n      0xffffffffffffffffffffffffffffffffffffffff\n      and\n      swap1\n      0x20\n      add\n      swap1\n      swap3\n      swap2\n      swap1\n      dup1\n      calldataload\n      swap1\n      0x20\n      add\n      swap1\n        /* \"--CODEGEN--\":21:32   */\n      0x0100000000\n        /* \"--CODEGEN--\":8:19   */\n      dup2\n        /* \"--CODEGEN--\":5:33   */\n      gt\n        /* \"--CODEGEN--\":2:4   */\n      iszero\n      tag_108\n      jumpi\n        /* \"--CODEGEN--\":46:47   */\n      0x00\n        /* \"--CODEGEN--\":43:44   */\n      dup1\n        /* \"--CODEGEN--\":36:48   */\n      revert\n        /* \"--CODEGEN--\":2:4   */\n    tag_108:\n        /* \"contracts/TenkStablePair.sol\":9784:10197  function swap(uint amount0Out, uint amount1Out, address to, bytes calldata data, address referrer) external {\r... */\n      dup3\n      add\n        /* \"--CODEGEN--\":35:44   */\n      dup4\n        /* \"--CODEGEN--\":28:32   */\n      0x20\n        /* \"--CODEGEN--\":12:26   */\n      dup3\n        /* \"--CODEGEN--\":8:33   */\n      add\n        /* \"--CODEGEN--\":5:45   */\n      gt\n        /* \"--CODEGEN--\":2:4   */\n      iszero\n      tag_109\n      jumpi\n        /* \"--CODEGEN--\":58:59   */\n      0x00\n        /* \"--CODEGEN--\":55:56   */\n      dup1\n        /* \"--CODEGEN--\":48:60   */\n      revert\n        /* \"--CODEGEN--\":2:4   */\n    tag_109:\n        /* \"contracts/TenkStablePair.sol\":9784:10197  function swap(uint amount0Out, uint amount1Out, address to, bytes calldata data, address referrer) external {\r... */\n      dup1\n      calldataload\n      swap1\n      0x20\n      add\n      swap2\n        /* \"--CODEGEN--\":100:109   */\n      dup5\n        /* \"--CODEGEN--\":95:96   */\n      0x01\n        /* \"--CODEGEN--\":81:93   */\n      dup4\n        /* \"--CODEGEN--\":77:97   */\n      mul\n        /* \"--CODEGEN--\":67:75   */\n      dup5\n        /* \"--CODEGEN--\":63:98   */\n      add\n        /* \"--CODEGEN--\":60:110   */\n      gt\n        /* \"--CODEGEN--\":39:50   */\n      0x0100000000\n        /* \"--CODEGEN--\":25:37   */\n      dup4\n        /* \"--CODEGEN--\":22:51   */\n      gt\n        /* \"--CODEGEN--\":11:118   */\n      or\n        /* \"--CODEGEN--\":8:10   */\n      iszero\n      tag_110\n      jumpi\n        /* \"--CODEGEN--\":131:132   */\n      0x00\n        /* \"--CODEGEN--\":128:129   */\n      dup1\n        /* \"--CODEGEN--\":121:133   */\n      revert\n        /* \"--CODEGEN--\":8:10   */\n    tag_110:\n        /* \"contracts/TenkStablePair.sol\":9784:10197  function swap(uint amount0Out, uint amount1Out, address to, bytes calldata data, address referrer) external {\r... */\n      swap1\n      swap2\n      swap3\n      swap4\n      swap2\n      swap3\n      swap4\n      swap1\n      dup1\n      calldataload\n      0xffffffffffffffffffffffffffffffffffffffff\n      and\n      swap1\n      0x20\n      add\n      swap1\n      swap3\n      swap2\n      swap1\n      pop\n      pop\n      pop\n      tag_111\n      jump\t// in\n    tag_106:\n      stop\n        /* \"contracts/TenkERC20.sol\":347:388  mapping(address => uint) public balanceOf */\n    tag_25:\n      tag_112\n      0x04\n      dup1\n      calldatasize\n      sub\n        /* \"--CODEGEN--\":13:15   */\n      0x20\n        /* \"--CODEGEN--\":8:11   */\n      dup2\n        /* \"--CODEGEN--\":5:16   */\n      lt\n        /* \"--CODEGEN--\":2:4   */\n      iszero\n      tag_113\n      jumpi\n        /* \"--CODEGEN--\":29:30   */\n      0x00\n        /* \"--CODEGEN--\":26:27   */\n      dup1\n        /* \"--CODEGEN--\":19:31   */\n      revert\n        /* \"--CODEGEN--\":2:4   */\n    tag_113:\n        /* \"contracts/TenkERC20.sol\":347:388  mapping(address => uint) public balanceOf */\n      dup2\n      add\n      swap1\n      dup1\n      dup1\n      calldataload\n      0xffffffffffffffffffffffffffffffffffffffff\n      and\n      swap1\n      0x20\n      add\n      swap1\n      swap3\n      swap2\n      swap1\n      pop\n      pop\n      pop\n      tag_114\n      jump\t// in\n    tag_112:\n      mload(0x40)\n      dup1\n      dup3\n      dup2\n      mstore\n      0x20\n      add\n      swap2\n      pop\n      pop\n      mload(0x40)\n      dup1\n      swap2\n      sub\n      swap1\n      return\n        /* \"contracts/TenkStablePair.sol\":1219:1236  uint public kLast */\n    tag_26:\n      tag_115\n      tag_116\n      jump\t// in\n    tag_115:\n      mload(0x40)\n      dup1\n      dup3\n      dup2\n      mstore\n      0x20\n      add\n      swap2\n      pop\n      pop\n      mload(0x40)\n      dup1\n      swap2\n      sub\n      swap1\n      return\n        /* \"contracts/TenkERC20.sol\":723:761  mapping(address => uint) public nonces */\n    tag_27:\n      tag_117\n      0x04\n      dup1\n      calldatasize\n      sub\n        /* \"--CODEGEN--\":13:15   */\n      0x20\n        /* \"--CODEGEN--\":8:11   */\n      dup2\n        /* \"--CODEGEN--\":5:16   */\n      lt\n        /* \"--CODEGEN--\":2:4   */\n      iszero\n      tag_118\n      jumpi\n        /* \"--CODEGEN--\":29:30   */\n      0x00\n        /* \"--CODEGEN--\":26:27   */\n      dup1\n        /* \"--CODEGEN--\":19:31   */\n      revert\n        /* \"--CODEGEN--\":2:4   */\n    tag_118:\n        /* \"contracts/TenkERC20.sol\":723:761  mapping(address => uint) public nonces */\n      dup2\n      add\n      swap1\n      dup1\n      dup1\n      calldataload\n      0xffffffffffffffffffffffffffffffffffffffff\n      and\n      swap1\n      0x20\n      add\n      swap1\n      swap3\n      swap2\n      swap1\n      pop\n      pop\n      pop\n      tag_119\n      jump\t// in\n    tag_117:\n      mload(0x40)\n      dup1\n      dup3\n      dup2\n      mstore\n      0x20\n      add\n      swap2\n      pop\n      pop\n      mload(0x40)\n      dup1\n      swap2\n      sub\n      swap1\n      return\n        /* \"contracts/TenkStablePair.sol\":7660:8965  function burn(address to) external lock returns (uint amount0, uint amount1) {\r... */\n    tag_28:\n      tag_120\n      0x04\n      dup1\n      calldatasize\n      sub\n        /* \"--CODEGEN--\":13:15   */\n      0x20\n        /* \"--CODEGEN--\":8:11   */\n      dup2\n        /* \"--CODEGEN--\":5:16   */\n      lt\n        /* \"--CODEGEN--\":2:4   */\n      iszero\n      tag_121\n      jumpi\n        /* \"--CODEGEN--\":29:30   */\n      0x00\n        /* \"--CODEGEN--\":26:27   */\n      dup1\n        /* \"--CODEGEN--\":19:31   */\n      revert\n        /* \"--CODEGEN--\":2:4   */\n    tag_121:\n        /* \"contracts/TenkStablePair.sol\":7660:8965  function burn(address to) external lock returns (uint amount0, uint amount1) {\r... */\n      dup2\n      add\n      swap1\n      dup1\n      dup1\n      calldataload\n      0xffffffffffffffffffffffffffffffffffffffff\n      and\n      swap1\n      0x20\n      add\n      swap1\n      swap3\n      swap2\n      swap1\n      pop\n      pop\n      pop\n      tag_122\n      jump\t// in\n    tag_120:\n      mload(0x40)\n      dup1\n      dup4\n      dup2\n      mstore\n      0x20\n      add\n      dup3\n      dup2\n      mstore\n      0x20\n      add\n      swap3\n      pop\n      pop\n      pop\n      mload(0x40)\n      dup1\n      swap2\n      sub\n      swap1\n      return\n        /* \"contracts/TenkERC20.sol\":226:267  string public constant symbol = 'CMLT-LP' */\n    tag_29:\n      tag_123\n      tag_124\n      jump\t// in\n    tag_123:\n      mload(0x40)\n      dup1\n      dup1\n      0x20\n      add\n      dup3\n      dup2\n      sub\n      dup3\n      mstore\n      dup4\n      dup2\n      dup2\n      mload\n      dup2\n      mstore\n      0x20\n      add\n      swap2\n      pop\n      dup1\n      mload\n      swap1\n      0x20\n      add\n      swap1\n      dup1\n      dup4\n      dup4\n        /* \"--CODEGEN--\":23:24   */\n      0x00\n        /* \"--CODEGEN--\":8:108   */\n    tag_125:\n        /* \"--CODEGEN--\":33:36   */\n      dup4\n        /* \"--CODEGEN--\":30:31   */\n      dup2\n        /* \"--CODEGEN--\":27:37   */\n      lt\n        /* \"--CODEGEN--\":8:108   */\n      iszero\n      tag_127\n      jumpi\n        /* \"--CODEGEN--\":99:100   */\n      dup1\n        /* \"--CODEGEN--\":94:97   */\n      dup3\n        /* \"--CODEGEN--\":90:101   */\n      add\n        /* \"--CODEGEN--\":84:102   */\n      mload\n        /* \"--CODEGEN--\":80:81   */\n      dup2\n        /* \"--CODEGEN--\":75:78   */\n      dup5\n        /* \"--CODEGEN--\":71:82   */\n      add\n        /* \"--CODEGEN--\":64:103   */\n      mstore\n        /* \"--CODEGEN--\":52:54   */\n      0x20\n        /* \"--CODEGEN--\":49:50   */\n      dup2\n        /* \"--CODEGEN--\":45:55   */\n      add\n        /* \"--CODEGEN--\":40:55   */\n      swap1\n      pop\n        /* \"--CODEGEN--\":8:108   */\n      jump(tag_125)\n    tag_127:\n        /* \"--CODEGEN--\":12:26   */\n      pop\n        /* \"contracts/TenkERC20.sol\":226:267  string public constant symbol = 'CMLT-LP' */\n      pop\n      pop\n      pop\n      swap1\n      pop\n      swap1\n      dup2\n      add\n      swap1\n      0x1f\n      and\n      dup1\n      iszero\n      tag_128\n      jumpi\n      dup1\n      dup3\n      sub\n      dup1\n      mload\n      0x01\n      dup4\n      0x20\n      sub\n      0x0100\n      exp\n      sub\n      not\n      and\n      dup2\n      mstore\n      0x20\n      add\n      swap2\n      pop\n    tag_128:\n      pop\n      swap3\n      pop\n      pop\n      pop\n      mload(0x40)\n      dup1\n      swap2\n      sub\n      swap1\n      return\n        /* \"contracts/TenkStablePair.sol\":1323:1345  bool public stableSwap */\n    tag_30:\n      tag_129\n      tag_130\n      jump\t// in\n    tag_129:\n      mload(0x40)\n      dup1\n      dup3\n      iszero\n      iszero\n      iszero\n      iszero\n      dup2\n      mstore\n      0x20\n      add\n      swap2\n      pop\n      pop\n      mload(0x40)\n      dup1\n      swap2\n      sub\n      swap1\n      return\n        /* \"contracts/TenkERC20.sol\":2380:2519  function transfer(address to, uint value) external returns (bool) {\r... */\n    tag_31:\n      tag_131\n      0x04\n      dup1\n      calldatasize\n      sub\n        /* \"--CODEGEN--\":13:15   */\n      0x40\n        /* \"--CODEGEN--\":8:11   */\n      dup2\n        /* \"--CODEGEN--\":5:16   */\n      lt\n        /* \"--CODEGEN--\":2:4   */\n      iszero\n      tag_132\n      jumpi\n        /* \"--CODEGEN--\":29:30   */\n      0x00\n        /* \"--CODEGEN--\":26:27   */\n      dup1\n        /* \"--CODEGEN--\":19:31   */\n      revert\n        /* \"--CODEGEN--\":2:4   */\n    tag_132:\n        /* \"contracts/TenkERC20.sol\":2380:2519  function transfer(address to, uint value) external returns (bool) {\r... */\n      dup2\n      add\n      swap1\n      dup1\n      dup1\n      calldataload\n      0xffffffffffffffffffffffffffffffffffffffff\n      and\n      swap1\n      0x20\n      add\n      swap1\n      swap3\n      swap2\n      swap1\n      dup1\n      calldataload\n      swap1\n      0x20\n      add\n      swap1\n      swap3\n      swap2\n      swap1\n      pop\n      pop\n      pop\n      tag_133\n      jump\t// in\n    tag_131:\n      mload(0x40)\n      dup1\n      dup3\n      iszero\n      iszero\n      iszero\n      iszero\n      dup2\n      mstore\n      0x20\n      add\n      swap2\n      pop\n      pop\n      mload(0x40)\n      dup1\n      swap2\n      sub\n      swap1\n      return\n        /* \"contracts/TenkStablePair.sol\":1397:1426  bool public pairTypeImmutable */\n    tag_32:\n      tag_134\n      tag_135\n      jump\t// in\n    tag_134:\n      mload(0x40)\n      dup1\n      dup3\n      iszero\n      iszero\n      iszero\n      iszero\n      dup2\n      mstore\n      0x20\n      add\n      swap2\n      pop\n      pop\n      mload(0x40)\n      dup1\n      swap2\n      sub\n      swap1\n      return\n        /* \"contracts/TenkStablePair.sol\":352:400  uint public constant MINIMUM_LIQUIDITY = 10 ** 3 */\n    tag_33:\n      tag_136\n      tag_137\n      jump\t// in\n    tag_136:\n      mload(0x40)\n      dup1\n      dup3\n      dup2\n      mstore\n      0x20\n      add\n      swap2\n      pop\n      pop\n      mload(0x40)\n      dup1\n      swap2\n      sub\n      swap1\n      return\n        /* \"contracts/TenkStablePair.sol\":16932:17276  function skim(address to) external lock {\r... */\n    tag_34:\n      tag_138\n      0x04\n      dup1\n      calldatasize\n      sub\n        /* \"--CODEGEN--\":13:15   */\n      0x20\n        /* \"--CODEGEN--\":8:11   */\n      dup2\n        /* \"--CODEGEN--\":5:16   */\n      lt\n        /* \"--CODEGEN--\":2:4   */\n      iszero\n      tag_139\n      jumpi\n        /* \"--CODEGEN--\":29:30   */\n      0x00\n        /* \"--CODEGEN--\":26:27   */\n      dup1\n        /* \"--CODEGEN--\":19:31   */\n      revert\n        /* \"--CODEGEN--\":2:4   */\n    tag_139:\n        /* \"contracts/TenkStablePair.sol\":16932:17276  function skim(address to) external lock {\r... */\n      dup2\n      add\n      swap1\n      dup1\n      dup1\n      calldataload\n      0xffffffffffffffffffffffffffffffffffffffff\n      and\n      swap1\n      0x20\n      add\n      swap1\n      swap3\n      swap2\n      swap1\n      pop\n      pop\n      pop\n      tag_140\n      jump\t// in\n    tag_138:\n      stop\n        /* \"contracts/TenkStablePair.sol\":500:522  address public factory */\n    tag_35:\n      tag_141\n      tag_142\n      jump\t// in\n    tag_141:\n      mload(0x40)\n      dup1\n      dup3\n      0xffffffffffffffffffffffffffffffffffffffff\n      and\n      0xffffffffffffffffffffffffffffffffffffffff\n      and\n      dup2\n      mstore\n      0x20\n      add\n      swap2\n      pop\n      pop\n      mload(0x40)\n      dup1\n      swap2\n      sub\n      swap1\n      return\n        /* \"contracts/TenkStablePair.sol\":553:574  address public token1 */\n    tag_36:\n      tag_143\n      tag_144\n      jump\t// in\n    tag_143:\n      mload(0x40)\n      dup1\n      dup3\n      0xffffffffffffffffffffffffffffffffffffffff\n      and\n      0xffffffffffffffffffffffffffffffffffffffff\n      and\n      dup2\n      mstore\n      0x20\n      add\n      swap2\n      pop\n      pop\n      mload(0x40)\n      dup1\n      swap2\n      sub\n      swap1\n      return\n        /* \"contracts/TenkERC20.sol\":2934:3608  function permit(address owner, address spender, uint value, uint deadline, uint8 v, bytes32 r, bytes32 s) external {\r... */\n    tag_37:\n      tag_145\n      0x04\n      dup1\n      calldatasize\n      sub\n        /* \"--CODEGEN--\":13:16   */\n      0xe0\n        /* \"--CODEGEN--\":8:11   */\n      dup2\n        /* \"--CODEGEN--\":5:17   */\n      lt\n        /* \"--CODEGEN--\":2:4   */\n      iszero\n      tag_146\n      jumpi\n        /* \"--CODEGEN--\":30:31   */\n      0x00\n        /* \"--CODEGEN--\":27:28   */\n      dup1\n        /* \"--CODEGEN--\":20:32   */\n      revert\n        /* \"--CODEGEN--\":2:4   */\n    tag_146:\n        /* \"contracts/TenkERC20.sol\":2934:3608  function permit(address owner, address spender, uint value, uint deadline, uint8 v, bytes32 r, bytes32 s) external {\r... */\n      dup2\n      add\n      swap1\n      dup1\n      dup1\n      calldataload\n      0xffffffffffffffffffffffffffffffffffffffff\n      and\n      swap1\n      0x20\n      add\n      swap1\n      swap3\n      swap2\n      swap1\n      dup1\n      calldataload\n      0xffffffffffffffffffffffffffffffffffffffff\n      and\n      swap1\n      0x20\n      add\n      swap1\n      swap3\n      swap2\n      swap1\n      dup1\n      calldataload\n      swap1\n      0x20\n      add\n      swap1\n      swap3\n      swap2\n      swap1\n      dup1\n      calldataload\n      swap1\n      0x20\n      add\n      swap1\n      swap3\n      swap2\n      swap1\n      dup1\n      calldataload\n      0xff\n      and\n      swap1\n      0x20\n      add\n      swap1\n      swap3\n      swap2\n      swap1\n      dup1\n      calldataload\n      swap1\n      0x20\n      add\n      swap1\n      swap3\n      swap2\n      swap1\n      dup1\n      calldataload\n      swap1\n      0x20\n      add\n      swap1\n      swap3\n      swap2\n      swap1\n      pop\n      pop\n      pop\n      tag_147\n      jump\t// in\n    tag_145:\n      stop\n        /* \"contracts/TenkStablePair.sol\":611:656  uint public constant FEE_DENOMINATOR = 100000 */\n    tag_38:\n      tag_148\n      tag_149\n      jump\t// in\n    tag_148:\n      mload(0x40)\n      dup1\n      dup3\n      dup2\n      mstore\n      0x20\n      add\n      swap2\n      pop\n      pop\n      mload(0x40)\n      dup1\n      swap2\n      sub\n      swap1\n      return\n        /* \"contracts/TenkERC20.sol\":395:456  mapping(address => mapping(address => uint)) public allowance */\n    tag_39:\n      tag_150\n      0x04\n      dup1\n      calldatasize\n      sub\n        /* \"--CODEGEN--\":13:15   */\n      0x40\n        /* \"--CODEGEN--\":8:11   */\n      dup2\n        /* \"--CODEGEN--\":5:16   */\n      lt\n        /* \"--CODEGEN--\":2:4   */\n      iszero\n      tag_151\n      jumpi\n        /* \"--CODEGEN--\":29:30   */\n      0x00\n        /* \"--CODEGEN--\":26:27   */\n      dup1\n        /* \"--CODEGEN--\":19:31   */\n      revert\n        /* \"--CODEGEN--\":2:4   */\n    tag_151:\n        /* \"contracts/TenkERC20.sol\":395:456  mapping(address => mapping(address => uint)) public allowance */\n      dup2\n      add\n      swap1\n      dup1\n      dup1\n      calldataload\n      0xffffffffffffffffffffffffffffffffffffffff\n      and\n      swap1\n      0x20\n      add\n      swap1\n      swap3\n      swap2\n      swap1\n      dup1\n      calldataload\n      0xffffffffffffffffffffffffffffffffffffffff\n      and\n      swap1\n      0x20\n      add\n      swap1\n      swap3\n      swap2\n      swap1\n      pop\n      pop\n      pop\n      tag_152\n      jump\t// in\n    tag_150:\n      mload(0x40)\n      dup1\n      dup3\n      dup2\n      mstore\n      0x20\n      add\n      swap2\n      pop\n      pop\n      mload(0x40)\n      dup1\n      swap2\n      sub\n      swap1\n      return\n        /* \"contracts/TenkStablePair.sol\":15507:15768  function getAmountOut(uint amountIn, address tokenIn) external view returns (uint) {\r... */\n    tag_40:\n      tag_153\n      0x04\n      dup1\n      calldatasize\n      sub\n        /* \"--CODEGEN--\":13:15   */\n      0x40\n        /* \"--CODEGEN--\":8:11   */\n      dup2\n        /* \"--CODEGEN--\":5:16   */\n      lt\n        /* \"--CODEGEN--\":2:4   */\n      iszero\n      tag_154\n      jumpi\n        /* \"--CODEGEN--\":29:30   */\n      0x00\n        /* \"--CODEGEN--\":26:27   */\n      dup1\n        /* \"--CODEGEN--\":19:31   */\n      revert\n        /* \"--CODEGEN--\":2:4   */\n    tag_154:\n        /* \"contracts/TenkStablePair.sol\":15507:15768  function getAmountOut(uint amountIn, address tokenIn) external view returns (uint) {\r... */\n      dup2\n      add\n      swap1\n      dup1\n      dup1\n      calldataload\n      swap1\n      0x20\n      add\n      swap1\n      swap3\n      swap2\n      swap1\n      dup1\n      calldataload\n      0xffffffffffffffffffffffffffffffffffffffff\n      and\n      swap1\n      0x20\n      add\n      swap1\n      swap3\n      swap2\n      swap1\n      pop\n      pop\n      pop\n      tag_155\n      jump\t// in\n    tag_153:\n      mload(0x40)\n      dup1\n      dup3\n      dup2\n      mstore\n      0x20\n      add\n      swap2\n      pop\n      pop\n      mload(0x40)\n      dup1\n      swap2\n      sub\n      swap1\n      return\n        /* \"contracts/TenkStablePair.sol\":17752:18098  function drainWrongToken(address token, address to) external lock {\r... */\n    tag_41:\n      tag_156\n      0x04\n      dup1\n      calldatasize\n      sub\n        /* \"--CODEGEN--\":13:15   */\n      0x40\n        /* \"--CODEGEN--\":8:11   */\n      dup2\n        /* \"--CODEGEN--\":5:16   */\n      lt\n        /* \"--CODEGEN--\":2:4   */\n      iszero\n      tag_157\n      jumpi\n        /* \"--CODEGEN--\":29:30   */\n      0x00\n        /* \"--CODEGEN--\":26:27   */\n      dup1\n        /* \"--CODEGEN--\":19:31   */\n      revert\n        /* \"--CODEGEN--\":2:4   */\n    tag_157:\n        /* \"contracts/TenkStablePair.sol\":17752:18098  function drainWrongToken(address token, address to) external lock {\r... */\n      dup2\n      add\n      swap1\n      dup1\n      dup1\n      calldataload\n      0xffffffffffffffffffffffffffffffffffffffff\n      and\n      swap1\n      0x20\n      add\n      swap1\n      swap3\n      swap2\n      swap1\n      dup1\n      calldataload\n      0xffffffffffffffffffffffffffffffffffffffff\n      and\n      swap1\n      0x20\n      add\n      swap1\n      swap3\n      swap2\n      swap1\n      pop\n      pop\n      pop\n      tag_158\n      jump\t// in\n    tag_156:\n      stop\n        /* \"contracts/TenkStablePair.sol\":17321:17631  function sync() external lock {\r... */\n    tag_42:\n      tag_159\n      tag_160\n      jump\t// in\n    tag_159:\n      stop\n        /* \"contracts/TenkStablePair.sol\":9279:9676  function swap(uint amount0Out, uint amount1Out, address to, bytes calldata data) external {\r... */\n    tag_55:\n        /* \"contracts/TenkStablePair.sol\":9376:9404  TokensData memory tokensData */\n      tag_162\n      tag_163\n      jump\t// in\n    tag_162:\n        /* \"contracts/TenkStablePair.sol\":9407:9624  TokensData({\r... */\n      mload(0x40)\n      dup1\n      0x0100\n      add\n      0x40\n      mstore\n      dup1\n        /* \"contracts/TenkStablePair.sol\":9435:9441  token0 */\n      0x06\n      0x00\n      swap1\n      sload\n      swap1\n      0x0100\n      exp\n      swap1\n      div\n      0xffffffffffffffffffffffffffffffffffffffff\n      and\n        /* \"contracts/TenkStablePair.sol\":9407:9624  TokensData({\r... */\n      0xffffffffffffffffffffffffffffffffffffffff\n      and\n      dup2\n      mstore\n      0x20\n      add\n        /* \"contracts/TenkStablePair.sol\":9458:9464  token1 */\n      0x07\n      0x00\n      swap1\n      sload\n      swap1\n      0x0100\n      exp\n      swap1\n      div\n      0xffffffffffffffffffffffffffffffffffffffff\n      and\n        /* \"contracts/TenkStablePair.sol\":9407:9624  TokensData({\r... */\n      0xffffffffffffffffffffffffffffffffffffffff\n      and\n      dup2\n      mstore\n      0x20\n      add\n        /* \"contracts/TenkStablePair.sol\":9485:9495  amount0Out */\n      dup8\n        /* \"contracts/TenkStablePair.sol\":9407:9624  TokensData({\r... */\n      dup2\n      mstore\n      0x20\n      add\n        /* \"contracts/TenkStablePair.sol\":9516:9526  amount1Out */\n      dup7\n        /* \"contracts/TenkStablePair.sol\":9407:9624  TokensData({\r... */\n      dup2\n      mstore\n      0x20\n      add\n        /* \"contracts/TenkStablePair.sol\":9545:9546  0 */\n      0x00\n        /* \"contracts/TenkStablePair.sol\":9407:9624  TokensData({\r... */\n      dup2\n      mstore\n      0x20\n      add\n        /* \"contracts/TenkStablePair.sol\":9565:9566  0 */\n      0x00\n        /* \"contracts/TenkStablePair.sol\":9407:9624  TokensData({\r... */\n      dup2\n      mstore\n      0x20\n      add\n        /* \"contracts/TenkStablePair.sol\":9590:9591  0 */\n      0x00\n        /* \"contracts/TenkStablePair.sol\":9407:9624  TokensData({\r... */\n      dup2\n      mstore\n      0x20\n      add\n        /* \"contracts/TenkStablePair.sol\":9615:9616  0 */\n      0x00\n        /* \"contracts/TenkStablePair.sol\":9407:9624  TokensData({\r... */\n      dup2\n      mstore\n      pop\n        /* \"contracts/TenkStablePair.sol\":9376:9624  TokensData memory tokensData = TokensData({\r... */\n      swap1\n      pop\n        /* \"contracts/TenkStablePair.sol\":9631:9670  _swap(tokensData, to, data, address(0)) */\n      tag_164\n        /* \"contracts/TenkStablePair.sol\":9637:9647  tokensData */\n      dup2\n        /* \"contracts/TenkStablePair.sol\":9649:9651  to */\n      dup6\n        /* \"contracts/TenkStablePair.sol\":9653:9657  data */\n      dup6\n      dup6\n        /* \"contracts/TenkStablePair.sol\":9631:9670  _swap(tokensData, to, data, address(0)) */\n      dup1\n      dup1\n      0x1f\n      add\n      0x20\n      dup1\n      swap2\n      div\n      mul\n      0x20\n      add\n      mload(0x40)\n      swap1\n      dup2\n      add\n      0x40\n      mstore\n      dup1\n      swap4\n      swap3\n      swap2\n      swap1\n      dup2\n      dup2\n      mstore\n      0x20\n      add\n      dup4\n      dup4\n        /* \"--CODEGEN--\":30:33   */\n      dup1\n        /* \"--CODEGEN--\":22:28   */\n      dup3\n        /* \"--CODEGEN--\":14:20   */\n      dup5\n        /* \"--CODEGEN--\":1:34   */\n      calldatacopy\n        /* \"--CODEGEN--\":99:100   */\n      0x00\n        /* \"--CODEGEN--\":93:96   */\n      dup2\n        /* \"--CODEGEN--\":85:91   */\n      dup5\n        /* \"--CODEGEN--\":81:97   */\n      add\n        /* \"--CODEGEN--\":74:101   */\n      mstore\n        /* \"--CODEGEN--\":137:141   */\n      0x1f\n        /* \"--CODEGEN--\":133:142   */\n      not\n        /* \"--CODEGEN--\":126:130   */\n      0x1f\n        /* \"--CODEGEN--\":121:124   */\n      dup3\n        /* \"--CODEGEN--\":117:131   */\n      add\n        /* \"--CODEGEN--\":113:143   */\n      and\n        /* \"--CODEGEN--\":106:143   */\n      swap1\n      pop\n        /* \"--CODEGEN--\":169:172   */\n      dup1\n        /* \"--CODEGEN--\":161:167   */\n      dup4\n        /* \"--CODEGEN--\":157:173   */\n      add\n        /* \"--CODEGEN--\":147:173   */\n      swap3\n      pop\n        /* \"contracts/TenkStablePair.sol\":9631:9670  _swap(tokensData, to, data, address(0)) */\n      pop\n      pop\n      pop\n      pop\n      pop\n      pop\n        /* \"contracts/TenkStablePair.sol\":9667:9668  0 */\n      0x00\n        /* \"contracts/TenkStablePair.sol\":9631:9636  _swap */\n      tag_165\n        /* \"contracts/TenkStablePair.sol\":9631:9670  _swap(tokensData, to, data, address(0)) */\n      jump\t// in\n    tag_164:\n        /* \"contracts/TenkStablePair.sol\":9279:9676  function swap(uint amount0Out, uint amount1Out, address to, bytes calldata data) external {\r... */\n      pop\n      pop\n      pop\n      pop\n      pop\n      pop\n      jump\t// out\n        /* \"contracts/TenkERC20.sol\":177:219  string public constant name = 'Camelot LP' */\n    tag_57:\n      mload(0x40)\n      dup1\n      0x40\n      add\n      0x40\n      mstore\n      dup1\n      0x0a\n      dup2\n      mstore\n      0x20\n      add\n      0x43616d656c6f74204c5000000000000000000000000000000000000000000000\n      dup2\n      mstore\n      pop\n      dup2\n      jump\t// out\n        /* \"contracts/TenkStablePair.sol\":1644:1924  function getReserves() public view returns (uint112 _reserve0, uint112 _reserve1, uint16 _token0FeePercent, uint16 _token1FeePercent) {\r... */\n    tag_63:\n        /* \"contracts/TenkStablePair.sol\":1688:1705  uint112 _reserve0 */\n      0x00\n        /* \"contracts/TenkStablePair.sol\":1707:1724  uint112 _reserve1 */\n      dup1\n        /* \"contracts/TenkStablePair.sol\":1726:1750  uint16 _token0FeePercent */\n      0x00\n        /* \"contracts/TenkStablePair.sol\":1752:1776  uint16 _token1FeePercent */\n      dup1\n        /* \"contracts/TenkStablePair.sol\":1797:1805  reserve0 */\n      0x08\n      0x00\n      swap1\n      sload\n      swap1\n      0x0100\n      exp\n      swap1\n      div\n      0xffffffffffffffffffffffffffff\n      and\n        /* \"contracts/TenkStablePair.sol\":1785:1805  _reserve0 = reserve0 */\n      swap4\n      pop\n        /* \"contracts/TenkStablePair.sol\":1824:1832  reserve1 */\n      0x08\n      0x0e\n      swap1\n      sload\n      swap1\n      0x0100\n      exp\n      swap1\n      div\n      0xffffffffffffffffffffffffffff\n      and\n        /* \"contracts/TenkStablePair.sol\":1812:1832  _reserve1 = reserve1 */\n      swap3\n      pop\n        /* \"contracts/TenkStablePair.sol\":1859:1875  token0FeePercent */\n      0x08\n      0x1c\n      swap1\n      sload\n      swap1\n      0x0100\n      exp\n      swap1\n      div\n      0xffff\n      and\n        /* \"contracts/TenkStablePair.sol\":1839:1875  _token0FeePercent = token0FeePercent */\n      swap2\n      pop\n        /* \"contracts/TenkStablePair.sol\":1902:1918  token1FeePercent */\n      0x08\n      0x1e\n      swap1\n      sload\n      swap1\n      0x0100\n      exp\n      swap1\n      div\n      0xffff\n      and\n        /* \"contracts/TenkStablePair.sol\":1882:1918  _token1FeePercent = token1FeePercent */\n      swap1\n      pop\n        /* \"contracts/TenkStablePair.sol\":1644:1924  function getReserves() public view returns (uint112 _reserve0, uint112 _reserve1, uint16 _token0FeePercent, uint16 _token1FeePercent) {\r... */\n      swap1\n      swap2\n      swap3\n      swap4\n      jump\t// out\n        /* \"contracts/TenkERC20.sol\":2225:2372  function approve(address spender, uint value) external returns (bool) {\r... */\n    tag_66:\n        /* \"contracts/TenkERC20.sol\":2289:2293  bool */\n      0x00\n        /* \"contracts/TenkERC20.sol\":2306:2342  _approve(msg.sender, spender, value) */\n      tag_168\n        /* \"contracts/TenkERC20.sol\":2315:2325  msg.sender */\n      caller\n        /* \"contracts/TenkERC20.sol\":2327:2334  spender */\n      dup5\n        /* \"contracts/TenkERC20.sol\":2336:2341  value */\n      dup5\n        /* \"contracts/TenkERC20.sol\":2306:2314  _approve */\n      tag_169\n        /* \"contracts/TenkERC20.sol\":2306:2342  _approve(msg.sender, spender, value) */\n      jump\t// in\n    tag_168:\n        /* \"contracts/TenkERC20.sol\":2360:2364  true */\n      0x01\n        /* \"contracts/TenkERC20.sol\":2353:2364  return true */\n      swap1\n      pop\n        /* \"contracts/TenkERC20.sol\":2225:2372  function approve(address spender, uint value) external returns (bool) {\r... */\n      swap3\n      swap2\n      pop\n      pop\n      jump\t// out\n        /* \"contracts/TenkStablePair.sol\":527:548  address public token0 */\n    tag_68:\n      0x06\n      0x00\n      swap1\n      sload\n      swap1\n      0x0100\n      exp\n      swap1\n      div\n      0xffffffffffffffffffffffffffffffffffffffff\n      and\n      dup2\n      jump\t// out\n        /* \"contracts/TenkStablePair.sol\":581:604  bool public initialized */\n    tag_70:\n      0x07\n      0x14\n      swap1\n      sload\n      swap1\n      0x0100\n      exp\n      swap1\n      div\n      0xff\n      and\n      dup2\n      jump\t// out\n        /* \"contracts/TenkERC20.sol\":316:340  uint  public totalSupply */\n    tag_72:\n      sload(0x00)\n      dup2\n      jump\t// out\n        /* \"contracts/TenkERC20.sol\":2527:2926  function transferFrom(address from, address to, uint value) external returns (bool) {\r... */\n    tag_75:\n        /* \"contracts/TenkERC20.sol\":2605:2609  bool */\n      0x00\n        /* \"contracts/TenkERC20.sol\":2662:2664  -1 */\n      0xffffffffffffffffffffffffffffffffffffffffffffffffffffffffffffffff\n        /* \"contracts/TenkERC20.sol\":2626:2635  allowance */\n      0x02\n        /* \"contracts/TenkERC20.sol\":2626:2641  allowance[from] */\n      0x00\n        /* \"contracts/TenkERC20.sol\":2636:2640  from */\n      dup7\n        /* \"contracts/TenkERC20.sol\":2626:2641  allowance[from] */\n      0xffffffffffffffffffffffffffffffffffffffff\n      and\n      0xffffffffffffffffffffffffffffffffffffffff\n      and\n      dup2\n      mstore\n      0x20\n      add\n      swap1\n      dup2\n      mstore\n      0x20\n      add\n      0x00\n      keccak256\n        /* \"contracts/TenkERC20.sol\":2626:2653  allowance[from][msg.sender] */\n      0x00\n        /* \"contracts/TenkERC20.sol\":2642:2652  msg.sender */\n      caller\n        /* \"contracts/TenkERC20.sol\":2626:2653  allowance[from][msg.sender] */\n      0xffffffffffffffffffffffffffffffffffffffff\n      and\n      0xffffffffffffffffffffffffffffffffffffffff\n      and\n      dup2\n      mstore\n      0x20\n      add\n      swap1\n      dup2\n      mstore\n      0x20\n      add\n      0x00\n      keccak256\n      sload\n        /* \"contracts/TenkERC20.sol\":2626:2665  allowance[from][msg.sender] != uint(-1) */\n      eq\n        /* \"contracts/TenkERC20.sol\":2622:2860  if (allowance[from][msg.sender] != uint(-1)) {\r... */\n      tag_171\n      jumpi\n        /* \"contracts/TenkERC20.sol\":2682:2696  uint remaining */\n      0x00\n        /* \"contracts/TenkERC20.sol\":2699:2737  allowance[from][msg.sender].sub(value) */\n      tag_172\n        /* \"contracts/TenkERC20.sol\":2731:2736  value */\n      dup4\n        /* \"contracts/TenkERC20.sol\":2699:2708  allowance */\n      0x02\n        /* \"contracts/TenkERC20.sol\":2699:2714  allowance[from] */\n      0x00\n        /* \"contracts/TenkERC20.sol\":2709:2713  from */\n      dup9\n        /* \"contracts/TenkERC20.sol\":2699:2714  allowance[from] */\n      0xffffffffffffffffffffffffffffffffffffffff\n      and\n      0xffffffffffffffffffffffffffffffffffffffff\n      and\n      dup2\n      mstore\n      0x20\n      add\n      swap1\n      dup2\n      mstore\n      0x20\n      add\n      0x00\n      keccak256\n        /* \"contracts/TenkERC20.sol\":2699:2726  allowance[from][msg.sender] */\n      0x00\n        /* \"contracts/TenkERC20.sol\":2715:2725  msg.sender */\n      caller\n        /* \"contracts/TenkERC20.sol\":2699:2726  allowance[from][msg.sender] */\n      0xffffffffffffffffffffffffffffffffffffffff\n      and\n      0xffffffffffffffffffffffffffffffffffffffff\n      and\n      dup2\n      mstore\n      0x20\n      add\n      swap1\n      dup2\n      mstore\n      0x20\n      add\n      0x00\n      keccak256\n      sload\n        /* \"contracts/TenkERC20.sol\":2699:2730  allowance[from][msg.sender].sub */\n      tag_173\n      swap1\n        /* \"contracts/TenkERC20.sol\":2699:2737  allowance[from][msg.sender].sub(value) */\n      swap2\n      swap1\n      0xffffffff\n      and\n      jump\t// in\n    tag_172:\n        /* \"contracts/TenkERC20.sol\":2682:2737  uint remaining = allowance[from][msg.sender].sub(value) */\n      swap1\n      pop\n        /* \"contracts/TenkERC20.sol\":2782:2791  remaining */\n      dup1\n        /* \"contracts/TenkERC20.sol\":2752:2761  allowance */\n      0x02\n        /* \"contracts/TenkERC20.sol\":2752:2767  allowance[from] */\n      0x00\n        /* \"contracts/TenkERC20.sol\":2762:2766  from */\n      dup8\n        /* \"contracts/TenkERC20.sol\":2752:2767  allowance[from] */\n      0xffffffffffffffffffffffffffffffffffffffff\n      and\n      0xffffffffffffffffffffffffffffffffffffffff\n      and\n      dup2\n      mstore\n      0x20\n      add\n      swap1\n      dup2\n      mstore\n      0x20\n      add\n      0x00\n      keccak256\n        /* \"contracts/TenkERC20.sol\":2752:2779  allowance[from][msg.sender] */\n      0x00\n        /* \"contracts/TenkERC20.sol\":2768:2778  msg.sender */\n      caller\n        /* \"contracts/TenkERC20.sol\":2752:2779  allowance[from][msg.sender] */\n      0xffffffffffffffffffffffffffffffffffffffff\n      and\n      0xffffffffffffffffffffffffffffffffffffffff\n      and\n      dup2\n      mstore\n      0x20\n      add\n      swap1\n      dup2\n      mstore\n      0x20\n      add\n      0x00\n      keccak256\n        /* \"contracts/TenkERC20.sol\":2752:2791  allowance[from][msg.sender] = remaining */\n      dup2\n      swap1\n      sstore\n      pop\n        /* \"contracts/TenkERC20.sol\":2826:2836  msg.sender */\n      caller\n        /* \"contracts/TenkERC20.sol\":2811:2848  Approval(from, msg.sender, remaining) */\n      0xffffffffffffffffffffffffffffffffffffffff\n      and\n        /* \"contracts/TenkERC20.sol\":2820:2824  from */\n      dup6\n        /* \"contracts/TenkERC20.sol\":2811:2848  Approval(from, msg.sender, remaining) */\n      0xffffffffffffffffffffffffffffffffffffffff\n      and\n      0x8c5be1e5ebec7d5bd14f71427d1e84f3dd0314c0f7b2291e5b200ac8c7c3b925\n        /* \"contracts/TenkERC20.sol\":2838:2847  remaining */\n      dup4\n        /* \"contracts/TenkERC20.sol\":2811:2848  Approval(from, msg.sender, remaining) */\n      mload(0x40)\n      dup1\n      dup3\n      dup2\n      mstore\n      0x20\n      add\n      swap2\n      pop\n      pop\n      mload(0x40)\n      dup1\n      swap2\n      sub\n      swap1\n      log3\n        /* \"contracts/TenkERC20.sol\":2622:2860  if (allowance[from][msg.sender] != uint(-1)) {\r... */\n      pop\n    tag_171:\n        /* \"contracts/TenkERC20.sol\":2870:2896  _transfer(from, to, value) */\n      tag_174\n        /* \"contracts/TenkERC20.sol\":2880:2884  from */\n      dup5\n        /* \"contracts/TenkERC20.sol\":2886:2888  to */\n      dup5\n        /* \"contracts/TenkERC20.sol\":2890:2895  value */\n      dup5\n        /* \"contracts/TenkERC20.sol\":2870:2879  _transfer */\n      tag_175\n        /* \"contracts/TenkERC20.sol\":2870:2896  _transfer(from, to, value) */\n      jump\t// in\n    tag_174:\n        /* \"contracts/TenkERC20.sol\":2914:2918  true */\n      0x01\n        /* \"contracts/TenkERC20.sol\":2907:2918  return true */\n      swap1\n      pop\n        /* \"contracts/TenkERC20.sol\":2527:2926  function transferFrom(address from, address to, uint value) external returns (bool) {\r... */\n      swap4\n      swap3\n      pop\n      pop\n      pop\n      jump\t// out\n        /* \"contracts/TenkStablePair.sol\":1180:1212  uint public precisionMultiplier1 */\n    tag_77:\n      sload(0x0a)\n      dup2\n      jump\t// out\n        /* \"contracts/TenkStablePair.sol\":1025:1061  uint16 public token1FeePercent = 300 */\n    tag_79:\n      0x08\n      0x1e\n      swap1\n      sload\n      swap1\n      0x0100\n      exp\n      swap1\n      div\n      0xffff\n      and\n      dup2\n      jump\t// out\n        /* \"contracts/TenkStablePair.sol\":4068:4682  function setStableSwap(bool stable, uint112 expectedReserve0, uint112 expectedReserve1) external lock {\r... */\n    tag_82:\n        /* \"contracts/TenkStablePair.sol\":1569:1570  1 */\n      0x01\n        /* \"contracts/TenkStablePair.sol\":1557:1565  unlocked */\n      sload(0x0d)\n        /* \"contracts/TenkStablePair.sol\":1557:1570  unlocked == 1 */\n      eq\n        /* \"contracts/TenkStablePair.sol\":1549:1586  require(unlocked == 1, '10k: LOCKED') */\n      tag_177\n      jumpi\n      mload(0x40)\n      0x08c379a000000000000000000000000000000000000000000000000000000000\n      dup2\n      mstore\n      0x04\n      add\n      dup1\n      dup1\n      0x20\n      add\n      dup3\n      dup2\n      sub\n      dup3\n      mstore\n      0x0b\n      dup2\n      mstore\n      0x20\n      add\n      dup1\n      0x31306b3a204c4f434b4544000000000000000000000000000000000000000000\n      dup2\n      mstore\n      pop\n      0x20\n      add\n      swap2\n      pop\n      pop\n      mload(0x40)\n      dup1\n      swap2\n      sub\n      swap1\n      revert\n    tag_177:\n        /* \"contracts/TenkStablePair.sol\":1604:1605  0 */\n      0x00\n        /* \"contracts/TenkStablePair.sol\":1593:1601  unlocked */\n      0x0d\n        /* \"contracts/TenkStablePair.sol\":1593:1605  unlocked = 0 */\n      dup2\n      swap1\n      sstore\n      pop\n        /* \"contracts/TenkStablePair.sol\":4217:4224  factory */\n      0x05\n      0x00\n      swap1\n      sload\n      swap1\n      0x0100\n      exp\n      swap1\n      div\n      0xffffffffffffffffffffffffffffffffffffffff\n      and\n        /* \"contracts/TenkStablePair.sol\":4199:4240  I10kStableFactory(factory).setStableOwner */\n      0xffffffffffffffffffffffffffffffffffffffff\n      and\n      0xfc39026a\n        /* \"contracts/TenkStablePair.sol\":4199:4242  I10kStableFactory(factory).setStableOwner() */\n      mload(0x40)\n      dup2\n      0xffffffff\n      and\n      0xe0\n      shl\n      dup2\n      mstore\n      0x04\n      add\n      0x20\n      mload(0x40)\n      dup1\n      dup4\n      sub\n      dup2\n      dup7\n      dup1\n      extcodesize\n      iszero\n        /* \"--CODEGEN--\":8:17   */\n      dup1\n        /* \"--CODEGEN--\":5:7   */\n      iszero\n      tag_179\n      jumpi\n        /* \"--CODEGEN--\":30:31   */\n      0x00\n        /* \"--CODEGEN--\":27:28   */\n      dup1\n        /* \"--CODEGEN--\":20:32   */\n      revert\n        /* \"--CODEGEN--\":5:7   */\n    tag_179:\n        /* \"contracts/TenkStablePair.sol\":4199:4242  I10kStableFactory(factory).setStableOwner() */\n      pop\n      gas\n      staticcall\n      iszero\n        /* \"--CODEGEN--\":8:17   */\n      dup1\n        /* \"--CODEGEN--\":5:7   */\n      iszero\n      tag_180\n      jumpi\n        /* \"--CODEGEN--\":45:61   */\n      returndatasize\n        /* \"--CODEGEN--\":42:43   */\n      0x00\n        /* \"--CODEGEN--\":39:40   */\n      dup1\n        /* \"--CODEGEN--\":24:62   */\n      returndatacopy\n        /* \"--CODEGEN--\":77:93   */\n      returndatasize\n        /* \"--CODEGEN--\":74:75   */\n      0x00\n        /* \"--CODEGEN--\":67:94   */\n      revert\n        /* \"--CODEGEN--\":5:7   */\n    tag_180:\n        /* \"contracts/TenkStablePair.sol\":4199:4242  I10kStableFactory(factory).setStableOwner() */\n      pop\n      pop\n      pop\n      pop\n      mload(0x40)\n      returndatasize\n        /* \"--CODEGEN--\":13:15   */\n      0x20\n        /* \"--CODEGEN--\":8:11   */\n      dup2\n        /* \"--CODEGEN--\":5:16   */\n      lt\n        /* \"--CODEGEN--\":2:4   */\n      iszero\n      tag_181\n      jumpi\n        /* \"--CODEGEN--\":29:30   */\n      0x00\n        /* \"--CODEGEN--\":26:27   */\n      dup1\n        /* \"--CODEGEN--\":19:31   */\n      revert\n        /* \"--CODEGEN--\":2:4   */\n    tag_181:\n        /* \"contracts/TenkStablePair.sol\":4199:4242  I10kStableFactory(factory).setStableOwner() */\n      dup2\n      add\n      swap1\n      dup1\n      dup1\n      mload\n      swap1\n      0x20\n      add\n      swap1\n      swap3\n      swap2\n      swap1\n      pop\n      pop\n      pop\n        /* \"contracts/TenkStablePair.sol\":4185:4242  msg.sender == I10kStableFactory(factory).setStableOwner() */\n      0xffffffffffffffffffffffffffffffffffffffff\n      and\n        /* \"contracts/TenkStablePair.sol\":4185:4195  msg.sender */\n      caller\n        /* \"contracts/TenkStablePair.sol\":4185:4242  msg.sender == I10kStableFactory(factory).setStableOwner() */\n      0xffffffffffffffffffffffffffffffffffffffff\n      and\n      eq\n        /* \"contracts/TenkStablePair.sol\":4177:4281  require(msg.sender == I10kStableFactory(factory).setStableOwner(), \"10k: only factory's setStableOwner\") */\n      tag_182\n      jumpi\n      mload(0x40)\n      0x08c379a000000000000000000000000000000000000000000000000000000000\n      dup2\n      mstore\n      0x04\n      add\n      dup1\n      dup1\n      0x20\n      add\n      dup3\n      dup2\n      sub\n      dup3\n      mstore\n      0x22\n      dup2\n      mstore\n      0x20\n      add\n      dup1\n      data_0e37380231c63dd542c3187103d43bf3dc8feec0b6338e70e8209c96cba47625\n      0x22\n      swap2\n      codecopy\n      0x40\n      add\n      swap2\n      pop\n      pop\n      mload(0x40)\n      dup1\n      swap2\n      sub\n      swap1\n      revert\n    tag_182:\n        /* \"contracts/TenkStablePair.sol\":4297:4314  pairTypeImmutable */\n      0x0c\n      0x01\n      swap1\n      sload\n      swap1\n      0x0100\n      exp\n      swap1\n      div\n      0xff\n      and\n        /* \"contracts/TenkStablePair.sol\":4296:4314  !pairTypeImmutable */\n      iszero\n        /* \"contracts/TenkStablePair.sol\":4288:4333  require(!pairTypeImmutable, \"10k: immutable\") */\n      tag_183\n      jumpi\n      mload(0x40)\n      0x08c379a000000000000000000000000000000000000000000000000000000000\n      dup2\n      mstore\n      0x04\n      add\n      dup1\n      dup1\n      0x20\n      add\n      dup3\n      dup2\n      sub\n      dup3\n      mstore\n      0x0e\n      dup2\n      mstore\n      0x20\n      add\n      dup1\n      0x31306b3a20696d6d757461626c65000000000000000000000000000000000000\n      dup2\n      mstore\n      pop\n      0x20\n      add\n      swap2\n      pop\n      pop\n      mload(0x40)\n      dup1\n      swap2\n      sub\n      swap1\n      revert\n    tag_183:\n        /* \"contracts/TenkStablePair.sol\":4360:4370  stableSwap */\n      0x0c\n      0x00\n      swap1\n      sload\n      swap1\n      0x0100\n      exp\n      swap1\n      div\n      0xff\n      and\n        /* \"contracts/TenkStablePair.sol\":4350:4370  stable != stableSwap */\n      iszero\n      iszero\n        /* \"contracts/TenkStablePair.sol\":4350:4356  stable */\n      dup4\n        /* \"contracts/TenkStablePair.sol\":4350:4370  stable != stableSwap */\n      iszero\n      iszero\n      eq\n      iszero\n        /* \"contracts/TenkStablePair.sol\":4342:4389  require(stable != stableSwap, \"10k: no update\") */\n      tag_184\n      jumpi\n      mload(0x40)\n      0x08c379a000000000000000000000000000000000000000000000000000000000\n      dup2\n      mstore\n      0x04\n      add\n      dup1\n      dup1\n      0x20\n      add\n      dup3\n      dup2\n      sub\n      dup3\n      mstore\n      0x0e\n      dup2\n      mstore\n      0x20\n      add\n      dup1\n      0x31306b3a206e6f20757064617465000000000000000000000000000000000000\n      dup2\n      mstore\n      pop\n      0x20\n      add\n      swap2\n      pop\n      pop\n      mload(0x40)\n      dup1\n      swap2\n      sub\n      swap1\n      revert\n    tag_184:\n        /* \"contracts/TenkStablePair.sol\":4424:4432  reserve0 */\n      0x08\n      0x00\n      swap1\n      sload\n      swap1\n      0x0100\n      exp\n      swap1\n      div\n      0xffffffffffffffffffffffffffff\n      and\n        /* \"contracts/TenkStablePair.sol\":4404:4432  expectedReserve0 == reserve0 */\n      0xffffffffffffffffffffffffffff\n      and\n        /* \"contracts/TenkStablePair.sol\":4404:4420  expectedReserve0 */\n      dup3\n        /* \"contracts/TenkStablePair.sol\":4404:4432  expectedReserve0 == reserve0 */\n      0xffffffffffffffffffffffffffff\n      and\n      eq\n        /* \"contracts/TenkStablePair.sol\":4404:4464  expectedReserve0 == reserve0 && expectedReserve1 == reserve1 */\n      dup1\n      iszero\n      tag_185\n      jumpi\n      pop\n        /* \"contracts/TenkStablePair.sol\":4456:4464  reserve1 */\n      0x08\n      0x0e\n      swap1\n      sload\n      swap1\n      0x0100\n      exp\n      swap1\n      div\n      0xffffffffffffffffffffffffffff\n      and\n        /* \"contracts/TenkStablePair.sol\":4436:4464  expectedReserve1 == reserve1 */\n      0xffffffffffffffffffffffffffff\n      and\n        /* \"contracts/TenkStablePair.sol\":4436:4452  expectedReserve1 */\n      dup2\n        /* \"contracts/TenkStablePair.sol\":4436:4464  expectedReserve1 == reserve1 */\n      0xffffffffffffffffffffffffffff\n      and\n      eq\n        /* \"contracts/TenkStablePair.sol\":4404:4464  expectedReserve0 == reserve0 && expectedReserve1 == reserve1 */\n    tag_185:\n        /* \"contracts/TenkStablePair.sol\":4396:4480  require(expectedReserve0 == reserve0 && expectedReserve1 == reserve1, \"10k: failed\") */\n      tag_186\n      jumpi\n      mload(0x40)\n      0x08c379a000000000000000000000000000000000000000000000000000000000\n      dup2\n      mstore\n      0x04\n      add\n      dup1\n      dup1\n      0x20\n      add\n      dup3\n      dup2\n      sub\n      dup3\n      mstore\n      0x0b\n      dup2\n      mstore\n      0x20\n      add\n      dup1\n      0x31306b3a206661696c6564000000000000000000000000000000000000000000\n      dup2\n      mstore\n      pop\n      0x20\n      add\n      swap2\n      pop\n      pop\n      mload(0x40)\n      dup1\n      swap2\n      sub\n      swap1\n      revert\n    tag_186:\n        /* \"contracts/TenkStablePair.sol\":4489:4499  bool feeOn */\n      0x00\n        /* \"contracts/TenkStablePair.sol\":4502:4530  _mintFee(reserve0, reserve1) */\n      tag_187\n        /* \"contracts/TenkStablePair.sol\":4511:4519  reserve0 */\n      0x08\n      0x00\n      swap1\n      sload\n      swap1\n      0x0100\n      exp\n      swap1\n      div\n      0xffffffffffffffffffffffffffff\n      and\n        /* \"contracts/TenkStablePair.sol\":4521:4529  reserve1 */\n      0x08\n      0x0e\n      swap1\n      sload\n      swap1\n      0x0100\n      exp\n      swap1\n      div\n      0xffffffffffffffffffffffffffff\n      and\n        /* \"contracts/TenkStablePair.sol\":4502:4510  _mintFee */\n      tag_188\n        /* \"contracts/TenkStablePair.sol\":4502:4530  _mintFee(reserve0, reserve1) */\n      jump\t// in\n    tag_187:\n        /* \"contracts/TenkStablePair.sol\":4489:4530  bool feeOn = _mintFee(reserve0, reserve1) */\n      swap1\n      pop\n        /* \"contracts/TenkStablePair.sol\":4544:4577  SetStableSwap(stableSwap, stable) */\n      0xb6a86710bde53aa7fb1b3856279e2af5b476d53e2dd0902cf17a0911b5a43a8b\n        /* \"contracts/TenkStablePair.sol\":4558:4568  stableSwap */\n      0x0c\n      0x00\n      swap1\n      sload\n      swap1\n      0x0100\n      exp\n      swap1\n      div\n      0xff\n      and\n        /* \"contracts/TenkStablePair.sol\":4570:4576  stable */\n      dup6\n        /* \"contracts/TenkStablePair.sol\":4544:4577  SetStableSwap(stableSwap, stable) */\n      mload(0x40)\n      dup1\n      dup4\n      iszero\n      iszero\n      iszero\n      iszero\n      dup2\n      mstore\n      0x20\n      add\n      dup3\n      iszero\n      iszero\n      iszero\n      iszero\n      dup2\n      mstore\n      0x20\n      add\n      swap3\n      pop\n      pop\n      pop\n      mload(0x40)\n      dup1\n      swap2\n      sub\n      swap1\n      log1\n        /* \"contracts/TenkStablePair.sol\":4597:4603  stable */\n      dup4\n        /* \"contracts/TenkStablePair.sol\":4584:4594  stableSwap */\n      0x0c\n      0x00\n        /* \"contracts/TenkStablePair.sol\":4584:4603  stableSwap = stable */\n      0x0100\n      exp\n      dup2\n      sload\n      dup2\n      0xff\n      mul\n      not\n      and\n      swap1\n      dup4\n      iszero\n      iszero\n      mul\n      or\n      swap1\n      sstore\n      pop\n        /* \"contracts/TenkStablePair.sol\":4619:4625  stable */\n      dup4\n        /* \"contracts/TenkStablePair.sol\":4619:4634  stable && feeOn */\n      dup1\n      iszero\n      tag_189\n      jumpi\n      pop\n        /* \"contracts/TenkStablePair.sol\":4629:4634  feeOn */\n      dup1\n        /* \"contracts/TenkStablePair.sol\":4619:4634  stable && feeOn */\n    tag_189:\n        /* \"contracts/TenkStablePair.sol\":4618:4676  (stable && feeOn) ? _k(uint(reserve0), uint(reserve1)) : 0 */\n      tag_190\n      jumpi\n        /* \"contracts/TenkStablePair.sol\":4675:4676  0 */\n      0x00\n        /* \"contracts/TenkStablePair.sol\":4618:4676  (stable && feeOn) ? _k(uint(reserve0), uint(reserve1)) : 0 */\n      jump(tag_191)\n    tag_190:\n        /* \"contracts/TenkStablePair.sol\":4638:4672  _k(uint(reserve0), uint(reserve1)) */\n      tag_192\n        /* \"contracts/TenkStablePair.sol\":4646:4654  reserve0 */\n      0x08\n      0x00\n      swap1\n      sload\n      swap1\n      0x0100\n      exp\n      swap1\n      div\n      0xffffffffffffffffffffffffffff\n      and\n        /* \"contracts/TenkStablePair.sol\":4641:4655  uint(reserve0) */\n      0xffffffffffffffffffffffffffff\n      and\n        /* \"contracts/TenkStablePair.sol\":4662:4670  reserve1 */\n      0x08\n      0x0e\n      swap1\n      sload\n      swap1\n      0x0100\n      exp\n      swap1\n      div\n      0xffffffffffffffffffffffffffff\n      and\n        /* \"contracts/TenkStablePair.sol\":4657:4671  uint(reserve1) */\n      0xffffffffffffffffffffffffffff\n      and\n        /* \"contracts/TenkStablePair.sol\":4638:4640  _k */\n      tag_193\n        /* \"contracts/TenkStablePair.sol\":4638:4672  _k(uint(reserve0), uint(reserve1)) */\n      jump\t// in\n    tag_192:\n        /* \"contracts/TenkStablePair.sol\":4618:4676  (stable && feeOn) ? _k(uint(reserve0), uint(reserve1)) : 0 */\n    tag_191:\n        /* \"contracts/TenkStablePair.sol\":4610:4615  kLast */\n      0x0b\n        /* \"contracts/TenkStablePair.sol\":4610:4676  kLast = (stable && feeOn) ? _k(uint(reserve0), uint(reserve1)) : 0 */\n      dup2\n      swap1\n      sstore\n      pop\n        /* \"contracts/TenkStablePair.sol\":1612:1613  _ */\n      pop\n        /* \"contracts/TenkStablePair.sol\":1631:1632  1 */\n      0x01\n        /* \"contracts/TenkStablePair.sol\":1620:1628  unlocked */\n      0x0d\n        /* \"contracts/TenkStablePair.sol\":1620:1632  unlocked = 1 */\n      dup2\n      swap1\n      sstore\n      pop\n        /* \"contracts/TenkStablePair.sol\":4068:4682  function setStableSwap(bool stable, uint112 expectedReserve0, uint112 expectedReserve1) external lock {\r... */\n      pop\n      pop\n      pop\n      jump\t// out\n        /* \"contracts/TenkERC20.sol\":608:716  bytes32 public constant PERMIT_TYPEHASH = 0x6e71edae12b1b97f4d1f60370fef10105fa2faae0126114a169c64845d6126c9 */\n    tag_84:\n        /* \"contracts/TenkERC20.sol\":650:716  0x6e71edae12b1b97f4d1f60370fef10105fa2faae0126114a169c64845d6126c9 */\n      0x6e71edae12b1b97f4d1f60370fef10105fa2faae0126114a169c64845d6126c9\n        /* \"contracts/TenkERC20.sol\":608:716  bytes32 public constant PERMIT_TYPEHASH = 0x6e71edae12b1b97f4d1f60370fef10105fa2faae0126114a169c64845d6126c9 */\n      0x00\n      shl\n      dup2\n      jump\t// out\n        /* \"contracts/TenkERC20.sol\":274:309  uint8 public constant decimals = 18 */\n    tag_86:\n        /* \"contracts/TenkERC20.sol\":307:309  18 */\n      0x12\n        /* \"contracts/TenkERC20.sol\":274:309  uint8 public constant decimals = 18 */\n      dup2\n      jump\t// out\n        /* \"contracts/TenkERC20.sol\":465:496  bytes32 public DOMAIN_SEPARATOR */\n    tag_88:\n      sload(0x03)\n      dup2\n      jump\t// out\n        /* \"contracts/TenkStablePair.sol\":1143:1175  uint public precisionMultiplier0 */\n    tag_90:\n      sload(0x09)\n      dup2\n      jump\t// out\n        /* \"contracts/TenkStablePair.sol\":4688:4960  function setPairTypeImmutable() external lock {\r... */\n    tag_92:\n        /* \"contracts/TenkStablePair.sol\":1569:1570  1 */\n      0x01\n        /* \"contracts/TenkStablePair.sol\":1557:1565  unlocked */\n      sload(0x0d)\n        /* \"contracts/TenkStablePair.sol\":1557:1570  unlocked == 1 */\n      eq\n        /* \"contracts/TenkStablePair.sol\":1549:1586  require(unlocked == 1, '10k: LOCKED') */\n      tag_195\n      jumpi\n      mload(0x40)\n      0x08c379a000000000000000000000000000000000000000000000000000000000\n      dup2\n      mstore\n      0x04\n      add\n      dup1\n      dup1\n      0x20\n      add\n      dup3\n      dup2\n      sub\n      dup3\n      mstore\n      0x0b\n      dup2\n      mstore\n      0x20\n      add\n      dup1\n      0x31306b3a204c4f434b4544000000000000000000000000000000000000000000\n      dup2\n      mstore\n      pop\n      0x20\n      add\n      swap2\n      pop\n      pop\n      mload(0x40)\n      dup1\n      swap2\n      sub\n      swap1\n      revert\n    tag_195:\n        /* \"contracts/TenkStablePair.sol\":1604:1605  0 */\n      0x00\n        /* \"contracts/TenkStablePair.sol\":1593:1601  unlocked */\n      0x0d\n        /* \"contracts/TenkStablePair.sol\":1593:1605  unlocked = 0 */\n      dup2\n      swap1\n      sstore\n      pop\n        /* \"contracts/TenkStablePair.sol\":4781:4788  factory */\n      0x05\n      0x00\n      swap1\n      sload\n      swap1\n      0x0100\n      exp\n      swap1\n      div\n      0xffffffffffffffffffffffffffffffffffffffff\n      and\n        /* \"contracts/TenkStablePair.sol\":4763:4795  I10kStableFactory(factory).owner */\n      0xffffffffffffffffffffffffffffffffffffffff\n      and\n      0x8da5cb5b\n        /* \"contracts/TenkStablePair.sol\":4763:4797  I10kStableFactory(factory).owner() */\n      mload(0x40)\n      dup2\n      0xffffffff\n      and\n      0xe0\n      shl\n      dup2\n      mstore\n      0x04\n      add\n      0x20\n      mload(0x40)\n      dup1\n      dup4\n      sub\n      dup2\n      dup7\n      dup1\n      extcodesize\n      iszero\n        /* \"--CODEGEN--\":8:17   */\n      dup1\n        /* \"--CODEGEN--\":5:7   */\n      iszero\n      tag_197\n      jumpi\n        /* \"--CODEGEN--\":30:31   */\n      0x00\n        /* \"--CODEGEN--\":27:28   */\n      dup1\n        /* \"--CODEGEN--\":20:32   */\n      revert\n        /* \"--CODEGEN--\":5:7   */\n    tag_197:\n        /* \"contracts/TenkStablePair.sol\":4763:4797  I10kStableFactory(factory).owner() */\n      pop\n      gas\n      staticcall\n      iszero\n        /* \"--CODEGEN--\":8:17   */\n      dup1\n        /* \"--CODEGEN--\":5:7   */\n      iszero\n      tag_198\n      jumpi\n        /* \"--CODEGEN--\":45:61   */\n      returndatasize\n        /* \"--CODEGEN--\":42:43   */\n      0x00\n        /* \"--CODEGEN--\":39:40   */\n      dup1\n        /* \"--CODEGEN--\":24:62   */\n      returndatacopy\n        /* \"--CODEGEN--\":77:93   */\n      returndatasize\n        /* \"--CODEGEN--\":74:75   */\n      0x00\n        /* \"--CODEGEN--\":67:94   */\n      revert\n        /* \"--CODEGEN--\":5:7   */\n    tag_198:\n        /* \"contracts/TenkStablePair.sol\":4763:4797  I10kStableFactory(factory).owner() */\n      pop\n      pop\n      pop\n      pop\n      mload(0x40)\n      returndatasize\n        /* \"--CODEGEN--\":13:15   */\n      0x20\n        /* \"--CODEGEN--\":8:11   */\n      dup2\n        /* \"--CODEGEN--\":5:16   */\n      lt\n        /* \"--CODEGEN--\":2:4   */\n      iszero\n      tag_199\n      jumpi\n        /* \"--CODEGEN--\":29:30   */\n      0x00\n        /* \"--CODEGEN--\":26:27   */\n      dup1\n        /* \"--CODEGEN--\":19:31   */\n      revert\n        /* \"--CODEGEN--\":2:4   */\n    tag_199:\n        /* \"contracts/TenkStablePair.sol\":4763:4797  I10kStableFactory(factory).owner() */\n      dup2\n      add\n      swap1\n      dup1\n      dup1\n      mload\n      swap1\n      0x20\n      add\n      swap1\n      swap3\n      swap2\n      swap1\n      pop\n      pop\n      pop\n        /* \"contracts/TenkStablePair.sol\":4749:4797  msg.sender == I10kStableFactory(factory).owner() */\n      0xffffffffffffffffffffffffffffffffffffffff\n      and\n        /* \"contracts/TenkStablePair.sol\":4749:4759  msg.sender */\n      caller\n        /* \"contracts/TenkStablePair.sol\":4749:4797  msg.sender == I10kStableFactory(factory).owner() */\n      0xffffffffffffffffffffffffffffffffffffffff\n      and\n      eq\n        /* \"contracts/TenkStablePair.sol\":4741:4827  require(msg.sender == I10kStableFactory(factory).owner(), \"10k: only factory's owner\") */\n      tag_200\n      jumpi\n      mload(0x40)\n      0x08c379a000000000000000000000000000000000000000000000000000000000\n      dup2\n      mstore\n      0x04\n      add\n      dup1\n      dup1\n      0x20\n      add\n      dup3\n      dup2\n      sub\n      dup3\n      mstore\n      0x19\n      dup2\n      mstore\n      0x20\n      add\n      dup1\n      0x31306b3a206f6e6c7920666163746f72792773206f776e657200000000000000\n      dup2\n      mstore\n      pop\n      0x20\n      add\n      swap2\n      pop\n      pop\n      mload(0x40)\n      dup1\n      swap2\n      sub\n      swap1\n      revert\n    tag_200:\n        /* \"contracts/TenkStablePair.sol\":4843:4860  pairTypeImmutable */\n      0x0c\n      0x01\n      swap1\n      sload\n      swap1\n      0x0100\n      exp\n      swap1\n      div\n      0xff\n      and\n        /* \"contracts/TenkStablePair.sol\":4842:4860  !pairTypeImmutable */\n      iszero\n        /* \"contracts/TenkStablePair.sol\":4834:4887  require(!pairTypeImmutable, \"10k: already immutable\") */\n      tag_201\n      jumpi\n      mload(0x40)\n      0x08c379a000000000000000000000000000000000000000000000000000000000\n      dup2\n      mstore\n      0x04\n      add\n      dup1\n      dup1\n      0x20\n      add\n      dup3\n      dup2\n      sub\n      dup3\n      mstore\n      0x16\n      dup2\n      mstore\n      0x20\n      add\n      dup1\n      0x31306b3a20616c726561647920696d6d757461626c6500000000000000000000\n      dup2\n      mstore\n      pop\n      0x20\n      add\n      swap2\n      pop\n      pop\n      mload(0x40)\n      dup1\n      swap2\n      sub\n      swap1\n      revert\n    tag_201:\n        /* \"contracts/TenkStablePair.sol\":4916:4920  true */\n      0x01\n        /* \"contracts/TenkStablePair.sol\":4896:4913  pairTypeImmutable */\n      0x0c\n      0x01\n        /* \"contracts/TenkStablePair.sol\":4896:4920  pairTypeImmutable = true */\n      0x0100\n      exp\n      dup2\n      sload\n      dup2\n      0xff\n      mul\n      not\n      and\n      swap1\n      dup4\n      iszero\n      iszero\n      mul\n      or\n      swap1\n      sstore\n      pop\n        /* \"contracts/TenkStablePair.sol\":4932:4954  SetPairTypeImmutable() */\n      0x09122c41ae733a4d7740324d50e35fbd6ee85be3c1312a45596d8045150ab2f2\n      mload(0x40)\n      mload(0x40)\n      dup1\n      swap2\n      sub\n      swap1\n      log1\n        /* \"contracts/TenkStablePair.sol\":1631:1632  1 */\n      0x01\n        /* \"contracts/TenkStablePair.sol\":1620:1628  unlocked */\n      0x0d\n        /* \"contracts/TenkStablePair.sol\":1620:1632  unlocked = 1 */\n      dup2\n      swap1\n      sstore\n      pop\n        /* \"contracts/TenkStablePair.sol\":4688:4960  function setPairTypeImmutable() external lock {\r... */\n      jump\t// out\n        /* \"contracts/TenkStablePair.sol\":2940:3316  function initialize(address _token0, address _token1) external {\r... */\n    tag_95:\n        /* \"contracts/TenkStablePair.sol\":3032:3039  factory */\n      0x05\n      0x00\n      swap1\n      sload\n      swap1\n      0x0100\n      exp\n      swap1\n      div\n      0xffffffffffffffffffffffffffffffffffffffff\n      and\n        /* \"contracts/TenkStablePair.sol\":3018:3039  msg.sender == factory */\n      0xffffffffffffffffffffffffffffffffffffffff\n      and\n        /* \"contracts/TenkStablePair.sol\":3018:3028  msg.sender */\n      caller\n        /* \"contracts/TenkStablePair.sol\":3018:3039  msg.sender == factory */\n      0xffffffffffffffffffffffffffffffffffffffff\n      and\n      eq\n        /* \"contracts/TenkStablePair.sol\":3018:3055  msg.sender == factory && !initialized */\n      dup1\n      iszero\n      tag_203\n      jumpi\n      pop\n        /* \"contracts/TenkStablePair.sol\":3044:3055  initialized */\n      0x07\n      0x14\n      swap1\n      sload\n      swap1\n      0x0100\n      exp\n      swap1\n      div\n      0xff\n      and\n        /* \"contracts/TenkStablePair.sol\":3043:3055  !initialized */\n      iszero\n        /* \"contracts/TenkStablePair.sol\":3018:3055  msg.sender == factory && !initialized */\n    tag_203:\n        /* \"contracts/TenkStablePair.sol\":3010:3074  require(msg.sender == factory && !initialized, '10k: FORBIDDEN') */\n      tag_204\n      jumpi\n      mload(0x40)\n      0x08c379a000000000000000000000000000000000000000000000000000000000\n      dup2\n      mstore\n      0x04\n      add\n      dup1\n      dup1\n      0x20\n      add\n      dup3\n      dup2\n      sub\n      dup3\n      mstore\n      0x0e\n      dup2\n      mstore\n      0x20\n      add\n      dup1\n      0x31306b3a20464f5242494444454e000000000000000000000000000000000000\n      dup2\n      mstore\n      pop\n      0x20\n      add\n      swap2\n      pop\n      pop\n      mload(0x40)\n      dup1\n      swap2\n      sub\n      swap1\n      revert\n    tag_204:\n        /* \"contracts/TenkStablePair.sol\":3115:3122  _token0 */\n      dup2\n        /* \"contracts/TenkStablePair.sol\":3106:3112  token0 */\n      0x06\n      0x00\n        /* \"contracts/TenkStablePair.sol\":3106:3122  token0 = _token0 */\n      0x0100\n      exp\n      dup2\n      sload\n      dup2\n      0xffffffffffffffffffffffffffffffffffffffff\n      mul\n      not\n      and\n      swap1\n      dup4\n      0xffffffffffffffffffffffffffffffffffffffff\n      and\n      mul\n      or\n      swap1\n      sstore\n      pop\n        /* \"contracts/TenkStablePair.sol\":3138:3145  _token1 */\n      dup1\n        /* \"contracts/TenkStablePair.sol\":3129:3135  token1 */\n      0x07\n      0x00\n        /* \"contracts/TenkStablePair.sol\":3129:3145  token1 = _token1 */\n      0x0100\n      exp\n      dup2\n      sload\n      dup2\n      0xffffffffffffffffffffffffffffffffffffffff\n      mul\n      not\n      and\n      swap1\n      dup4\n      0xffffffffffffffffffffffffffffffffffffffff\n      and\n      mul\n      or\n      swap1\n      sstore\n      pop\n        /* \"contracts/TenkStablePair.sol\":3195:3202  _token0 */\n      dup2\n        /* \"contracts/TenkStablePair.sol\":3188:3212  IERC20(_token0).decimals */\n      0xffffffffffffffffffffffffffffffffffffffff\n      and\n      0x313ce567\n        /* \"contracts/TenkStablePair.sol\":3188:3214  IERC20(_token0).decimals() */\n      mload(0x40)\n      dup2\n      0xffffffff\n      and\n      0xe0\n      shl\n      dup2\n      mstore\n      0x04\n      add\n      0x20\n      mload(0x40)\n      dup1\n      dup4\n      sub\n      dup2\n      dup7\n      dup1\n      extcodesize\n      iszero\n        /* \"--CODEGEN--\":8:17   */\n      dup1\n        /* \"--CODEGEN--\":5:7   */\n      iszero\n      tag_205\n      jumpi\n        /* \"--CODEGEN--\":30:31   */\n      0x00\n        /* \"--CODEGEN--\":27:28   */\n      dup1\n        /* \"--CODEGEN--\":20:32   */\n      revert\n        /* \"--CODEGEN--\":5:7   */\n    tag_205:\n        /* \"contracts/TenkStablePair.sol\":3188:3214  IERC20(_token0).decimals() */\n      pop\n      gas\n      staticcall\n      iszero\n        /* \"--CODEGEN--\":8:17   */\n      dup1\n        /* \"--CODEGEN--\":5:7   */\n      iszero\n      tag_206\n      jumpi\n        /* \"--CODEGEN--\":45:61   */\n      returndatasize\n        /* \"--CODEGEN--\":42:43   */\n      0x00\n        /* \"--CODEGEN--\":39:40   */\n      dup1\n        /* \"--CODEGEN--\":24:62   */\n      returndatacopy\n        /* \"--CODEGEN--\":77:93   */\n      returndatasize\n        /* \"--CODEGEN--\":74:75   */\n      0x00\n        /* \"--CODEGEN--\":67:94   */\n      revert\n        /* \"--CODEGEN--\":5:7   */\n    tag_206:\n        /* \"contracts/TenkStablePair.sol\":3188:3214  IERC20(_token0).decimals() */\n      pop\n      pop\n      pop\n      pop\n      mload(0x40)\n      returndatasize\n        /* \"--CODEGEN--\":13:15   */\n      0x20\n        /* \"--CODEGEN--\":8:11   */\n      dup2\n        /* \"--CODEGEN--\":5:16   */\n      lt\n        /* \"--CODEGEN--\":2:4   */\n      iszero\n      tag_207\n      jumpi\n        /* \"--CODEGEN--\":29:30   */\n      0x00\n        /* \"--CODEGEN--\":26:27   */\n      dup1\n        /* \"--CODEGEN--\":19:31   */\n      revert\n        /* \"--CODEGEN--\":2:4   */\n    tag_207:\n        /* \"contracts/TenkStablePair.sol\":3188:3214  IERC20(_token0).decimals() */\n      dup2\n      add\n      swap1\n      dup1\n      dup1\n      mload\n      swap1\n      0x20\n      add\n      swap1\n      swap3\n      swap2\n      swap1\n      pop\n      pop\n      pop\n        /* \"contracts/TenkStablePair.sol\":3183:3215  uint(IERC20(_token0).decimals()) */\n      0xff\n      and\n        /* \"contracts/TenkStablePair.sol\":3177:3179  10 */\n      0x0a\n        /* \"contracts/TenkStablePair.sol\":3177:3215  10 ** uint(IERC20(_token0).decimals()) */\n      exp\n        /* \"contracts/TenkStablePair.sol\":3154:3174  precisionMultiplier0 */\n      0x09\n        /* \"contracts/TenkStablePair.sol\":3154:3215  precisionMultiplier0 = 10 ** uint(IERC20(_token0).decimals()) */\n      dup2\n      swap1\n      sstore\n      pop\n        /* \"contracts/TenkStablePair.sol\":3263:3270  _token1 */\n      dup1\n        /* \"contracts/TenkStablePair.sol\":3256:3280  IERC20(_token1).decimals */\n      0xffffffffffffffffffffffffffffffffffffffff\n      and\n      0x313ce567\n        /* \"contracts/TenkStablePair.sol\":3256:3282  IERC20(_token1).decimals() */\n      mload(0x40)\n      dup2\n      0xffffffff\n      and\n      0xe0\n      shl\n      dup2\n      mstore\n      0x04\n      add\n      0x20\n      mload(0x40)\n      dup1\n      dup4\n      sub\n      dup2\n      dup7\n      dup1\n      extcodesize\n      iszero\n        /* \"--CODEGEN--\":8:17   */\n      dup1\n        /* \"--CODEGEN--\":5:7   */\n      iszero\n      tag_208\n      jumpi\n        /* \"--CODEGEN--\":30:31   */\n      0x00\n        /* \"--CODEGEN--\":27:28   */\n      dup1\n        /* \"--CODEGEN--\":20:32   */\n      revert\n        /* \"--CODEGEN--\":5:7   */\n    tag_208:\n        /* \"contracts/TenkStablePair.sol\":3256:3282  IERC20(_token1).decimals() */\n      pop\n      gas\n      staticcall\n      iszero\n        /* \"--CODEGEN--\":8:17   */\n      dup1\n        /* \"--CODEGEN--\":5:7   */\n      iszero\n      tag_209\n      jumpi\n        /* \"--CODEGEN--\":45:61   */\n      returndatasize\n        /* \"--CODEGEN--\":42:43   */\n      0x00\n        /* \"--CODEGEN--\":39:40   */\n      dup1\n        /* \"--CODEGEN--\":24:62   */\n      returndatacopy\n        /* \"--CODEGEN--\":77:93   */\n      returndatasize\n        /* \"--CODEGEN--\":74:75   */\n      0x00\n        /* \"--CODEGEN--\":67:94   */\n      revert\n        /* \"--CODEGEN--\":5:7   */\n    tag_209:\n        /* \"contracts/TenkStablePair.sol\":3256:3282  IERC20(_token1).decimals() */\n      pop\n      pop\n      pop\n      pop\n      mload(0x40)\n      returndatasize\n        /* \"--CODEGEN--\":13:15   */\n      0x20\n        /* \"--CODEGEN--\":8:11   */\n      dup2\n        /* \"--CODEGEN--\":5:16   */\n      lt\n        /* \"--CODEGEN--\":2:4   */\n      iszero\n      tag_210\n      jumpi\n        /* \"--CODEGEN--\":29:30   */\n      0x00\n        /* \"--CODEGEN--\":26:27   */\n      dup1\n        /* \"--CODEGEN--\":19:31   */\n      revert\n        /* \"--CODEGEN--\":2:4   */\n    tag_210:\n        /* \"contracts/TenkStablePair.sol\":3256:3282  IERC20(_token1).decimals() */\n      dup2\n      add\n      swap1\n      dup1\n      dup1\n      mload\n      swap1\n      0x20\n      add\n      swap1\n      swap3\n      swap2\n      swap1\n      pop\n      pop\n      pop\n        /* \"contracts/TenkStablePair.sol\":3251:3283  uint(IERC20(_token1).decimals()) */\n      0xff\n      and\n        /* \"contracts/TenkStablePair.sol\":3245:3247  10 */\n      0x0a\n        /* \"contracts/TenkStablePair.sol\":3245:3283  10 ** uint(IERC20(_token1).decimals()) */\n      exp\n        /* \"contracts/TenkStablePair.sol\":3222:3242  precisionMultiplier1 */\n      0x0a\n        /* \"contracts/TenkStablePair.sol\":3222:3283  precisionMultiplier1 = 10 ** uint(IERC20(_token1).decimals()) */\n      dup2\n      swap1\n      sstore\n      pop\n        /* \"contracts/TenkStablePair.sol\":3306:3310  true */\n      0x01\n        /* \"contracts/TenkStablePair.sol\":3292:3303  initialized */\n      0x07\n      0x14\n        /* \"contracts/TenkStablePair.sol\":3292:3310  initialized = true */\n      0x0100\n      exp\n      dup2\n      sload\n      dup2\n      0xff\n      mul\n      not\n      and\n      swap1\n      dup4\n      iszero\n      iszero\n      mul\n      or\n      swap1\n      sstore\n      pop\n        /* \"contracts/TenkStablePair.sol\":2940:3316  function initialize(address _token0, address _token1) external {\r... */\n      pop\n      pop\n      jump\t// out\n        /* \"contracts/TenkStablePair.sol\":3436:4062  function setFeePercent(uint16 newToken0FeePercent, uint16 newToken1FeePercent) external lock {\r... */\n    tag_98:\n        /* \"contracts/TenkStablePair.sol\":1569:1570  1 */\n      0x01\n        /* \"contracts/TenkStablePair.sol\":1557:1565  unlocked */\n      sload(0x0d)\n        /* \"contracts/TenkStablePair.sol\":1557:1570  unlocked == 1 */\n      eq\n        /* \"contracts/TenkStablePair.sol\":1549:1586  require(unlocked == 1, '10k: LOCKED') */\n      tag_212\n      jumpi\n      mload(0x40)\n      0x08c379a000000000000000000000000000000000000000000000000000000000\n      dup2\n      mstore\n      0x04\n      add\n      dup1\n      dup1\n      0x20\n      add\n      dup3\n      dup2\n      sub\n      dup3\n      mstore\n      0x0b\n      dup2\n      mstore\n      0x20\n      add\n      dup1\n      0x31306b3a204c4f434b4544000000000000000000000000000000000000000000\n      dup2\n      mstore\n      pop\n      0x20\n      add\n      swap2\n      pop\n      pop\n      mload(0x40)\n      dup1\n      swap2\n      sub\n      swap1\n      revert\n    tag_212:\n        /* \"contracts/TenkStablePair.sol\":1604:1605  0 */\n      0x00\n        /* \"contracts/TenkStablePair.sol\":1593:1601  unlocked */\n      0x0d\n        /* \"contracts/TenkStablePair.sol\":1593:1605  unlocked = 0 */\n      dup2\n      swap1\n      sstore\n      pop\n        /* \"contracts/TenkStablePair.sol\":3576:3583  factory */\n      0x05\n      0x00\n      swap1\n      sload\n      swap1\n      0x0100\n      exp\n      swap1\n      div\n      0xffffffffffffffffffffffffffffffffffffffff\n      and\n        /* \"contracts/TenkStablePair.sol\":3558:3600  I10kStableFactory(factory).feePercentOwner */\n      0xffffffffffffffffffffffffffffffffffffffff\n      and\n      0x4c217715\n        /* \"contracts/TenkStablePair.sol\":3558:3602  I10kStableFactory(factory).feePercentOwner() */\n      mload(0x40)\n      dup2\n      0xffffffff\n      and\n      0xe0\n      shl\n      dup2\n      mstore\n      0x04\n      add\n      0x20\n      mload(0x40)\n      dup1\n      dup4\n      sub\n      dup2\n      dup7\n      dup1\n      extcodesize\n      iszero\n        /* \"--CODEGEN--\":8:17   */\n      dup1\n        /* \"--CODEGEN--\":5:7   */\n      iszero\n      tag_214\n      jumpi\n        /* \"--CODEGEN--\":30:31   */\n      0x00\n        /* \"--CODEGEN--\":27:28   */\n      dup1\n        /* \"--CODEGEN--\":20:32   */\n      revert\n        /* \"--CODEGEN--\":5:7   */\n    tag_214:\n        /* \"contracts/TenkStablePair.sol\":3558:3602  I10kStableFactory(factory).feePercentOwner() */\n      pop\n      gas\n      staticcall\n      iszero\n        /* \"--CODEGEN--\":8:17   */\n      dup1\n        /* \"--CODEGEN--\":5:7   */\n      iszero\n      tag_215\n      jumpi\n        /* \"--CODEGEN--\":45:61   */\n      returndatasize\n        /* \"--CODEGEN--\":42:43   */\n      0x00\n        /* \"--CODEGEN--\":39:40   */\n      dup1\n        /* \"--CODEGEN--\":24:62   */\n      returndatacopy\n        /* \"--CODEGEN--\":77:93   */\n      returndatasize\n        /* \"--CODEGEN--\":74:75   */\n      0x00\n        /* \"--CODEGEN--\":67:94   */\n      revert\n        /* \"--CODEGEN--\":5:7   */\n    tag_215:\n        /* \"contracts/TenkStablePair.sol\":3558:3602  I10kStableFactory(factory).feePercentOwner() */\n      pop\n      pop\n      pop\n      pop\n      mload(0x40)\n      returndatasize\n        /* \"--CODEGEN--\":13:15   */\n      0x20\n        /* \"--CODEGEN--\":8:11   */\n      dup2\n        /* \"--CODEGEN--\":5:16   */\n      lt\n        /* \"--CODEGEN--\":2:4   */\n      iszero\n      tag_216\n      jumpi\n        /* \"--CODEGEN--\":29:30   */\n      0x00\n        /* \"--CODEGEN--\":26:27   */\n      dup1\n        /* \"--CODEGEN--\":19:31   */\n      revert\n        /* \"--CODEGEN--\":2:4   */\n    tag_216:\n        /* \"contracts/TenkStablePair.sol\":3558:3602  I10kStableFactory(factory).feePercentOwner() */\n      dup2\n      add\n      swap1\n      dup1\n      dup1\n      mload\n      swap1\n      0x20\n      add\n      swap1\n      swap3\n      swap2\n      swap1\n      pop\n      pop\n      pop\n        /* \"contracts/TenkStablePair.sol\":3544:3602  msg.sender == I10kStableFactory(factory).feePercentOwner() */\n      0xffffffffffffffffffffffffffffffffffffffff\n      and\n        /* \"contracts/TenkStablePair.sol\":3544:3554  msg.sender */\n      caller\n        /* \"contracts/TenkStablePair.sol\":3544:3602  msg.sender == I10kStableFactory(factory).feePercentOwner() */\n      0xffffffffffffffffffffffffffffffffffffffff\n      and\n      eq\n        /* \"contracts/TenkStablePair.sol\":3536:3641  require(msg.sender == I10kStableFactory(factory).feePercentOwner(), \"10k: only factory's feeAmountOwner\") */\n      tag_217\n      jumpi\n      mload(0x40)\n      0x08c379a000000000000000000000000000000000000000000000000000000000\n      dup2\n      mstore\n      0x04\n      add\n      dup1\n      dup1\n      0x20\n      add\n      dup3\n      dup2\n      sub\n      dup3\n      mstore\n      0x22\n      dup2\n      mstore\n      0x20\n      add\n      dup1\n      data_34ffd81d2bf0b96acae486668fc9d6475667930df09e9039ee8381f9cc8ef0b1\n      0x22\n      swap2\n      codecopy\n      0x40\n      add\n      swap2\n      pop\n      pop\n      mload(0x40)\n      dup1\n      swap2\n      sub\n      swap1\n      revert\n    tag_217:\n        /* \"contracts/TenkStablePair.sol\":700:704  2000 */\n      0x07d0\n        /* \"contracts/TenkStablePair.sol\":3656:3675  newToken0FeePercent */\n      dup3\n        /* \"contracts/TenkStablePair.sol\":3656:3694  newToken0FeePercent <= MAX_FEE_PERCENT */\n      0xffff\n      and\n      gt\n      iszero\n        /* \"contracts/TenkStablePair.sol\":3656:3736  newToken0FeePercent <= MAX_FEE_PERCENT && newToken1FeePercent <= MAX_FEE_PERCENT */\n      dup1\n      iszero\n      tag_218\n      jumpi\n      pop\n        /* \"contracts/TenkStablePair.sol\":700:704  2000 */\n      0x07d0\n        /* \"contracts/TenkStablePair.sol\":3698:3717  newToken1FeePercent */\n      dup2\n        /* \"contracts/TenkStablePair.sol\":3698:3736  newToken1FeePercent <= MAX_FEE_PERCENT */\n      0xffff\n      and\n      gt\n      iszero\n        /* \"contracts/TenkStablePair.sol\":3656:3736  newToken0FeePercent <= MAX_FEE_PERCENT && newToken1FeePercent <= MAX_FEE_PERCENT */\n    tag_218:\n        /* \"contracts/TenkStablePair.sol\":3648:3783  require(newToken0FeePercent <= MAX_FEE_PERCENT && newToken1FeePercent <= MAX_FEE_PERCENT, \"10k: feePercent mustn't exceed the maximum\") */\n      tag_219\n      jumpi\n      mload(0x40)\n      0x08c379a000000000000000000000000000000000000000000000000000000000\n      dup2\n      mstore\n      0x04\n      add\n      dup1\n      dup1\n      0x20\n      add\n      dup3\n      dup2\n      sub\n      dup3\n      mstore\n      0x2a\n      dup2\n      mstore\n      0x20\n      add\n      dup1\n      data_45baaf65170b7d96ab118754b668eead3e0f148d8a45a6c0a60aec311cfcee2f\n      0x2a\n      swap2\n      codecopy\n      0x40\n      add\n      swap2\n      pop\n      pop\n      mload(0x40)\n      dup1\n      swap2\n      sub\n      swap1\n      revert\n    tag_219:\n        /* \"contracts/TenkStablePair.sol\":3820:3821  0 */\n      0x00\n        /* \"contracts/TenkStablePair.sol\":3798:3817  newToken0FeePercent */\n      dup3\n        /* \"contracts/TenkStablePair.sol\":3798:3821  newToken0FeePercent > 0 */\n      0xffff\n      and\n      gt\n        /* \"contracts/TenkStablePair.sol\":3798:3848  newToken0FeePercent > 0 && newToken1FeePercent > 0 */\n      dup1\n      iszero\n      tag_220\n      jumpi\n      pop\n        /* \"contracts/TenkStablePair.sol\":3847:3848  0 */\n      0x00\n        /* \"contracts/TenkStablePair.sol\":3825:3844  newToken1FeePercent */\n      dup2\n        /* \"contracts/TenkStablePair.sol\":3825:3848  newToken1FeePercent > 0 */\n      0xffff\n      and\n      gt\n        /* \"contracts/TenkStablePair.sol\":3798:3848  newToken0FeePercent > 0 && newToken1FeePercent > 0 */\n    tag_220:\n        /* \"contracts/TenkStablePair.sol\":3790:3895  require(newToken0FeePercent > 0 && newToken1FeePercent > 0, \"10k: feePercent mustn't exceed the minimum\") */\n      tag_221\n      jumpi\n      mload(0x40)\n      0x08c379a000000000000000000000000000000000000000000000000000000000\n      dup2\n      mstore\n      0x04\n      add\n      dup1\n      dup1\n      0x20\n      add\n      dup3\n      dup2\n      sub\n      dup3\n      mstore\n      0x2a\n      dup2\n      mstore\n      0x20\n      add\n      dup1\n      data_640c1a2bcb4b0e819d290be36ffb74fff17dd4659141ae0e8778f67d9638ba4c\n      0x2a\n      swap2\n      codecopy\n      0x40\n      add\n      swap2\n      pop\n      pop\n      mload(0x40)\n      dup1\n      swap2\n      sub\n      swap1\n      revert\n    tag_221:\n        /* \"contracts/TenkStablePair.sol\":3921:3940  newToken0FeePercent */\n      dup2\n        /* \"contracts/TenkStablePair.sol\":3902:3918  token0FeePercent */\n      0x08\n      0x1c\n        /* \"contracts/TenkStablePair.sol\":3902:3940  token0FeePercent = newToken0FeePercent */\n      0x0100\n      exp\n      dup2\n      sload\n      dup2\n      0xffff\n      mul\n      not\n      and\n      swap1\n      dup4\n      0xffff\n      and\n      mul\n      or\n      swap1\n      sstore\n      pop\n        /* \"contracts/TenkStablePair.sol\":3966:3985  newToken1FeePercent */\n      dup1\n        /* \"contracts/TenkStablePair.sol\":3947:3963  token1FeePercent */\n      0x08\n      0x1e\n        /* \"contracts/TenkStablePair.sol\":3947:3985  token1FeePercent = newToken1FeePercent */\n      0x0100\n      exp\n      dup2\n      sload\n      dup2\n      0xffff\n      mul\n      not\n      and\n      swap1\n      dup4\n      0xffff\n      and\n      mul\n      or\n      swap1\n      sstore\n      pop\n        /* \"contracts/TenkStablePair.sol\":3997:4056  FeePercentUpdated(newToken0FeePercent, newToken1FeePercent) */\n      0xa4877b8ecb5a00ba277e4bceeeb187a669e7113649774dfbea05c259ce27f17b\n        /* \"contracts/TenkStablePair.sol\":4015:4034  newToken0FeePercent */\n      dup3\n        /* \"contracts/TenkStablePair.sol\":4036:4055  newToken1FeePercent */\n      dup3\n        /* \"contracts/TenkStablePair.sol\":3997:4056  FeePercentUpdated(newToken0FeePercent, newToken1FeePercent) */\n      mload(0x40)\n      dup1\n      dup4\n      0xffff\n      and\n      0xffff\n      and\n      dup2\n      mstore\n      0x20\n      add\n      dup3\n      0xffff\n      and\n      0xffff\n      and\n      dup2\n      mstore\n      0x20\n      add\n      swap3\n      pop\n      pop\n      pop\n      mload(0x40)\n      dup1\n      swap2\n      sub\n      swap1\n      log1\n        /* \"contracts/TenkStablePair.sol\":1631:1632  1 */\n      0x01\n        /* \"contracts/TenkStablePair.sol\":1620:1628  unlocked */\n      0x0d\n        /* \"contracts/TenkStablePair.sol\":1620:1632  unlocked = 1 */\n      dup2\n      swap1\n      sstore\n      pop\n        /* \"contracts/TenkStablePair.sol\":3436:4062  function setFeePercent(uint16 newToken0FeePercent, uint16 newToken1FeePercent) external lock {\r... */\n      pop\n      pop\n      jump\t// out\n        /* \"contracts/TenkStablePair.sol\":909:945  uint16 public token0FeePercent = 300 */\n    tag_100:\n      0x08\n      0x1c\n      swap1\n      sload\n      swap1\n      0x0100\n      exp\n      swap1\n      div\n      0xffff\n      and\n      dup2\n      jump\t// out\n        /* \"contracts/TenkStablePair.sol\":661:704  uint public constant MAX_FEE_PERCENT = 2000 */\n    tag_102:\n        /* \"contracts/TenkStablePair.sol\":700:704  2000 */\n      0x07d0\n        /* \"contracts/TenkStablePair.sol\":661:704  uint public constant MAX_FEE_PERCENT = 2000 */\n      dup2\n      jump\t// out\n        /* \"contracts/TenkStablePair.sol\":6390:7552  function mint(address to) external lock returns (uint liquidity) {\r... */\n    tag_105:\n        /* \"contracts/TenkStablePair.sol\":6439:6453  uint liquidity */\n      0x00\n        /* \"contracts/TenkStablePair.sol\":1569:1570  1 */\n      0x01\n        /* \"contracts/TenkStablePair.sol\":1557:1565  unlocked */\n      sload(0x0d)\n        /* \"contracts/TenkStablePair.sol\":1557:1570  unlocked == 1 */\n      eq\n        /* \"contracts/TenkStablePair.sol\":1549:1586  require(unlocked == 1, '10k: LOCKED') */\n      tag_223\n      jumpi\n      mload(0x40)\n      0x08c379a000000000000000000000000000000000000000000000000000000000\n      dup2\n      mstore\n      0x04\n      add\n      dup1\n      dup1\n      0x20\n      add\n      dup3\n      dup2\n      sub\n      dup3\n      mstore\n      0x0b\n      dup2\n      mstore\n      0x20\n      add\n      dup1\n      0x31306b3a204c4f434b4544000000000000000000000000000000000000000000\n      dup2\n      mstore\n      pop\n      0x20\n      add\n      swap2\n      pop\n      pop\n      mload(0x40)\n      dup1\n      swap2\n      sub\n      swap1\n      revert\n    tag_223:\n        /* \"contracts/TenkStablePair.sol\":1604:1605  0 */\n      0x00\n        /* \"contracts/TenkStablePair.sol\":1593:1601  unlocked */\n      0x0d\n        /* \"contracts/TenkStablePair.sol\":1593:1605  unlocked = 0 */\n      dup2\n      swap1\n      sstore\n      pop\n        /* \"contracts/TenkStablePair.sol\":6463:6480  uint112 _reserve0 */\n      0x00\n        /* \"contracts/TenkStablePair.sol\":6482:6499  uint112 _reserve1 */\n      dup1\n        /* \"contracts/TenkStablePair.sol\":6505:6518  getReserves() */\n      tag_225\n        /* \"contracts/TenkStablePair.sol\":6505:6516  getReserves */\n      tag_63\n        /* \"contracts/TenkStablePair.sol\":6505:6518  getReserves() */\n      jump\t// in\n    tag_225:\n        /* \"contracts/TenkStablePair.sol\":6462:6518  (uint112 _reserve0, uint112 _reserve1,,) = getReserves() */\n      pop\n      pop\n      swap2\n      pop\n      swap2\n      pop\n        /* \"contracts/TenkStablePair.sol\":6545:6558  uint balance0 */\n      0x00\n        /* \"contracts/TenkStablePair.sol\":6568:6574  token0 */\n      0x06\n      0x00\n      swap1\n      sload\n      swap1\n      0x0100\n      exp\n      swap1\n      div\n      0xffffffffffffffffffffffffffffffffffffffff\n      and\n        /* \"contracts/TenkStablePair.sol\":6561:6585  IERC20(token0).balanceOf */\n      0xffffffffffffffffffffffffffffffffffffffff\n      and\n      0x70a08231\n        /* \"contracts/TenkStablePair.sol\":6594:6598  this */\n      address\n        /* \"contracts/TenkStablePair.sol\":6561:6600  IERC20(token0).balanceOf(address(this)) */\n      mload(0x40)\n      dup3\n      0xffffffff\n      and\n      0xe0\n      shl\n      dup2\n      mstore\n      0x04\n      add\n      dup1\n      dup3\n      0xffffffffffffffffffffffffffffffffffffffff\n      and\n      0xffffffffffffffffffffffffffffffffffffffff\n      and\n      dup2\n      mstore\n      0x20\n      add\n      swap2\n      pop\n      pop\n      0x20\n      mload(0x40)\n      dup1\n      dup4\n      sub\n      dup2\n      dup7\n      dup1\n      extcodesize\n      iszero\n        /* \"--CODEGEN--\":8:17   */\n      dup1\n        /* \"--CODEGEN--\":5:7   */\n      iszero\n      tag_226\n      jumpi\n        /* \"--CODEGEN--\":30:31   */\n      0x00\n        /* \"--CODEGEN--\":27:28   */\n      dup1\n        /* \"--CODEGEN--\":20:32   */\n      revert\n        /* \"--CODEGEN--\":5:7   */\n    tag_226:\n        /* \"contracts/TenkStablePair.sol\":6561:6600  IERC20(token0).balanceOf(address(this)) */\n      pop\n      gas\n      staticcall\n      iszero\n        /* \"--CODEGEN--\":8:17   */\n      dup1\n        /* \"--CODEGEN--\":5:7   */\n      iszero\n      tag_227\n      jumpi\n        /* \"--CODEGEN--\":45:61   */\n      returndatasize\n        /* \"--CODEGEN--\":42:43   */\n      0x00\n        /* \"--CODEGEN--\":39:40   */\n      dup1\n        /* \"--CODEGEN--\":24:62   */\n      returndatacopy\n        /* \"--CODEGEN--\":77:93   */\n      returndatasize\n        /* \"--CODEGEN--\":74:75   */\n      0x00\n        /* \"--CODEGEN--\":67:94   */\n      revert\n        /* \"--CODEGEN--\":5:7   */\n    tag_227:\n        /* \"contracts/TenkStablePair.sol\":6561:6600  IERC20(token0).balanceOf(address(this)) */\n      pop\n      pop\n      pop\n      pop\n      mload(0x40)\n      returndatasize\n        /* \"--CODEGEN--\":13:15   */\n      0x20\n        /* \"--CODEGEN--\":8:11   */\n      dup2\n        /* \"--CODEGEN--\":5:16   */\n      lt\n        /* \"--CODEGEN--\":2:4   */\n      iszero\n      tag_228\n      jumpi\n        /* \"--CODEGEN--\":29:30   */\n      0x00\n        /* \"--CODEGEN--\":26:27   */\n      dup1\n        /* \"--CODEGEN--\":19:31   */\n      revert\n        /* \"--CODEGEN--\":2:4   */\n    tag_228:\n        /* \"contracts/TenkStablePair.sol\":6561:6600  IERC20(token0).balanceOf(address(this)) */\n      dup2\n      add\n      swap1\n      dup1\n      dup1\n      mload\n      swap1\n      0x20\n      add\n      swap1\n      swap3\n      swap2\n      swap1\n      pop\n      pop\n      pop\n        /* \"contracts/TenkStablePair.sol\":6545:6600  uint balance0 = IERC20(token0).balanceOf(address(this)) */\n      swap1\n      pop\n        /* \"contracts/TenkStablePair.sol\":6607:6620  uint balance1 */\n      0x00\n        /* \"contracts/TenkStablePair.sol\":6630:6636  token1 */\n      0x07\n      0x00\n      swap1\n      sload\n      swap1\n      0x0100\n      exp\n      swap1\n      div\n      0xffffffffffffffffffffffffffffffffffffffff\n      and\n        /* \"contracts/TenkStablePair.sol\":6623:6647  IERC20(token1).balanceOf */\n      0xffffffffffffffffffffffffffffffffffffffff\n      and\n      0x70a08231\n        /* \"contracts/TenkStablePair.sol\":6656:6660  this */\n      address\n        /* \"contracts/TenkStablePair.sol\":6623:6662  IERC20(token1).balanceOf(address(this)) */\n      mload(0x40)\n      dup3\n      0xffffffff\n      and\n      0xe0\n      shl\n      dup2\n      mstore\n      0x04\n      add\n      dup1\n      dup3\n      0xffffffffffffffffffffffffffffffffffffffff\n      and\n      0xffffffffffffffffffffffffffffffffffffffff\n      and\n      dup2\n      mstore\n      0x20\n      add\n      swap2\n      pop\n      pop\n      0x20\n      mload(0x40)\n      dup1\n      dup4\n      sub\n      dup2\n      dup7\n      dup1\n      extcodesize\n      iszero\n        /* \"--CODEGEN--\":8:17   */\n      dup1\n        /* \"--CODEGEN--\":5:7   */\n      iszero\n      tag_229\n      jumpi\n        /* \"--CODEGEN--\":30:31   */\n      0x00\n        /* \"--CODEGEN--\":27:28   */\n      dup1\n        /* \"--CODEGEN--\":20:32   */\n      revert\n        /* \"--CODEGEN--\":5:7   */\n    tag_229:\n        /* \"contracts/TenkStablePair.sol\":6623:6662  IERC20(token1).balanceOf(address(this)) */\n      pop\n      gas\n      staticcall\n      iszero\n        /* \"--CODEGEN--\":8:17   */\n      dup1\n        /* \"--CODEGEN--\":5:7   */\n      iszero\n      tag_230\n      jumpi\n        /* \"--CODEGEN--\":45:61   */\n      returndatasize\n        /* \"--CODEGEN--\":42:43   */\n      0x00\n        /* \"--CODEGEN--\":39:40   */\n      dup1\n        /* \"--CODEGEN--\":24:62   */\n      returndatacopy\n        /* \"--CODEGEN--\":77:93   */\n      returndatasize\n        /* \"--CODEGEN--\":74:75   */\n      0x00\n        /* \"--CODEGEN--\":67:94   */\n      revert\n        /* \"--CODEGEN--\":5:7   */\n    tag_230:\n        /* \"contracts/TenkStablePair.sol\":6623:6662  IERC20(token1).balanceOf(address(this)) */\n      pop\n      pop\n      pop\n      pop\n      mload(0x40)\n      returndatasize\n        /* \"--CODEGEN--\":13:15   */\n      0x20\n        /* \"--CODEGEN--\":8:11   */\n      dup2\n        /* \"--CODEGEN--\":5:16   */\n      lt\n        /* \"--CODEGEN--\":2:4   */\n      iszero\n      tag_231\n      jumpi\n        /* \"--CODEGEN--\":29:30   */\n      0x00\n        /* \"--CODEGEN--\":26:27   */\n      dup1\n        /* \"--CODEGEN--\":19:31   */\n      revert\n        /* \"--CODEGEN--\":2:4   */\n    tag_231:\n        /* \"contracts/TenkStablePair.sol\":6623:6662  IERC20(token1).balanceOf(address(this)) */\n      dup2\n      add\n      swap1\n      dup1\n      dup1\n      mload\n      swap1\n      0x20\n      add\n      swap1\n      swap3\n      swap2\n      swap1\n      pop\n      pop\n      pop\n        /* \"contracts/TenkStablePair.sol\":6607:6662  uint balance1 = IERC20(token1).balanceOf(address(this)) */\n      swap1\n      pop\n        /* \"contracts/TenkStablePair.sol\":6669:6681  uint amount0 */\n      0x00\n        /* \"contracts/TenkStablePair.sol\":6684:6707  balance0.sub(_reserve0) */\n      tag_232\n        /* \"contracts/TenkStablePair.sol\":6697:6706  _reserve0 */\n      dup6\n        /* \"contracts/TenkStablePair.sol\":6684:6707  balance0.sub(_reserve0) */\n      0xffffffffffffffffffffffffffff\n      and\n        /* \"contracts/TenkStablePair.sol\":6684:6692  balance0 */\n      dup5\n        /* \"contracts/TenkStablePair.sol\":6684:6696  balance0.sub */\n      tag_173\n      swap1\n        /* \"contracts/TenkStablePair.sol\":6684:6707  balance0.sub(_reserve0) */\n      swap2\n      swap1\n      0xffffffff\n      and\n      jump\t// in\n    tag_232:\n        /* \"contracts/TenkStablePair.sol\":6669:6707  uint amount0 = balance0.sub(_reserve0) */\n      swap1\n      pop\n        /* \"contracts/TenkStablePair.sol\":6714:6726  uint amount1 */\n      0x00\n        /* \"contracts/TenkStablePair.sol\":6729:6752  balance1.sub(_reserve1) */\n      tag_233\n        /* \"contracts/TenkStablePair.sol\":6742:6751  _reserve1 */\n      dup6\n        /* \"contracts/TenkStablePair.sol\":6729:6752  balance1.sub(_reserve1) */\n      0xffffffffffffffffffffffffffff\n      and\n        /* \"contracts/TenkStablePair.sol\":6729:6737  balance1 */\n      dup5\n        /* \"contracts/TenkStablePair.sol\":6729:6741  balance1.sub */\n      tag_173\n      swap1\n        /* \"contracts/TenkStablePair.sol\":6729:6752  balance1.sub(_reserve1) */\n      swap2\n      swap1\n      0xffffffff\n      and\n      jump\t// in\n    tag_233:\n        /* \"contracts/TenkStablePair.sol\":6714:6752  uint amount1 = balance1.sub(_reserve1) */\n      swap1\n      pop\n        /* \"contracts/TenkStablePair.sol\":6761:6771  bool feeOn */\n      0x00\n        /* \"contracts/TenkStablePair.sol\":6774:6804  _mintFee(_reserve0, _reserve1) */\n      tag_234\n        /* \"contracts/TenkStablePair.sol\":6783:6792  _reserve0 */\n      dup8\n        /* \"contracts/TenkStablePair.sol\":6794:6803  _reserve1 */\n      dup8\n        /* \"contracts/TenkStablePair.sol\":6774:6782  _mintFee */\n      tag_188\n        /* \"contracts/TenkStablePair.sol\":6774:6804  _mintFee(_reserve0, _reserve1) */\n      jump\t// in\n    tag_234:\n        /* \"contracts/TenkStablePair.sol\":6761:6804  bool feeOn = _mintFee(_reserve0, _reserve1) */\n      swap1\n      pop\n        /* \"contracts/TenkStablePair.sol\":6811:6828  uint _totalSupply */\n      0x00\n        /* \"contracts/TenkStablePair.sol\":6831:6842  totalSupply */\n      dup1\n      sload\n        /* \"contracts/TenkStablePair.sol\":6811:6842  uint _totalSupply = totalSupply */\n      swap1\n      pop\n        /* \"contracts/TenkStablePair.sol\":6952:6953  0 */\n      0x00\n        /* \"contracts/TenkStablePair.sol\":6936:6948  _totalSupply */\n      dup2\n        /* \"contracts/TenkStablePair.sol\":6936:6953  _totalSupply == 0 */\n      eq\n        /* \"contracts/TenkStablePair.sol\":6932:7266  if (_totalSupply == 0) {\r... */\n      iszero\n      tag_235\n      jumpi\n        /* \"contracts/TenkStablePair.sol\":6976:7030  Math.sqrt(amount0.mul(amount1)).sub(MINIMUM_LIQUIDITY) */\n      tag_236\n        /* \"contracts/TenkStablePair.sol\":393:400  10 ** 3 */\n      0x03e8\n        /* \"contracts/TenkStablePair.sol\":6976:7007  Math.sqrt(amount0.mul(amount1)) */\n      tag_237\n        /* \"contracts/TenkStablePair.sol\":6986:7006  amount0.mul(amount1) */\n      tag_238\n        /* \"contracts/TenkStablePair.sol\":6998:7005  amount1 */\n      dup7\n        /* \"contracts/TenkStablePair.sol\":6986:6993  amount0 */\n      dup9\n        /* \"contracts/TenkStablePair.sol\":6986:6997  amount0.mul */\n      tag_239\n      swap1\n        /* \"contracts/TenkStablePair.sol\":6986:7006  amount0.mul(amount1) */\n      swap2\n      swap1\n      0xffffffff\n      and\n      jump\t// in\n    tag_238:\n        /* \"contracts/TenkStablePair.sol\":6976:6985  Math.sqrt */\n      tag_240\n        /* \"contracts/TenkStablePair.sol\":6976:7007  Math.sqrt(amount0.mul(amount1)) */\n      jump\t// in\n    tag_237:\n        /* \"contracts/TenkStablePair.sol\":6976:7011  Math.sqrt(amount0.mul(amount1)).sub */\n      tag_173\n      swap1\n        /* \"contracts/TenkStablePair.sol\":6976:7030  Math.sqrt(amount0.mul(amount1)).sub(MINIMUM_LIQUIDITY) */\n      swap2\n      swap1\n      0xffffffff\n      and\n      jump\t// in\n    tag_236:\n        /* \"contracts/TenkStablePair.sol\":6964:7030  liquidity = Math.sqrt(amount0.mul(amount1)).sub(MINIMUM_LIQUIDITY) */\n      swap9\n      pop\n        /* \"contracts/TenkStablePair.sol\":7039:7075  _mint(address(0), MINIMUM_LIQUIDITY) */\n      tag_241\n        /* \"contracts/TenkStablePair.sol\":7053:7054  0 */\n      0x00\n        /* \"contracts/TenkStablePair.sol\":393:400  10 ** 3 */\n      0x03e8\n        /* \"contracts/TenkStablePair.sol\":7039:7044  _mint */\n      tag_242\n        /* \"contracts/TenkStablePair.sol\":7039:7075  _mint(address(0), MINIMUM_LIQUIDITY) */\n      jump\t// in\n    tag_241:\n        /* \"contracts/TenkStablePair.sol\":6932:7266  if (_totalSupply == 0) {\r... */\n      jump(tag_243)\n    tag_235:\n        /* \"contracts/TenkStablePair.sol\":7172:7258  Math.min(amount0.mul(_totalSupply) / _reserve0, amount1.mul(_totalSupply) / _reserve1) */\n      tag_244\n        /* \"contracts/TenkStablePair.sol\":7209:7218  _reserve0 */\n      dup9\n        /* \"contracts/TenkStablePair.sol\":7181:7218  amount0.mul(_totalSupply) / _reserve0 */\n      0xffffffffffffffffffffffffffff\n      and\n        /* \"contracts/TenkStablePair.sol\":7181:7206  amount0.mul(_totalSupply) */\n      tag_245\n        /* \"contracts/TenkStablePair.sol\":7193:7205  _totalSupply */\n      dup4\n        /* \"contracts/TenkStablePair.sol\":7181:7188  amount0 */\n      dup8\n        /* \"contracts/TenkStablePair.sol\":7181:7192  amount0.mul */\n      tag_239\n      swap1\n        /* \"contracts/TenkStablePair.sol\":7181:7206  amount0.mul(_totalSupply) */\n      swap2\n      swap1\n      0xffffffff\n      and\n      jump\t// in\n    tag_245:\n        /* \"contracts/TenkStablePair.sol\":7181:7218  amount0.mul(_totalSupply) / _reserve0 */\n      dup2\n      tag_246\n      jumpi\n      invalid\n    tag_246:\n      div\n        /* \"contracts/TenkStablePair.sol\":7248:7257  _reserve1 */\n      dup9\n        /* \"contracts/TenkStablePair.sol\":7220:7257  amount1.mul(_totalSupply) / _reserve1 */\n      0xffffffffffffffffffffffffffff\n      and\n        /* \"contracts/TenkStablePair.sol\":7220:7245  amount1.mul(_totalSupply) */\n      tag_247\n        /* \"contracts/TenkStablePair.sol\":7232:7244  _totalSupply */\n      dup5\n        /* \"contracts/TenkStablePair.sol\":7220:7227  amount1 */\n      dup8\n        /* \"contracts/TenkStablePair.sol\":7220:7231  amount1.mul */\n      tag_239\n      swap1\n        /* \"contracts/TenkStablePair.sol\":7220:7245  amount1.mul(_totalSupply) */\n      swap2\n      swap1\n      0xffffffff\n      and\n      jump\t// in\n    tag_247:\n        /* \"contracts/TenkStablePair.sol\":7220:7257  amount1.mul(_totalSupply) / _reserve1 */\n      dup2\n      tag_248\n      jumpi\n      invalid\n    tag_248:\n      div\n        /* \"contracts/TenkStablePair.sol\":7172:7180  Math.min */\n      tag_249\n        /* \"contracts/TenkStablePair.sol\":7172:7258  Math.min(amount0.mul(_totalSupply) / _reserve0, amount1.mul(_totalSupply) / _reserve1) */\n      jump\t// in\n    tag_244:\n        /* \"contracts/TenkStablePair.sol\":7160:7258  liquidity = Math.min(amount0.mul(_totalSupply) / _reserve0, amount1.mul(_totalSupply) / _reserve1) */\n      swap9\n      pop\n        /* \"contracts/TenkStablePair.sol\":6932:7266  if (_totalSupply == 0) {\r... */\n    tag_243:\n        /* \"contracts/TenkStablePair.sol\":7292:7293  0 */\n      0x00\n        /* \"contracts/TenkStablePair.sol\":7280:7289  liquidity */\n      dup10\n        /* \"contracts/TenkStablePair.sol\":7280:7293  liquidity > 0 */\n      gt\n        /* \"contracts/TenkStablePair.sol\":7272:7332  require(liquidity > 0, '10k: INSUFFICIENT_LIQUIDITY_MINTED') */\n      tag_250\n      jumpi\n      mload(0x40)\n      0x08c379a000000000000000000000000000000000000000000000000000000000\n      dup2\n      mstore\n      0x04\n      add\n      dup1\n      dup1\n      0x20\n      add\n      dup3\n      dup2\n      sub\n      dup3\n      mstore\n      0x22\n      dup2\n      mstore\n      0x20\n      add\n      dup1\n      data_8a472e50ec0b760c580c3dc8c62cdcf0fe39bab372eaf2d9e07261f1b72df71d\n      0x22\n      swap2\n      codecopy\n      0x40\n      add\n      swap2\n      pop\n      pop\n      mload(0x40)\n      dup1\n      swap2\n      sub\n      swap1\n      revert\n    tag_250:\n        /* \"contracts/TenkStablePair.sol\":7339:7359  _mint(to, liquidity) */\n      tag_251\n        /* \"contracts/TenkStablePair.sol\":7345:7347  to */\n      dup11\n        /* \"contracts/TenkStablePair.sol\":7349:7358  liquidity */\n      dup11\n        /* \"contracts/TenkStablePair.sol\":7339:7344  _mint */\n      tag_242\n        /* \"contracts/TenkStablePair.sol\":7339:7359  _mint(to, liquidity) */\n      jump\t// in\n    tag_251:\n        /* \"contracts/TenkStablePair.sol\":7368:7395  _update(balance0, balance1) */\n      tag_252\n        /* \"contracts/TenkStablePair.sol\":7376:7384  balance0 */\n      dup7\n        /* \"contracts/TenkStablePair.sol\":7386:7394  balance1 */\n      dup7\n        /* \"contracts/TenkStablePair.sol\":7368:7375  _update */\n      tag_253\n        /* \"contracts/TenkStablePair.sol\":7368:7395  _update(balance0, balance1) */\n      jump\t// in\n    tag_252:\n        /* \"contracts/TenkStablePair.sol\":7406:7411  feeOn */\n      dup2\n        /* \"contracts/TenkStablePair.sol\":7402:7455  if (feeOn) kLast = _k(uint(reserve0), uint(reserve1)) */\n      iszero\n      tag_254\n      jumpi\n        /* \"contracts/TenkStablePair.sol\":7421:7455  _k(uint(reserve0), uint(reserve1)) */\n      tag_255\n        /* \"contracts/TenkStablePair.sol\":7429:7437  reserve0 */\n      0x08\n      0x00\n      swap1\n      sload\n      swap1\n      0x0100\n      exp\n      swap1\n      div\n      0xffffffffffffffffffffffffffff\n      and\n        /* \"contracts/TenkStablePair.sol\":7424:7438  uint(reserve0) */\n      0xffffffffffffffffffffffffffff\n      and\n        /* \"contracts/TenkStablePair.sol\":7445:7453  reserve1 */\n      0x08\n      0x0e\n      swap1\n      sload\n      swap1\n      0x0100\n      exp\n      swap1\n      div\n      0xffffffffffffffffffffffffffff\n      and\n        /* \"contracts/TenkStablePair.sol\":7440:7454  uint(reserve1) */\n      0xffffffffffffffffffffffffffff\n      and\n        /* \"contracts/TenkStablePair.sol\":7421:7423  _k */\n      tag_193\n        /* \"contracts/TenkStablePair.sol\":7421:7455  _k(uint(reserve0), uint(reserve1)) */\n      jump\t// in\n    tag_255:\n        /* \"contracts/TenkStablePair.sol\":7413:7418  kLast */\n      0x0b\n        /* \"contracts/TenkStablePair.sol\":7413:7455  kLast = _k(uint(reserve0), uint(reserve1)) */\n      dup2\n      swap1\n      sstore\n      pop\n        /* \"contracts/TenkStablePair.sol\":7402:7455  if (feeOn) kLast = _k(uint(reserve0), uint(reserve1)) */\n    tag_254:\n        /* \"contracts/TenkStablePair.sol\":7517:7527  msg.sender */\n      caller\n        /* \"contracts/TenkStablePair.sol\":7512:7546  Mint(msg.sender, amount0, amount1) */\n      0xffffffffffffffffffffffffffffffffffffffff\n      and\n      0x4c209b5fc8ad50758f13e2e1088ba56a560dff690a1c6fef26394f4c03821c4f\n        /* \"contracts/TenkStablePair.sol\":7529:7536  amount0 */\n      dup6\n        /* \"contracts/TenkStablePair.sol\":7538:7545  amount1 */\n      dup6\n        /* \"contracts/TenkStablePair.sol\":7512:7546  Mint(msg.sender, amount0, amount1) */\n      mload(0x40)\n      dup1\n      dup4\n      dup2\n      mstore\n      0x20\n      add\n      dup3\n      dup2\n      mstore\n      0x20\n      add\n      swap3\n      pop\n      pop\n      pop\n      mload(0x40)\n      dup1\n      swap2\n      sub\n      swap1\n      log2\n        /* \"contracts/TenkStablePair.sol\":1612:1613  _ */\n      pop\n      pop\n      pop\n      pop\n      pop\n      pop\n      pop\n      pop\n        /* \"contracts/TenkStablePair.sol\":1631:1632  1 */\n      0x01\n        /* \"contracts/TenkStablePair.sol\":1620:1628  unlocked */\n      0x0d\n        /* \"contracts/TenkStablePair.sol\":1620:1632  unlocked = 1 */\n      dup2\n      swap1\n      sstore\n      pop\n        /* \"contracts/TenkStablePair.sol\":6390:7552  function mint(address to) external lock returns (uint liquidity) {\r... */\n      swap2\n      swap1\n      pop\n      jump\t// out\n        /* \"contracts/TenkStablePair.sol\":9784:10197  function swap(uint amount0Out, uint amount1Out, address to, bytes calldata data, address referrer) external {\r... */\n    tag_111:\n        /* \"contracts/TenkStablePair.sol\":9899:9927  TokensData memory tokensData */\n      tag_257\n      tag_163\n      jump\t// in\n    tag_257:\n        /* \"contracts/TenkStablePair.sol\":9930:10147  TokensData({\r... */\n      mload(0x40)\n      dup1\n      0x0100\n      add\n      0x40\n      mstore\n      dup1\n        /* \"contracts/TenkStablePair.sol\":9958:9964  token0 */\n      0x06\n      0x00\n      swap1\n      sload\n      swap1\n      0x0100\n      exp\n      swap1\n      div\n      0xffffffffffffffffffffffffffffffffffffffff\n      and\n        /* \"contracts/TenkStablePair.sol\":9930:10147  TokensData({\r... */\n      0xffffffffffffffffffffffffffffffffffffffff\n      and\n      dup2\n      mstore\n      0x20\n      add\n        /* \"contracts/TenkStablePair.sol\":9981:9987  token1 */\n      0x07\n      0x00\n      swap1\n      sload\n      swap1\n      0x0100\n      exp\n      swap1\n      div\n      0xffffffffffffffffffffffffffffffffffffffff\n      and\n        /* \"contracts/TenkStablePair.sol\":9930:10147  TokensData({\r... */\n      0xffffffffffffffffffffffffffffffffffffffff\n      and\n      dup2\n      mstore\n      0x20\n      add\n        /* \"contracts/TenkStablePair.sol\":10008:10018  amount0Out */\n      dup9\n        /* \"contracts/TenkStablePair.sol\":9930:10147  TokensData({\r... */\n      dup2\n      mstore\n      0x20\n      add\n        /* \"contracts/TenkStablePair.sol\":10039:10049  amount1Out */\n      dup8\n        /* \"contracts/TenkStablePair.sol\":9930:10147  TokensData({\r... */\n      dup2\n      mstore\n      0x20\n      add\n        /* \"contracts/TenkStablePair.sol\":10068:10069  0 */\n      0x00\n        /* \"contracts/TenkStablePair.sol\":9930:10147  TokensData({\r... */\n      dup2\n      mstore\n      0x20\n      add\n        /* \"contracts/TenkStablePair.sol\":10088:10089  0 */\n      0x00\n        /* \"contracts/TenkStablePair.sol\":9930:10147  TokensData({\r... */\n      dup2\n      mstore\n      0x20\n      add\n        /* \"contracts/TenkStablePair.sol\":10113:10114  0 */\n      0x00\n        /* \"contracts/TenkStablePair.sol\":9930:10147  TokensData({\r... */\n      dup2\n      mstore\n      0x20\n      add\n        /* \"contracts/TenkStablePair.sol\":10138:10139  0 */\n      0x00\n        /* \"contracts/TenkStablePair.sol\":9930:10147  TokensData({\r... */\n      dup2\n      mstore\n      pop\n        /* \"contracts/TenkStablePair.sol\":9899:10147  TokensData memory tokensData = TokensData({\r... */\n      swap1\n      pop\n        /* \"contracts/TenkStablePair.sol\":10154:10191  _swap(tokensData, to, data, referrer) */\n      tag_258\n        /* \"contracts/TenkStablePair.sol\":10160:10170  tokensData */\n      dup2\n        /* \"contracts/TenkStablePair.sol\":10172:10174  to */\n      dup7\n        /* \"contracts/TenkStablePair.sol\":10176:10180  data */\n      dup7\n      dup7\n        /* \"contracts/TenkStablePair.sol\":10154:10191  _swap(tokensData, to, data, referrer) */\n      dup1\n      dup1\n      0x1f\n      add\n      0x20\n      dup1\n      swap2\n      div\n      mul\n      0x20\n      add\n      mload(0x40)\n      swap1\n      dup2\n      add\n      0x40\n      mstore\n      dup1\n      swap4\n      swap3\n      swap2\n      swap1\n      dup2\n      dup2\n      mstore\n      0x20\n      add\n      dup4\n      dup4\n        /* \"--CODEGEN--\":30:33   */\n      dup1\n        /* \"--CODEGEN--\":22:28   */\n      dup3\n        /* \"--CODEGEN--\":14:20   */\n      dup5\n        /* \"--CODEGEN--\":1:34   */\n      calldatacopy\n        /* \"--CODEGEN--\":99:100   */\n      0x00\n        /* \"--CODEGEN--\":93:96   */\n      dup2\n        /* \"--CODEGEN--\":85:91   */\n      dup5\n        /* \"--CODEGEN--\":81:97   */\n      add\n        /* \"--CODEGEN--\":74:101   */\n      mstore\n        /* \"--CODEGEN--\":137:141   */\n      0x1f\n        /* \"--CODEGEN--\":133:142   */\n      not\n        /* \"--CODEGEN--\":126:130   */\n      0x1f\n        /* \"--CODEGEN--\":121:124   */\n      dup3\n        /* \"--CODEGEN--\":117:131   */\n      add\n        /* \"--CODEGEN--\":113:143   */\n      and\n        /* \"--CODEGEN--\":106:143   */\n      swap1\n      pop\n        /* \"--CODEGEN--\":169:172   */\n      dup1\n        /* \"--CODEGEN--\":161:167   */\n      dup4\n        /* \"--CODEGEN--\":157:173   */\n      add\n        /* \"--CODEGEN--\":147:173   */\n      swap3\n      pop\n        /* \"contracts/TenkStablePair.sol\":10154:10191  _swap(tokensData, to, data, referrer) */\n      pop\n      pop\n      pop\n      pop\n      pop\n      pop\n        /* \"contracts/TenkStablePair.sol\":10182:10190  referrer */\n      dup6\n        /* \"contracts/TenkStablePair.sol\":10154:10159  _swap */\n      tag_165\n        /* \"contracts/TenkStablePair.sol\":10154:10191  _swap(tokensData, to, data, referrer) */\n      jump\t// in\n    tag_258:\n        /* \"contracts/TenkStablePair.sol\":9784:10197  function swap(uint amount0Out, uint amount1Out, address to, bytes calldata data, address referrer) external {\r... */\n      pop\n      pop\n      pop\n      pop\n      pop\n      pop\n      pop\n      jump\t// out\n        /* \"contracts/TenkERC20.sol\":347:388  mapping(address => uint) public balanceOf */\n    tag_114:\n      mstore(0x20, 0x01)\n      dup1\n      0x00\n      mstore\n      keccak256(0x00, 0x40)\n      0x00\n      swap2\n      pop\n      swap1\n      pop\n      sload\n      dup2\n      jump\t// out\n        /* \"contracts/TenkStablePair.sol\":1219:1236  uint public kLast */\n    tag_116:\n      sload(0x0b)\n      dup2\n      jump\t// out\n        /* \"contracts/TenkERC20.sol\":723:761  mapping(address => uint) public nonces */\n    tag_119:\n      mstore(0x20, 0x04)\n      dup1\n      0x00\n      mstore\n      keccak256(0x00, 0x40)\n      0x00\n      swap2\n      pop\n      swap1\n      pop\n      sload\n      dup2\n      jump\t// out\n        /* \"contracts/TenkStablePair.sol\":7660:8965  function burn(address to) external lock returns (uint amount0, uint amount1) {\r... */\n    tag_122:\n        /* \"contracts/TenkStablePair.sol\":7709:7721  uint amount0 */\n      0x00\n        /* \"contracts/TenkStablePair.sol\":7723:7735  uint amount1 */\n      dup1\n        /* \"contracts/TenkStablePair.sol\":1569:1570  1 */\n      0x01\n        /* \"contracts/TenkStablePair.sol\":1557:1565  unlocked */\n      sload(0x0d)\n        /* \"contracts/TenkStablePair.sol\":1557:1570  unlocked == 1 */\n      eq\n        /* \"contracts/TenkStablePair.sol\":1549:1586  require(unlocked == 1, '10k: LOCKED') */\n      tag_260\n      jumpi\n      mload(0x40)\n      0x08c379a000000000000000000000000000000000000000000000000000000000\n      dup2\n      mstore\n      0x04\n      add\n      dup1\n      dup1\n      0x20\n      add\n      dup3\n      dup2\n      sub\n      dup3\n      mstore\n      0x0b\n      dup2\n      mstore\n      0x20\n      add\n      dup1\n      0x31306b3a204c4f434b4544000000000000000000000000000000000000000000\n      dup2\n      mstore\n      pop\n      0x20\n      add\n      swap2\n      pop\n      pop\n      mload(0x40)\n      dup1\n      swap2\n      sub\n      swap1\n      revert\n    tag_260:\n        /* \"contracts/TenkStablePair.sol\":1604:1605  0 */\n      0x00\n        /* \"contracts/TenkStablePair.sol\":1593:1601  unlocked */\n      0x0d\n        /* \"contracts/TenkStablePair.sol\":1593:1605  unlocked = 0 */\n      dup2\n      swap1\n      sstore\n      pop\n        /* \"contracts/TenkStablePair.sol\":7745:7762  uint112 _reserve0 */\n      0x00\n        /* \"contracts/TenkStablePair.sol\":7764:7781  uint112 _reserve1 */\n      dup1\n        /* \"contracts/TenkStablePair.sol\":7787:7800  getReserves() */\n      tag_262\n        /* \"contracts/TenkStablePair.sol\":7787:7798  getReserves */\n      tag_63\n        /* \"contracts/TenkStablePair.sol\":7787:7800  getReserves() */\n      jump\t// in\n    tag_262:\n        /* \"contracts/TenkStablePair.sol\":7744:7800  (uint112 _reserve0, uint112 _reserve1,,) = getReserves() */\n      pop\n      pop\n      swap2\n      pop\n      swap2\n      pop\n        /* \"contracts/TenkStablePair.sol\":7822:7837  address _token0 */\n      0x00\n        /* \"contracts/TenkStablePair.sol\":7840:7846  token0 */\n      0x06\n      0x00\n      swap1\n      sload\n      swap1\n      0x0100\n      exp\n      swap1\n      div\n      0xffffffffffffffffffffffffffffffffffffffff\n      and\n        /* \"contracts/TenkStablePair.sol\":7822:7846  address _token0 = token0 */\n      swap1\n      pop\n        /* \"contracts/TenkStablePair.sol\":7868:7883  address _token1 */\n      0x00\n        /* \"contracts/TenkStablePair.sol\":7886:7892  token1 */\n      0x07\n      0x00\n      swap1\n      sload\n      swap1\n      0x0100\n      exp\n      swap1\n      div\n      0xffffffffffffffffffffffffffffffffffffffff\n      and\n        /* \"contracts/TenkStablePair.sol\":7868:7892  address _token1 = token1 */\n      swap1\n      pop\n        /* \"contracts/TenkStablePair.sol\":7914:7927  uint balance0 */\n      0x00\n        /* \"contracts/TenkStablePair.sol\":7937:7944  _token0 */\n      dup3\n        /* \"contracts/TenkStablePair.sol\":7930:7955  IERC20(_token0).balanceOf */\n      0xffffffffffffffffffffffffffffffffffffffff\n      and\n      0x70a08231\n        /* \"contracts/TenkStablePair.sol\":7964:7968  this */\n      address\n        /* \"contracts/TenkStablePair.sol\":7930:7970  IERC20(_token0).balanceOf(address(this)) */\n      mload(0x40)\n      dup3\n      0xffffffff\n      and\n      0xe0\n      shl\n      dup2\n      mstore\n      0x04\n      add\n      dup1\n      dup3\n      0xffffffffffffffffffffffffffffffffffffffff\n      and\n      0xffffffffffffffffffffffffffffffffffffffff\n      and\n      dup2\n      mstore\n      0x20\n      add\n      swap2\n      pop\n      pop\n      0x20\n      mload(0x40)\n      dup1\n      dup4\n      sub\n      dup2\n      dup7\n      dup1\n      extcodesize\n      iszero\n        /* \"--CODEGEN--\":8:17   */\n      dup1\n        /* \"--CODEGEN--\":5:7   */\n      iszero\n      tag_263\n      jumpi\n        /* \"--CODEGEN--\":30:31   */\n      0x00\n        /* \"--CODEGEN--\":27:28   */\n      dup1\n        /* \"--CODEGEN--\":20:32   */\n      revert\n        /* \"--CODEGEN--\":5:7   */\n    tag_263:\n        /* \"contracts/TenkStablePair.sol\":7930:7970  IERC20(_token0).balanceOf(address(this)) */\n      pop\n      gas\n      staticcall\n      iszero\n        /* \"--CODEGEN--\":8:17   */\n      dup1\n        /* \"--CODEGEN--\":5:7   */\n      iszero\n      tag_264\n      jumpi\n        /* \"--CODEGEN--\":45:61   */\n      returndatasize\n        /* \"--CODEGEN--\":42:43   */\n      0x00\n        /* \"--CODEGEN--\":39:40   */\n      dup1\n        /* \"--CODEGEN--\":24:62   */\n      returndatacopy\n        /* \"--CODEGEN--\":77:93   */\n      returndatasize\n        /* \"--CODEGEN--\":74:75   */\n      0x00\n        /* \"--CODEGEN--\":67:94   */\n      revert\n        /* \"--CODEGEN--\":5:7   */\n    tag_264:\n        /* \"contracts/TenkStablePair.sol\":7930:7970  IERC20(_token0).balanceOf(address(this)) */\n      pop\n      pop\n      pop\n      pop\n      mload(0x40)\n      returndatasize\n        /* \"--CODEGEN--\":13:15   */\n      0x20\n        /* \"--CODEGEN--\":8:11   */\n      dup2\n        /* \"--CODEGEN--\":5:16   */\n      lt\n        /* \"--CODEGEN--\":2:4   */\n      iszero\n      tag_265\n      jumpi\n        /* \"--CODEGEN--\":29:30   */\n      0x00\n        /* \"--CODEGEN--\":26:27   */\n      dup1\n        /* \"--CODEGEN--\":19:31   */\n      revert\n        /* \"--CODEGEN--\":2:4   */\n    tag_265:\n        /* \"contracts/TenkStablePair.sol\":7930:7970  IERC20(_token0).balanceOf(address(this)) */\n      dup2\n      add\n      swap1\n      dup1\n      dup1\n      mload\n      swap1\n      0x20\n      add\n      swap1\n      swap3\n      swap2\n      swap1\n      pop\n      pop\n      pop\n        /* \"contracts/TenkStablePair.sol\":7914:7970  uint balance0 = IERC20(_token0).balanceOf(address(this)) */\n      swap1\n      pop\n        /* \"contracts/TenkStablePair.sol\":7977:7990  uint balance1 */\n      0x00\n        /* \"contracts/TenkStablePair.sol\":8000:8007  _token1 */\n      dup3\n        /* \"contracts/TenkStablePair.sol\":7993:8018  IERC20(_token1).balanceOf */\n      0xffffffffffffffffffffffffffffffffffffffff\n      and\n      0x70a08231\n        /* \"contracts/TenkStablePair.sol\":8027:8031  this */\n      address\n        /* \"contracts/TenkStablePair.sol\":7993:8033  IERC20(_token1).balanceOf(address(this)) */\n      mload(0x40)\n      dup3\n      0xffffffff\n      and\n      0xe0\n      shl\n      dup2\n      mstore\n      0x04\n      add\n      dup1\n      dup3\n      0xffffffffffffffffffffffffffffffffffffffff\n      and\n      0xffffffffffffffffffffffffffffffffffffffff\n      and\n      dup2\n      mstore\n      0x20\n      add\n      swap2\n      pop\n      pop\n      0x20\n      mload(0x40)\n      dup1\n      dup4\n      sub\n      dup2\n      dup7\n      dup1\n      extcodesize\n      iszero\n        /* \"--CODEGEN--\":8:17   */\n      dup1\n        /* \"--CODEGEN--\":5:7   */\n      iszero\n      tag_266\n      jumpi\n        /* \"--CODEGEN--\":30:31   */\n      0x00\n        /* \"--CODEGEN--\":27:28   */\n      dup1\n        /* \"--CODEGEN--\":20:32   */\n      revert\n        /* \"--CODEGEN--\":5:7   */\n    tag_266:\n        /* \"contracts/TenkStablePair.sol\":7993:8033  IERC20(_token1).balanceOf(address(this)) */\n      pop\n      gas\n      staticcall\n      iszero\n        /* \"--CODEGEN--\":8:17   */\n      dup1\n        /* \"--CODEGEN--\":5:7   */\n      iszero\n      tag_267\n      jumpi\n        /* \"--CODEGEN--\":45:61   */\n      returndatasize\n        /* \"--CODEGEN--\":42:43   */\n      0x00\n        /* \"--CODEGEN--\":39:40   */\n      dup1\n        /* \"--CODEGEN--\":24:62   */\n      returndatacopy\n        /* \"--CODEGEN--\":77:93   */\n      returndatasize\n        /* \"--CODEGEN--\":74:75   */\n      0x00\n        /* \"--CODEGEN--\":67:94   */\n      revert\n        /* \"--CODEGEN--\":5:7   */\n    tag_267:\n        /* \"contracts/TenkStablePair.sol\":7993:8033  IERC20(_token1).balanceOf(address(this)) */\n      pop\n      pop\n      pop\n      pop\n      mload(0x40)\n      returndatasize\n        /* \"--CODEGEN--\":13:15   */\n      0x20\n        /* \"--CODEGEN--\":8:11   */\n      dup2\n        /* \"--CODEGEN--\":5:16   */\n      lt\n        /* \"--CODEGEN--\":2:4   */\n      iszero\n      tag_268\n      jumpi\n        /* \"--CODEGEN--\":29:30   */\n      0x00\n        /* \"--CODEGEN--\":26:27   */\n      dup1\n        /* \"--CODEGEN--\":19:31   */\n      revert\n        /* \"--CODEGEN--\":2:4   */\n    tag_268:\n        /* \"contracts/TenkStablePair.sol\":7993:8033  IERC20(_token1).balanceOf(address(this)) */\n      dup2\n      add\n      swap1\n      dup1\n      dup1\n      mload\n      swap1\n      0x20\n      add\n      swap1\n      swap3\n      swap2\n      swap1\n      pop\n      pop\n      pop\n        /* \"contracts/TenkStablePair.sol\":7977:8033  uint balance1 = IERC20(_token1).balanceOf(address(this)) */\n      swap1\n      pop\n        /* \"contracts/TenkStablePair.sol\":8040:8054  uint liquidity */\n      0x00\n        /* \"contracts/TenkStablePair.sol\":8057:8066  balanceOf */\n      0x01\n        /* \"contracts/TenkStablePair.sol\":8057:8081  balanceOf[address(this)] */\n      0x00\n        /* \"contracts/TenkStablePair.sol\":8075:8079  this */\n      address\n        /* \"contracts/TenkStablePair.sol\":8057:8081  balanceOf[address(this)] */\n      0xffffffffffffffffffffffffffffffffffffffff\n      and\n      0xffffffffffffffffffffffffffffffffffffffff\n      and\n      dup2\n      mstore\n      0x20\n      add\n      swap1\n      dup2\n      mstore\n      0x20\n      add\n      0x00\n      keccak256\n      sload\n        /* \"contracts/TenkStablePair.sol\":8040:8081  uint liquidity = balanceOf[address(this)] */\n      swap1\n      pop\n        /* \"contracts/TenkStablePair.sol\":8090:8100  bool feeOn */\n      0x00\n        /* \"contracts/TenkStablePair.sol\":8103:8133  _mintFee(_reserve0, _reserve1) */\n      tag_269\n        /* \"contracts/TenkStablePair.sol\":8112:8121  _reserve0 */\n      dup9\n        /* \"contracts/TenkStablePair.sol\":8123:8132  _reserve1 */\n      dup9\n        /* \"contracts/TenkStablePair.sol\":8103:8111  _mintFee */\n      tag_188\n        /* \"contracts/TenkStablePair.sol\":8103:8133  _mintFee(_reserve0, _reserve1) */\n      jump\t// in\n    tag_269:\n        /* \"contracts/TenkStablePair.sol\":8090:8133  bool feeOn = _mintFee(_reserve0, _reserve1) */\n      swap1\n      pop\n        /* \"contracts/TenkStablePair.sol\":8140:8157  uint _totalSupply */\n      0x00\n        /* \"contracts/TenkStablePair.sol\":8160:8171  totalSupply */\n      dup1\n      sload\n        /* \"contracts/TenkStablePair.sol\":8140:8171  uint _totalSupply = totalSupply */\n      swap1\n      pop\n        /* \"contracts/TenkStablePair.sol\":8292:8304  _totalSupply */\n      dup1\n        /* \"contracts/TenkStablePair.sol\":8266:8289  liquidity.mul(balance0) */\n      tag_270\n        /* \"contracts/TenkStablePair.sol\":8280:8288  balance0 */\n      dup7\n        /* \"contracts/TenkStablePair.sol\":8266:8275  liquidity */\n      dup6\n        /* \"contracts/TenkStablePair.sol\":8266:8279  liquidity.mul */\n      tag_239\n      swap1\n        /* \"contracts/TenkStablePair.sol\":8266:8289  liquidity.mul(balance0) */\n      swap2\n      swap1\n      0xffffffff\n      and\n      jump\t// in\n    tag_270:\n        /* \"contracts/TenkStablePair.sol\":8266:8304  liquidity.mul(balance0) / _totalSupply */\n      dup2\n      tag_271\n      jumpi\n      invalid\n    tag_271:\n      div\n        /* \"contracts/TenkStablePair.sol\":8256:8304  amount0 = liquidity.mul(balance0) / _totalSupply */\n      swap11\n      pop\n        /* \"contracts/TenkStablePair.sol\":8395:8407  _totalSupply */\n      dup1\n        /* \"contracts/TenkStablePair.sol\":8369:8392  liquidity.mul(balance1) */\n      tag_272\n        /* \"contracts/TenkStablePair.sol\":8383:8391  balance1 */\n      dup6\n        /* \"contracts/TenkStablePair.sol\":8369:8378  liquidity */\n      dup6\n        /* \"contracts/TenkStablePair.sol\":8369:8382  liquidity.mul */\n      tag_239\n      swap1\n        /* \"contracts/TenkStablePair.sol\":8369:8392  liquidity.mul(balance1) */\n      swap2\n      swap1\n      0xffffffff\n      and\n      jump\t// in\n    tag_272:\n        /* \"contracts/TenkStablePair.sol\":8369:8407  liquidity.mul(balance1) / _totalSupply */\n      dup2\n      tag_273\n      jumpi\n      invalid\n    tag_273:\n      div\n        /* \"contracts/TenkStablePair.sol\":8359:8407  amount1 = liquidity.mul(balance1) / _totalSupply */\n      swap10\n      pop\n        /* \"contracts/TenkStablePair.sol\":8480:8481  0 */\n      0x00\n        /* \"contracts/TenkStablePair.sol\":8470:8477  amount0 */\n      dup12\n        /* \"contracts/TenkStablePair.sol\":8470:8481  amount0 > 0 */\n      gt\n        /* \"contracts/TenkStablePair.sol\":8470:8496  amount0 > 0 && amount1 > 0 */\n      dup1\n      iszero\n      tag_274\n      jumpi\n      pop\n        /* \"contracts/TenkStablePair.sol\":8495:8496  0 */\n      0x00\n        /* \"contracts/TenkStablePair.sol\":8485:8492  amount1 */\n      dup11\n        /* \"contracts/TenkStablePair.sol\":8485:8496  amount1 > 0 */\n      gt\n        /* \"contracts/TenkStablePair.sol\":8470:8496  amount0 > 0 && amount1 > 0 */\n    tag_274:\n        /* \"contracts/TenkStablePair.sol\":8462:8535  require(amount0 > 0 && amount1 > 0, '10k: INSUFFICIENT_LIQUIDITY_BURNED') */\n      tag_275\n      jumpi\n      mload(0x40)\n      0x08c379a000000000000000000000000000000000000000000000000000000000\n      dup2\n      mstore\n      0x04\n      add\n      dup1\n      dup1\n      0x20\n      add\n      dup3\n      dup2\n      sub\n      dup3\n      mstore\n      0x22\n      dup2\n      mstore\n      0x20\n      add\n      dup1\n      data_e445a9437cf2a16b4c4a661deca6e9c597ce139bb56e2872aedda20402a5d4d9\n      0x22\n      swap2\n      codecopy\n      0x40\n      add\n      swap2\n      pop\n      pop\n      mload(0x40)\n      dup1\n      swap2\n      sub\n      swap1\n      revert\n    tag_275:\n        /* \"contracts/TenkStablePair.sol\":8542:8573  _burn(address(this), liquidity) */\n      tag_276\n        /* \"contracts/TenkStablePair.sol\":8556:8560  this */\n      address\n        /* \"contracts/TenkStablePair.sol\":8563:8572  liquidity */\n      dup5\n        /* \"contracts/TenkStablePair.sol\":8542:8547  _burn */\n      tag_277\n        /* \"contracts/TenkStablePair.sol\":8542:8573  _burn(address(this), liquidity) */\n      jump\t// in\n    tag_276:\n        /* \"contracts/TenkStablePair.sol\":8580:8615  _safeTransfer(_token0, to, amount0) */\n      tag_278\n        /* \"contracts/TenkStablePair.sol\":8594:8601  _token0 */\n      dup8\n        /* \"contracts/TenkStablePair.sol\":8603:8605  to */\n      dup14\n        /* \"contracts/TenkStablePair.sol\":8607:8614  amount0 */\n      dup14\n        /* \"contracts/TenkStablePair.sol\":8580:8593  _safeTransfer */\n      tag_279\n        /* \"contracts/TenkStablePair.sol\":8580:8615  _safeTransfer(_token0, to, amount0) */\n      jump\t// in\n    tag_278:\n        /* \"contracts/TenkStablePair.sol\":8622:8657  _safeTransfer(_token1, to, amount1) */\n      tag_280\n        /* \"contracts/TenkStablePair.sol\":8636:8643  _token1 */\n      dup7\n        /* \"contracts/TenkStablePair.sol\":8645:8647  to */\n      dup14\n        /* \"contracts/TenkStablePair.sol\":8649:8656  amount1 */\n      dup13\n        /* \"contracts/TenkStablePair.sol\":8622:8635  _safeTransfer */\n      tag_279\n        /* \"contracts/TenkStablePair.sol\":8622:8657  _safeTransfer(_token1, to, amount1) */\n      jump\t// in\n    tag_280:\n        /* \"contracts/TenkStablePair.sol\":8682:8689  _token0 */\n      dup7\n        /* \"contracts/TenkStablePair.sol\":8675:8700  IERC20(_token0).balanceOf */\n      0xffffffffffffffffffffffffffffffffffffffff\n      and\n      0x70a08231\n        /* \"contracts/TenkStablePair.sol\":8709:8713  this */\n      address\n        /* \"contracts/TenkStablePair.sol\":8675:8715  IERC20(_token0).balanceOf(address(this)) */\n      mload(0x40)\n      dup3\n      0xffffffff\n      and\n      0xe0\n      shl\n      dup2\n      mstore\n      0x04\n      add\n      dup1\n      dup3\n      0xffffffffffffffffffffffffffffffffffffffff\n      and\n      0xffffffffffffffffffffffffffffffffffffffff\n      and\n      dup2\n      mstore\n      0x20\n      add\n      swap2\n      pop\n      pop\n      0x20\n      mload(0x40)\n      dup1\n      dup4\n      sub\n      dup2\n      dup7\n      dup1\n      extcodesize\n      iszero\n        /* \"--CODEGEN--\":8:17   */\n      dup1\n        /* \"--CODEGEN--\":5:7   */\n      iszero\n      tag_281\n      jumpi\n        /* \"--CODEGEN--\":30:31   */\n      0x00\n        /* \"--CODEGEN--\":27:28   */\n      dup1\n        /* \"--CODEGEN--\":20:32   */\n      revert\n        /* \"--CODEGEN--\":5:7   */\n    tag_281:\n        /* \"contracts/TenkStablePair.sol\":8675:8715  IERC20(_token0).balanceOf(address(this)) */\n      pop\n      gas\n      staticcall\n      iszero\n        /* \"--CODEGEN--\":8:17   */\n      dup1\n        /* \"--CODEGEN--\":5:7   */\n      iszero\n      tag_282\n      jumpi\n        /* \"--CODEGEN--\":45:61   */\n      returndatasize\n        /* \"--CODEGEN--\":42:43   */\n      0x00\n        /* \"--CODEGEN--\":39:40   */\n      dup1\n        /* \"--CODEGEN--\":24:62   */\n      returndatacopy\n        /* \"--CODEGEN--\":77:93   */\n      returndatasize\n        /* \"--CODEGEN--\":74:75   */\n      0x00\n        /* \"--CODEGEN--\":67:94   */\n      revert\n        /* \"--CODEGEN--\":5:7   */\n    tag_282:\n        /* \"contracts/TenkStablePair.sol\":8675:8715  IERC20(_token0).balanceOf(address(this)) */\n      pop\n      pop\n      pop\n      pop\n      mload(0x40)\n      returndatasize\n        /* \"--CODEGEN--\":13:15   */\n      0x20\n        /* \"--CODEGEN--\":8:11   */\n      dup2\n        /* \"--CODEGEN--\":5:16   */\n      lt\n        /* \"--CODEGEN--\":2:4   */\n      iszero\n      tag_283\n      jumpi\n        /* \"--CODEGEN--\":29:30   */\n      0x00\n        /* \"--CODEGEN--\":26:27   */\n      dup1\n        /* \"--CODEGEN--\":19:31   */\n      revert\n        /* \"--CODEGEN--\":2:4   */\n    tag_283:\n        /* \"contracts/TenkStablePair.sol\":8675:8715  IERC20(_token0).balanceOf(address(this)) */\n      dup2\n      add\n      swap1\n      dup1\n      dup1\n      mload\n      swap1\n      0x20\n      add\n      swap1\n      swap3\n      swap2\n      swap1\n      pop\n      pop\n      pop\n        /* \"contracts/TenkStablePair.sol\":8664:8715  balance0 = IERC20(_token0).balanceOf(address(this)) */\n      swap5\n      pop\n        /* \"contracts/TenkStablePair.sol\":8740:8747  _token1 */\n      dup6\n        /* \"contracts/TenkStablePair.sol\":8733:8758  IERC20(_token1).balanceOf */\n      0xffffffffffffffffffffffffffffffffffffffff\n      and\n      0x70a08231\n        /* \"contracts/TenkStablePair.sol\":8767:8771  this */\n      address\n        /* \"contracts/TenkStablePair.sol\":8733:8773  IERC20(_token1).balanceOf(address(this)) */\n      mload(0x40)\n      dup3\n      0xffffffff\n      and\n      0xe0\n      shl\n      dup2\n      mstore\n      0x04\n      add\n      dup1\n      dup3\n      0xffffffffffffffffffffffffffffffffffffffff\n      and\n      0xffffffffffffffffffffffffffffffffffffffff\n      and\n      dup2\n      mstore\n      0x20\n      add\n      swap2\n      pop\n      pop\n      0x20\n      mload(0x40)\n      dup1\n      dup4\n      sub\n      dup2\n      dup7\n      dup1\n      extcodesize\n      iszero\n        /* \"--CODEGEN--\":8:17   */\n      dup1\n        /* \"--CODEGEN--\":5:7   */\n      iszero\n      tag_284\n      jumpi\n        /* \"--CODEGEN--\":30:31   */\n      0x00\n        /* \"--CODEGEN--\":27:28   */\n      dup1\n        /* \"--CODEGEN--\":20:32   */\n      revert\n        /* \"--CODEGEN--\":5:7   */\n    tag_284:\n        /* \"contracts/TenkStablePair.sol\":8733:8773  IERC20(_token1).balanceOf(address(this)) */\n      pop\n      gas\n      staticcall\n      iszero\n        /* \"--CODEGEN--\":8:17   */\n      dup1\n        /* \"--CODEGEN--\":5:7   */\n      iszero\n      tag_285\n      jumpi\n        /* \"--CODEGEN--\":45:61   */\n      returndatasize\n        /* \"--CODEGEN--\":42:43   */\n      0x00\n        /* \"--CODEGEN--\":39:40   */\n      dup1\n        /* \"--CODEGEN--\":24:62   */\n      returndatacopy\n        /* \"--CODEGEN--\":77:93   */\n      returndatasize\n        /* \"--CODEGEN--\":74:75   */\n      0x00\n        /* \"--CODEGEN--\":67:94   */\n      revert\n        /* \"--CODEGEN--\":5:7   */\n    tag_285:\n        /* \"contracts/TenkStablePair.sol\":8733:8773  IERC20(_token1).balanceOf(address(this)) */\n      pop\n      pop\n      pop\n      pop\n      mload(0x40)\n      returndatasize\n        /* \"--CODEGEN--\":13:15   */\n      0x20\n        /* \"--CODEGEN--\":8:11   */\n      dup2\n        /* \"--CODEGEN--\":5:16   */\n      lt\n        /* \"--CODEGEN--\":2:4   */\n      iszero\n      tag_286\n      jumpi\n        /* \"--CODEGEN--\":29:30   */\n      0x00\n        /* \"--CODEGEN--\":26:27   */\n      dup1\n        /* \"--CODEGEN--\":19:31   */\n      revert\n        /* \"--CODEGEN--\":2:4   */\n    tag_286:\n        /* \"contracts/TenkStablePair.sol\":8733:8773  IERC20(_token1).balanceOf(address(this)) */\n      dup2\n      add\n      swap1\n      dup1\n      dup1\n      mload\n      swap1\n      0x20\n      add\n      swap1\n      swap3\n      swap2\n      swap1\n      pop\n      pop\n      pop\n        /* \"contracts/TenkStablePair.sol\":8722:8773  balance1 = IERC20(_token1).balanceOf(address(this)) */\n      swap4\n      pop\n        /* \"contracts/TenkStablePair.sol\":8782:8809  _update(balance0, balance1) */\n      tag_287\n        /* \"contracts/TenkStablePair.sol\":8790:8798  balance0 */\n      dup6\n        /* \"contracts/TenkStablePair.sol\":8800:8808  balance1 */\n      dup6\n        /* \"contracts/TenkStablePair.sol\":8782:8789  _update */\n      tag_253\n        /* \"contracts/TenkStablePair.sol\":8782:8809  _update(balance0, balance1) */\n      jump\t// in\n    tag_287:\n        /* \"contracts/TenkStablePair.sol\":8820:8825  feeOn */\n      dup2\n        /* \"contracts/TenkStablePair.sol\":8816:8869  if (feeOn) kLast = _k(uint(reserve0), uint(reserve1)) */\n      iszero\n      tag_288\n      jumpi\n        /* \"contracts/TenkStablePair.sol\":8835:8869  _k(uint(reserve0), uint(reserve1)) */\n      tag_289\n        /* \"contracts/TenkStablePair.sol\":8843:8851  reserve0 */\n      0x08\n      0x00\n      swap1\n      sload\n      swap1\n      0x0100\n      exp\n      swap1\n      div\n      0xffffffffffffffffffffffffffff\n      and\n        /* \"contracts/TenkStablePair.sol\":8838:8852  uint(reserve0) */\n      0xffffffffffffffffffffffffffff\n      and\n        /* \"contracts/TenkStablePair.sol\":8859:8867  reserve1 */\n      0x08\n      0x0e\n      swap1\n      sload\n      swap1\n      0x0100\n      exp\n      swap1\n      div\n      0xffffffffffffffffffffffffffff\n      and\n        /* \"contracts/TenkStablePair.sol\":8854:8868  uint(reserve1) */\n      0xffffffffffffffffffffffffffff\n      and\n        /* \"contracts/TenkStablePair.sol\":8835:8837  _k */\n      tag_193\n        /* \"contracts/TenkStablePair.sol\":8835:8869  _k(uint(reserve0), uint(reserve1)) */\n      jump\t// in\n    tag_289:\n        /* \"contracts/TenkStablePair.sol\":8827:8832  kLast */\n      0x0b\n        /* \"contracts/TenkStablePair.sol\":8827:8869  kLast = _k(uint(reserve0), uint(reserve1)) */\n      dup2\n      swap1\n      sstore\n      pop\n        /* \"contracts/TenkStablePair.sol\":8816:8869  if (feeOn) kLast = _k(uint(reserve0), uint(reserve1)) */\n    tag_288:\n        /* \"contracts/TenkStablePair.sol\":8956:8958  to */\n      dup12\n        /* \"contracts/TenkStablePair.sol\":8921:8959  Burn(msg.sender, amount0, amount1, to) */\n      0xffffffffffffffffffffffffffffffffffffffff\n      and\n        /* \"contracts/TenkStablePair.sol\":8926:8936  msg.sender */\n      caller\n        /* \"contracts/TenkStablePair.sol\":8921:8959  Burn(msg.sender, amount0, amount1, to) */\n      0xffffffffffffffffffffffffffffffffffffffff\n      and\n      0xdccd412f0b1252819cb1fd330b93224ca42612892bb3f4f789976e6d81936496\n        /* \"contracts/TenkStablePair.sol\":8938:8945  amount0 */\n      dup14\n        /* \"contracts/TenkStablePair.sol\":8947:8954  amount1 */\n      dup14\n        /* \"contracts/TenkStablePair.sol\":8921:8959  Burn(msg.sender, amount0, amount1, to) */\n      mload(0x40)\n      dup1\n      dup4\n      dup2\n      mstore\n      0x20\n      add\n      dup3\n      dup2\n      mstore\n      0x20\n      add\n      swap3\n      pop\n      pop\n      pop\n      mload(0x40)\n      dup1\n      swap2\n      sub\n      swap1\n      log3\n        /* \"contracts/TenkStablePair.sol\":1612:1613  _ */\n      pop\n      pop\n      pop\n      pop\n      pop\n      pop\n      pop\n      pop\n      pop\n        /* \"contracts/TenkStablePair.sol\":1631:1632  1 */\n      0x01\n        /* \"contracts/TenkStablePair.sol\":1620:1628  unlocked */\n      0x0d\n        /* \"contracts/TenkStablePair.sol\":1620:1632  unlocked = 1 */\n      dup2\n      swap1\n      sstore\n      pop\n        /* \"contracts/TenkStablePair.sol\":7660:8965  function burn(address to) external lock returns (uint amount0, uint amount1) {\r... */\n      swap2\n      pop\n      swap2\n      jump\t// out\n        /* \"contracts/TenkERC20.sol\":226:267  string public constant symbol = 'CMLT-LP' */\n    tag_124:\n      mload(0x40)\n      dup1\n      0x40\n      add\n      0x40\n      mstore\n      dup1\n      0x07\n      dup2\n      mstore\n      0x20\n      add\n      0x434d4c542d4c5000000000000000000000000000000000000000000000000000\n      dup2\n      mstore\n      pop\n      dup2\n      jump\t// out\n        /* \"contracts/TenkStablePair.sol\":1323:1345  bool public stableSwap */\n    tag_130:\n      0x0c\n      0x00\n      swap1\n      sload\n      swap1\n      0x0100\n      exp\n      swap1\n      div\n      0xff\n      and\n      dup2\n      jump\t// out\n        /* \"contracts/TenkERC20.sol\":2380:2519  function transfer(address to, uint value) external returns (bool) {\r... */\n    tag_133:\n        /* \"contracts/TenkERC20.sol\":2440:2444  bool */\n      0x00\n        /* \"contracts/TenkERC20.sol\":2457:2489  _transfer(msg.sender, to, value) */\n      tag_291\n        /* \"contracts/TenkERC20.sol\":2467:2477  msg.sender */\n      caller\n        /* \"contracts/TenkERC20.sol\":2479:2481  to */\n      dup5\n        /* \"contracts/TenkERC20.sol\":2483:2488  value */\n      dup5\n        /* \"contracts/TenkERC20.sol\":2457:2466  _transfer */\n      tag_175\n        /* \"contracts/TenkERC20.sol\":2457:2489  _transfer(msg.sender, to, value) */\n      jump\t// in\n    tag_291:\n        /* \"contracts/TenkERC20.sol\":2507:2511  true */\n      0x01\n        /* \"contracts/TenkERC20.sol\":2500:2511  return true */\n      swap1\n      pop\n        /* \"contracts/TenkERC20.sol\":2380:2519  function transfer(address to, uint value) external returns (bool) {\r... */\n      swap3\n      swap2\n      pop\n      pop\n      jump\t// out\n        /* \"contracts/TenkStablePair.sol\":1397:1426  bool public pairTypeImmutable */\n    tag_135:\n      0x0c\n      0x01\n      swap1\n      sload\n      swap1\n      0x0100\n      exp\n      swap1\n      div\n      0xff\n      and\n      dup2\n      jump\t// out\n        /* \"contracts/TenkStablePair.sol\":352:400  uint public constant MINIMUM_LIQUIDITY = 10 ** 3 */\n    tag_137:\n        /* \"contracts/TenkStablePair.sol\":393:400  10 ** 3 */\n      0x03e8\n        /* \"contracts/TenkStablePair.sol\":352:400  uint public constant MINIMUM_LIQUIDITY = 10 ** 3 */\n      dup2\n      jump\t// out\n        /* \"contracts/TenkStablePair.sol\":16932:17276  function skim(address to) external lock {\r... */\n    tag_140:\n        /* \"contracts/TenkStablePair.sol\":1569:1570  1 */\n      0x01\n        /* \"contracts/TenkStablePair.sol\":1557:1565  unlocked */\n      sload(0x0d)\n        /* \"contracts/TenkStablePair.sol\":1557:1570  unlocked == 1 */\n      eq\n        /* \"contracts/TenkStablePair.sol\":1549:1586  require(unlocked == 1, '10k: LOCKED') */\n      tag_293\n      jumpi\n      mload(0x40)\n      0x08c379a000000000000000000000000000000000000000000000000000000000\n      dup2\n      mstore\n      0x04\n      add\n      dup1\n      dup1\n      0x20\n      add\n      dup3\n      dup2\n      sub\n      dup3\n      mstore\n      0x0b\n      dup2\n      mstore\n      0x20\n      add\n      dup1\n      0x31306b3a204c4f434b4544000000000000000000000000000000000000000000\n      dup2\n      mstore\n      pop\n      0x20\n      add\n      swap2\n      pop\n      pop\n      mload(0x40)\n      dup1\n      swap2\n      sub\n      swap1\n      revert\n    tag_293:\n        /* \"contracts/TenkStablePair.sol\":1604:1605  0 */\n      0x00\n        /* \"contracts/TenkStablePair.sol\":1593:1601  unlocked */\n      0x0d\n        /* \"contracts/TenkStablePair.sol\":1593:1605  unlocked = 0 */\n      dup2\n      swap1\n      sstore\n      pop\n        /* \"contracts/TenkStablePair.sol\":16979:16994  address _token0 */\n      0x00\n        /* \"contracts/TenkStablePair.sol\":16997:17003  token0 */\n      0x06\n      0x00\n      swap1\n      sload\n      swap1\n      0x0100\n      exp\n      swap1\n      div\n      0xffffffffffffffffffffffffffffffffffffffff\n      and\n        /* \"contracts/TenkStablePair.sol\":16979:17003  address _token0 = token0 */\n      swap1\n      pop\n        /* \"contracts/TenkStablePair.sol\":17030:17045  address _token1 */\n      0x00\n        /* \"contracts/TenkStablePair.sol\":17048:17054  token1 */\n      0x07\n      0x00\n      swap1\n      sload\n      swap1\n      0x0100\n      exp\n      swap1\n      div\n      0xffffffffffffffffffffffffffffffffffffffff\n      and\n        /* \"contracts/TenkStablePair.sol\":17030:17054  address _token1 = token1 */\n      swap1\n      pop\n        /* \"contracts/TenkStablePair.sol\":17081:17163  _safeTransfer(_token0, to, IERC20(_token0).balanceOf(address(this)).sub(reserve0)) */\n      tag_295\n        /* \"contracts/TenkStablePair.sol\":17095:17102  _token0 */\n      dup3\n        /* \"contracts/TenkStablePair.sol\":17104:17106  to */\n      dup5\n        /* \"contracts/TenkStablePair.sol\":17108:17162  IERC20(_token0).balanceOf(address(this)).sub(reserve0) */\n      tag_296\n        /* \"contracts/TenkStablePair.sol\":17153:17161  reserve0 */\n      0x08\n      0x00\n      swap1\n      sload\n      swap1\n      0x0100\n      exp\n      swap1\n      div\n      0xffffffffffffffffffffffffffff\n      and\n        /* \"contracts/TenkStablePair.sol\":17108:17162  IERC20(_token0).balanceOf(address(this)).sub(reserve0) */\n      0xffffffffffffffffffffffffffff\n      and\n        /* \"contracts/TenkStablePair.sol\":17115:17122  _token0 */\n      dup7\n        /* \"contracts/TenkStablePair.sol\":17108:17133  IERC20(_token0).balanceOf */\n      0xffffffffffffffffffffffffffffffffffffffff\n      and\n      0x70a08231\n        /* \"contracts/TenkStablePair.sol\":17142:17146  this */\n      address\n        /* \"contracts/TenkStablePair.sol\":17108:17148  IERC20(_token0).balanceOf(address(this)) */\n      mload(0x40)\n      dup3\n      0xffffffff\n      and\n      0xe0\n      shl\n      dup2\n      mstore\n      0x04\n      add\n      dup1\n      dup3\n      0xffffffffffffffffffffffffffffffffffffffff\n      and\n      0xffffffffffffffffffffffffffffffffffffffff\n      and\n      dup2\n      mstore\n      0x20\n      add\n      swap2\n      pop\n      pop\n      0x20\n      mload(0x40)\n      dup1\n      dup4\n      sub\n      dup2\n      dup7\n      dup1\n      extcodesize\n      iszero\n        /* \"--CODEGEN--\":8:17   */\n      dup1\n        /* \"--CODEGEN--\":5:7   */\n      iszero\n      tag_297\n      jumpi\n        /* \"--CODEGEN--\":30:31   */\n      0x00\n        /* \"--CODEGEN--\":27:28   */\n      dup1\n        /* \"--CODEGEN--\":20:32   */\n      revert\n        /* \"--CODEGEN--\":5:7   */\n    tag_297:\n        /* \"contracts/TenkStablePair.sol\":17108:17148  IERC20(_token0).balanceOf(address(this)) */\n      pop\n      gas\n      staticcall\n      iszero\n        /* \"--CODEGEN--\":8:17   */\n      dup1\n        /* \"--CODEGEN--\":5:7   */\n      iszero\n      tag_298\n      jumpi\n        /* \"--CODEGEN--\":45:61   */\n      returndatasize\n        /* \"--CODEGEN--\":42:43   */\n      0x00\n        /* \"--CODEGEN--\":39:40   */\n      dup1\n        /* \"--CODEGEN--\":24:62   */\n      returndatacopy\n        /* \"--CODEGEN--\":77:93   */\n      returndatasize\n        /* \"--CODEGEN--\":74:75   */\n      0x00\n        /* \"--CODEGEN--\":67:94   */\n      revert\n        /* \"--CODEGEN--\":5:7   */\n    tag_298:\n        /* \"contracts/TenkStablePair.sol\":17108:17148  IERC20(_token0).balanceOf(address(this)) */\n      pop\n      pop\n      pop\n      pop\n      mload(0x40)\n      returndatasize\n        /* \"--CODEGEN--\":13:15   */\n      0x20\n        /* \"--CODEGEN--\":8:11   */\n      dup2\n        /* \"--CODEGEN--\":5:16   */\n      lt\n        /* \"--CODEGEN--\":2:4   */\n      iszero\n      tag_299\n      jumpi\n        /* \"--CODEGEN--\":29:30   */\n      0x00\n        /* \"--CODEGEN--\":26:27   */\n      dup1\n        /* \"--CODEGEN--\":19:31   */\n      revert\n        /* \"--CODEGEN--\":2:4   */\n    tag_299:\n        /* \"contracts/TenkStablePair.sol\":17108:17148  IERC20(_token0).balanceOf(address(this)) */\n      dup2\n      add\n      swap1\n      dup1\n      dup1\n      mload\n      swap1\n      0x20\n      add\n      swap1\n      swap3\n      swap2\n      swap1\n      pop\n      pop\n      pop\n        /* \"contracts/TenkStablePair.sol\":17108:17152  IERC20(_token0).balanceOf(address(this)).sub */\n      tag_173\n      swap1\n        /* \"contracts/TenkStablePair.sol\":17108:17162  IERC20(_token0).balanceOf(address(this)).sub(reserve0) */\n      swap2\n      swap1\n      0xffffffff\n      and\n      jump\t// in\n    tag_296:\n        /* \"contracts/TenkStablePair.sol\":17081:17094  _safeTransfer */\n      tag_279\n        /* \"contracts/TenkStablePair.sol\":17081:17163  _safeTransfer(_token0, to, IERC20(_token0).balanceOf(address(this)).sub(reserve0)) */\n      jump\t// in\n    tag_295:\n        /* \"contracts/TenkStablePair.sol\":17170:17252  _safeTransfer(_token1, to, IERC20(_token1).balanceOf(address(this)).sub(reserve1)) */\n      tag_300\n        /* \"contracts/TenkStablePair.sol\":17184:17191  _token1 */\n      dup2\n        /* \"contracts/TenkStablePair.sol\":17193:17195  to */\n      dup5\n        /* \"contracts/TenkStablePair.sol\":17197:17251  IERC20(_token1).balanceOf(address(this)).sub(reserve1) */\n      tag_301\n        /* \"contracts/TenkStablePair.sol\":17242:17250  reserve1 */\n      0x08\n      0x0e\n      swap1\n      sload\n      swap1\n      0x0100\n      exp\n      swap1\n      div\n      0xffffffffffffffffffffffffffff\n      and\n        /* \"contracts/TenkStablePair.sol\":17197:17251  IERC20(_token1).balanceOf(address(this)).sub(reserve1) */\n      0xffffffffffffffffffffffffffff\n      and\n        /* \"contracts/TenkStablePair.sol\":17204:17211  _token1 */\n      dup6\n        /* \"contracts/TenkStablePair.sol\":17197:17222  IERC20(_token1).balanceOf */\n      0xffffffffffffffffffffffffffffffffffffffff\n      and\n      0x70a08231\n        /* \"contracts/TenkStablePair.sol\":17231:17235  this */\n      address\n        /* \"contracts/TenkStablePair.sol\":17197:17237  IERC20(_token1).balanceOf(address(this)) */\n      mload(0x40)\n      dup3\n      0xffffffff\n      and\n      0xe0\n      shl\n      dup2\n      mstore\n      0x04\n      add\n      dup1\n      dup3\n      0xffffffffffffffffffffffffffffffffffffffff\n      and\n      0xffffffffffffffffffffffffffffffffffffffff\n      and\n      dup2\n      mstore\n      0x20\n      add\n      swap2\n      pop\n      pop\n      0x20\n      mload(0x40)\n      dup1\n      dup4\n      sub\n      dup2\n      dup7\n      dup1\n      extcodesize\n      iszero\n        /* \"--CODEGEN--\":8:17   */\n      dup1\n        /* \"--CODEGEN--\":5:7   */\n      iszero\n      tag_302\n      jumpi\n        /* \"--CODEGEN--\":30:31   */\n      0x00\n        /* \"--CODEGEN--\":27:28   */\n      dup1\n        /* \"--CODEGEN--\":20:32   */\n      revert\n        /* \"--CODEGEN--\":5:7   */\n    tag_302:\n        /* \"contracts/TenkStablePair.sol\":17197:17237  IERC20(_token1).balanceOf(address(this)) */\n      pop\n      gas\n      staticcall\n      iszero\n        /* \"--CODEGEN--\":8:17   */\n      dup1\n        /* \"--CODEGEN--\":5:7   */\n      iszero\n      tag_303\n      jumpi\n        /* \"--CODEGEN--\":45:61   */\n      returndatasize\n        /* \"--CODEGEN--\":42:43   */\n      0x00\n        /* \"--CODEGEN--\":39:40   */\n      dup1\n        /* \"--CODEGEN--\":24:62   */\n      returndatacopy\n        /* \"--CODEGEN--\":77:93   */\n      returndatasize\n        /* \"--CODEGEN--\":74:75   */\n      0x00\n        /* \"--CODEGEN--\":67:94   */\n      revert\n        /* \"--CODEGEN--\":5:7   */\n    tag_303:\n        /* \"contracts/TenkStablePair.sol\":17197:17237  IERC20(_token1).balanceOf(address(this)) */\n      pop\n      pop\n      pop\n      pop\n      mload(0x40)\n      returndatasize\n        /* \"--CODEGEN--\":13:15   */\n      0x20\n        /* \"--CODEGEN--\":8:11   */\n      dup2\n        /* \"--CODEGEN--\":5:16   */\n      lt\n        /* \"--CODEGEN--\":2:4   */\n      iszero\n      tag_304\n      jumpi\n        /* \"--CODEGEN--\":29:30   */\n      0x00\n        /* \"--CODEGEN--\":26:27   */\n      dup1\n        /* \"--CODEGEN--\":19:31   */\n      revert\n        /* \"--CODEGEN--\":2:4   */\n    tag_304:\n        /* \"contracts/TenkStablePair.sol\":17197:17237  IERC20(_token1).balanceOf(address(this)) */\n      dup2\n      add\n      swap1\n      dup1\n      dup1\n      mload\n      swap1\n      0x20\n      add\n      swap1\n      swap3\n      swap2\n      swap1\n      pop\n      pop\n      pop\n        /* \"contracts/TenkStablePair.sol\":17197:17241  IERC20(_token1).balanceOf(address(this)).sub */\n      tag_173\n      swap1\n        /* \"contracts/TenkStablePair.sol\":17197:17251  IERC20(_token1).balanceOf(address(this)).sub(reserve1) */\n      swap2\n      swap1\n      0xffffffff\n      and\n      jump\t// in\n    tag_301:\n        /* \"contracts/TenkStablePair.sol\":17170:17183  _safeTransfer */\n      tag_279\n        /* \"contracts/TenkStablePair.sol\":17170:17252  _safeTransfer(_token1, to, IERC20(_token1).balanceOf(address(this)).sub(reserve1)) */\n      jump\t// in\n    tag_300:\n        /* \"contracts/TenkStablePair.sol\":17264:17270  Skim() */\n      0x21ad22495c9c75cd1c94756f91824e779c0c8a8e168b267c790df464fe056b79\n      mload(0x40)\n      mload(0x40)\n      dup1\n      swap2\n      sub\n      swap1\n      log1\n        /* \"contracts/TenkStablePair.sol\":1612:1613  _ */\n      pop\n      pop\n        /* \"contracts/TenkStablePair.sol\":1631:1632  1 */\n      0x01\n        /* \"contracts/TenkStablePair.sol\":1620:1628  unlocked */\n      0x0d\n        /* \"contracts/TenkStablePair.sol\":1620:1632  unlocked = 1 */\n      dup2\n      swap1\n      sstore\n      pop\n        /* \"contracts/TenkStablePair.sol\":16932:17276  function skim(address to) external lock {\r... */\n      pop\n      jump\t// out\n        /* \"contracts/TenkStablePair.sol\":500:522  address public factory */\n    tag_142:\n      0x05\n      0x00\n      swap1\n      sload\n      swap1\n      0x0100\n      exp\n      swap1\n      div\n      0xffffffffffffffffffffffffffffffffffffffff\n      and\n      dup2\n      jump\t// out\n        /* \"contracts/TenkStablePair.sol\":553:574  address public token1 */\n    tag_144:\n      0x07\n      0x00\n      swap1\n      sload\n      swap1\n      0x0100\n      exp\n      swap1\n      div\n      0xffffffffffffffffffffffffffffffffffffffff\n      and\n      dup2\n      jump\t// out\n        /* \"contracts/TenkERC20.sol\":2934:3608  function permit(address owner, address spender, uint value, uint deadline, uint8 v, bytes32 r, bytes32 s) external {\r... */\n    tag_147:\n        /* \"contracts/TenkERC20.sol\":3080:3095  block.timestamp */\n      timestamp\n        /* \"contracts/TenkERC20.sol\":3068:3076  deadline */\n      dup5\n        /* \"contracts/TenkERC20.sol\":3068:3095  deadline >= block.timestamp */\n      lt\n      iszero\n        /* \"contracts/TenkERC20.sol\":3060:3118  require(deadline >= block.timestamp, 'UniswapV2: EXPIRED') */\n      tag_306\n      jumpi\n      mload(0x40)\n      0x08c379a000000000000000000000000000000000000000000000000000000000\n      dup2\n      mstore\n      0x04\n      add\n      dup1\n      dup1\n      0x20\n      add\n      dup3\n      dup2\n      sub\n      dup3\n      mstore\n      0x12\n      dup2\n      mstore\n      0x20\n      add\n      dup1\n      0x556e697377617056323a20455850495245440000000000000000000000000000\n      dup2\n      mstore\n      pop\n      0x20\n      add\n      swap2\n      pop\n      pop\n      mload(0x40)\n      dup1\n      swap2\n      sub\n      swap1\n      revert\n    tag_306:\n        /* \"contracts/TenkERC20.sol\":3129:3143  bytes32 digest */\n      0x00\n        /* \"contracts/TenkERC20.sol\":3234:3250  DOMAIN_SEPARATOR */\n      sload(0x03)\n        /* \"contracts/TenkERC20.sol\":650:716  0x6e71edae12b1b97f4d1f60370fef10105fa2faae0126114a169c64845d6126c9 */\n      0x6e71edae12b1b97f4d1f60370fef10105fa2faae0126114a169c64845d6126c9\n        /* \"contracts/TenkERC20.sol\":3290:3305  PERMIT_TYPEHASH */\n      0x00\n      shl\n        /* \"contracts/TenkERC20.sol\":3307:3312  owner */\n      dup10\n        /* \"contracts/TenkERC20.sol\":3314:3321  spender */\n      dup10\n        /* \"contracts/TenkERC20.sol\":3323:3328  value */\n      dup10\n        /* \"contracts/TenkERC20.sol\":3330:3336  nonces */\n      0x04\n        /* \"contracts/TenkERC20.sol\":3330:3343  nonces[owner] */\n      0x00\n        /* \"contracts/TenkERC20.sol\":3337:3342  owner */\n      dup15\n        /* \"contracts/TenkERC20.sol\":3330:3343  nonces[owner] */\n      0xffffffffffffffffffffffffffffffffffffffff\n      and\n      0xffffffffffffffffffffffffffffffffffffffff\n      and\n      dup2\n      mstore\n      0x20\n      add\n      swap1\n      dup2\n      mstore\n      0x20\n      add\n      0x00\n      keccak256\n      0x00\n        /* \"contracts/TenkERC20.sol\":3330:3345  nonces[owner]++ */\n      dup2\n      sload\n      dup1\n      swap3\n      swap2\n      swap1\n      0x01\n      add\n      swap2\n      swap1\n      pop\n      sstore\n        /* \"contracts/TenkERC20.sol\":3347:3355  deadline */\n      dup11\n        /* \"contracts/TenkERC20.sol\":3279:3356  abi.encode(PERMIT_TYPEHASH, owner, spender, value, nonces[owner]++, deadline) */\n      add(0x20, mload(0x40))\n      dup1\n      dup8\n      dup2\n      mstore\n      0x20\n      add\n      dup7\n      0xffffffffffffffffffffffffffffffffffffffff\n      and\n      0xffffffffffffffffffffffffffffffffffffffff\n      and\n      dup2\n      mstore\n      0x20\n      add\n      dup6\n      0xffffffffffffffffffffffffffffffffffffffff\n      and\n      0xffffffffffffffffffffffffffffffffffffffff\n      and\n      dup2\n      mstore\n      0x20\n      add\n      dup5\n      dup2\n      mstore\n      0x20\n      add\n      dup4\n      dup2\n      mstore\n      0x20\n      add\n      dup3\n      dup2\n      mstore\n      0x20\n      add\n      swap7\n      pop\n      pop\n      pop\n      pop\n      pop\n      pop\n      pop\n      mload(0x40)\n        /* \"--CODEGEN--\":49:53   */\n      0x20\n        /* \"--CODEGEN--\":39:46   */\n      dup2\n        /* \"--CODEGEN--\":30:37   */\n      dup4\n        /* \"--CODEGEN--\":26:47   */\n      sub\n        /* \"--CODEGEN--\":22:54   */\n      sub\n        /* \"--CODEGEN--\":13:20   */\n      dup2\n        /* \"--CODEGEN--\":6:55   */\n      mstore\n        /* \"contracts/TenkERC20.sol\":3279:3356  abi.encode(PERMIT_TYPEHASH, owner, spender, value, nonces[owner]++, deadline) */\n      swap1\n      0x40\n      mstore\n        /* \"contracts/TenkERC20.sol\":3269:3357  keccak256(abi.encode(PERMIT_TYPEHASH, owner, spender, value, nonces[owner]++, deadline)) */\n      dup1\n      mload\n      swap1\n      0x20\n      add\n      keccak256\n        /* \"contracts/TenkERC20.sol\":3170:3372  abi.encodePacked(\r... */\n      add(0x20, mload(0x40))\n      dup1\n      dup1\n      0x1901000000000000000000000000000000000000000000000000000000000000\n      dup2\n      mstore\n      pop\n      0x02\n      add\n      dup4\n      dup2\n      mstore\n      0x20\n      add\n      dup3\n      dup2\n      mstore\n      0x20\n      add\n      swap3\n      pop\n      pop\n      pop\n      mload(0x40)\n        /* \"--CODEGEN--\":49:53   */\n      0x20\n        /* \"--CODEGEN--\":39:46   */\n      dup2\n        /* \"--CODEGEN--\":30:37   */\n      dup4\n        /* \"--CODEGEN--\":26:47   */\n      sub\n        /* \"--CODEGEN--\":22:54   */\n      sub\n        /* \"--CODEGEN--\":13:20   */\n      dup2\n        /* \"--CODEGEN--\":6:55   */\n      mstore\n        /* \"contracts/TenkERC20.sol\":3170:3372  abi.encodePacked(\r... */\n      swap1\n      0x40\n      mstore\n        /* \"contracts/TenkERC20.sol\":3146:3383  keccak256(\r... */\n      dup1\n      mload\n      swap1\n      0x20\n      add\n      keccak256\n        /* \"contracts/TenkERC20.sol\":3129:3383  bytes32 digest = keccak256(\r... */\n      swap1\n      pop\n        /* \"contracts/TenkERC20.sol\":3394:3418  address recoveredAddress */\n      0x00\n        /* \"contracts/TenkERC20.sol\":3421:3447  ecrecover(digest, v, r, s) */\n      0x01\n        /* \"contracts/TenkERC20.sol\":3431:3437  digest */\n      dup3\n        /* \"contracts/TenkERC20.sol\":3439:3440  v */\n      dup7\n        /* \"contracts/TenkERC20.sol\":3442:3443  r */\n      dup7\n        /* \"contracts/TenkERC20.sol\":3445:3446  s */\n      dup7\n        /* \"contracts/TenkERC20.sol\":3421:3447  ecrecover(digest, v, r, s) */\n      mload(0x40)\n      0x00\n      dup2\n      mstore\n      0x20\n      add\n      0x40\n      mstore\n      mload(0x40)\n      dup1\n      dup6\n      dup2\n      mstore\n      0x20\n      add\n      dup5\n      0xff\n      and\n      0xff\n      and\n      dup2\n      mstore\n      0x20\n      add\n      dup4\n      dup2\n      mstore\n      0x20\n      add\n      dup3\n      dup2\n      mstore\n      0x20\n      add\n      swap5\n      pop\n      pop\n      pop\n      pop\n      pop\n      0x20\n      mload(0x40)\n      0x20\n      dup2\n      sub\n      swap1\n      dup1\n      dup5\n      sub\n      swap1\n      dup6\n      gas\n      staticcall\n      iszero\n        /* \"--CODEGEN--\":8:17   */\n      dup1\n        /* \"--CODEGEN--\":5:7   */\n      iszero\n      tag_307\n      jumpi\n        /* \"--CODEGEN--\":45:61   */\n      returndatasize\n        /* \"--CODEGEN--\":42:43   */\n      0x00\n        /* \"--CODEGEN--\":39:40   */\n      dup1\n        /* \"--CODEGEN--\":24:62   */\n      returndatacopy\n        /* \"--CODEGEN--\":77:93   */\n      returndatasize\n        /* \"--CODEGEN--\":74:75   */\n      0x00\n        /* \"--CODEGEN--\":67:94   */\n      revert\n        /* \"--CODEGEN--\":5:7   */\n    tag_307:\n        /* \"contracts/TenkERC20.sol\":3421:3447  ecrecover(digest, v, r, s) */\n      pop\n      pop\n      pop\n      mload(sub(mload(0x40), 0x20))\n        /* \"contracts/TenkERC20.sol\":3394:3447  address recoveredAddress = ecrecover(digest, v, r, s) */\n      swap1\n      pop\n        /* \"contracts/TenkERC20.sol\":3494:3495  0 */\n      0x00\n        /* \"contracts/TenkERC20.sol\":3466:3496  recoveredAddress != address(0) */\n      0xffffffffffffffffffffffffffffffffffffffff\n      and\n        /* \"contracts/TenkERC20.sol\":3466:3482  recoveredAddress */\n      dup2\n        /* \"contracts/TenkERC20.sol\":3466:3496  recoveredAddress != address(0) */\n      0xffffffffffffffffffffffffffffffffffffffff\n      and\n      eq\n      iszero\n        /* \"contracts/TenkERC20.sol\":3466:3525  recoveredAddress != address(0) && recoveredAddress == owner */\n      dup1\n      iszero\n      tag_308\n      jumpi\n      pop\n        /* \"contracts/TenkERC20.sol\":3520:3525  owner */\n      dup9\n        /* \"contracts/TenkERC20.sol\":3500:3525  recoveredAddress == owner */\n      0xffffffffffffffffffffffffffffffffffffffff\n      and\n        /* \"contracts/TenkERC20.sol\":3500:3516  recoveredAddress */\n      dup2\n        /* \"contracts/TenkERC20.sol\":3500:3525  recoveredAddress == owner */\n      0xffffffffffffffffffffffffffffffffffffffff\n      and\n      eq\n        /* \"contracts/TenkERC20.sol\":3466:3525  recoveredAddress != address(0) && recoveredAddress == owner */\n    tag_308:\n        /* \"contracts/TenkERC20.sol\":3458:3558  require(recoveredAddress != address(0) && recoveredAddress == owner, 'UniswapV2: INVALID_SIGNATURE') */\n      tag_309\n      jumpi\n      mload(0x40)\n      0x08c379a000000000000000000000000000000000000000000000000000000000\n      dup2\n      mstore\n      0x04\n      add\n      dup1\n      dup1\n      0x20\n      add\n      dup3\n      dup2\n      sub\n      dup3\n      mstore\n      0x1c\n      dup2\n      mstore\n      0x20\n      add\n      dup1\n      0x556e697377617056323a20494e56414c49445f5349474e415455524500000000\n      dup2\n      mstore\n      pop\n      0x20\n      add\n      swap2\n      pop\n      pop\n      mload(0x40)\n      dup1\n      swap2\n      sub\n      swap1\n      revert\n    tag_309:\n        /* \"contracts/TenkERC20.sol\":3569:3600  _approve(owner, spender, value) */\n      tag_310\n        /* \"contracts/TenkERC20.sol\":3578:3583  owner */\n      dup10\n        /* \"contracts/TenkERC20.sol\":3585:3592  spender */\n      dup10\n        /* \"contracts/TenkERC20.sol\":3594:3599  value */\n      dup10\n        /* \"contracts/TenkERC20.sol\":3569:3577  _approve */\n      tag_169\n        /* \"contracts/TenkERC20.sol\":3569:3600  _approve(owner, spender, value) */\n      jump\t// in\n    tag_310:\n        /* \"contracts/TenkERC20.sol\":2934:3608  function permit(address owner, address spender, uint value, uint deadline, uint8 v, bytes32 r, bytes32 s) external {\r... */\n      pop\n      pop\n      pop\n      pop\n      pop\n      pop\n      pop\n      pop\n      pop\n      jump\t// out\n        /* \"contracts/TenkStablePair.sol\":611:656  uint public constant FEE_DENOMINATOR = 100000 */\n    tag_149:\n        /* \"contracts/TenkStablePair.sol\":650:656  100000 */\n      0x0186a0\n        /* \"contracts/TenkStablePair.sol\":611:656  uint public constant FEE_DENOMINATOR = 100000 */\n      dup2\n      jump\t// out\n        /* \"contracts/TenkERC20.sol\":395:456  mapping(address => mapping(address => uint)) public allowance */\n    tag_152:\n      mstore(0x20, 0x02)\n      dup2\n      0x00\n      mstore\n      mstore(0x20, keccak256(0x00, 0x40))\n      dup1\n      0x00\n      mstore\n      keccak256(0x00, 0x40)\n      0x00\n      swap2\n      pop\n      swap2\n      pop\n      pop\n      sload\n      dup2\n      jump\t// out\n        /* \"contracts/TenkStablePair.sol\":15507:15768  function getAmountOut(uint amountIn, address tokenIn) external view returns (uint) {\r... */\n    tag_155:\n        /* \"contracts/TenkStablePair.sol\":15584:15588  uint */\n      0x00\n        /* \"contracts/TenkStablePair.sol\":15597:15614  uint16 feePercent */\n      dup1\n        /* \"contracts/TenkStablePair.sol\":15628:15634  token0 */\n      0x06\n      0x00\n      swap1\n      sload\n      swap1\n      0x0100\n      exp\n      swap1\n      div\n      0xffffffffffffffffffffffffffffffffffffffff\n      and\n        /* \"contracts/TenkStablePair.sol\":15617:15634  tokenIn == token0 */\n      0xffffffffffffffffffffffffffffffffffffffff\n      and\n        /* \"contracts/TenkStablePair.sol\":15617:15624  tokenIn */\n      dup4\n        /* \"contracts/TenkStablePair.sol\":15617:15634  tokenIn == token0 */\n      0xffffffffffffffffffffffffffffffffffffffff\n      and\n      eq\n        /* \"contracts/TenkStablePair.sol\":15617:15672  tokenIn == token0 ? token0FeePercent : token1FeePercent */\n      tag_312\n      jumpi\n        /* \"contracts/TenkStablePair.sol\":15656:15672  token1FeePercent */\n      0x08\n      0x1e\n      swap1\n      sload\n      swap1\n      0x0100\n      exp\n      swap1\n      div\n      0xffff\n      and\n        /* \"contracts/TenkStablePair.sol\":15617:15672  tokenIn == token0 ? token0FeePercent : token1FeePercent */\n      jump(tag_313)\n    tag_312:\n        /* \"contracts/TenkStablePair.sol\":15637:15653  token0FeePercent */\n      0x08\n      0x1c\n      swap1\n      sload\n      swap1\n      0x0100\n      exp\n      swap1\n      div\n      0xffff\n      and\n        /* \"contracts/TenkStablePair.sol\":15617:15672  tokenIn == token0 ? token0FeePercent : token1FeePercent */\n    tag_313:\n        /* \"contracts/TenkStablePair.sol\":15597:15672  uint16 feePercent = tokenIn == token0 ? token0FeePercent : token1FeePercent */\n      swap1\n      pop\n        /* \"contracts/TenkStablePair.sol\":15686:15762  _getAmountOut(amountIn, tokenIn, uint(reserve0), uint(reserve1), feePercent) */\n      tag_314\n        /* \"contracts/TenkStablePair.sol\":15700:15708  amountIn */\n      dup5\n        /* \"contracts/TenkStablePair.sol\":15710:15717  tokenIn */\n      dup5\n        /* \"contracts/TenkStablePair.sol\":15724:15732  reserve0 */\n      0x08\n      0x00\n      swap1\n      sload\n      swap1\n      0x0100\n      exp\n      swap1\n      div\n      0xffffffffffffffffffffffffffff\n      and\n        /* \"contracts/TenkStablePair.sol\":15719:15733  uint(reserve0) */\n      0xffffffffffffffffffffffffffff\n      and\n        /* \"contracts/TenkStablePair.sol\":15740:15748  reserve1 */\n      0x08\n      0x0e\n      swap1\n      sload\n      swap1\n      0x0100\n      exp\n      swap1\n      div\n      0xffffffffffffffffffffffffffff\n      and\n        /* \"contracts/TenkStablePair.sol\":15735:15749  uint(reserve1) */\n      0xffffffffffffffffffffffffffff\n      and\n        /* \"contracts/TenkStablePair.sol\":15751:15761  feePercent */\n      dup6\n        /* \"contracts/TenkStablePair.sol\":15686:15762  _getAmountOut(amountIn, tokenIn, uint(reserve0), uint(reserve1), feePercent) */\n      0xffff\n      and\n        /* \"contracts/TenkStablePair.sol\":15686:15699  _getAmountOut */\n      tag_315\n        /* \"contracts/TenkStablePair.sol\":15686:15762  _getAmountOut(amountIn, tokenIn, uint(reserve0), uint(reserve1), feePercent) */\n      jump\t// in\n    tag_314:\n        /* \"contracts/TenkStablePair.sol\":15679:15762  return _getAmountOut(amountIn, tokenIn, uint(reserve0), uint(reserve1), feePercent) */\n      swap2\n      pop\n      pop\n        /* \"contracts/TenkStablePair.sol\":15507:15768  function getAmountOut(uint amountIn, address tokenIn) external view returns (uint) {\r... */\n      swap3\n      swap2\n      pop\n      pop\n      jump\t// out\n        /* \"contracts/TenkStablePair.sol\":17752:18098  function drainWrongToken(address token, address to) external lock {\r... */\n    tag_158:\n        /* \"contracts/TenkStablePair.sol\":1569:1570  1 */\n      0x01\n        /* \"contracts/TenkStablePair.sol\":1557:1565  unlocked */\n      sload(0x0d)\n        /* \"contracts/TenkStablePair.sol\":1557:1570  unlocked == 1 */\n      eq\n        /* \"contracts/TenkStablePair.sol\":1549:1586  require(unlocked == 1, '10k: LOCKED') */\n      tag_317\n      jumpi\n      mload(0x40)\n      0x08c379a000000000000000000000000000000000000000000000000000000000\n      dup2\n      mstore\n      0x04\n      add\n      dup1\n      dup1\n      0x20\n      add\n      dup3\n      dup2\n      sub\n      dup3\n      mstore\n      0x0b\n      dup2\n      mstore\n      0x20\n      add\n      dup1\n      0x31306b3a204c4f434b4544000000000000000000000000000000000000000000\n      dup2\n      mstore\n      pop\n      0x20\n      add\n      swap2\n      pop\n      pop\n      mload(0x40)\n      dup1\n      swap2\n      sub\n      swap1\n      revert\n    tag_317:\n        /* \"contracts/TenkStablePair.sol\":1604:1605  0 */\n      0x00\n        /* \"contracts/TenkStablePair.sol\":1593:1601  unlocked */\n      0x0d\n        /* \"contracts/TenkStablePair.sol\":1593:1605  unlocked = 0 */\n      dup2\n      swap1\n      sstore\n      pop\n        /* \"contracts/TenkStablePair.sol\":17865:17872  factory */\n      0x05\n      0x00\n      swap1\n      sload\n      swap1\n      0x0100\n      exp\n      swap1\n      div\n      0xffffffffffffffffffffffffffffffffffffffff\n      and\n        /* \"contracts/TenkStablePair.sol\":17847:17879  I10kStableFactory(factory).owner */\n      0xffffffffffffffffffffffffffffffffffffffff\n      and\n      0x8da5cb5b\n        /* \"contracts/TenkStablePair.sol\":17847:17881  I10kStableFactory(factory).owner() */\n      mload(0x40)\n      dup2\n      0xffffffff\n      and\n      0xe0\n      shl\n      dup2\n      mstore\n      0x04\n      add\n      0x20\n      mload(0x40)\n      dup1\n      dup4\n      sub\n      dup2\n      dup7\n      dup1\n      extcodesize\n      iszero\n        /* \"--CODEGEN--\":8:17   */\n      dup1\n        /* \"--CODEGEN--\":5:7   */\n      iszero\n      tag_319\n      jumpi\n        /* \"--CODEGEN--\":30:31   */\n      0x00\n        /* \"--CODEGEN--\":27:28   */\n      dup1\n        /* \"--CODEGEN--\":20:32   */\n      revert\n        /* \"--CODEGEN--\":5:7   */\n    tag_319:\n        /* \"contracts/TenkStablePair.sol\":17847:17881  I10kStableFactory(factory).owner() */\n      pop\n      gas\n      staticcall\n      iszero\n        /* \"--CODEGEN--\":8:17   */\n      dup1\n        /* \"--CODEGEN--\":5:7   */\n      iszero\n      tag_320\n      jumpi\n        /* \"--CODEGEN--\":45:61   */\n      returndatasize\n        /* \"--CODEGEN--\":42:43   */\n      0x00\n        /* \"--CODEGEN--\":39:40   */\n      dup1\n        /* \"--CODEGEN--\":24:62   */\n      returndatacopy\n        /* \"--CODEGEN--\":77:93   */\n      returndatasize\n        /* \"--CODEGEN--\":74:75   */\n      0x00\n        /* \"--CODEGEN--\":67:94   */\n      revert\n        /* \"--CODEGEN--\":5:7   */\n    tag_320:\n        /* \"contracts/TenkStablePair.sol\":17847:17881  I10kStableFactory(factory).owner() */\n      pop\n      pop\n      pop\n      pop\n      mload(0x40)\n      returndatasize\n        /* \"--CODEGEN--\":13:15   */\n      0x20\n        /* \"--CODEGEN--\":8:11   */\n      dup2\n        /* \"--CODEGEN--\":5:16   */\n      lt\n        /* \"--CODEGEN--\":2:4   */\n      iszero\n      tag_321\n      jumpi\n        /* \"--CODEGEN--\":29:30   */\n      0x00\n        /* \"--CODEGEN--\":26:27   */\n      dup1\n        /* \"--CODEGEN--\":19:31   */\n      revert\n        /* \"--CODEGEN--\":2:4   */\n    tag_321:\n        /* \"contracts/TenkStablePair.sol\":17847:17881  I10kStableFactory(factory).owner() */\n      dup2\n      add\n      swap1\n      dup1\n      dup1\n      mload\n      swap1\n      0x20\n      add\n      swap1\n      swap3\n      swap2\n      swap1\n      pop\n      pop\n      pop\n        /* \"contracts/TenkStablePair.sol\":17833:17881  msg.sender == I10kStableFactory(factory).owner() */\n      0xffffffffffffffffffffffffffffffffffffffff\n      and\n        /* \"contracts/TenkStablePair.sol\":17833:17843  msg.sender */\n      caller\n        /* \"contracts/TenkStablePair.sol\":17833:17881  msg.sender == I10kStableFactory(factory).owner() */\n      0xffffffffffffffffffffffffffffffffffffffff\n      and\n      eq\n        /* \"contracts/TenkStablePair.sol\":17825:17911  require(msg.sender == I10kStableFactory(factory).owner(), \"10k: only factory's owner\") */\n      tag_322\n      jumpi\n      mload(0x40)\n      0x08c379a000000000000000000000000000000000000000000000000000000000\n      dup2\n      mstore\n      0x04\n      add\n      dup1\n      dup1\n      0x20\n      add\n      dup3\n      dup2\n      sub\n      dup3\n      mstore\n      0x19\n      dup2\n      mstore\n      0x20\n      add\n      dup1\n      0x31306b3a206f6e6c7920666163746f72792773206f776e657200000000000000\n      dup2\n      mstore\n      pop\n      0x20\n      add\n      swap2\n      pop\n      pop\n      mload(0x40)\n      dup1\n      swap2\n      sub\n      swap1\n      revert\n    tag_322:\n        /* \"contracts/TenkStablePair.sol\":17935:17941  token0 */\n      0x06\n      0x00\n      swap1\n      sload\n      swap1\n      0x0100\n      exp\n      swap1\n      div\n      0xffffffffffffffffffffffffffffffffffffffff\n      and\n        /* \"contracts/TenkStablePair.sol\":17926:17941  token != token0 */\n      0xffffffffffffffffffffffffffffffffffffffff\n      and\n        /* \"contracts/TenkStablePair.sol\":17926:17931  token */\n      dup3\n        /* \"contracts/TenkStablePair.sol\":17926:17941  token != token0 */\n      0xffffffffffffffffffffffffffffffffffffffff\n      and\n      eq\n      iszero\n        /* \"contracts/TenkStablePair.sol\":17926:17960  token != token0 && token != token1 */\n      dup1\n      iszero\n      tag_323\n      jumpi\n      pop\n        /* \"contracts/TenkStablePair.sol\":17954:17960  token1 */\n      0x07\n      0x00\n      swap1\n      sload\n      swap1\n      0x0100\n      exp\n      swap1\n      div\n      0xffffffffffffffffffffffffffffffffffffffff\n      and\n        /* \"contracts/TenkStablePair.sol\":17945:17960  token != token1 */\n      0xffffffffffffffffffffffffffffffffffffffff\n      and\n        /* \"contracts/TenkStablePair.sol\":17945:17950  token */\n      dup3\n        /* \"contracts/TenkStablePair.sol\":17945:17960  token != token1 */\n      0xffffffffffffffffffffffffffffffffffffffff\n      and\n      eq\n      iszero\n        /* \"contracts/TenkStablePair.sol\":17926:17960  token != token0 && token != token1 */\n    tag_323:\n        /* \"contracts/TenkStablePair.sol\":17918:17983  require(token != token0 && token != token1, \"10k: invalid token\") */\n      tag_324\n      jumpi\n      mload(0x40)\n      0x08c379a000000000000000000000000000000000000000000000000000000000\n      dup2\n      mstore\n      0x04\n      add\n      dup1\n      dup1\n      0x20\n      add\n      dup3\n      dup2\n      sub\n      dup3\n      mstore\n      0x12\n      dup2\n      mstore\n      0x20\n      add\n      dup1\n      0x31306b3a20696e76616c696420746f6b656e0000000000000000000000000000\n      dup2\n      mstore\n      pop\n      0x20\n      add\n      swap2\n      pop\n      pop\n      mload(0x40)\n      dup1\n      swap2\n      sub\n      swap1\n      revert\n    tag_324:\n        /* \"contracts/TenkStablePair.sol\":17990:18054  _safeTransfer(token, to, IERC20(token).balanceOf(address(this))) */\n      tag_325\n        /* \"contracts/TenkStablePair.sol\":18004:18009  token */\n      dup3\n        /* \"contracts/TenkStablePair.sol\":18011:18013  to */\n      dup3\n        /* \"contracts/TenkStablePair.sol\":18022:18027  token */\n      dup5\n        /* \"contracts/TenkStablePair.sol\":18015:18038  IERC20(token).balanceOf */\n      0xffffffffffffffffffffffffffffffffffffffff\n      and\n      0x70a08231\n        /* \"contracts/TenkStablePair.sol\":18047:18051  this */\n      address\n        /* \"contracts/TenkStablePair.sol\":18015:18053  IERC20(token).balanceOf(address(this)) */\n      mload(0x40)\n      dup3\n      0xffffffff\n      and\n      0xe0\n      shl\n      dup2\n      mstore\n      0x04\n      add\n      dup1\n      dup3\n      0xffffffffffffffffffffffffffffffffffffffff\n      and\n      0xffffffffffffffffffffffffffffffffffffffff\n      and\n      dup2\n      mstore\n      0x20\n      add\n      swap2\n      pop\n      pop\n      0x20\n      mload(0x40)\n      dup1\n      dup4\n      sub\n      dup2\n      dup7\n      dup1\n      extcodesize\n      iszero\n        /* \"--CODEGEN--\":8:17   */\n      dup1\n        /* \"--CODEGEN--\":5:7   */\n      iszero\n      tag_326\n      jumpi\n        /* \"--CODEGEN--\":30:31   */\n      0x00\n        /* \"--CODEGEN--\":27:28   */\n      dup1\n        /* \"--CODEGEN--\":20:32   */\n      revert\n        /* \"--CODEGEN--\":5:7   */\n    tag_326:\n        /* \"contracts/TenkStablePair.sol\":18015:18053  IERC20(token).balanceOf(address(this)) */\n      pop\n      gas\n      staticcall\n      iszero\n        /* \"--CODEGEN--\":8:17   */\n      dup1\n        /* \"--CODEGEN--\":5:7   */\n      iszero\n      tag_327\n      jumpi\n        /* \"--CODEGEN--\":45:61   */\n      returndatasize\n        /* \"--CODEGEN--\":42:43   */\n      0x00\n        /* \"--CODEGEN--\":39:40   */\n      dup1\n        /* \"--CODEGEN--\":24:62   */\n      returndatacopy\n        /* \"--CODEGEN--\":77:93   */\n      returndatasize\n        /* \"--CODEGEN--\":74:75   */\n      0x00\n        /* \"--CODEGEN--\":67:94   */\n      revert\n        /* \"--CODEGEN--\":5:7   */\n    tag_327:\n        /* \"contracts/TenkStablePair.sol\":18015:18053  IERC20(token).balanceOf(address(this)) */\n      pop\n      pop\n      pop\n      pop\n      mload(0x40)\n      returndatasize\n        /* \"--CODEGEN--\":13:15   */\n      0x20\n        /* \"--CODEGEN--\":8:11   */\n      dup2\n        /* \"--CODEGEN--\":5:16   */\n      lt\n        /* \"--CODEGEN--\":2:4   */\n      iszero\n      tag_328\n      jumpi\n        /* \"--CODEGEN--\":29:30   */\n      0x00\n        /* \"--CODEGEN--\":26:27   */\n      dup1\n        /* \"--CODEGEN--\":19:31   */\n      revert\n        /* \"--CODEGEN--\":2:4   */\n    tag_328:\n        /* \"contracts/TenkStablePair.sol\":18015:18053  IERC20(token).balanceOf(address(this)) */\n      dup2\n      add\n      swap1\n      dup1\n      dup1\n      mload\n      swap1\n      0x20\n      add\n      swap1\n      swap3\n      swap2\n      swap1\n      pop\n      pop\n      pop\n        /* \"contracts/TenkStablePair.sol\":17990:18003  _safeTransfer */\n      tag_279\n        /* \"contracts/TenkStablePair.sol\":17990:18054  _safeTransfer(token, to, IERC20(token).balanceOf(address(this))) */\n      jump\t// in\n    tag_325:\n        /* \"contracts/TenkStablePair.sol\":18082:18087  token */\n      dup2\n        /* \"contracts/TenkStablePair.sol\":18066:18092  DrainWrongToken(token, to) */\n      0xffffffffffffffffffffffffffffffffffffffff\n      and\n      0x368a9dc863ecb94b5ba32a682e26295b10d9c2666fad7d785ebdf262c3c52413\n        /* \"contracts/TenkStablePair.sol\":18089:18091  to */\n      dup3\n        /* \"contracts/TenkStablePair.sol\":18066:18092  DrainWrongToken(token, to) */\n      mload(0x40)\n      dup1\n      dup3\n      0xffffffffffffffffffffffffffffffffffffffff\n      and\n      0xffffffffffffffffffffffffffffffffffffffff\n      and\n      dup2\n      mstore\n      0x20\n      add\n      swap2\n      pop\n      pop\n      mload(0x40)\n      dup1\n      swap2\n      sub\n      swap1\n      log2\n        /* \"contracts/TenkStablePair.sol\":1631:1632  1 */\n      0x01\n        /* \"contracts/TenkStablePair.sol\":1620:1628  unlocked */\n      0x0d\n        /* \"contracts/TenkStablePair.sol\":1620:1632  unlocked = 1 */\n      dup2\n      swap1\n      sstore\n      pop\n        /* \"contracts/TenkStablePair.sol\":17752:18098  function drainWrongToken(address token, address to) external lock {\r... */\n      pop\n      pop\n      jump\t// out\n        /* \"contracts/TenkStablePair.sol\":17321:17631  function sync() external lock {\r... */\n    tag_160:\n        /* \"contracts/TenkStablePair.sol\":1569:1570  1 */\n      0x01\n        /* \"contracts/TenkStablePair.sol\":1557:1565  unlocked */\n      sload(0x0d)\n        /* \"contracts/TenkStablePair.sol\":1557:1570  unlocked == 1 */\n      eq\n        /* \"contracts/TenkStablePair.sol\":1549:1586  require(unlocked == 1, '10k: LOCKED') */\n      tag_330\n      jumpi\n      mload(0x40)\n      0x08c379a000000000000000000000000000000000000000000000000000000000\n      dup2\n      mstore\n      0x04\n      add\n      dup1\n      dup1\n      0x20\n      add\n      dup3\n      dup2\n      sub\n      dup3\n      mstore\n      0x0b\n      dup2\n      mstore\n      0x20\n      add\n      dup1\n      0x31306b3a204c4f434b4544000000000000000000000000000000000000000000\n      dup2\n      mstore\n      pop\n      0x20\n      add\n      swap2\n      pop\n      pop\n      mload(0x40)\n      dup1\n      swap2\n      sub\n      swap1\n      revert\n    tag_330:\n        /* \"contracts/TenkStablePair.sol\":1604:1605  0 */\n      0x00\n        /* \"contracts/TenkStablePair.sol\":1593:1601  unlocked */\n      0x0d\n        /* \"contracts/TenkStablePair.sol\":1593:1605  unlocked = 0 */\n      dup2\n      swap1\n      sstore\n      pop\n        /* \"contracts/TenkStablePair.sol\":17358:17376  uint token0Balance */\n      0x00\n        /* \"contracts/TenkStablePair.sol\":17386:17392  token0 */\n      0x06\n      0x00\n      swap1\n      sload\n      swap1\n      0x0100\n      exp\n      swap1\n      div\n      0xffffffffffffffffffffffffffffffffffffffff\n      and\n        /* \"contracts/TenkStablePair.sol\":17379:17403  IERC20(token0).balanceOf */\n      0xffffffffffffffffffffffffffffffffffffffff\n      and\n      0x70a08231\n        /* \"contracts/TenkStablePair.sol\":17412:17416  this */\n      address\n        /* \"contracts/TenkStablePair.sol\":17379:17418  IERC20(token0).balanceOf(address(this)) */\n      mload(0x40)\n      dup3\n      0xffffffff\n      and\n      0xe0\n      shl\n      dup2\n      mstore\n      0x04\n      add\n      dup1\n      dup3\n      0xffffffffffffffffffffffffffffffffffffffff\n      and\n      0xffffffffffffffffffffffffffffffffffffffff\n      and\n      dup2\n      mstore\n      0x20\n      add\n      swap2\n      pop\n      pop\n      0x20\n      mload(0x40)\n      dup1\n      dup4\n      sub\n      dup2\n      dup7\n      dup1\n      extcodesize\n      iszero\n        /* \"--CODEGEN--\":8:17   */\n      dup1\n        /* \"--CODEGEN--\":5:7   */\n      iszero\n      tag_332\n      jumpi\n        /* \"--CODEGEN--\":30:31   */\n      0x00\n        /* \"--CODEGEN--\":27:28   */\n      dup1\n        /* \"--CODEGEN--\":20:32   */\n      revert\n        /* \"--CODEGEN--\":5:7   */\n    tag_332:\n        /* \"contracts/TenkStablePair.sol\":17379:17418  IERC20(token0).balanceOf(address(this)) */\n      pop\n      gas\n      staticcall\n      iszero\n        /* \"--CODEGEN--\":8:17   */\n      dup1\n        /* \"--CODEGEN--\":5:7   */\n      iszero\n      tag_333\n      jumpi\n        /* \"--CODEGEN--\":45:61   */\n      returndatasize\n        /* \"--CODEGEN--\":42:43   */\n      0x00\n        /* \"--CODEGEN--\":39:40   */\n      dup1\n        /* \"--CODEGEN--\":24:62   */\n      returndatacopy\n        /* \"--CODEGEN--\":77:93   */\n      returndatasize\n        /* \"--CODEGEN--\":74:75   */\n      0x00\n        /* \"--CODEGEN--\":67:94   */\n      revert\n        /* \"--CODEGEN--\":5:7   */\n    tag_333:\n        /* \"contracts/TenkStablePair.sol\":17379:17418  IERC20(token0).balanceOf(address(this)) */\n      pop\n      pop\n      pop\n      pop\n      mload(0x40)\n      returndatasize\n        /* \"--CODEGEN--\":13:15   */\n      0x20\n        /* \"--CODEGEN--\":8:11   */\n      dup2\n        /* \"--CODEGEN--\":5:16   */\n      lt\n        /* \"--CODEGEN--\":2:4   */\n      iszero\n      tag_334\n      jumpi\n        /* \"--CODEGEN--\":29:30   */\n      0x00\n        /* \"--CODEGEN--\":26:27   */\n      dup1\n        /* \"--CODEGEN--\":19:31   */\n      revert\n        /* \"--CODEGEN--\":2:4   */\n    tag_334:\n        /* \"contracts/TenkStablePair.sol\":17379:17418  IERC20(token0).balanceOf(address(this)) */\n      dup2\n      add\n      swap1\n      dup1\n      dup1\n      mload\n      swap1\n      0x20\n      add\n      swap1\n      swap3\n      swap2\n      swap1\n      pop\n      pop\n      pop\n        /* \"contracts/TenkStablePair.sol\":17358:17418  uint token0Balance = IERC20(token0).balanceOf(address(this)) */\n      swap1\n      pop\n        /* \"contracts/TenkStablePair.sol\":17425:17443  uint token1Balance */\n      0x00\n        /* \"contracts/TenkStablePair.sol\":17453:17459  token1 */\n      0x07\n      0x00\n      swap1\n      sload\n      swap1\n      0x0100\n      exp\n      swap1\n      div\n      0xffffffffffffffffffffffffffffffffffffffff\n      and\n        /* \"contracts/TenkStablePair.sol\":17446:17470  IERC20(token1).balanceOf */\n      0xffffffffffffffffffffffffffffffffffffffff\n      and\n      0x70a08231\n        /* \"contracts/TenkStablePair.sol\":17479:17483  this */\n      address\n        /* \"contracts/TenkStablePair.sol\":17446:17485  IERC20(token1).balanceOf(address(this)) */\n      mload(0x40)\n      dup3\n      0xffffffff\n      and\n      0xe0\n      shl\n      dup2\n      mstore\n      0x04\n      add\n      dup1\n      dup3\n      0xffffffffffffffffffffffffffffffffffffffff\n      and\n      0xffffffffffffffffffffffffffffffffffffffff\n      and\n      dup2\n      mstore\n      0x20\n      add\n      swap2\n      pop\n      pop\n      0x20\n      mload(0x40)\n      dup1\n      dup4\n      sub\n      dup2\n      dup7\n      dup1\n      extcodesize\n      iszero\n        /* \"--CODEGEN--\":8:17   */\n      dup1\n        /* \"--CODEGEN--\":5:7   */\n      iszero\n      tag_335\n      jumpi\n        /* \"--CODEGEN--\":30:31   */\n      0x00\n        /* \"--CODEGEN--\":27:28   */\n      dup1\n        /* \"--CODEGEN--\":20:32   */\n      revert\n        /* \"--CODEGEN--\":5:7   */\n    tag_335:\n        /* \"contracts/TenkStablePair.sol\":17446:17485  IERC20(token1).balanceOf(address(this)) */\n      pop\n      gas\n      staticcall\n      iszero\n        /* \"--CODEGEN--\":8:17   */\n      dup1\n        /* \"--CODEGEN--\":5:7   */\n      iszero\n      tag_336\n      jumpi\n        /* \"--CODEGEN--\":45:61   */\n      returndatasize\n        /* \"--CODEGEN--\":42:43   */\n      0x00\n        /* \"--CODEGEN--\":39:40   */\n      dup1\n        /* \"--CODEGEN--\":24:62   */\n      returndatacopy\n        /* \"--CODEGEN--\":77:93   */\n      returndatasize\n        /* \"--CODEGEN--\":74:75   */\n      0x00\n        /* \"--CODEGEN--\":67:94   */\n      revert\n        /* \"--CODEGEN--\":5:7   */\n    tag_336:\n        /* \"contracts/TenkStablePair.sol\":17446:17485  IERC20(token1).balanceOf(address(this)) */\n      pop\n      pop\n      pop\n      pop\n      mload(0x40)\n      returndatasize\n        /* \"--CODEGEN--\":13:15   */\n      0x20\n        /* \"--CODEGEN--\":8:11   */\n      dup2\n        /* \"--CODEGEN--\":5:16   */\n      lt\n        /* \"--CODEGEN--\":2:4   */\n      iszero\n      tag_337\n      jumpi\n        /* \"--CODEGEN--\":29:30   */\n      0x00\n        /* \"--CODEGEN--\":26:27   */\n      dup1\n        /* \"--CODEGEN--\":19:31   */\n      revert\n        /* \"--CODEGEN--\":2:4   */\n    tag_337:\n        /* \"contracts/TenkStablePair.sol\":17446:17485  IERC20(token1).balanceOf(address(this)) */\n      dup2\n      add\n      swap1\n      dup1\n      dup1\n      mload\n      swap1\n      0x20\n      add\n      swap1\n      swap3\n      swap2\n      swap1\n      pop\n      pop\n      pop\n        /* \"contracts/TenkStablePair.sol\":17425:17485  uint token1Balance = IERC20(token1).balanceOf(address(this)) */\n      swap1\n      pop\n        /* \"contracts/TenkStablePair.sol\":17517:17518  0 */\n      0x00\n        /* \"contracts/TenkStablePair.sol\":17500:17513  token0Balance */\n      dup3\n        /* \"contracts/TenkStablePair.sol\":17500:17518  token0Balance != 0 */\n      eq\n      iszero\n        /* \"contracts/TenkStablePair.sol\":17500:17540  token0Balance != 0 && token1Balance != 0 */\n      dup1\n      iszero\n      tag_338\n      jumpi\n      pop\n        /* \"contracts/TenkStablePair.sol\":17539:17540  0 */\n      0x00\n        /* \"contracts/TenkStablePair.sol\":17522:17535  token1Balance */\n      dup2\n        /* \"contracts/TenkStablePair.sol\":17522:17540  token1Balance != 0 */\n      eq\n      iszero\n        /* \"contracts/TenkStablePair.sol\":17500:17540  token0Balance != 0 && token1Balance != 0 */\n    tag_338:\n        /* \"contracts/TenkStablePair.sol\":17492:17581  require(token0Balance != 0 && token1Balance != 0, \"10k: liquidity ratio not initialized\") */\n      tag_339\n      jumpi\n      mload(0x40)\n      0x08c379a000000000000000000000000000000000000000000000000000000000\n      dup2\n      mstore\n      0x04\n      add\n      dup1\n      dup1\n      0x20\n      add\n      dup3\n      dup2\n      sub\n      dup3\n      mstore\n      0x24\n      dup2\n      mstore\n      0x20\n      add\n      dup1\n      data_a8f5b5742ea4f6d77e3ddeade1d79a13f37f3b0b50626b04c2c56458d8d3d5c7\n      0x24\n      swap2\n      codecopy\n      0x40\n      add\n      swap2\n      pop\n      pop\n      mload(0x40)\n      dup1\n      swap2\n      sub\n      swap1\n      revert\n    tag_339:\n        /* \"contracts/TenkStablePair.sol\":17588:17625  _update(token0Balance, token1Balance) */\n      tag_340\n        /* \"contracts/TenkStablePair.sol\":17596:17609  token0Balance */\n      dup3\n        /* \"contracts/TenkStablePair.sol\":17611:17624  token1Balance */\n      dup3\n        /* \"contracts/TenkStablePair.sol\":17588:17595  _update */\n      tag_253\n        /* \"contracts/TenkStablePair.sol\":17588:17625  _update(token0Balance, token1Balance) */\n      jump\t// in\n    tag_340:\n        /* \"contracts/TenkStablePair.sol\":1612:1613  _ */\n      pop\n      pop\n        /* \"contracts/TenkStablePair.sol\":1631:1632  1 */\n      0x01\n        /* \"contracts/TenkStablePair.sol\":1620:1628  unlocked */\n      0x0d\n        /* \"contracts/TenkStablePair.sol\":1620:1632  unlocked = 1 */\n      dup2\n      swap1\n      sstore\n      pop\n        /* \"contracts/TenkStablePair.sol\":17321:17631  function sync() external lock {\r... */\n      jump\t// out\n        /* \"contracts/TenkStablePair.sol\":10205:14219  function _swap(TokensData memory tokensData, address to, bytes memory data, address referrer) internal lock {\r... */\n    tag_165:\n        /* \"contracts/TenkStablePair.sol\":1569:1570  1 */\n      0x01\n        /* \"contracts/TenkStablePair.sol\":1557:1565  unlocked */\n      sload(0x0d)\n        /* \"contracts/TenkStablePair.sol\":1557:1570  unlocked == 1 */\n      eq\n        /* \"contracts/TenkStablePair.sol\":1549:1586  require(unlocked == 1, '10k: LOCKED') */\n      tag_342\n      jumpi\n      mload(0x40)\n      0x08c379a000000000000000000000000000000000000000000000000000000000\n      dup2\n      mstore\n      0x04\n      add\n      dup1\n      dup1\n      0x20\n      add\n      dup3\n      dup2\n      sub\n      dup3\n      mstore\n      0x0b\n      dup2\n      mstore\n      0x20\n      add\n      dup1\n      0x31306b3a204c4f434b4544000000000000000000000000000000000000000000\n      dup2\n      mstore\n      pop\n      0x20\n      add\n      swap2\n      pop\n      pop\n      mload(0x40)\n      dup1\n      swap2\n      sub\n      swap1\n      revert\n    tag_342:\n        /* \"contracts/TenkStablePair.sol\":1604:1605  0 */\n      0x00\n        /* \"contracts/TenkStablePair.sol\":1593:1601  unlocked */\n      0x0d\n        /* \"contracts/TenkStablePair.sol\":1593:1605  unlocked = 0 */\n      dup2\n      swap1\n      sstore\n      pop\n        /* \"contracts/TenkStablePair.sol\":10352:10353  0 */\n      0x00\n        /* \"contracts/TenkStablePair.sol\":10328:10338  tokensData */\n      dup5\n        /* \"contracts/TenkStablePair.sol\":10328:10349  tokensData.amount0Out */\n      0x40\n      add\n      mload\n        /* \"contracts/TenkStablePair.sol\":10328:10353  tokensData.amount0Out > 0 */\n      gt\n        /* \"contracts/TenkStablePair.sol\":10328:10382  tokensData.amount0Out > 0 || tokensData.amount1Out > 0 */\n      dup1\n      tag_344\n      jumpi\n      pop\n        /* \"contracts/TenkStablePair.sol\":10381:10382  0 */\n      0x00\n        /* \"contracts/TenkStablePair.sol\":10357:10367  tokensData */\n      dup5\n        /* \"contracts/TenkStablePair.sol\":10357:10378  tokensData.amount1Out */\n      0x60\n      add\n      mload\n        /* \"contracts/TenkStablePair.sol\":10357:10382  tokensData.amount1Out > 0 */\n      gt\n        /* \"contracts/TenkStablePair.sol\":10328:10382  tokensData.amount0Out > 0 || tokensData.amount1Out > 0 */\n    tag_344:\n        /* \"contracts/TenkStablePair.sol\":10320:10418  require(tokensData.amount0Out > 0 || tokensData.amount1Out > 0, '10k: INSUFFICIENT_OUTPUT_AMOUNT') */\n      tag_345\n      jumpi\n      mload(0x40)\n      0x08c379a000000000000000000000000000000000000000000000000000000000\n      dup2\n      mstore\n      0x04\n      add\n      dup1\n      dup1\n      0x20\n      add\n      dup3\n      dup2\n      sub\n      dup3\n      mstore\n      0x1f\n      dup2\n      mstore\n      0x20\n      add\n      dup1\n      0x31306b3a20494e53554646494349454e545f4f55545055545f414d4f554e5400\n      dup2\n      mstore\n      pop\n      0x20\n      add\n      swap2\n      pop\n      pop\n      mload(0x40)\n      dup1\n      swap2\n      sub\n      swap1\n      revert\n    tag_345:\n        /* \"contracts/TenkStablePair.sol\":10428:10445  uint112 _reserve0 */\n      0x00\n        /* \"contracts/TenkStablePair.sol\":10447:10464  uint112 _reserve1 */\n      dup1\n        /* \"contracts/TenkStablePair.sol\":10466:10490  uint16 _token0FeePercent */\n      0x00\n        /* \"contracts/TenkStablePair.sol\":10492:10516  uint16 _token1FeePercent */\n      dup1\n        /* \"contracts/TenkStablePair.sol\":10520:10533  getReserves() */\n      tag_346\n        /* \"contracts/TenkStablePair.sol\":10520:10531  getReserves */\n      tag_63\n        /* \"contracts/TenkStablePair.sol\":10520:10533  getReserves() */\n      jump\t// in\n    tag_346:\n        /* \"contracts/TenkStablePair.sol\":10427:10533  (uint112 _reserve0, uint112 _reserve1, uint16 _token0FeePercent, uint16 _token1FeePercent) = getReserves() */\n      swap4\n      pop\n      swap4\n      pop\n      swap4\n      pop\n      swap4\n      pop\n        /* \"contracts/TenkStablePair.sol\":10572:10581  _reserve0 */\n      dup4\n        /* \"contracts/TenkStablePair.sol\":10548:10581  tokensData.amount0Out < _reserve0 */\n      0xffffffffffffffffffffffffffff\n      and\n        /* \"contracts/TenkStablePair.sol\":10548:10558  tokensData */\n      dup9\n        /* \"contracts/TenkStablePair.sol\":10548:10569  tokensData.amount0Out */\n      0x40\n      add\n      mload\n        /* \"contracts/TenkStablePair.sol\":10548:10581  tokensData.amount0Out < _reserve0 */\n      lt\n        /* \"contracts/TenkStablePair.sol\":10548:10618  tokensData.amount0Out < _reserve0 && tokensData.amount1Out < _reserve1 */\n      dup1\n      iszero\n      tag_347\n      jumpi\n      pop\n        /* \"contracts/TenkStablePair.sol\":10609:10618  _reserve1 */\n      dup3\n        /* \"contracts/TenkStablePair.sol\":10585:10618  tokensData.amount1Out < _reserve1 */\n      0xffffffffffffffffffffffffffff\n      and\n        /* \"contracts/TenkStablePair.sol\":10585:10595  tokensData */\n      dup9\n        /* \"contracts/TenkStablePair.sol\":10585:10606  tokensData.amount1Out */\n      0x60\n      add\n      mload\n        /* \"contracts/TenkStablePair.sol\":10585:10618  tokensData.amount1Out < _reserve1 */\n      lt\n        /* \"contracts/TenkStablePair.sol\":10548:10618  tokensData.amount0Out < _reserve0 && tokensData.amount1Out < _reserve1 */\n    tag_347:\n        /* \"contracts/TenkStablePair.sol\":10540:10650  require(tokensData.amount0Out < _reserve0 && tokensData.amount1Out < _reserve1, '10k: INSUFFICIENT_LIQUIDITY') */\n      tag_348\n      jumpi\n      mload(0x40)\n      0x08c379a000000000000000000000000000000000000000000000000000000000\n      dup2\n      mstore\n      0x04\n      add\n      dup1\n      dup1\n      0x20\n      add\n      dup3\n      dup2\n      sub\n      dup3\n      mstore\n      0x1b\n      dup2\n      mstore\n      0x20\n      add\n      dup1\n      0x31306b3a20494e53554646494349454e545f4c49515549444954590000000000\n      dup2\n      mstore\n      pop\n      0x20\n      add\n      swap2\n      pop\n      pop\n      mload(0x40)\n      dup1\n      swap2\n      sub\n      swap1\n      revert\n    tag_348:\n        /* \"contracts/TenkStablePair.sol\":10684:10694  tokensData */\n      dup8\n        /* \"contracts/TenkStablePair.sol\":10684:10701  tokensData.token0 */\n      0x00\n      add\n      mload\n        /* \"contracts/TenkStablePair.sol\":10678:10701  to != tokensData.token0 */\n      0xffffffffffffffffffffffffffffffffffffffff\n      and\n        /* \"contracts/TenkStablePair.sol\":10678:10680  to */\n      dup8\n        /* \"contracts/TenkStablePair.sol\":10678:10701  to != tokensData.token0 */\n      0xffffffffffffffffffffffffffffffffffffffff\n      and\n      eq\n      iszero\n        /* \"contracts/TenkStablePair.sol\":10678:10728  to != tokensData.token0 && to != tokensData.token1 */\n      dup1\n      iszero\n      tag_349\n      jumpi\n      pop\n        /* \"contracts/TenkStablePair.sol\":10711:10721  tokensData */\n      dup8\n        /* \"contracts/TenkStablePair.sol\":10711:10728  tokensData.token1 */\n      0x20\n      add\n      mload\n        /* \"contracts/TenkStablePair.sol\":10705:10728  to != tokensData.token1 */\n      0xffffffffffffffffffffffffffffffffffffffff\n      and\n        /* \"contracts/TenkStablePair.sol\":10705:10707  to */\n      dup8\n        /* \"contracts/TenkStablePair.sol\":10705:10728  to != tokensData.token1 */\n      0xffffffffffffffffffffffffffffffffffffffff\n      and\n      eq\n      iszero\n        /* \"contracts/TenkStablePair.sol\":10678:10728  to != tokensData.token0 && to != tokensData.token1 */\n    tag_349:\n        /* \"contracts/TenkStablePair.sol\":10670:10748  require(to != tokensData.token0 && to != tokensData.token1, '10k: INVALID_TO') */\n      tag_350\n      jumpi\n      mload(0x40)\n      0x08c379a000000000000000000000000000000000000000000000000000000000\n      dup2\n      mstore\n      0x04\n      add\n      dup1\n      dup1\n      0x20\n      add\n      dup3\n      dup2\n      sub\n      dup3\n      mstore\n      0x0f\n      dup2\n      mstore\n      0x20\n      add\n      dup1\n      0x31306b3a20494e56414c49445f544f0000000000000000000000000000000000\n      dup2\n      mstore\n      pop\n      0x20\n      add\n      swap2\n      pop\n      pop\n      mload(0x40)\n      dup1\n      swap2\n      sub\n      swap1\n      revert\n    tag_350:\n        /* \"contracts/TenkStablePair.sol\":10826:10827  0 */\n      0x00\n        /* \"contracts/TenkStablePair.sol\":10802:10812  tokensData */\n      dup9\n        /* \"contracts/TenkStablePair.sol\":10802:10823  tokensData.amount0Out */\n      0x40\n      add\n      mload\n        /* \"contracts/TenkStablePair.sol\":10802:10827  tokensData.amount0Out > 0 */\n      gt\n        /* \"contracts/TenkStablePair.sol\":10798:10888  if (tokensData.amount0Out > 0) _safeTransfer(tokensData.token0, to, tokensData.amount0Out) */\n      iszero\n      tag_351\n      jumpi\n        /* \"contracts/TenkStablePair.sol\":10829:10888  _safeTransfer(tokensData.token0, to, tokensData.amount0Out) */\n      tag_352\n        /* \"contracts/TenkStablePair.sol\":10843:10853  tokensData */\n      dup9\n        /* \"contracts/TenkStablePair.sol\":10843:10860  tokensData.token0 */\n      0x00\n      add\n      mload\n        /* \"contracts/TenkStablePair.sol\":10862:10864  to */\n      dup9\n        /* \"contracts/TenkStablePair.sol\":10866:10876  tokensData */\n      dup11\n        /* \"contracts/TenkStablePair.sol\":10866:10887  tokensData.amount0Out */\n      0x40\n      add\n      mload\n        /* \"contracts/TenkStablePair.sol\":10829:10842  _safeTransfer */\n      tag_279\n        /* \"contracts/TenkStablePair.sol\":10829:10888  _safeTransfer(tokensData.token0, to, tokensData.amount0Out) */\n      jump\t// in\n    tag_352:\n        /* \"contracts/TenkStablePair.sol\":10798:10888  if (tokensData.amount0Out > 0) _safeTransfer(tokensData.token0, to, tokensData.amount0Out) */\n    tag_351:\n        /* \"contracts/TenkStablePair.sol\":10966:10967  0 */\n      0x00\n        /* \"contracts/TenkStablePair.sol\":10942:10952  tokensData */\n      dup9\n        /* \"contracts/TenkStablePair.sol\":10942:10963  tokensData.amount1Out */\n      0x60\n      add\n      mload\n        /* \"contracts/TenkStablePair.sol\":10942:10967  tokensData.amount1Out > 0 */\n      gt\n        /* \"contracts/TenkStablePair.sol\":10938:11028  if (tokensData.amount1Out > 0) _safeTransfer(tokensData.token1, to, tokensData.amount1Out) */\n      iszero\n      tag_353\n      jumpi\n        /* \"contracts/TenkStablePair.sol\":10969:11028  _safeTransfer(tokensData.token1, to, tokensData.amount1Out) */\n      tag_354\n        /* \"contracts/TenkStablePair.sol\":10983:10993  tokensData */\n      dup9\n        /* \"contracts/TenkStablePair.sol\":10983:11000  tokensData.token1 */\n      0x20\n      add\n      mload\n        /* \"contracts/TenkStablePair.sol\":11002:11004  to */\n      dup9\n        /* \"contracts/TenkStablePair.sol\":11006:11016  tokensData */\n      dup11\n        /* \"contracts/TenkStablePair.sol\":11006:11027  tokensData.amount1Out */\n      0x60\n      add\n      mload\n        /* \"contracts/TenkStablePair.sol\":10969:10982  _safeTransfer */\n      tag_279\n        /* \"contracts/TenkStablePair.sol\":10969:11028  _safeTransfer(tokensData.token1, to, tokensData.amount1Out) */\n      jump\t// in\n    tag_354:\n        /* \"contracts/TenkStablePair.sol\":10938:11028  if (tokensData.amount1Out > 0) _safeTransfer(tokensData.token1, to, tokensData.amount1Out) */\n    tag_353:\n        /* \"contracts/TenkStablePair.sol\":11055:11056  0 */\n      0x00\n        /* \"contracts/TenkStablePair.sol\":11041:11045  data */\n      dup7\n        /* \"contracts/TenkStablePair.sol\":11041:11052  data.length */\n      mload\n        /* \"contracts/TenkStablePair.sol\":11041:11056  data.length > 0 */\n      gt\n        /* \"contracts/TenkStablePair.sol\":11037:11156  if (data.length > 0) I10kStableCallee(to).uniswapV2Call(msg.sender, tokensData.amount0Out, tokensData.amount1Out, data) */\n      iszero\n      tag_355\n      jumpi\n        /* \"contracts/TenkStablePair.sol\":11075:11077  to */\n      dup7\n        /* \"contracts/TenkStablePair.sol\":11058:11092  I10kStableCallee(to).uniswapV2Call */\n      0xffffffffffffffffffffffffffffffffffffffff\n      and\n      0x10d1e85c\n        /* \"contracts/TenkStablePair.sol\":11093:11103  msg.sender */\n      caller\n        /* \"contracts/TenkStablePair.sol\":11105:11115  tokensData */\n      dup11\n        /* \"contracts/TenkStablePair.sol\":11105:11126  tokensData.amount0Out */\n      0x40\n      add\n      mload\n        /* \"contracts/TenkStablePair.sol\":11128:11138  tokensData */\n      dup12\n        /* \"contracts/TenkStablePair.sol\":11128:11149  tokensData.amount1Out */\n      0x60\n      add\n      mload\n        /* \"contracts/TenkStablePair.sol\":11151:11155  data */\n      dup11\n        /* \"contracts/TenkStablePair.sol\":11058:11156  I10kStableCallee(to).uniswapV2Call(msg.sender, tokensData.amount0Out, tokensData.amount1Out, data) */\n      mload(0x40)\n      dup6\n      0xffffffff\n      and\n      0xe0\n      shl\n      dup2\n      mstore\n      0x04\n      add\n      dup1\n      dup6\n      0xffffffffffffffffffffffffffffffffffffffff\n      and\n      0xffffffffffffffffffffffffffffffffffffffff\n      and\n      dup2\n      mstore\n      0x20\n      add\n      dup5\n      dup2\n      mstore\n      0x20\n      add\n      dup4\n      dup2\n      mstore\n      0x20\n      add\n      dup1\n      0x20\n      add\n      dup3\n      dup2\n      sub\n      dup3\n      mstore\n      dup4\n      dup2\n      dup2\n      mload\n      dup2\n      mstore\n      0x20\n      add\n      swap2\n      pop\n      dup1\n      mload\n      swap1\n      0x20\n      add\n      swap1\n      dup1\n      dup4\n      dup4\n        /* \"--CODEGEN--\":23:24   */\n      0x00\n        /* \"--CODEGEN--\":8:108   */\n    tag_356:\n        /* \"--CODEGEN--\":33:36   */\n      dup4\n        /* \"--CODEGEN--\":30:31   */\n      dup2\n        /* \"--CODEGEN--\":27:37   */\n      lt\n        /* \"--CODEGEN--\":8:108   */\n      iszero\n      tag_358\n      jumpi\n        /* \"--CODEGEN--\":99:100   */\n      dup1\n        /* \"--CODEGEN--\":94:97   */\n      dup3\n        /* \"--CODEGEN--\":90:101   */\n      add\n        /* \"--CODEGEN--\":84:102   */\n      mload\n        /* \"--CODEGEN--\":80:81   */\n      dup2\n        /* \"--CODEGEN--\":75:78   */\n      dup5\n        /* \"--CODEGEN--\":71:82   */\n      add\n        /* \"--CODEGEN--\":64:103   */\n      mstore\n        /* \"--CODEGEN--\":52:54   */\n      0x20\n        /* \"--CODEGEN--\":49:50   */\n      dup2\n        /* \"--CODEGEN--\":45:55   */\n      add\n        /* \"--CODEGEN--\":40:55   */\n      swap1\n      pop\n        /* \"--CODEGEN--\":8:108   */\n      jump(tag_356)\n    tag_358:\n        /* \"--CODEGEN--\":12:26   */\n      pop\n        /* \"contracts/TenkStablePair.sol\":11058:11156  I10kStableCallee(to).uniswapV2Call(msg.sender, tokensData.amount0Out, tokensData.amount1Out, data) */\n      pop\n      pop\n      pop\n      swap1\n      pop\n      swap1\n      dup2\n      add\n      swap1\n      0x1f\n      and\n      dup1\n      iszero\n      tag_359\n      jumpi\n      dup1\n      dup3\n      sub\n      dup1\n      mload\n      0x01\n      dup4\n      0x20\n      sub\n      0x0100\n      exp\n      sub\n      not\n      and\n      dup2\n      mstore\n      0x20\n      add\n      swap2\n      pop\n    tag_359:\n      pop\n      swap6\n      pop\n      pop\n      pop\n      pop\n      pop\n      pop\n      0x00\n      mload(0x40)\n      dup1\n      dup4\n      sub\n      dup2\n      0x00\n      dup8\n      dup1\n      extcodesize\n      iszero\n        /* \"--CODEGEN--\":8:17   */\n      dup1\n        /* \"--CODEGEN--\":5:7   */\n      iszero\n      tag_360\n      jumpi\n        /* \"--CODEGEN--\":30:31   */\n      0x00\n        /* \"--CODEGEN--\":27:28   */\n      dup1\n        /* \"--CODEGEN--\":20:32   */\n      revert\n        /* \"--CODEGEN--\":5:7   */\n    tag_360:\n        /* \"contracts/TenkStablePair.sol\":11058:11156  I10kStableCallee(to).uniswapV2Call(msg.sender, tokensData.amount0Out, tokensData.amount1Out, data) */\n      pop\n      gas\n      call\n      iszero\n        /* \"--CODEGEN--\":8:17   */\n      dup1\n        /* \"--CODEGEN--\":5:7   */\n      iszero\n      tag_361\n      jumpi\n        /* \"--CODEGEN--\":45:61   */\n      returndatasize\n        /* \"--CODEGEN--\":42:43   */\n      0x00\n        /* \"--CODEGEN--\":39:40   */\n      dup1\n        /* \"--CODEGEN--\":24:62   */\n      returndatacopy\n        /* \"--CODEGEN--\":77:93   */\n      returndatasize\n        /* \"--CODEGEN--\":74:75   */\n      0x00\n        /* \"--CODEGEN--\":67:94   */\n      revert\n        /* \"--CODEGEN--\":5:7   */\n    tag_361:\n        /* \"contracts/TenkStablePair.sol\":11058:11156  I10kStableCallee(to).uniswapV2Call(msg.sender, tokensData.amount0Out, tokensData.amount1Out, data) */\n      pop\n      pop\n      pop\n      pop\n        /* \"contracts/TenkStablePair.sol\":11037:11156  if (data.length > 0) I10kStableCallee(to).uniswapV2Call(msg.sender, tokensData.amount0Out, tokensData.amount1Out, data) */\n    tag_355:\n        /* \"contracts/TenkStablePair.sol\":11194:11204  tokensData */\n      dup8\n        /* \"contracts/TenkStablePair.sol\":11194:11211  tokensData.token0 */\n      0x00\n      add\n      mload\n        /* \"contracts/TenkStablePair.sol\":11187:11222  IERC20(tokensData.token0).balanceOf */\n      0xffffffffffffffffffffffffffffffffffffffff\n      and\n      0x70a08231\n        /* \"contracts/TenkStablePair.sol\":11231:11235  this */\n      address\n        /* \"contracts/TenkStablePair.sol\":11187:11237  IERC20(tokensData.token0).balanceOf(address(this)) */\n      mload(0x40)\n      dup3\n      0xffffffff\n      and\n      0xe0\n      shl\n      dup2\n      mstore\n      0x04\n      add\n      dup1\n      dup3\n      0xffffffffffffffffffffffffffffffffffffffff\n      and\n      0xffffffffffffffffffffffffffffffffffffffff\n      and\n      dup2\n      mstore\n      0x20\n      add\n      swap2\n      pop\n      pop\n      0x20\n      mload(0x40)\n      dup1\n      dup4\n      sub\n      dup2\n      dup7\n      dup1\n      extcodesize\n      iszero\n        /* \"--CODEGEN--\":8:17   */\n      dup1\n        /* \"--CODEGEN--\":5:7   */\n      iszero\n      tag_362\n      jumpi\n        /* \"--CODEGEN--\":30:31   */\n      0x00\n        /* \"--CODEGEN--\":27:28   */\n      dup1\n        /* \"--CODEGEN--\":20:32   */\n      revert\n        /* \"--CODEGEN--\":5:7   */\n    tag_362:\n        /* \"contracts/TenkStablePair.sol\":11187:11237  IERC20(tokensData.token0).balanceOf(address(this)) */\n      pop\n      gas\n      staticcall\n      iszero\n        /* \"--CODEGEN--\":8:17   */\n      dup1\n        /* \"--CODEGEN--\":5:7   */\n      iszero\n      tag_363\n      jumpi\n        /* \"--CODEGEN--\":45:61   */\n      returndatasize\n        /* \"--CODEGEN--\":42:43   */\n      0x00\n        /* \"--CODEGEN--\":39:40   */\n      dup1\n        /* \"--CODEGEN--\":24:62   */\n      returndatacopy\n        /* \"--CODEGEN--\":77:93   */\n      returndatasize\n        /* \"--CODEGEN--\":74:75   */\n      0x00\n        /* \"--CODEGEN--\":67:94   */\n      revert\n        /* \"--CODEGEN--\":5:7   */\n    tag_363:\n        /* \"contracts/TenkStablePair.sol\":11187:11237  IERC20(tokensData.token0).balanceOf(address(this)) */\n      pop\n      pop\n      pop\n      pop\n      mload(0x40)\n      returndatasize\n        /* \"--CODEGEN--\":13:15   */\n      0x20\n        /* \"--CODEGEN--\":8:11   */\n      dup2\n        /* \"--CODEGEN--\":5:16   */\n      lt\n        /* \"--CODEGEN--\":2:4   */\n      iszero\n      tag_364\n      jumpi\n        /* \"--CODEGEN--\":29:30   */\n      0x00\n        /* \"--CODEGEN--\":26:27   */\n      dup1\n        /* \"--CODEGEN--\":19:31   */\n      revert\n        /* \"--CODEGEN--\":2:4   */\n    tag_364:\n        /* \"contracts/TenkStablePair.sol\":11187:11237  IERC20(tokensData.token0).balanceOf(address(this)) */\n      dup2\n      add\n      swap1\n      dup1\n      dup1\n      mload\n      swap1\n      0x20\n      add\n      swap1\n      swap3\n      swap2\n      swap1\n      pop\n      pop\n      pop\n        /* \"contracts/TenkStablePair.sol\":11165:11175  tokensData */\n      dup9\n        /* \"contracts/TenkStablePair.sol\":11165:11184  tokensData.balance0 */\n      0x80\n      add\n        /* \"contracts/TenkStablePair.sol\":11165:11237  tokensData.balance0 = IERC20(tokensData.token0).balanceOf(address(this)) */\n      dup2\n      dup2\n      mstore\n      pop\n      pop\n        /* \"contracts/TenkStablePair.sol\":11275:11285  tokensData */\n      dup8\n        /* \"contracts/TenkStablePair.sol\":11275:11292  tokensData.token1 */\n      0x20\n      add\n      mload\n        /* \"contracts/TenkStablePair.sol\":11268:11303  IERC20(tokensData.token1).balanceOf */\n      0xffffffffffffffffffffffffffffffffffffffff\n      and\n      0x70a08231\n        /* \"contracts/TenkStablePair.sol\":11312:11316  this */\n      address\n        /* \"contracts/TenkStablePair.sol\":11268:11318  IERC20(tokensData.token1).balanceOf(address(this)) */\n      mload(0x40)\n      dup3\n      0xffffffff\n      and\n      0xe0\n      shl\n      dup2\n      mstore\n      0x04\n      add\n      dup1\n      dup3\n      0xffffffffffffffffffffffffffffffffffffffff\n      and\n      0xffffffffffffffffffffffffffffffffffffffff\n      and\n      dup2\n      mstore\n      0x20\n      add\n      swap2\n      pop\n      pop\n      0x20\n      mload(0x40)\n      dup1\n      dup4\n      sub\n      dup2\n      dup7\n      dup1\n      extcodesize\n      iszero\n        /* \"--CODEGEN--\":8:17   */\n      dup1\n        /* \"--CODEGEN--\":5:7   */\n      iszero\n      tag_365\n      jumpi\n        /* \"--CODEGEN--\":30:31   */\n      0x00\n        /* \"--CODEGEN--\":27:28   */\n      dup1\n        /* \"--CODEGEN--\":20:32   */\n      revert\n        /* \"--CODEGEN--\":5:7   */\n    tag_365:\n        /* \"contracts/TenkStablePair.sol\":11268:11318  IERC20(tokensData.token1).balanceOf(address(this)) */\n      pop\n      gas\n      staticcall\n      iszero\n        /* \"--CODEGEN--\":8:17   */\n      dup1\n        /* \"--CODEGEN--\":5:7   */\n      iszero\n      tag_366\n      jumpi\n        /* \"--CODEGEN--\":45:61   */\n      returndatasize\n        /* \"--CODEGEN--\":42:43   */\n      0x00\n        /* \"--CODEGEN--\":39:40   */\n      dup1\n        /* \"--CODEGEN--\":24:62   */\n      returndatacopy\n        /* \"--CODEGEN--\":77:93   */\n      returndatasize\n        /* \"--CODEGEN--\":74:75   */\n      0x00\n        /* \"--CODEGEN--\":67:94   */\n      revert\n        /* \"--CODEGEN--\":5:7   */\n    tag_366:\n        /* \"contracts/TenkStablePair.sol\":11268:11318  IERC20(tokensData.token1).balanceOf(address(this)) */\n      pop\n      pop\n      pop\n      pop\n      mload(0x40)\n      returndatasize\n        /* \"--CODEGEN--\":13:15   */\n      0x20\n        /* \"--CODEGEN--\":8:11   */\n      dup2\n        /* \"--CODEGEN--\":5:16   */\n      lt\n        /* \"--CODEGEN--\":2:4   */\n      iszero\n      tag_367\n      jumpi\n        /* \"--CODEGEN--\":29:30   */\n      0x00\n        /* \"--CODEGEN--\":26:27   */\n      dup1\n        /* \"--CODEGEN--\":19:31   */\n      revert\n        /* \"--CODEGEN--\":2:4   */\n    tag_367:\n        /* \"contracts/TenkStablePair.sol\":11268:11318  IERC20(tokensData.token1).balanceOf(address(this)) */\n      dup2\n      add\n      swap1\n      dup1\n      dup1\n      mload\n      swap1\n      0x20\n      add\n      swap1\n      swap3\n      swap2\n      swap1\n      pop\n      pop\n      pop\n        /* \"contracts/TenkStablePair.sol\":11246:11256  tokensData */\n      dup9\n        /* \"contracts/TenkStablePair.sol\":11246:11265  tokensData.balance1 */\n      0xa0\n      add\n        /* \"contracts/TenkStablePair.sol\":11246:11318  tokensData.balance1 = IERC20(tokensData.token1).balanceOf(address(this)) */\n      dup2\n      dup2\n      mstore\n      pop\n      pop\n        /* \"contracts/TenkStablePair.sol\":11334:11348  uint amount0In */\n      0x00\n        /* \"contracts/TenkStablePair.sol\":11385:11395  tokensData */\n      dup9\n        /* \"contracts/TenkStablePair.sol\":11385:11406  tokensData.amount0Out */\n      0x40\n      add\n      mload\n        /* \"contracts/TenkStablePair.sol\":11373:11382  _reserve0 */\n      dup6\n        /* \"contracts/TenkStablePair.sol\":11373:11406  _reserve0 - tokensData.amount0Out */\n      0xffffffffffffffffffffffffffff\n      and\n      sub\n        /* \"contracts/TenkStablePair.sol\":11351:11361  tokensData */\n      dup10\n        /* \"contracts/TenkStablePair.sol\":11351:11370  tokensData.balance0 */\n      0x80\n      add\n      mload\n        /* \"contracts/TenkStablePair.sol\":11351:11406  tokensData.balance0 > _reserve0 - tokensData.amount0Out */\n      gt\n        /* \"contracts/TenkStablePair.sol\":11351:11470  tokensData.balance0 > _reserve0 - tokensData.amount0Out ? tokensData.balance0 - (_reserve0 - tokensData.amount0Out) : 0 */\n      tag_368\n      jumpi\n        /* \"contracts/TenkStablePair.sol\":11469:11470  0 */\n      0x00\n        /* \"contracts/TenkStablePair.sol\":11351:11470  tokensData.balance0 > _reserve0 - tokensData.amount0Out ? tokensData.balance0 - (_reserve0 - tokensData.amount0Out) : 0 */\n      jump(tag_369)\n    tag_368:\n        /* \"contracts/TenkStablePair.sol\":11444:11454  tokensData */\n      dup9\n        /* \"contracts/TenkStablePair.sol\":11444:11465  tokensData.amount0Out */\n      0x40\n      add\n      mload\n        /* \"contracts/TenkStablePair.sol\":11432:11441  _reserve0 */\n      dup6\n        /* \"contracts/TenkStablePair.sol\":11432:11465  _reserve0 - tokensData.amount0Out */\n      0xffffffffffffffffffffffffffff\n      and\n      sub\n        /* \"contracts/TenkStablePair.sol\":11409:11419  tokensData */\n      dup10\n        /* \"contracts/TenkStablePair.sol\":11409:11428  tokensData.balance0 */\n      0x80\n      add\n      mload\n        /* \"contracts/TenkStablePair.sol\":11409:11466  tokensData.balance0 - (_reserve0 - tokensData.amount0Out) */\n      sub\n        /* \"contracts/TenkStablePair.sol\":11351:11470  tokensData.balance0 > _reserve0 - tokensData.amount0Out ? tokensData.balance0 - (_reserve0 - tokensData.amount0Out) : 0 */\n    tag_369:\n        /* \"contracts/TenkStablePair.sol\":11334:11470  uint amount0In = tokensData.balance0 > _reserve0 - tokensData.amount0Out ? tokensData.balance0 - (_reserve0 - tokensData.amount0Out) : 0 */\n      swap1\n      pop\n        /* \"contracts/TenkStablePair.sol\":11477:11491  uint amount1In */\n      0x00\n        /* \"contracts/TenkStablePair.sol\":11528:11538  tokensData */\n      dup10\n        /* \"contracts/TenkStablePair.sol\":11528:11549  tokensData.amount1Out */\n      0x60\n      add\n      mload\n        /* \"contracts/TenkStablePair.sol\":11516:11525  _reserve1 */\n      dup6\n        /* \"contracts/TenkStablePair.sol\":11516:11549  _reserve1 - tokensData.amount1Out */\n      0xffffffffffffffffffffffffffff\n      and\n      sub\n        /* \"contracts/TenkStablePair.sol\":11494:11504  tokensData */\n      dup11\n        /* \"contracts/TenkStablePair.sol\":11494:11513  tokensData.balance1 */\n      0xa0\n      add\n      mload\n        /* \"contracts/TenkStablePair.sol\":11494:11549  tokensData.balance1 > _reserve1 - tokensData.amount1Out */\n      gt\n        /* \"contracts/TenkStablePair.sol\":11494:11613  tokensData.balance1 > _reserve1 - tokensData.amount1Out ? tokensData.balance1 - (_reserve1 - tokensData.amount1Out) : 0 */\n      tag_370\n      jumpi\n        /* \"contracts/TenkStablePair.sol\":11612:11613  0 */\n      0x00\n        /* \"contracts/TenkStablePair.sol\":11494:11613  tokensData.balance1 > _reserve1 - tokensData.amount1Out ? tokensData.balance1 - (_reserve1 - tokensData.amount1Out) : 0 */\n      jump(tag_371)\n    tag_370:\n        /* \"contracts/TenkStablePair.sol\":11587:11597  tokensData */\n      dup10\n        /* \"contracts/TenkStablePair.sol\":11587:11608  tokensData.amount1Out */\n      0x60\n      add\n      mload\n        /* \"contracts/TenkStablePair.sol\":11575:11584  _reserve1 */\n      dup6\n        /* \"contracts/TenkStablePair.sol\":11575:11608  _reserve1 - tokensData.amount1Out */\n      0xffffffffffffffffffffffffffff\n      and\n      sub\n        /* \"contracts/TenkStablePair.sol\":11552:11562  tokensData */\n      dup11\n        /* \"contracts/TenkStablePair.sol\":11552:11571  tokensData.balance1 */\n      0xa0\n      add\n      mload\n        /* \"contracts/TenkStablePair.sol\":11552:11609  tokensData.balance1 - (_reserve1 - tokensData.amount1Out) */\n      sub\n        /* \"contracts/TenkStablePair.sol\":11494:11613  tokensData.balance1 > _reserve1 - tokensData.amount1Out ? tokensData.balance1 - (_reserve1 - tokensData.amount1Out) : 0 */\n    tag_371:\n        /* \"contracts/TenkStablePair.sol\":11477:11613  uint amount1In = tokensData.balance1 > _reserve1 - tokensData.amount1Out ? tokensData.balance1 - (_reserve1 - tokensData.amount1Out) : 0 */\n      swap1\n      pop\n        /* \"contracts/TenkStablePair.sol\":11640:11641  0 */\n      0x00\n        /* \"contracts/TenkStablePair.sol\":11628:11637  amount0In */\n      dup3\n        /* \"contracts/TenkStablePair.sol\":11628:11641  amount0In > 0 */\n      gt\n        /* \"contracts/TenkStablePair.sol\":11628:11658  amount0In > 0 || amount1In > 0 */\n      dup1\n      tag_372\n      jumpi\n      pop\n        /* \"contracts/TenkStablePair.sol\":11657:11658  0 */\n      0x00\n        /* \"contracts/TenkStablePair.sol\":11645:11654  amount1In */\n      dup2\n        /* \"contracts/TenkStablePair.sol\":11645:11658  amount1In > 0 */\n      gt\n        /* \"contracts/TenkStablePair.sol\":11628:11658  amount0In > 0 || amount1In > 0 */\n    tag_372:\n        /* \"contracts/TenkStablePair.sol\":11620:11693  require(amount0In > 0 || amount1In > 0, '10k: INSUFFICIENT_INPUT_AMOUNT') */\n      tag_373\n      jumpi\n      mload(0x40)\n      0x08c379a000000000000000000000000000000000000000000000000000000000\n      dup2\n      mstore\n      0x04\n      add\n      dup1\n      dup1\n      0x20\n      add\n      dup3\n      dup2\n      sub\n      dup3\n      mstore\n      0x1e\n      dup2\n      mstore\n      0x20\n      add\n      dup1\n      0x31306b3a20494e53554646494349454e545f494e5055545f414d4f554e540000\n      dup2\n      mstore\n      pop\n      0x20\n      add\n      swap2\n      pop\n      pop\n      mload(0x40)\n      dup1\n      swap2\n      sub\n      swap1\n      revert\n    tag_373:\n        /* \"contracts/TenkStablePair.sol\":650:656  100000 */\n      0x0186a0\n        /* \"contracts/TenkStablePair.sol\":11729:11761  amount0In.mul(_token0FeePercent) */\n      tag_374\n        /* \"contracts/TenkStablePair.sol\":11743:11760  _token0FeePercent */\n      dup6\n        /* \"contracts/TenkStablePair.sol\":11729:11761  amount0In.mul(_token0FeePercent) */\n      0xffff\n      and\n        /* \"contracts/TenkStablePair.sol\":11729:11738  amount0In */\n      dup5\n        /* \"contracts/TenkStablePair.sol\":11729:11742  amount0In.mul */\n      tag_239\n      swap1\n        /* \"contracts/TenkStablePair.sol\":11729:11761  amount0In.mul(_token0FeePercent) */\n      swap2\n      swap1\n      0xffffffff\n      and\n      jump\t// in\n    tag_374:\n        /* \"contracts/TenkStablePair.sol\":11729:11779  amount0In.mul(_token0FeePercent) / FEE_DENOMINATOR */\n      dup2\n      tag_375\n      jumpi\n      invalid\n    tag_375:\n      div\n        /* \"contracts/TenkStablePair.sol\":11702:11712  tokensData */\n      dup11\n        /* \"contracts/TenkStablePair.sol\":11702:11726  tokensData.remainingFee0 */\n      0xc0\n      add\n        /* \"contracts/TenkStablePair.sol\":11702:11779  tokensData.remainingFee0 = amount0In.mul(_token0FeePercent) / FEE_DENOMINATOR */\n      dup2\n      dup2\n      mstore\n      pop\n      pop\n        /* \"contracts/TenkStablePair.sol\":650:656  100000 */\n      0x0186a0\n        /* \"contracts/TenkStablePair.sol\":11813:11845  amount1In.mul(_token1FeePercent) */\n      tag_376\n        /* \"contracts/TenkStablePair.sol\":11827:11844  _token1FeePercent */\n      dup5\n        /* \"contracts/TenkStablePair.sol\":11813:11845  amount1In.mul(_token1FeePercent) */\n      0xffff\n      and\n        /* \"contracts/TenkStablePair.sol\":11813:11822  amount1In */\n      dup4\n        /* \"contracts/TenkStablePair.sol\":11813:11826  amount1In.mul */\n      tag_239\n      swap1\n        /* \"contracts/TenkStablePair.sol\":11813:11845  amount1In.mul(_token1FeePercent) */\n      swap2\n      swap1\n      0xffffffff\n      and\n      jump\t// in\n    tag_376:\n        /* \"contracts/TenkStablePair.sol\":11813:11863  amount1In.mul(_token1FeePercent) / FEE_DENOMINATOR */\n      dup2\n      tag_377\n      jumpi\n      invalid\n    tag_377:\n      div\n        /* \"contracts/TenkStablePair.sol\":11786:11796  tokensData */\n      dup11\n        /* \"contracts/TenkStablePair.sol\":11786:11810  tokensData.remainingFee1 */\n      0xe0\n      add\n        /* \"contracts/TenkStablePair.sol\":11786:11863  tokensData.remainingFee1 = amount1In.mul(_token1FeePercent) / FEE_DENOMINATOR */\n      dup2\n      dup2\n      mstore\n      pop\n      pop\n        /* \"contracts/TenkStablePair.sol\":11924:11932  uint fee */\n      0x00\n        /* \"contracts/TenkStablePair.sol\":11935:11936  0 */\n      dup1\n        /* \"contracts/TenkStablePair.sol\":11924:11936  uint fee = 0 */\n      swap1\n      pop\n        /* \"contracts/TenkStablePair.sol\":11947:11973  uint referrerInputFeeShare */\n      0x00\n        /* \"contracts/TenkStablePair.sol\":11996:11997  0 */\n      dup1\n        /* \"contracts/TenkStablePair.sol\":11976:11998  referrer != address(0) */\n      0xffffffffffffffffffffffffffffffffffffffff\n      and\n        /* \"contracts/TenkStablePair.sol\":11976:11984  referrer */\n      dup10\n        /* \"contracts/TenkStablePair.sol\":11976:11998  referrer != address(0) */\n      0xffffffffffffffffffffffffffffffffffffffff\n      and\n      eq\n      iszero\n        /* \"contracts/TenkStablePair.sol\":11976:12059  referrer != address(0) ? I10kStableFactory(factory).referrersFeeShare(referrer) : 0 */\n      tag_378\n      jumpi\n        /* \"contracts/TenkStablePair.sol\":12058:12059  0 */\n      0x00\n        /* \"contracts/TenkStablePair.sol\":11976:12059  referrer != address(0) ? I10kStableFactory(factory).referrersFeeShare(referrer) : 0 */\n      jump(tag_379)\n    tag_378:\n        /* \"contracts/TenkStablePair.sol\":12019:12026  factory */\n      0x05\n      0x00\n      swap1\n      sload\n      swap1\n      0x0100\n      exp\n      swap1\n      div\n      0xffffffffffffffffffffffffffffffffffffffff\n      and\n        /* \"contracts/TenkStablePair.sol\":12001:12045  I10kStableFactory(factory).referrersFeeShare */\n      0xffffffffffffffffffffffffffffffffffffffff\n      and\n      0x7183d47c\n        /* \"contracts/TenkStablePair.sol\":12046:12054  referrer */\n      dup11\n        /* \"contracts/TenkStablePair.sol\":12001:12055  I10kStableFactory(factory).referrersFeeShare(referrer) */\n      mload(0x40)\n      dup3\n      0xffffffff\n      and\n      0xe0\n      shl\n      dup2\n      mstore\n      0x04\n      add\n      dup1\n      dup3\n      0xffffffffffffffffffffffffffffffffffffffff\n      and\n      0xffffffffffffffffffffffffffffffffffffffff\n      and\n      dup2\n      mstore\n      0x20\n      add\n      swap2\n      pop\n      pop\n      0x20\n      mload(0x40)\n      dup1\n      dup4\n      sub\n      dup2\n      dup7\n      dup1\n      extcodesize\n      iszero\n        /* \"--CODEGEN--\":8:17   */\n      dup1\n        /* \"--CODEGEN--\":5:7   */\n      iszero\n      tag_380\n      jumpi\n        /* \"--CODEGEN--\":30:31   */\n      0x00\n        /* \"--CODEGEN--\":27:28   */\n      dup1\n        /* \"--CODEGEN--\":20:32   */\n      revert\n        /* \"--CODEGEN--\":5:7   */\n    tag_380:\n        /* \"contracts/TenkStablePair.sol\":12001:12055  I10kStableFactory(factory).referrersFeeShare(referrer) */\n      pop\n      gas\n      staticcall\n      iszero\n        /* \"--CODEGEN--\":8:17   */\n      dup1\n        /* \"--CODEGEN--\":5:7   */\n      iszero\n      tag_381\n      jumpi\n        /* \"--CODEGEN--\":45:61   */\n      returndatasize\n        /* \"--CODEGEN--\":42:43   */\n      0x00\n        /* \"--CODEGEN--\":39:40   */\n      dup1\n        /* \"--CODEGEN--\":24:62   */\n      returndatacopy\n        /* \"--CODEGEN--\":77:93   */\n      returndatasize\n        /* \"--CODEGEN--\":74:75   */\n      0x00\n        /* \"--CODEGEN--\":67:94   */\n      revert\n        /* \"--CODEGEN--\":5:7   */\n    tag_381:\n        /* \"contracts/TenkStablePair.sol\":12001:12055  I10kStableFactory(factory).referrersFeeShare(referrer) */\n      pop\n      pop\n      pop\n      pop\n      mload(0x40)\n      returndatasize\n        /* \"--CODEGEN--\":13:15   */\n      0x20\n        /* \"--CODEGEN--\":8:11   */\n      dup2\n        /* \"--CODEGEN--\":5:16   */\n      lt\n        /* \"--CODEGEN--\":2:4   */\n      iszero\n      tag_382\n      jumpi\n        /* \"--CODEGEN--\":29:30   */\n      0x00\n        /* \"--CODEGEN--\":26:27   */\n      dup1\n        /* \"--CODEGEN--\":19:31   */\n      revert\n        /* \"--CODEGEN--\":2:4   */\n    tag_382:\n        /* \"contracts/TenkStablePair.sol\":12001:12055  I10kStableFactory(factory).referrersFeeShare(referrer) */\n      dup2\n      add\n      swap1\n      dup1\n      dup1\n      mload\n      swap1\n      0x20\n      add\n      swap1\n      swap3\n      swap2\n      swap1\n      pop\n      pop\n      pop\n        /* \"contracts/TenkStablePair.sol\":11976:12059  referrer != address(0) ? I10kStableFactory(factory).referrersFeeShare(referrer) : 0 */\n    tag_379:\n        /* \"contracts/TenkStablePair.sol\":11947:12059  uint referrerInputFeeShare = referrer != address(0) ? I10kStableFactory(factory).referrersFeeShare(referrer) : 0 */\n      swap1\n      pop\n        /* \"contracts/TenkStablePair.sol\":12096:12097  0 */\n      0x00\n        /* \"contracts/TenkStablePair.sol\":12072:12093  referrerInputFeeShare */\n      dup2\n        /* \"contracts/TenkStablePair.sol\":12072:12097  referrerInputFeeShare > 0 */\n      gt\n        /* \"contracts/TenkStablePair.sol\":12068:12663  if (referrerInputFeeShare > 0) {\r... */\n      iszero\n      tag_383\n      jumpi\n        /* \"contracts/TenkStablePair.sol\":12126:12127  0 */\n      0x00\n        /* \"contracts/TenkStablePair.sol\":12114:12123  amount0In */\n      dup5\n        /* \"contracts/TenkStablePair.sol\":12114:12127  amount0In > 0 */\n      gt\n        /* \"contracts/TenkStablePair.sol\":12110:12377  if (amount0In > 0) {\r... */\n      iszero\n      tag_384\n      jumpi\n        /* \"contracts/TenkStablePair.sol\":12230:12231  2 */\n      0x02\n        /* \"contracts/TenkStablePair.sol\":650:656  100000 */\n      0x0186a0\n        /* \"contracts/TenkStablePair.sol\":12211:12231  FEE_DENOMINATOR ** 2 */\n      exp\n        /* \"contracts/TenkStablePair.sol\":12148:12207  amount0In.mul(referrerInputFeeShare).mul(_token0FeePercent) */\n      tag_385\n        /* \"contracts/TenkStablePair.sol\":12189:12206  _token0FeePercent */\n      dup8\n        /* \"contracts/TenkStablePair.sol\":12148:12207  amount0In.mul(referrerInputFeeShare).mul(_token0FeePercent) */\n      0xffff\n      and\n        /* \"contracts/TenkStablePair.sol\":12148:12184  amount0In.mul(referrerInputFeeShare) */\n      tag_386\n        /* \"contracts/TenkStablePair.sol\":12162:12183  referrerInputFeeShare */\n      dup5\n        /* \"contracts/TenkStablePair.sol\":12148:12157  amount0In */\n      dup9\n        /* \"contracts/TenkStablePair.sol\":12148:12161  amount0In.mul */\n      tag_239\n      swap1\n        /* \"contracts/TenkStablePair.sol\":12148:12184  amount0In.mul(referrerInputFeeShare) */\n      swap2\n      swap1\n      0xffffffff\n      and\n      jump\t// in\n    tag_386:\n        /* \"contracts/TenkStablePair.sol\":12148:12188  amount0In.mul(referrerInputFeeShare).mul */\n      tag_239\n      swap1\n        /* \"contracts/TenkStablePair.sol\":12148:12207  amount0In.mul(referrerInputFeeShare).mul(_token0FeePercent) */\n      swap2\n      swap1\n      0xffffffff\n      and\n      jump\t// in\n    tag_385:\n        /* \"contracts/TenkStablePair.sol\":12148:12232  amount0In.mul(referrerInputFeeShare).mul(_token0FeePercent) / (FEE_DENOMINATOR ** 2) */\n      dup2\n      tag_387\n      jumpi\n      invalid\n    tag_387:\n      div\n        /* \"contracts/TenkStablePair.sol\":12142:12232  fee = amount0In.mul(referrerInputFeeShare).mul(_token0FeePercent) / (FEE_DENOMINATOR ** 2) */\n      swap2\n      pop\n        /* \"contracts/TenkStablePair.sol\":12272:12305  tokensData.remainingFee0.sub(fee) */\n      tag_388\n        /* \"contracts/TenkStablePair.sol\":12301:12304  fee */\n      dup3\n        /* \"contracts/TenkStablePair.sol\":12272:12282  tokensData */\n      dup14\n        /* \"contracts/TenkStablePair.sol\":12272:12296  tokensData.remainingFee0 */\n      0xc0\n      add\n      mload\n        /* \"contracts/TenkStablePair.sol\":12272:12300  tokensData.remainingFee0.sub */\n      tag_173\n      swap1\n        /* \"contracts/TenkStablePair.sol\":12272:12305  tokensData.remainingFee0.sub(fee) */\n      swap2\n      swap1\n      0xffffffff\n      and\n      jump\t// in\n    tag_388:\n        /* \"contracts/TenkStablePair.sol\":12245:12255  tokensData */\n      dup13\n        /* \"contracts/TenkStablePair.sol\":12245:12269  tokensData.remainingFee0 */\n      0xc0\n      add\n        /* \"contracts/TenkStablePair.sol\":12245:12305  tokensData.remainingFee0 = tokensData.remainingFee0.sub(fee) */\n      dup2\n      dup2\n      mstore\n      pop\n      pop\n        /* \"contracts/TenkStablePair.sol\":12318:12365  _safeTransfer(tokensData.token0, referrer, fee) */\n      tag_389\n        /* \"contracts/TenkStablePair.sol\":12332:12342  tokensData */\n      dup13\n        /* \"contracts/TenkStablePair.sol\":12332:12349  tokensData.token0 */\n      0x00\n      add\n      mload\n        /* \"contracts/TenkStablePair.sol\":12351:12359  referrer */\n      dup11\n        /* \"contracts/TenkStablePair.sol\":12361:12364  fee */\n      dup5\n        /* \"contracts/TenkStablePair.sol\":12318:12331  _safeTransfer */\n      tag_279\n        /* \"contracts/TenkStablePair.sol\":12318:12365  _safeTransfer(tokensData.token0, referrer, fee) */\n      jump\t// in\n    tag_389:\n        /* \"contracts/TenkStablePair.sol\":12110:12377  if (amount0In > 0) {\r... */\n    tag_384:\n        /* \"contracts/TenkStablePair.sol\":12403:12404  0 */\n      0x00\n        /* \"contracts/TenkStablePair.sol\":12391:12400  amount1In */\n      dup4\n        /* \"contracts/TenkStablePair.sol\":12391:12404  amount1In > 0 */\n      gt\n        /* \"contracts/TenkStablePair.sol\":12387:12654  if (amount1In > 0) {\r... */\n      iszero\n      tag_390\n      jumpi\n        /* \"contracts/TenkStablePair.sol\":12507:12508  2 */\n      0x02\n        /* \"contracts/TenkStablePair.sol\":650:656  100000 */\n      0x0186a0\n        /* \"contracts/TenkStablePair.sol\":12488:12508  FEE_DENOMINATOR ** 2 */\n      exp\n        /* \"contracts/TenkStablePair.sol\":12425:12484  amount1In.mul(referrerInputFeeShare).mul(_token1FeePercent) */\n      tag_391\n        /* \"contracts/TenkStablePair.sol\":12466:12483  _token1FeePercent */\n      dup7\n        /* \"contracts/TenkStablePair.sol\":12425:12484  amount1In.mul(referrerInputFeeShare).mul(_token1FeePercent) */\n      0xffff\n      and\n        /* \"contracts/TenkStablePair.sol\":12425:12461  amount1In.mul(referrerInputFeeShare) */\n      tag_392\n        /* \"contracts/TenkStablePair.sol\":12439:12460  referrerInputFeeShare */\n      dup5\n        /* \"contracts/TenkStablePair.sol\":12425:12434  amount1In */\n      dup8\n        /* \"contracts/TenkStablePair.sol\":12425:12438  amount1In.mul */\n      tag_239\n      swap1\n        /* \"contracts/TenkStablePair.sol\":12425:12461  amount1In.mul(referrerInputFeeShare) */\n      swap2\n      swap1\n      0xffffffff\n      and\n      jump\t// in\n    tag_392:\n        /* \"contracts/TenkStablePair.sol\":12425:12465  amount1In.mul(referrerInputFeeShare).mul */\n      tag_239\n      swap1\n        /* \"contracts/TenkStablePair.sol\":12425:12484  amount1In.mul(referrerInputFeeShare).mul(_token1FeePercent) */\n      swap2\n      swap1\n      0xffffffff\n      and\n      jump\t// in\n    tag_391:\n        /* \"contracts/TenkStablePair.sol\":12425:12509  amount1In.mul(referrerInputFeeShare).mul(_token1FeePercent) / (FEE_DENOMINATOR ** 2) */\n      dup2\n      tag_393\n      jumpi\n      invalid\n    tag_393:\n      div\n        /* \"contracts/TenkStablePair.sol\":12419:12509  fee = amount1In.mul(referrerInputFeeShare).mul(_token1FeePercent) / (FEE_DENOMINATOR ** 2) */\n      swap2\n      pop\n        /* \"contracts/TenkStablePair.sol\":12549:12582  tokensData.remainingFee1.sub(fee) */\n      tag_394\n        /* \"contracts/TenkStablePair.sol\":12578:12581  fee */\n      dup3\n        /* \"contracts/TenkStablePair.sol\":12549:12559  tokensData */\n      dup14\n        /* \"contracts/TenkStablePair.sol\":12549:12573  tokensData.remainingFee1 */\n      0xe0\n      add\n      mload\n        /* \"contracts/TenkStablePair.sol\":12549:12577  tokensData.remainingFee1.sub */\n      tag_173\n      swap1\n        /* \"contracts/TenkStablePair.sol\":12549:12582  tokensData.remainingFee1.sub(fee) */\n      swap2\n      swap1\n      0xffffffff\n      and\n      jump\t// in\n    tag_394:\n        /* \"contracts/TenkStablePair.sol\":12522:12532  tokensData */\n      dup13\n        /* \"contracts/TenkStablePair.sol\":12522:12546  tokensData.remainingFee1 */\n      0xe0\n      add\n        /* \"contracts/TenkStablePair.sol\":12522:12582  tokensData.remainingFee1 = tokensData.remainingFee1.sub(fee) */\n      dup2\n      dup2\n      mstore\n      pop\n      pop\n        /* \"contracts/TenkStablePair.sol\":12595:12642  _safeTransfer(tokensData.token1, referrer, fee) */\n      tag_395\n        /* \"contracts/TenkStablePair.sol\":12609:12619  tokensData */\n      dup13\n        /* \"contracts/TenkStablePair.sol\":12609:12626  tokensData.token1 */\n      0x20\n      add\n      mload\n        /* \"contracts/TenkStablePair.sol\":12628:12636  referrer */\n      dup11\n        /* \"contracts/TenkStablePair.sol\":12638:12641  fee */\n      dup5\n        /* \"contracts/TenkStablePair.sol\":12595:12608  _safeTransfer */\n      tag_279\n        /* \"contracts/TenkStablePair.sol\":12595:12642  _safeTransfer(tokensData.token1, referrer, fee) */\n      jump\t// in\n    tag_395:\n        /* \"contracts/TenkStablePair.sol\":12387:12654  if (amount1In > 0) {\r... */\n    tag_390:\n        /* \"contracts/TenkStablePair.sol\":12068:12663  if (referrerInputFeeShare > 0) {\r... */\n    tag_383:\n        /* \"contracts/TenkStablePair.sol\":12676:12686  stableSwap */\n      0x0c\n      0x00\n      swap1\n      sload\n      swap1\n      0x0100\n      exp\n      swap1\n      div\n      0xff\n      and\n        /* \"contracts/TenkStablePair.sol\":12673:13470  if(stableSwap){\r... */\n      iszero\n      tag_396\n      jumpi\n        /* \"contracts/TenkStablePair.sol\":12699:12717  uint ownerFeeShare */\n      0x00\n        /* \"contracts/TenkStablePair.sol\":12719:12732  address feeTo */\n      dup1\n        /* \"contracts/TenkStablePair.sol\":12754:12761  factory */\n      0x05\n      0x00\n      swap1\n      sload\n      swap1\n      0x0100\n      exp\n      swap1\n      div\n      0xffffffffffffffffffffffffffffffffffffffff\n      and\n        /* \"contracts/TenkStablePair.sol\":12736:12770  I10kStableFactory(factory).feeInfo */\n      0xffffffffffffffffffffffffffffffffffffffff\n      and\n      0x995b5aae\n        /* \"contracts/TenkStablePair.sol\":12736:12772  I10kStableFactory(factory).feeInfo() */\n      mload(0x40)\n      dup2\n      0xffffffff\n      and\n      0xe0\n      shl\n      dup2\n      mstore\n      0x04\n      add\n      0x40\n      dup1\n      mload\n      dup1\n      dup4\n      sub\n      dup2\n      dup7\n      dup1\n      extcodesize\n      iszero\n        /* \"--CODEGEN--\":8:17   */\n      dup1\n        /* \"--CODEGEN--\":5:7   */\n      iszero\n      tag_397\n      jumpi\n        /* \"--CODEGEN--\":30:31   */\n      0x00\n        /* \"--CODEGEN--\":27:28   */\n      dup1\n        /* \"--CODEGEN--\":20:32   */\n      revert\n        /* \"--CODEGEN--\":5:7   */\n    tag_397:\n        /* \"contracts/TenkStablePair.sol\":12736:12772  I10kStableFactory(factory).feeInfo() */\n      pop\n      gas\n      staticcall\n      iszero\n        /* \"--CODEGEN--\":8:17   */\n      dup1\n        /* \"--CODEGEN--\":5:7   */\n      iszero\n      tag_398\n      jumpi\n        /* \"--CODEGEN--\":45:61   */\n      returndatasize\n        /* \"--CODEGEN--\":42:43   */\n      0x00\n        /* \"--CODEGEN--\":39:40   */\n      dup1\n        /* \"--CODEGEN--\":24:62   */\n      returndatacopy\n        /* \"--CODEGEN--\":77:93   */\n      returndatasize\n        /* \"--CODEGEN--\":74:75   */\n      0x00\n        /* \"--CODEGEN--\":67:94   */\n      revert\n        /* \"--CODEGEN--\":5:7   */\n    tag_398:\n        /* \"contracts/TenkStablePair.sol\":12736:12772  I10kStableFactory(factory).feeInfo() */\n      pop\n      pop\n      pop\n      pop\n      mload(0x40)\n      returndatasize\n        /* \"--CODEGEN--\":13:15   */\n      0x40\n        /* \"--CODEGEN--\":8:11   */\n      dup2\n        /* \"--CODEGEN--\":5:16   */\n      lt\n        /* \"--CODEGEN--\":2:4   */\n      iszero\n      tag_399\n      jumpi\n        /* \"--CODEGEN--\":29:30   */\n      0x00\n        /* \"--CODEGEN--\":26:27   */\n      dup1\n        /* \"--CODEGEN--\":19:31   */\n      revert\n        /* \"--CODEGEN--\":2:4   */\n    tag_399:\n        /* \"contracts/TenkStablePair.sol\":12736:12772  I10kStableFactory(factory).feeInfo() */\n      dup2\n      add\n      swap1\n      dup1\n      dup1\n      mload\n      swap1\n      0x20\n      add\n      swap1\n      swap3\n      swap2\n      swap1\n      dup1\n      mload\n      swap1\n      0x20\n      add\n      swap1\n      swap3\n      swap2\n      swap1\n      pop\n      pop\n      pop\n        /* \"contracts/TenkStablePair.sol\":12698:12772  (uint ownerFeeShare, address feeTo) = I10kStableFactory(factory).feeInfo() */\n      swap2\n      pop\n      swap2\n      pop\n        /* \"contracts/TenkStablePair.sol\":12803:12804  0 */\n      0x00\n        /* \"contracts/TenkStablePair.sol\":12786:12805  feeTo != address(0) */\n      0xffffffffffffffffffffffffffffffffffffffff\n      and\n        /* \"contracts/TenkStablePair.sol\":12786:12791  feeTo */\n      dup2\n        /* \"contracts/TenkStablePair.sol\":12786:12805  feeTo != address(0) */\n      0xffffffffffffffffffffffffffffffffffffffff\n      and\n      eq\n        /* \"contracts/TenkStablePair.sol\":12783:13461  if(feeTo != address(0)) {\r... */\n      tag_400\n      jumpi\n        /* \"contracts/TenkStablePair.sol\":12836:12897  FEE_DENOMINATOR.sub(referrerInputFeeShare).mul(ownerFeeShare) */\n      tag_401\n        /* \"contracts/TenkStablePair.sol\":12883:12896  ownerFeeShare */\n      dup3\n        /* \"contracts/TenkStablePair.sol\":12836:12878  FEE_DENOMINATOR.sub(referrerInputFeeShare) */\n      tag_402\n        /* \"contracts/TenkStablePair.sol\":12856:12877  referrerInputFeeShare */\n      dup6\n        /* \"contracts/TenkStablePair.sol\":650:656  100000 */\n      0x0186a0\n        /* \"contracts/TenkStablePair.sol\":12836:12855  FEE_DENOMINATOR.sub */\n      tag_173\n      swap1\n        /* \"contracts/TenkStablePair.sol\":12836:12878  FEE_DENOMINATOR.sub(referrerInputFeeShare) */\n      swap2\n      swap1\n      0xffffffff\n      and\n      jump\t// in\n    tag_402:\n        /* \"contracts/TenkStablePair.sol\":12836:12882  FEE_DENOMINATOR.sub(referrerInputFeeShare).mul */\n      tag_239\n      swap1\n        /* \"contracts/TenkStablePair.sol\":12836:12897  FEE_DENOMINATOR.sub(referrerInputFeeShare).mul(ownerFeeShare) */\n      swap2\n      swap1\n      0xffffffff\n      and\n      jump\t// in\n    tag_401:\n        /* \"contracts/TenkStablePair.sol\":12820:12897  ownerFeeShare = FEE_DENOMINATOR.sub(referrerInputFeeShare).mul(ownerFeeShare) */\n      swap2\n      pop\n        /* \"contracts/TenkStablePair.sol\":12926:12927  0 */\n      0x00\n        /* \"contracts/TenkStablePair.sol\":12914:12923  amount0In */\n      dup7\n        /* \"contracts/TenkStablePair.sol\":12914:12927  amount0In > 0 */\n      gt\n        /* \"contracts/TenkStablePair.sol\":12910:13174  if (amount0In > 0) {\r... */\n      iszero\n      tag_403\n      jumpi\n        /* \"contracts/TenkStablePair.sol\":13024:13025  3 */\n      0x03\n        /* \"contracts/TenkStablePair.sol\":650:656  100000 */\n      0x0186a0\n        /* \"contracts/TenkStablePair.sol\":13005:13025  FEE_DENOMINATOR ** 3 */\n      exp\n        /* \"contracts/TenkStablePair.sol\":12950:13001  amount0In.mul(ownerFeeShare).mul(_token0FeePercent) */\n      tag_404\n        /* \"contracts/TenkStablePair.sol\":12983:13000  _token0FeePercent */\n      dup10\n        /* \"contracts/TenkStablePair.sol\":12950:13001  amount0In.mul(ownerFeeShare).mul(_token0FeePercent) */\n      0xffff\n      and\n        /* \"contracts/TenkStablePair.sol\":12950:12978  amount0In.mul(ownerFeeShare) */\n      tag_405\n        /* \"contracts/TenkStablePair.sol\":12964:12977  ownerFeeShare */\n      dup6\n        /* \"contracts/TenkStablePair.sol\":12950:12959  amount0In */\n      dup11\n        /* \"contracts/TenkStablePair.sol\":12950:12963  amount0In.mul */\n      tag_239\n      swap1\n        /* \"contracts/TenkStablePair.sol\":12950:12978  amount0In.mul(ownerFeeShare) */\n      swap2\n      swap1\n      0xffffffff\n      and\n      jump\t// in\n    tag_405:\n        /* \"contracts/TenkStablePair.sol\":12950:12982  amount0In.mul(ownerFeeShare).mul */\n      tag_239\n      swap1\n        /* \"contracts/TenkStablePair.sol\":12950:13001  amount0In.mul(ownerFeeShare).mul(_token0FeePercent) */\n      swap2\n      swap1\n      0xffffffff\n      and\n      jump\t// in\n    tag_404:\n        /* \"contracts/TenkStablePair.sol\":12950:13026  amount0In.mul(ownerFeeShare).mul(_token0FeePercent) / (FEE_DENOMINATOR ** 3) */\n      dup2\n      tag_406\n      jumpi\n      invalid\n    tag_406:\n      div\n        /* \"contracts/TenkStablePair.sol\":12944:13026  fee = amount0In.mul(ownerFeeShare).mul(_token0FeePercent) / (FEE_DENOMINATOR ** 3) */\n      swap4\n      pop\n        /* \"contracts/TenkStablePair.sol\":13068:13101  tokensData.remainingFee0.sub(fee) */\n      tag_407\n        /* \"contracts/TenkStablePair.sol\":13097:13100  fee */\n      dup5\n        /* \"contracts/TenkStablePair.sol\":13068:13078  tokensData */\n      dup16\n        /* \"contracts/TenkStablePair.sol\":13068:13092  tokensData.remainingFee0 */\n      0xc0\n      add\n      mload\n        /* \"contracts/TenkStablePair.sol\":13068:13096  tokensData.remainingFee0.sub */\n      tag_173\n      swap1\n        /* \"contracts/TenkStablePair.sol\":13068:13101  tokensData.remainingFee0.sub(fee) */\n      swap2\n      swap1\n      0xffffffff\n      and\n      jump\t// in\n    tag_407:\n        /* \"contracts/TenkStablePair.sol\":13041:13051  tokensData */\n      dup15\n        /* \"contracts/TenkStablePair.sol\":13041:13065  tokensData.remainingFee0 */\n      0xc0\n      add\n        /* \"contracts/TenkStablePair.sol\":13041:13101  tokensData.remainingFee0 = tokensData.remainingFee0.sub(fee) */\n      dup2\n      dup2\n      mstore\n      pop\n      pop\n        /* \"contracts/TenkStablePair.sol\":13116:13160  _safeTransfer(tokensData.token0, feeTo, fee) */\n      tag_408\n        /* \"contracts/TenkStablePair.sol\":13130:13140  tokensData */\n      dup15\n        /* \"contracts/TenkStablePair.sol\":13130:13147  tokensData.token0 */\n      0x00\n      add\n      mload\n        /* \"contracts/TenkStablePair.sol\":13149:13154  feeTo */\n      dup3\n        /* \"contracts/TenkStablePair.sol\":13156:13159  fee */\n      dup7\n        /* \"contracts/TenkStablePair.sol\":13116:13129  _safeTransfer */\n      tag_279\n        /* \"contracts/TenkStablePair.sol\":13116:13160  _safeTransfer(tokensData.token0, feeTo, fee) */\n      jump\t// in\n    tag_408:\n        /* \"contracts/TenkStablePair.sol\":12910:13174  if (amount0In > 0) {\r... */\n    tag_403:\n        /* \"contracts/TenkStablePair.sol\":13202:13203  0 */\n      0x00\n        /* \"contracts/TenkStablePair.sol\":13190:13199  amount1In */\n      dup6\n        /* \"contracts/TenkStablePair.sol\":13190:13203  amount1In > 0 */\n      gt\n        /* \"contracts/TenkStablePair.sol\":13186:13450  if (amount1In > 0) {\r... */\n      iszero\n      tag_409\n      jumpi\n        /* \"contracts/TenkStablePair.sol\":13300:13301  3 */\n      0x03\n        /* \"contracts/TenkStablePair.sol\":650:656  100000 */\n      0x0186a0\n        /* \"contracts/TenkStablePair.sol\":13281:13301  FEE_DENOMINATOR ** 3 */\n      exp\n        /* \"contracts/TenkStablePair.sol\":13226:13277  amount1In.mul(ownerFeeShare).mul(_token1FeePercent) */\n      tag_410\n        /* \"contracts/TenkStablePair.sol\":13259:13276  _token1FeePercent */\n      dup9\n        /* \"contracts/TenkStablePair.sol\":13226:13277  amount1In.mul(ownerFeeShare).mul(_token1FeePercent) */\n      0xffff\n      and\n        /* \"contracts/TenkStablePair.sol\":13226:13254  amount1In.mul(ownerFeeShare) */\n      tag_411\n        /* \"contracts/TenkStablePair.sol\":13240:13253  ownerFeeShare */\n      dup6\n        /* \"contracts/TenkStablePair.sol\":13226:13235  amount1In */\n      dup10\n        /* \"contracts/TenkStablePair.sol\":13226:13239  amount1In.mul */\n      tag_239\n      swap1\n        /* \"contracts/TenkStablePair.sol\":13226:13254  amount1In.mul(ownerFeeShare) */\n      swap2\n      swap1\n      0xffffffff\n      and\n      jump\t// in\n    tag_411:\n        /* \"contracts/TenkStablePair.sol\":13226:13258  amount1In.mul(ownerFeeShare).mul */\n      tag_239\n      swap1\n        /* \"contracts/TenkStablePair.sol\":13226:13277  amount1In.mul(ownerFeeShare).mul(_token1FeePercent) */\n      swap2\n      swap1\n      0xffffffff\n      and\n      jump\t// in\n    tag_410:\n        /* \"contracts/TenkStablePair.sol\":13226:13302  amount1In.mul(ownerFeeShare).mul(_token1FeePercent) / (FEE_DENOMINATOR ** 3) */\n      dup2\n      tag_412\n      jumpi\n      invalid\n    tag_412:\n      div\n        /* \"contracts/TenkStablePair.sol\":13220:13302  fee = amount1In.mul(ownerFeeShare).mul(_token1FeePercent) / (FEE_DENOMINATOR ** 3) */\n      swap4\n      pop\n        /* \"contracts/TenkStablePair.sol\":13344:13377  tokensData.remainingFee1.sub(fee) */\n      tag_413\n        /* \"contracts/TenkStablePair.sol\":13373:13376  fee */\n      dup5\n        /* \"contracts/TenkStablePair.sol\":13344:13354  tokensData */\n      dup16\n        /* \"contracts/TenkStablePair.sol\":13344:13368  tokensData.remainingFee1 */\n      0xe0\n      add\n      mload\n        /* \"contracts/TenkStablePair.sol\":13344:13372  tokensData.remainingFee1.sub */\n      tag_173\n      swap1\n        /* \"contracts/TenkStablePair.sol\":13344:13377  tokensData.remainingFee1.sub(fee) */\n      swap2\n      swap1\n      0xffffffff\n      and\n      jump\t// in\n    tag_413:\n        /* \"contracts/TenkStablePair.sol\":13317:13327  tokensData */\n      dup15\n        /* \"contracts/TenkStablePair.sol\":13317:13341  tokensData.remainingFee1 */\n      0xe0\n      add\n        /* \"contracts/TenkStablePair.sol\":13317:13377  tokensData.remainingFee1 = tokensData.remainingFee1.sub(fee) */\n      dup2\n      dup2\n      mstore\n      pop\n      pop\n        /* \"contracts/TenkStablePair.sol\":13392:13436  _safeTransfer(tokensData.token1, feeTo, fee) */\n      tag_414\n        /* \"contracts/TenkStablePair.sol\":13406:13416  tokensData */\n      dup15\n        /* \"contracts/TenkStablePair.sol\":13406:13423  tokensData.token1 */\n      0x20\n      add\n      mload\n        /* \"contracts/TenkStablePair.sol\":13425:13430  feeTo */\n      dup3\n        /* \"contracts/TenkStablePair.sol\":13432:13435  fee */\n      dup7\n        /* \"contracts/TenkStablePair.sol\":13392:13405  _safeTransfer */\n      tag_279\n        /* \"contracts/TenkStablePair.sol\":13392:13436  _safeTransfer(tokensData.token1, feeTo, fee) */\n      jump\t// in\n    tag_414:\n        /* \"contracts/TenkStablePair.sol\":13186:13450  if (amount1In > 0) {\r... */\n    tag_409:\n        /* \"contracts/TenkStablePair.sol\":12783:13461  if(feeTo != address(0)) {\r... */\n    tag_400:\n        /* \"contracts/TenkStablePair.sol\":12673:13470  if(stableSwap){\r... */\n      pop\n      pop\n    tag_396:\n        /* \"contracts/TenkStablePair.sol\":13528:13529  0 */\n      0x00\n        /* \"contracts/TenkStablePair.sol\":13516:13525  amount0In */\n      dup5\n        /* \"contracts/TenkStablePair.sol\":13516:13529  amount0In > 0 */\n      gt\n        /* \"contracts/TenkStablePair.sol\":13512:13603  if (amount0In > 0) tokensData.balance0 = IERC20(tokensData.token0).balanceOf(address(this)) */\n      iszero\n      tag_415\n      jumpi\n        /* \"contracts/TenkStablePair.sol\":13560:13570  tokensData */\n      dup12\n        /* \"contracts/TenkStablePair.sol\":13560:13577  tokensData.token0 */\n      0x00\n      add\n      mload\n        /* \"contracts/TenkStablePair.sol\":13553:13588  IERC20(tokensData.token0).balanceOf */\n      0xffffffffffffffffffffffffffffffffffffffff\n      and\n      0x70a08231\n        /* \"contracts/TenkStablePair.sol\":13597:13601  this */\n      address\n        /* \"contracts/TenkStablePair.sol\":13553:13603  IERC20(tokensData.token0).balanceOf(address(this)) */\n      mload(0x40)\n      dup3\n      0xffffffff\n      and\n      0xe0\n      shl\n      dup2\n      mstore\n      0x04\n      add\n      dup1\n      dup3\n      0xffffffffffffffffffffffffffffffffffffffff\n      and\n      0xffffffffffffffffffffffffffffffffffffffff\n      and\n      dup2\n      mstore\n      0x20\n      add\n      swap2\n      pop\n      pop\n      0x20\n      mload(0x40)\n      dup1\n      dup4\n      sub\n      dup2\n      dup7\n      dup1\n      extcodesize\n      iszero\n        /* \"--CODEGEN--\":8:17   */\n      dup1\n        /* \"--CODEGEN--\":5:7   */\n      iszero\n      tag_416\n      jumpi\n        /* \"--CODEGEN--\":30:31   */\n      0x00\n        /* \"--CODEGEN--\":27:28   */\n      dup1\n        /* \"--CODEGEN--\":20:32   */\n      revert\n        /* \"--CODEGEN--\":5:7   */\n    tag_416:\n        /* \"contracts/TenkStablePair.sol\":13553:13603  IERC20(tokensData.token0).balanceOf(address(this)) */\n      pop\n      gas\n      staticcall\n      iszero\n        /* \"--CODEGEN--\":8:17   */\n      dup1\n        /* \"--CODEGEN--\":5:7   */\n      iszero\n      tag_417\n      jumpi\n        /* \"--CODEGEN--\":45:61   */\n      returndatasize\n        /* \"--CODEGEN--\":42:43   */\n      0x00\n        /* \"--CODEGEN--\":39:40   */\n      dup1\n        /* \"--CODEGEN--\":24:62   */\n      returndatacopy\n        /* \"--CODEGEN--\":77:93   */\n      returndatasize\n        /* \"--CODEGEN--\":74:75   */\n      0x00\n        /* \"--CODEGEN--\":67:94   */\n      revert\n        /* \"--CODEGEN--\":5:7   */\n    tag_417:\n        /* \"contracts/TenkStablePair.sol\":13553:13603  IERC20(tokensData.token0).balanceOf(address(this)) */\n      pop\n      pop\n      pop\n      pop\n      mload(0x40)\n      returndatasize\n        /* \"--CODEGEN--\":13:15   */\n      0x20\n        /* \"--CODEGEN--\":8:11   */\n      dup2\n        /* \"--CODEGEN--\":5:16   */\n      lt\n        /* \"--CODEGEN--\":2:4   */\n      iszero\n      tag_418\n      jumpi\n        /* \"--CODEGEN--\":29:30   */\n      0x00\n        /* \"--CODEGEN--\":26:27   */\n      dup1\n        /* \"--CODEGEN--\":19:31   */\n      revert\n        /* \"--CODEGEN--\":2:4   */\n    tag_418:\n        /* \"contracts/TenkStablePair.sol\":13553:13603  IERC20(tokensData.token0).balanceOf(address(this)) */\n      dup2\n      add\n      swap1\n      dup1\n      dup1\n      mload\n      swap1\n      0x20\n      add\n      swap1\n      swap3\n      swap2\n      swap1\n      pop\n      pop\n      pop\n        /* \"contracts/TenkStablePair.sol\":13531:13541  tokensData */\n      dup13\n        /* \"contracts/TenkStablePair.sol\":13531:13550  tokensData.balance0 */\n      0x80\n      add\n        /* \"contracts/TenkStablePair.sol\":13531:13603  tokensData.balance0 = IERC20(tokensData.token0).balanceOf(address(this)) */\n      dup2\n      dup2\n      mstore\n      pop\n      pop\n        /* \"contracts/TenkStablePair.sol\":13512:13603  if (amount0In > 0) tokensData.balance0 = IERC20(tokensData.token0).balanceOf(address(this)) */\n    tag_415:\n        /* \"contracts/TenkStablePair.sol\":13628:13629  0 */\n      0x00\n        /* \"contracts/TenkStablePair.sol\":13616:13625  amount1In */\n      dup4\n        /* \"contracts/TenkStablePair.sol\":13616:13629  amount1In > 0 */\n      gt\n        /* \"contracts/TenkStablePair.sol\":13612:13703  if (amount1In > 0) tokensData.balance1 = IERC20(tokensData.token1).balanceOf(address(this)) */\n      iszero\n      tag_419\n      jumpi\n        /* \"contracts/TenkStablePair.sol\":13660:13670  tokensData */\n      dup12\n        /* \"contracts/TenkStablePair.sol\":13660:13677  tokensData.token1 */\n      0x20\n      add\n      mload\n        /* \"contracts/TenkStablePair.sol\":13653:13688  IERC20(tokensData.token1).balanceOf */\n      0xffffffffffffffffffffffffffffffffffffffff\n      and\n      0x70a08231\n        /* \"contracts/TenkStablePair.sol\":13697:13701  this */\n      address\n        /* \"contracts/TenkStablePair.sol\":13653:13703  IERC20(tokensData.token1).balanceOf(address(this)) */\n      mload(0x40)\n      dup3\n      0xffffffff\n      and\n      0xe0\n      shl\n      dup2\n      mstore\n      0x04\n      add\n      dup1\n      dup3\n      0xffffffffffffffffffffffffffffffffffffffff\n      and\n      0xffffffffffffffffffffffffffffffffffffffff\n      and\n      dup2\n      mstore\n      0x20\n      add\n      swap2\n      pop\n      pop\n      0x20\n      mload(0x40)\n      dup1\n      dup4\n      sub\n      dup2\n      dup7\n      dup1\n      extcodesize\n      iszero\n        /* \"--CODEGEN--\":8:17   */\n      dup1\n        /* \"--CODEGEN--\":5:7   */\n      iszero\n      tag_420\n      jumpi\n        /* \"--CODEGEN--\":30:31   */\n      0x00\n        /* \"--CODEGEN--\":27:28   */\n      dup1\n        /* \"--CODEGEN--\":20:32   */\n      revert\n        /* \"--CODEGEN--\":5:7   */\n    tag_420:\n        /* \"contracts/TenkStablePair.sol\":13653:13703  IERC20(tokensData.token1).balanceOf(address(this)) */\n      pop\n      gas\n      staticcall\n      iszero\n        /* \"--CODEGEN--\":8:17   */\n      dup1\n        /* \"--CODEGEN--\":5:7   */\n      iszero\n      tag_421\n      jumpi\n        /* \"--CODEGEN--\":45:61   */\n      returndatasize\n        /* \"--CODEGEN--\":42:43   */\n      0x00\n        /* \"--CODEGEN--\":39:40   */\n      dup1\n        /* \"--CODEGEN--\":24:62   */\n      returndatacopy\n        /* \"--CODEGEN--\":77:93   */\n      returndatasize\n        /* \"--CODEGEN--\":74:75   */\n      0x00\n        /* \"--CODEGEN--\":67:94   */\n      revert\n        /* \"--CODEGEN--\":5:7   */\n    tag_421:\n        /* \"contracts/TenkStablePair.sol\":13653:13703  IERC20(tokensData.token1).balanceOf(address(this)) */\n      pop\n      pop\n      pop\n      pop\n      mload(0x40)\n      returndatasize\n        /* \"--CODEGEN--\":13:15   */\n      0x20\n        /* \"--CODEGEN--\":8:11   */\n      dup2\n        /* \"--CODEGEN--\":5:16   */\n      lt\n        /* \"--CODEGEN--\":2:4   */\n      iszero\n      tag_422\n      jumpi\n        /* \"--CODEGEN--\":29:30   */\n      0x00\n        /* \"--CODEGEN--\":26:27   */\n      dup1\n        /* \"--CODEGEN--\":19:31   */\n      revert\n        /* \"--CODEGEN--\":2:4   */\n    tag_422:\n        /* \"contracts/TenkStablePair.sol\":13653:13703  IERC20(tokensData.token1).balanceOf(address(this)) */\n      dup2\n      add\n      swap1\n      dup1\n      dup1\n      mload\n      swap1\n      0x20\n      add\n      swap1\n      swap3\n      swap2\n      swap1\n      pop\n      pop\n      pop\n        /* \"contracts/TenkStablePair.sol\":13631:13641  tokensData */\n      dup13\n        /* \"contracts/TenkStablePair.sol\":13631:13650  tokensData.balance1 */\n      0xa0\n      add\n        /* \"contracts/TenkStablePair.sol\":13631:13703  tokensData.balance1 = IERC20(tokensData.token1).balanceOf(address(this)) */\n      dup2\n      dup2\n      mstore\n      pop\n      pop\n        /* \"contracts/TenkStablePair.sol\":13612:13703  if (amount1In > 0) tokensData.balance1 = IERC20(tokensData.token1).balanceOf(address(this)) */\n    tag_419:\n        /* \"contracts/TenkStablePair.sol\":1612:1613  _ */\n      pop\n      pop\n        /* \"contracts/TenkStablePair.sol\":13789:13810  uint balance0Adjusted */\n      0x00\n        /* \"contracts/TenkStablePair.sol\":13813:13862  tokensData.balance0.sub(tokensData.remainingFee0) */\n      tag_423\n        /* \"contracts/TenkStablePair.sol\":13837:13847  tokensData */\n      dup12\n        /* \"contracts/TenkStablePair.sol\":13837:13861  tokensData.remainingFee0 */\n      0xc0\n      add\n      mload\n        /* \"contracts/TenkStablePair.sol\":13813:13823  tokensData */\n      dup13\n        /* \"contracts/TenkStablePair.sol\":13813:13832  tokensData.balance0 */\n      0x80\n      add\n      mload\n        /* \"contracts/TenkStablePair.sol\":13813:13836  tokensData.balance0.sub */\n      tag_173\n      swap1\n        /* \"contracts/TenkStablePair.sol\":13813:13862  tokensData.balance0.sub(tokensData.remainingFee0) */\n      swap2\n      swap1\n      0xffffffff\n      and\n      jump\t// in\n    tag_423:\n        /* \"contracts/TenkStablePair.sol\":13789:13862  uint balance0Adjusted = tokensData.balance0.sub(tokensData.remainingFee0) */\n      swap1\n      pop\n        /* \"contracts/TenkStablePair.sol\":13871:13892  uint balance1Adjusted */\n      0x00\n        /* \"contracts/TenkStablePair.sol\":13895:13944  tokensData.balance1.sub(tokensData.remainingFee1) */\n      tag_424\n        /* \"contracts/TenkStablePair.sol\":13919:13929  tokensData */\n      dup13\n        /* \"contracts/TenkStablePair.sol\":13919:13943  tokensData.remainingFee1 */\n      0xe0\n      add\n      mload\n        /* \"contracts/TenkStablePair.sol\":13895:13905  tokensData */\n      dup14\n        /* \"contracts/TenkStablePair.sol\":13895:13914  tokensData.balance1 */\n      0xa0\n      add\n      mload\n        /* \"contracts/TenkStablePair.sol\":13895:13918  tokensData.balance1.sub */\n      tag_173\n      swap1\n        /* \"contracts/TenkStablePair.sol\":13895:13944  tokensData.balance1.sub(tokensData.remainingFee1) */\n      swap2\n      swap1\n      0xffffffff\n      and\n      jump\t// in\n    tag_424:\n        /* \"contracts/TenkStablePair.sol\":13871:13944  uint balance1Adjusted = tokensData.balance1.sub(tokensData.remainingFee1) */\n      swap1\n      pop\n        /* \"contracts/TenkStablePair.sol\":14003:14039  _k(uint(_reserve0), uint(_reserve1)) */\n      tag_425\n        /* \"contracts/TenkStablePair.sol\":14011:14020  _reserve0 */\n      dup9\n        /* \"contracts/TenkStablePair.sol\":14006:14021  uint(_reserve0) */\n      0xffffffffffffffffffffffffffff\n      and\n        /* \"contracts/TenkStablePair.sol\":14028:14037  _reserve1 */\n      dup9\n        /* \"contracts/TenkStablePair.sol\":14023:14038  uint(_reserve1) */\n      0xffffffffffffffffffffffffffff\n      and\n        /* \"contracts/TenkStablePair.sol\":14003:14005  _k */\n      tag_193\n        /* \"contracts/TenkStablePair.sol\":14003:14039  _k(uint(_reserve0), uint(_reserve1)) */\n      jump\t// in\n    tag_425:\n        /* \"contracts/TenkStablePair.sol\":13961:13999  _k(balance0Adjusted, balance1Adjusted) */\n      tag_426\n        /* \"contracts/TenkStablePair.sol\":13964:13980  balance0Adjusted */\n      dup4\n        /* \"contracts/TenkStablePair.sol\":13982:13998  balance1Adjusted */\n      dup4\n        /* \"contracts/TenkStablePair.sol\":13961:13963  _k */\n      tag_193\n        /* \"contracts/TenkStablePair.sol\":13961:13999  _k(balance0Adjusted, balance1Adjusted) */\n      jump\t// in\n    tag_426:\n        /* \"contracts/TenkStablePair.sol\":13961:14039  _k(balance0Adjusted, balance1Adjusted) >= _k(uint(_reserve0), uint(_reserve1)) */\n      lt\n      iszero\n        /* \"contracts/TenkStablePair.sol\":13953:14050  require(_k(balance0Adjusted, balance1Adjusted) >= _k(uint(_reserve0), uint(_reserve1)), '10k: K') */\n      tag_427\n      jumpi\n      mload(0x40)\n      0x08c379a000000000000000000000000000000000000000000000000000000000\n      dup2\n      mstore\n      0x04\n      add\n      dup1\n      dup1\n      0x20\n      add\n      dup3\n      dup2\n      sub\n      dup3\n      mstore\n      0x06\n      dup2\n      mstore\n      0x20\n      add\n      dup1\n      0x31306b3a204b0000000000000000000000000000000000000000000000000000\n      dup2\n      mstore\n      pop\n      0x20\n      add\n      swap2\n      pop\n      pop\n      mload(0x40)\n      dup1\n      swap2\n      sub\n      swap1\n      revert\n    tag_427:\n        /* \"contracts/TenkStablePair.sol\":1612:1613  _ */\n      pop\n      pop\n        /* \"contracts/TenkStablePair.sol\":14064:14113  _update(tokensData.balance0, tokensData.balance1) */\n      tag_428\n        /* \"contracts/TenkStablePair.sol\":14072:14082  tokensData */\n      dup11\n        /* \"contracts/TenkStablePair.sol\":14072:14091  tokensData.balance0 */\n      0x80\n      add\n      mload\n        /* \"contracts/TenkStablePair.sol\":14093:14103  tokensData */\n      dup12\n        /* \"contracts/TenkStablePair.sol\":14093:14112  tokensData.balance1 */\n      0xa0\n      add\n      mload\n        /* \"contracts/TenkStablePair.sol\":14064:14071  _update */\n      tag_253\n        /* \"contracts/TenkStablePair.sol\":14064:14113  _update(tokensData.balance0, tokensData.balance1) */\n      jump\t// in\n    tag_428:\n        /* \"contracts/TenkStablePair.sol\":14210:14212  to */\n      dup9\n        /* \"contracts/TenkStablePair.sol\":14125:14213  Swap(msg.sender, amount0In, amount1In, tokensData.amount0Out, tokensData.amount1Out, to) */\n      0xffffffffffffffffffffffffffffffffffffffff\n      and\n        /* \"contracts/TenkStablePair.sol\":14130:14140  msg.sender */\n      caller\n        /* \"contracts/TenkStablePair.sol\":14125:14213  Swap(msg.sender, amount0In, amount1In, tokensData.amount0Out, tokensData.amount1Out, to) */\n      0xffffffffffffffffffffffffffffffffffffffff\n      and\n      0xd78ad95fa46c994b6551d0da85fc275fe613ce37657fb8d5e3d130840159d822\n        /* \"contracts/TenkStablePair.sol\":14142:14151  amount0In */\n      dup5\n        /* \"contracts/TenkStablePair.sol\":14153:14162  amount1In */\n      dup5\n        /* \"contracts/TenkStablePair.sol\":14164:14174  tokensData */\n      dup15\n        /* \"contracts/TenkStablePair.sol\":14164:14185  tokensData.amount0Out */\n      0x40\n      add\n      mload\n        /* \"contracts/TenkStablePair.sol\":14187:14197  tokensData */\n      dup16\n        /* \"contracts/TenkStablePair.sol\":14187:14208  tokensData.amount1Out */\n      0x60\n      add\n      mload\n        /* \"contracts/TenkStablePair.sol\":14125:14213  Swap(msg.sender, amount0In, amount1In, tokensData.amount0Out, tokensData.amount1Out, to) */\n      mload(0x40)\n      dup1\n      dup6\n      dup2\n      mstore\n      0x20\n      add\n      dup5\n      dup2\n      mstore\n      0x20\n      add\n      dup4\n      dup2\n      mstore\n      0x20\n      add\n      dup3\n      dup2\n      mstore\n      0x20\n      add\n      swap5\n      pop\n      pop\n      pop\n      pop\n      pop\n      mload(0x40)\n      dup1\n      swap2\n      sub\n      swap1\n      log3\n        /* \"contracts/TenkStablePair.sol\":1612:1613  _ */\n      pop\n      pop\n      pop\n      pop\n      pop\n      pop\n        /* \"contracts/TenkStablePair.sol\":1631:1632  1 */\n      0x01\n        /* \"contracts/TenkStablePair.sol\":1620:1628  unlocked */\n      0x0d\n        /* \"contracts/TenkStablePair.sol\":1620:1632  unlocked = 1 */\n      dup2\n      swap1\n      sstore\n      pop\n        /* \"contracts/TenkStablePair.sol\":10205:14219  function _swap(TokensData memory tokensData, address to, bytes memory data, address referrer) internal lock {\r... */\n      pop\n      pop\n      pop\n      pop\n      jump\t// out\n        /* \"contracts/TenkERC20.sol\":1820:1989  function _approve(address owner, address spender, uint value) private {\r... */\n    tag_169:\n        /* \"contracts/TenkERC20.sol\":1929:1934  value */\n      dup1\n        /* \"contracts/TenkERC20.sol\":1901:1910  allowance */\n      0x02\n        /* \"contracts/TenkERC20.sol\":1901:1917  allowance[owner] */\n      0x00\n        /* \"contracts/TenkERC20.sol\":1911:1916  owner */\n      dup6\n        /* \"contracts/TenkERC20.sol\":1901:1917  allowance[owner] */\n      0xffffffffffffffffffffffffffffffffffffffff\n      and\n      0xffffffffffffffffffffffffffffffffffffffff\n      and\n      dup2\n      mstore\n      0x20\n      add\n      swap1\n      dup2\n      mstore\n      0x20\n      add\n      0x00\n      keccak256\n        /* \"contracts/TenkERC20.sol\":1901:1926  allowance[owner][spender] */\n      0x00\n        /* \"contracts/TenkERC20.sol\":1918:1925  spender */\n      dup5\n        /* \"contracts/TenkERC20.sol\":1901:1926  allowance[owner][spender] */\n      0xffffffffffffffffffffffffffffffffffffffff\n      and\n      0xffffffffffffffffffffffffffffffffffffffff\n      and\n      dup2\n      mstore\n      0x20\n      add\n      swap1\n      dup2\n      mstore\n      0x20\n      add\n      0x00\n      keccak256\n        /* \"contracts/TenkERC20.sol\":1901:1934  allowance[owner][spender] = value */\n      dup2\n      swap1\n      sstore\n      pop\n        /* \"contracts/TenkERC20.sol\":1966:1973  spender */\n      dup2\n        /* \"contracts/TenkERC20.sol\":1950:1981  Approval(owner, spender, value) */\n      0xffffffffffffffffffffffffffffffffffffffff\n      and\n        /* \"contracts/TenkERC20.sol\":1959:1964  owner */\n      dup4\n        /* \"contracts/TenkERC20.sol\":1950:1981  Approval(owner, spender, value) */\n      0xffffffffffffffffffffffffffffffffffffffff\n      and\n      0x8c5be1e5ebec7d5bd14f71427d1e84f3dd0314c0f7b2291e5b200ac8c7c3b925\n        /* \"contracts/TenkERC20.sol\":1975:1980  value */\n      dup4\n        /* \"contracts/TenkERC20.sol\":1950:1981  Approval(owner, spender, value) */\n      mload(0x40)\n      dup1\n      dup3\n      dup2\n      mstore\n      0x20\n      add\n      swap2\n      pop\n      pop\n      mload(0x40)\n      dup1\n      swap2\n      sub\n      swap1\n      log3\n        /* \"contracts/TenkERC20.sol\":1820:1989  function _approve(address owner, address spender, uint value) private {\r... */\n      pop\n      pop\n      pop\n      jump\t// out\n        /* \"libraries/SafeMath.sol\":296:425  function sub(uint x, uint y) internal pure returns (uint z) {\r... */\n    tag_173:\n        /* \"libraries/SafeMath.sol\":348:354  uint z */\n      0x00\n        /* \"libraries/SafeMath.sol\":390:391  x */\n      dup3\n        /* \"libraries/SafeMath.sol\":384:385  y */\n      dup3\n        /* \"libraries/SafeMath.sol\":380:381  x */\n      dup5\n        /* \"libraries/SafeMath.sol\":380:385  x - y */\n      sub\n        /* \"libraries/SafeMath.sol\":376:385  z = x - y */\n      swap2\n      pop\n      dup2\n        /* \"libraries/SafeMath.sol\":375:391  (z = x - y) <= x */\n      gt\n      iszero\n        /* \"libraries/SafeMath.sol\":367:417  require((z = x - y) <= x, 'ds-math-sub-underflow') */\n      tag_431\n      jumpi\n      mload(0x40)\n      0x08c379a000000000000000000000000000000000000000000000000000000000\n      dup2\n      mstore\n      0x04\n      add\n      dup1\n      dup1\n      0x20\n      add\n      dup3\n      dup2\n      sub\n      dup3\n      mstore\n      0x15\n      dup2\n      mstore\n      0x20\n      add\n      dup1\n      0x64732d6d6174682d7375622d756e646572666c6f770000000000000000000000\n      dup2\n      mstore\n      pop\n      0x20\n      add\n      swap2\n      pop\n      pop\n      mload(0x40)\n      dup1\n      swap2\n      sub\n      swap1\n      revert\n    tag_431:\n        /* \"libraries/SafeMath.sol\":296:425  function sub(uint x, uint y) internal pure returns (uint z) {\r... */\n      swap3\n      swap2\n      pop\n      pop\n      jump\t// out\n        /* \"contracts/TenkERC20.sol\":1997:2217  function _transfer(address from, address to, uint value) private {\r... */\n    tag_175:\n        /* \"contracts/TenkERC20.sol\":2091:2117  balanceOf[from].sub(value) */\n      tag_433\n        /* \"contracts/TenkERC20.sol\":2111:2116  value */\n      dup2\n        /* \"contracts/TenkERC20.sol\":2091:2100  balanceOf */\n      0x01\n        /* \"contracts/TenkERC20.sol\":2091:2106  balanceOf[from] */\n      0x00\n        /* \"contracts/TenkERC20.sol\":2101:2105  from */\n      dup7\n        /* \"contracts/TenkERC20.sol\":2091:2106  balanceOf[from] */\n      0xffffffffffffffffffffffffffffffffffffffff\n      and\n      0xffffffffffffffffffffffffffffffffffffffff\n      and\n      dup2\n      mstore\n      0x20\n      add\n      swap1\n      dup2\n      mstore\n      0x20\n      add\n      0x00\n      keccak256\n      sload\n        /* \"contracts/TenkERC20.sol\":2091:2110  balanceOf[from].sub */\n      tag_173\n      swap1\n        /* \"contracts/TenkERC20.sol\":2091:2117  balanceOf[from].sub(value) */\n      swap2\n      swap1\n      0xffffffff\n      and\n      jump\t// in\n    tag_433:\n        /* \"contracts/TenkERC20.sol\":2073:2082  balanceOf */\n      0x01\n        /* \"contracts/TenkERC20.sol\":2073:2088  balanceOf[from] */\n      0x00\n        /* \"contracts/TenkERC20.sol\":2083:2087  from */\n      dup6\n        /* \"contracts/TenkERC20.sol\":2073:2088  balanceOf[from] */\n      0xffffffffffffffffffffffffffffffffffffffff\n      and\n      0xffffffffffffffffffffffffffffffffffffffff\n      and\n      dup2\n      mstore\n      0x20\n      add\n      swap1\n      dup2\n      mstore\n      0x20\n      add\n      0x00\n      keccak256\n        /* \"contracts/TenkERC20.sol\":2073:2117  balanceOf[from] = balanceOf[from].sub(value) */\n      dup2\n      swap1\n      sstore\n      pop\n        /* \"contracts/TenkERC20.sol\":2144:2168  balanceOf[to].add(value) */\n      tag_434\n        /* \"contracts/TenkERC20.sol\":2162:2167  value */\n      dup2\n        /* \"contracts/TenkERC20.sol\":2144:2153  balanceOf */\n      0x01\n        /* \"contracts/TenkERC20.sol\":2144:2157  balanceOf[to] */\n      0x00\n        /* \"contracts/TenkERC20.sol\":2154:2156  to */\n      dup6\n        /* \"contracts/TenkERC20.sol\":2144:2157  balanceOf[to] */\n      0xffffffffffffffffffffffffffffffffffffffff\n      and\n      0xffffffffffffffffffffffffffffffffffffffff\n      and\n      dup2\n      mstore\n      0x20\n      add\n      swap1\n      dup2\n      mstore\n      0x20\n      add\n      0x00\n      keccak256\n      sload\n        /* \"contracts/TenkERC20.sol\":2144:2161  balanceOf[to].add */\n      tag_435\n      swap1\n        /* \"contracts/TenkERC20.sol\":2144:2168  balanceOf[to].add(value) */\n      swap2\n      swap1\n      0xffffffff\n      and\n      jump\t// in\n    tag_434:\n        /* \"contracts/TenkERC20.sol\":2128:2137  balanceOf */\n      0x01\n        /* \"contracts/TenkERC20.sol\":2128:2141  balanceOf[to] */\n      0x00\n        /* \"contracts/TenkERC20.sol\":2138:2140  to */\n      dup5\n        /* \"contracts/TenkERC20.sol\":2128:2141  balanceOf[to] */\n      0xffffffffffffffffffffffffffffffffffffffff\n      and\n      0xffffffffffffffffffffffffffffffffffffffff\n      and\n      dup2\n      mstore\n      0x20\n      add\n      swap1\n      dup2\n      mstore\n      0x20\n      add\n      0x00\n      keccak256\n        /* \"contracts/TenkERC20.sol\":2128:2168  balanceOf[to] = balanceOf[to].add(value) */\n      dup2\n      swap1\n      sstore\n      pop\n        /* \"contracts/TenkERC20.sol\":2199:2201  to */\n      dup2\n        /* \"contracts/TenkERC20.sol\":2184:2209  Transfer(from, to, value) */\n      0xffffffffffffffffffffffffffffffffffffffff\n      and\n        /* \"contracts/TenkERC20.sol\":2193:2197  from */\n      dup4\n        /* \"contracts/TenkERC20.sol\":2184:2209  Transfer(from, to, value) */\n      0xffffffffffffffffffffffffffffffffffffffff\n      and\n      0xddf252ad1be2c89b69c2b068fc378daa952ba7f163c4a11628f55a4df523b3ef\n        /* \"contracts/TenkERC20.sol\":2203:2208  value */\n      dup4\n        /* \"contracts/TenkERC20.sol\":2184:2209  Transfer(from, to, value) */\n      mload(0x40)\n      dup1\n      dup3\n      dup2\n      mstore\n      0x20\n      add\n      swap2\n      pop\n      pop\n      mload(0x40)\n      dup1\n      swap2\n      sub\n      swap1\n      log3\n        /* \"contracts/TenkERC20.sol\":1997:2217  function _transfer(address from, address to, uint value) private {\r... */\n      pop\n      pop\n      pop\n      jump\t// out\n        /* \"contracts/TenkStablePair.sol\":5399:6282  function _mintFee(uint112 _reserve0, uint112 _reserve1) private returns (bool feeOn) {\r... */\n    tag_188:\n        /* \"contracts/TenkStablePair.sol\":5472:5482  bool feeOn */\n      0x00\n        /* \"contracts/TenkStablePair.sol\":5494:5504  stableSwap */\n      0x0c\n      0x00\n      swap1\n      sload\n      swap1\n      0x0100\n      exp\n      swap1\n      div\n      0xff\n      and\n        /* \"contracts/TenkStablePair.sol\":5491:5518  if(stableSwap) return false */\n      iszero\n      tag_437\n      jumpi\n        /* \"contracts/TenkStablePair.sol\":5513:5518  false */\n      0x00\n        /* \"contracts/TenkStablePair.sol\":5506:5518  return false */\n      swap1\n      pop\n      jump(tag_436)\n        /* \"contracts/TenkStablePair.sol\":5491:5518  if(stableSwap) return false */\n    tag_437:\n        /* \"contracts/TenkStablePair.sol\":5528:5546  uint ownerFeeShare */\n      0x00\n        /* \"contracts/TenkStablePair.sol\":5548:5561  address feeTo */\n      dup1\n        /* \"contracts/TenkStablePair.sol\":5583:5590  factory */\n      0x05\n      0x00\n      swap1\n      sload\n      swap1\n      0x0100\n      exp\n      swap1\n      div\n      0xffffffffffffffffffffffffffffffffffffffff\n      and\n        /* \"contracts/TenkStablePair.sol\":5565:5599  I10kStableFactory(factory).feeInfo */\n      0xffffffffffffffffffffffffffffffffffffffff\n      and\n      0x995b5aae\n        /* \"contracts/TenkStablePair.sol\":5565:5601  I10kStableFactory(factory).feeInfo() */\n      mload(0x40)\n      dup2\n      0xffffffff\n      and\n      0xe0\n      shl\n      dup2\n      mstore\n      0x04\n      add\n      0x40\n      dup1\n      mload\n      dup1\n      dup4\n      sub\n      dup2\n      dup7\n      dup1\n      extcodesize\n      iszero\n        /* \"--CODEGEN--\":8:17   */\n      dup1\n        /* \"--CODEGEN--\":5:7   */\n      iszero\n      tag_438\n      jumpi\n        /* \"--CODEGEN--\":30:31   */\n      0x00\n        /* \"--CODEGEN--\":27:28   */\n      dup1\n        /* \"--CODEGEN--\":20:32   */\n      revert\n        /* \"--CODEGEN--\":5:7   */\n    tag_438:\n        /* \"contracts/TenkStablePair.sol\":5565:5601  I10kStableFactory(factory).feeInfo() */\n      pop\n      gas\n      staticcall\n      iszero\n        /* \"--CODEGEN--\":8:17   */\n      dup1\n        /* \"--CODEGEN--\":5:7   */\n      iszero\n      tag_439\n      jumpi\n        /* \"--CODEGEN--\":45:61   */\n      returndatasize\n        /* \"--CODEGEN--\":42:43   */\n      0x00\n        /* \"--CODEGEN--\":39:40   */\n      dup1\n        /* \"--CODEGEN--\":24:62   */\n      returndatacopy\n        /* \"--CODEGEN--\":77:93   */\n      returndatasize\n        /* \"--CODEGEN--\":74:75   */\n      0x00\n        /* \"--CODEGEN--\":67:94   */\n      revert\n        /* \"--CODEGEN--\":5:7   */\n    tag_439:\n        /* \"contracts/TenkStablePair.sol\":5565:5601  I10kStableFactory(factory).feeInfo() */\n      pop\n      pop\n      pop\n      pop\n      mload(0x40)\n      returndatasize\n        /* \"--CODEGEN--\":13:15   */\n      0x40\n        /* \"--CODEGEN--\":8:11   */\n      dup2\n        /* \"--CODEGEN--\":5:16   */\n      lt\n        /* \"--CODEGEN--\":2:4   */\n      iszero\n      tag_440\n      jumpi\n        /* \"--CODEGEN--\":29:30   */\n      0x00\n        /* \"--CODEGEN--\":26:27   */\n      dup1\n        /* \"--CODEGEN--\":19:31   */\n      revert\n        /* \"--CODEGEN--\":2:4   */\n    tag_440:\n        /* \"contracts/TenkStablePair.sol\":5565:5601  I10kStableFactory(factory).feeInfo() */\n      dup2\n      add\n      swap1\n      dup1\n      dup1\n      mload\n      swap1\n      0x20\n      add\n      swap1\n      swap3\n      swap2\n      swap1\n      dup1\n      mload\n      swap1\n      0x20\n      add\n      swap1\n      swap3\n      swap2\n      swap1\n      pop\n      pop\n      pop\n        /* \"contracts/TenkStablePair.sol\":5527:5601  (uint ownerFeeShare, address feeTo) = I10kStableFactory(factory).feeInfo() */\n      swap2\n      pop\n      swap2\n      pop\n        /* \"contracts/TenkStablePair.sol\":5633:5634  0 */\n      0x00\n        /* \"contracts/TenkStablePair.sol\":5616:5635  feeTo != address(0) */\n      0xffffffffffffffffffffffffffffffffffffffff\n      and\n        /* \"contracts/TenkStablePair.sol\":5616:5621  feeTo */\n      dup2\n        /* \"contracts/TenkStablePair.sol\":5616:5635  feeTo != address(0) */\n      0xffffffffffffffffffffffffffffffffffffffff\n      and\n      eq\n      iszero\n        /* \"contracts/TenkStablePair.sol\":5608:5635  feeOn = feeTo != address(0) */\n      swap3\n      pop\n        /* \"contracts/TenkStablePair.sol\":5642:5653  uint _kLast */\n      0x00\n        /* \"contracts/TenkStablePair.sol\":5656:5661  kLast */\n      sload(0x0b)\n        /* \"contracts/TenkStablePair.sol\":5642:5661  uint _kLast = kLast */\n      swap1\n      pop\n        /* \"contracts/TenkStablePair.sol\":5692:5697  feeOn */\n      dup4\n        /* \"contracts/TenkStablePair.sol\":5688:6277  if (feeOn) {\r... */\n      iszero\n      tag_441\n      jumpi\n        /* \"contracts/TenkStablePair.sol\":5722:5723  0 */\n      0x00\n        /* \"contracts/TenkStablePair.sol\":5712:5718  _kLast */\n      dup2\n        /* \"contracts/TenkStablePair.sol\":5712:5723  _kLast != 0 */\n      eq\n        /* \"contracts/TenkStablePair.sol\":5708:6221  if (_kLast != 0) {\r... */\n      tag_442\n      jumpi\n        /* \"contracts/TenkStablePair.sol\":5736:5746  uint rootK */\n      0x00\n        /* \"contracts/TenkStablePair.sol\":5749:5796  Math.sqrt(_k(uint(_reserve0), uint(_reserve1))) */\n      tag_443\n        /* \"contracts/TenkStablePair.sol\":5759:5795  _k(uint(_reserve0), uint(_reserve1)) */\n      tag_444\n        /* \"contracts/TenkStablePair.sol\":5767:5776  _reserve0 */\n      dup9\n        /* \"contracts/TenkStablePair.sol\":5762:5777  uint(_reserve0) */\n      0xffffffffffffffffffffffffffff\n      and\n        /* \"contracts/TenkStablePair.sol\":5784:5793  _reserve1 */\n      dup9\n        /* \"contracts/TenkStablePair.sol\":5779:5794  uint(_reserve1) */\n      0xffffffffffffffffffffffffffff\n      and\n        /* \"contracts/TenkStablePair.sol\":5759:5761  _k */\n      tag_193\n        /* \"contracts/TenkStablePair.sol\":5759:5795  _k(uint(_reserve0), uint(_reserve1)) */\n      jump\t// in\n    tag_444:\n        /* \"contracts/TenkStablePair.sol\":5749:5758  Math.sqrt */\n      tag_240\n        /* \"contracts/TenkStablePair.sol\":5749:5796  Math.sqrt(_k(uint(_reserve0), uint(_reserve1))) */\n      jump\t// in\n    tag_443:\n        /* \"contracts/TenkStablePair.sol\":5736:5796  uint rootK = Math.sqrt(_k(uint(_reserve0), uint(_reserve1))) */\n      swap1\n      pop\n        /* \"contracts/TenkStablePair.sol\":5807:5821  uint rootKLast */\n      0x00\n        /* \"contracts/TenkStablePair.sol\":5824:5841  Math.sqrt(_kLast) */\n      tag_445\n        /* \"contracts/TenkStablePair.sol\":5834:5840  _kLast */\n      dup4\n        /* \"contracts/TenkStablePair.sol\":5824:5833  Math.sqrt */\n      tag_240\n        /* \"contracts/TenkStablePair.sol\":5824:5841  Math.sqrt(_kLast) */\n      jump\t// in\n    tag_445:\n        /* \"contracts/TenkStablePair.sol\":5807:5841  uint rootKLast = Math.sqrt(_kLast) */\n      swap1\n      pop\n        /* \"contracts/TenkStablePair.sol\":5864:5873  rootKLast */\n      dup1\n        /* \"contracts/TenkStablePair.sol\":5856:5861  rootK */\n      dup3\n        /* \"contracts/TenkStablePair.sol\":5856:5873  rootK > rootKLast */\n      gt\n        /* \"contracts/TenkStablePair.sol\":5852:6212  if (rootK > rootKLast) {\r... */\n      iszero\n      tag_446\n      jumpi\n        /* \"contracts/TenkStablePair.sol\":5888:5894  uint d */\n      0x00\n        /* \"contracts/TenkStablePair.sol\":5897:5948  (FEE_DENOMINATOR.mul(100) / ownerFeeShare).sub(100) */\n      tag_447\n        /* \"contracts/TenkStablePair.sol\":5944:5947  100 */\n      0x64\n        /* \"contracts/TenkStablePair.sol\":5925:5938  ownerFeeShare */\n      dup8\n        /* \"contracts/TenkStablePair.sol\":5898:5922  FEE_DENOMINATOR.mul(100) */\n      tag_448\n        /* \"contracts/TenkStablePair.sol\":5918:5921  100 */\n      0x64\n        /* \"contracts/TenkStablePair.sol\":650:656  100000 */\n      0x0186a0\n        /* \"contracts/TenkStablePair.sol\":5898:5917  FEE_DENOMINATOR.mul */\n      tag_239\n      swap1\n        /* \"contracts/TenkStablePair.sol\":5898:5922  FEE_DENOMINATOR.mul(100) */\n      swap2\n      swap1\n      0xffffffff\n      and\n      jump\t// in\n    tag_448:\n        /* \"contracts/TenkStablePair.sol\":5898:5938  FEE_DENOMINATOR.mul(100) / ownerFeeShare */\n      dup2\n      tag_449\n      jumpi\n      invalid\n    tag_449:\n      div\n        /* \"contracts/TenkStablePair.sol\":5897:5943  (FEE_DENOMINATOR.mul(100) / ownerFeeShare).sub */\n      tag_173\n      swap1\n        /* \"contracts/TenkStablePair.sol\":5897:5948  (FEE_DENOMINATOR.mul(100) / ownerFeeShare).sub(100) */\n      swap2\n      swap1\n      0xffffffff\n      and\n      jump\t// in\n    tag_447:\n        /* \"contracts/TenkStablePair.sol\":5888:5948  uint d = (FEE_DENOMINATOR.mul(100) / ownerFeeShare).sub(100) */\n      swap1\n      pop\n        /* \"contracts/TenkStablePair.sol\":5961:5975  uint numerator */\n      0x00\n        /* \"contracts/TenkStablePair.sol\":5978:6024  totalSupply.mul(rootK.sub(rootKLast)).mul(100) */\n      tag_450\n        /* \"contracts/TenkStablePair.sol\":6020:6023  100 */\n      0x64\n        /* \"contracts/TenkStablePair.sol\":5978:6015  totalSupply.mul(rootK.sub(rootKLast)) */\n      tag_451\n        /* \"contracts/TenkStablePair.sol\":5994:6014  rootK.sub(rootKLast) */\n      tag_452\n        /* \"contracts/TenkStablePair.sol\":6004:6013  rootKLast */\n      dup7\n        /* \"contracts/TenkStablePair.sol\":5994:5999  rootK */\n      dup9\n        /* \"contracts/TenkStablePair.sol\":5994:6003  rootK.sub */\n      tag_173\n      swap1\n        /* \"contracts/TenkStablePair.sol\":5994:6014  rootK.sub(rootKLast) */\n      swap2\n      swap1\n      0xffffffff\n      and\n      jump\t// in\n    tag_452:\n        /* \"contracts/TenkStablePair.sol\":5978:5989  totalSupply */\n      sload(0x00)\n        /* \"contracts/TenkStablePair.sol\":5978:5993  totalSupply.mul */\n      tag_239\n      swap1\n        /* \"contracts/TenkStablePair.sol\":5978:6015  totalSupply.mul(rootK.sub(rootKLast)) */\n      swap2\n      swap1\n      0xffffffff\n      and\n      jump\t// in\n    tag_451:\n        /* \"contracts/TenkStablePair.sol\":5978:6019  totalSupply.mul(rootK.sub(rootKLast)).mul */\n      tag_239\n      swap1\n        /* \"contracts/TenkStablePair.sol\":5978:6024  totalSupply.mul(rootK.sub(rootKLast)).mul(100) */\n      swap2\n      swap1\n      0xffffffff\n      and\n      jump\t// in\n    tag_450:\n        /* \"contracts/TenkStablePair.sol\":5961:6024  uint numerator = totalSupply.mul(rootK.sub(rootKLast)).mul(100) */\n      swap1\n      pop\n        /* \"contracts/TenkStablePair.sol\":6037:6053  uint denominator */\n      0x00\n        /* \"contracts/TenkStablePair.sol\":6056:6092  rootK.mul(d).add(rootKLast.mul(100)) */\n      tag_453\n        /* \"contracts/TenkStablePair.sol\":6073:6091  rootKLast.mul(100) */\n      tag_454\n        /* \"contracts/TenkStablePair.sol\":6087:6090  100 */\n      0x64\n        /* \"contracts/TenkStablePair.sol\":6073:6082  rootKLast */\n      dup7\n        /* \"contracts/TenkStablePair.sol\":6073:6086  rootKLast.mul */\n      tag_239\n      swap1\n        /* \"contracts/TenkStablePair.sol\":6073:6091  rootKLast.mul(100) */\n      swap2\n      swap1\n      0xffffffff\n      and\n      jump\t// in\n    tag_454:\n        /* \"contracts/TenkStablePair.sol\":6056:6068  rootK.mul(d) */\n      tag_455\n        /* \"contracts/TenkStablePair.sol\":6066:6067  d */\n      dup6\n        /* \"contracts/TenkStablePair.sol\":6056:6061  rootK */\n      dup9\n        /* \"contracts/TenkStablePair.sol\":6056:6065  rootK.mul */\n      tag_239\n      swap1\n        /* \"contracts/TenkStablePair.sol\":6056:6068  rootK.mul(d) */\n      swap2\n      swap1\n      0xffffffff\n      and\n      jump\t// in\n    tag_455:\n        /* \"contracts/TenkStablePair.sol\":6056:6072  rootK.mul(d).add */\n      tag_435\n      swap1\n        /* \"contracts/TenkStablePair.sol\":6056:6092  rootK.mul(d).add(rootKLast.mul(100)) */\n      swap2\n      swap1\n      0xffffffff\n      and\n      jump\t// in\n    tag_453:\n        /* \"contracts/TenkStablePair.sol\":6037:6092  uint denominator = rootK.mul(d).add(rootKLast.mul(100)) */\n      swap1\n      pop\n        /* \"contracts/TenkStablePair.sol\":6105:6119  uint liquidity */\n      0x00\n        /* \"contracts/TenkStablePair.sol\":6134:6145  denominator */\n      dup2\n        /* \"contracts/TenkStablePair.sol\":6122:6131  numerator */\n      dup4\n        /* \"contracts/TenkStablePair.sol\":6122:6145  numerator / denominator */\n      dup2\n      tag_456\n      jumpi\n      invalid\n    tag_456:\n      div\n        /* \"contracts/TenkStablePair.sol\":6105:6145  uint liquidity = numerator / denominator */\n      swap1\n      pop\n        /* \"contracts/TenkStablePair.sol\":6174:6175  0 */\n      0x00\n        /* \"contracts/TenkStablePair.sol\":6162:6171  liquidity */\n      dup2\n        /* \"contracts/TenkStablePair.sol\":6162:6175  liquidity > 0 */\n      gt\n        /* \"contracts/TenkStablePair.sol\":6158:6200  if (liquidity > 0) _mint(feeTo, liquidity) */\n      iszero\n      tag_457\n      jumpi\n        /* \"contracts/TenkStablePair.sol\":6177:6200  _mint(feeTo, liquidity) */\n      tag_458\n        /* \"contracts/TenkStablePair.sol\":6183:6188  feeTo */\n      dup9\n        /* \"contracts/TenkStablePair.sol\":6190:6199  liquidity */\n      dup3\n        /* \"contracts/TenkStablePair.sol\":6177:6182  _mint */\n      tag_242\n        /* \"contracts/TenkStablePair.sol\":6177:6200  _mint(feeTo, liquidity) */\n      jump\t// in\n    tag_458:\n        /* \"contracts/TenkStablePair.sol\":6158:6200  if (liquidity > 0) _mint(feeTo, liquidity) */\n    tag_457:\n        /* \"contracts/TenkStablePair.sol\":5852:6212  if (rootK > rootKLast) {\r... */\n      pop\n      pop\n      pop\n      pop\n    tag_446:\n        /* \"contracts/TenkStablePair.sol\":5708:6221  if (_kLast != 0) {\r... */\n      pop\n      pop\n    tag_442:\n        /* \"contracts/TenkStablePair.sol\":5688:6277  if (feeOn) {\r... */\n      jump(tag_459)\n    tag_441:\n        /* \"contracts/TenkStablePair.sol\":6248:6249  0 */\n      0x00\n        /* \"contracts/TenkStablePair.sol\":6238:6244  _kLast */\n      dup2\n        /* \"contracts/TenkStablePair.sol\":6238:6249  _kLast != 0 */\n      eq\n        /* \"contracts/TenkStablePair.sol\":6234:6277  if (_kLast != 0) {\r... */\n      tag_460\n      jumpi\n        /* \"contracts/TenkStablePair.sol\":6268:6269  0 */\n      0x00\n        /* \"contracts/TenkStablePair.sol\":6260:6265  kLast */\n      0x0b\n        /* \"contracts/TenkStablePair.sol\":6260:6269  kLast = 0 */\n      dup2\n      swap1\n      sstore\n      pop\n        /* \"contracts/TenkStablePair.sol\":6234:6277  if (_kLast != 0) {\r... */\n    tag_460:\n        /* \"contracts/TenkStablePair.sol\":5688:6277  if (feeOn) {\r... */\n    tag_459:\n        /* \"contracts/TenkStablePair.sol\":5399:6282  function _mintFee(uint112 _reserve0, uint112 _reserve1) private returns (bool feeOn) {\r... */\n      pop\n      pop\n      pop\n    tag_436:\n      swap3\n      swap2\n      pop\n      pop\n      jump\t// out\n        /* \"contracts/TenkStablePair.sol\":14225:14637  function _k(uint balance0, uint balance1) internal view returns (uint) {\r... */\n    tag_193:\n        /* \"contracts/TenkStablePair.sol\":14290:14294  uint */\n      0x00\n        /* \"contracts/TenkStablePair.sol\":14307:14317  stableSwap */\n      0x0c\n      0x00\n      swap1\n      sload\n      swap1\n      0x0100\n      exp\n      swap1\n      div\n      0xff\n      and\n        /* \"contracts/TenkStablePair.sol\":14303:14596  if (stableSwap) {\r... */\n      iszero\n      tag_462\n      jumpi\n        /* \"contracts/TenkStablePair.sol\":14328:14335  uint _x */\n      0x00\n        /* \"contracts/TenkStablePair.sol\":14359:14379  precisionMultiplier0 */\n      sload(0x09)\n        /* \"contracts/TenkStablePair.sol\":14338:14356  balance0.mul(1e18) */\n      tag_463\n        /* \"contracts/TenkStablePair.sol\":14351:14355  1e18 */\n      0x0de0b6b3a7640000\n        /* \"contracts/TenkStablePair.sol\":14338:14346  balance0 */\n      dup7\n        /* \"contracts/TenkStablePair.sol\":14338:14350  balance0.mul */\n      tag_239\n      swap1\n        /* \"contracts/TenkStablePair.sol\":14338:14356  balance0.mul(1e18) */\n      swap2\n      swap1\n      0xffffffff\n      and\n      jump\t// in\n    tag_463:\n        /* \"contracts/TenkStablePair.sol\":14338:14379  balance0.mul(1e18) / precisionMultiplier0 */\n      dup2\n      tag_464\n      jumpi\n      invalid\n    tag_464:\n      div\n        /* \"contracts/TenkStablePair.sol\":14328:14379  uint _x = balance0.mul(1e18) / precisionMultiplier0 */\n      swap1\n      pop\n        /* \"contracts/TenkStablePair.sol\":14388:14395  uint _y */\n      0x00\n        /* \"contracts/TenkStablePair.sol\":14419:14439  precisionMultiplier1 */\n      sload(0x0a)\n        /* \"contracts/TenkStablePair.sol\":14398:14416  balance1.mul(1e18) */\n      tag_465\n        /* \"contracts/TenkStablePair.sol\":14411:14415  1e18 */\n      0x0de0b6b3a7640000\n        /* \"contracts/TenkStablePair.sol\":14398:14406  balance1 */\n      dup7\n        /* \"contracts/TenkStablePair.sol\":14398:14410  balance1.mul */\n      tag_239\n      swap1\n        /* \"contracts/TenkStablePair.sol\":14398:14416  balance1.mul(1e18) */\n      swap2\n      swap1\n      0xffffffff\n      and\n      jump\t// in\n    tag_465:\n        /* \"contracts/TenkStablePair.sol\":14398:14439  balance1.mul(1e18) / precisionMultiplier1 */\n      dup2\n      tag_466\n      jumpi\n      invalid\n    tag_466:\n      div\n        /* \"contracts/TenkStablePair.sol\":14388:14439  uint _y = balance1.mul(1e18) / precisionMultiplier1 */\n      swap1\n      pop\n        /* \"contracts/TenkStablePair.sol\":14448:14455  uint _a */\n      0x00\n        /* \"contracts/TenkStablePair.sol\":14473:14477  1e18 */\n      0x0de0b6b3a7640000\n        /* \"contracts/TenkStablePair.sol\":14459:14469  _x.mul(_y) */\n      tag_467\n        /* \"contracts/TenkStablePair.sol\":14466:14468  _y */\n      dup4\n        /* \"contracts/TenkStablePair.sol\":14459:14461  _x */\n      dup6\n        /* \"contracts/TenkStablePair.sol\":14459:14465  _x.mul */\n      tag_239\n      swap1\n        /* \"contracts/TenkStablePair.sol\":14459:14469  _x.mul(_y) */\n      swap2\n      swap1\n      0xffffffff\n      and\n      jump\t// in\n    tag_467:\n        /* \"contracts/TenkStablePair.sol\":14458:14477  (_x.mul(_y)) / 1e18 */\n      dup2\n      tag_468\n      jumpi\n      invalid\n    tag_468:\n      div\n        /* \"contracts/TenkStablePair.sol\":14448:14477  uint _a = (_x.mul(_y)) / 1e18 */\n      swap1\n      pop\n        /* \"contracts/TenkStablePair.sol\":14486:14493  uint _b */\n      0x00\n        /* \"contracts/TenkStablePair.sol\":14496:14538  (_x.mul(_x) / 1e18).add(_y.mul(_y) / 1e18) */\n      tag_469\n        /* \"contracts/TenkStablePair.sol\":14533:14537  1e18 */\n      0x0de0b6b3a7640000\n        /* \"contracts/TenkStablePair.sol\":14520:14530  _y.mul(_y) */\n      tag_470\n        /* \"contracts/TenkStablePair.sol\":14527:14529  _y */\n      dup6\n        /* \"contracts/TenkStablePair.sol\":14520:14522  _y */\n      dup7\n        /* \"contracts/TenkStablePair.sol\":14520:14526  _y.mul */\n      tag_239\n      swap1\n        /* \"contracts/TenkStablePair.sol\":14520:14530  _y.mul(_y) */\n      swap2\n      swap1\n      0xffffffff\n      and\n      jump\t// in\n    tag_470:\n        /* \"contracts/TenkStablePair.sol\":14520:14537  _y.mul(_y) / 1e18 */\n      dup2\n      tag_471\n      jumpi\n      invalid\n    tag_471:\n      div\n        /* \"contracts/TenkStablePair.sol\":14510:14514  1e18 */\n      0x0de0b6b3a7640000\n        /* \"contracts/TenkStablePair.sol\":14497:14507  _x.mul(_x) */\n      tag_472\n        /* \"contracts/TenkStablePair.sol\":14504:14506  _x */\n      dup8\n        /* \"contracts/TenkStablePair.sol\":14497:14499  _x */\n      dup9\n        /* \"contracts/TenkStablePair.sol\":14497:14503  _x.mul */\n      tag_239\n      swap1\n        /* \"contracts/TenkStablePair.sol\":14497:14507  _x.mul(_x) */\n      swap2\n      swap1\n      0xffffffff\n      and\n      jump\t// in\n    tag_472:\n        /* \"contracts/TenkStablePair.sol\":14497:14514  _x.mul(_x) / 1e18 */\n      dup2\n      tag_473\n      jumpi\n      invalid\n    tag_473:\n      div\n        /* \"contracts/TenkStablePair.sol\":14496:14519  (_x.mul(_x) / 1e18).add */\n      tag_435\n      swap1\n        /* \"contracts/TenkStablePair.sol\":14496:14538  (_x.mul(_x) / 1e18).add(_y.mul(_y) / 1e18) */\n      swap2\n      swap1\n      0xffffffff\n      and\n      jump\t// in\n    tag_469:\n        /* \"contracts/TenkStablePair.sol\":14486:14538  uint _b = (_x.mul(_x) / 1e18).add(_y.mul(_y) / 1e18) */\n      swap1\n      pop\n        /* \"contracts/TenkStablePair.sol\":14568:14572  1e18 */\n      0x0de0b6b3a7640000\n        /* \"contracts/TenkStablePair.sol\":14555:14565  _a.mul(_b) */\n      tag_474\n        /* \"contracts/TenkStablePair.sol\":14562:14564  _b */\n      dup3\n        /* \"contracts/TenkStablePair.sol\":14555:14557  _a */\n      dup5\n        /* \"contracts/TenkStablePair.sol\":14555:14561  _a.mul */\n      tag_239\n      swap1\n        /* \"contracts/TenkStablePair.sol\":14555:14565  _a.mul(_b) */\n      swap2\n      swap1\n      0xffffffff\n      and\n      jump\t// in\n    tag_474:\n        /* \"contracts/TenkStablePair.sol\":14555:14572  _a.mul(_b) / 1e18 */\n      dup2\n      tag_475\n      jumpi\n      invalid\n    tag_475:\n      div\n        /* \"contracts/TenkStablePair.sol\":14547:14572  return  _a.mul(_b) / 1e18 */\n      swap5\n      pop\n      pop\n      pop\n      pop\n      pop\n      jump(tag_461)\n        /* \"contracts/TenkStablePair.sol\":14303:14596  if (stableSwap) {\r... */\n    tag_462:\n        /* \"contracts/TenkStablePair.sol\":14609:14631  balance0.mul(balance1) */\n      tag_476\n        /* \"contracts/TenkStablePair.sol\":14622:14630  balance1 */\n      dup3\n        /* \"contracts/TenkStablePair.sol\":14609:14617  balance0 */\n      dup5\n        /* \"contracts/TenkStablePair.sol\":14609:14621  balance0.mul */\n      tag_239\n      swap1\n        /* \"contracts/TenkStablePair.sol\":14609:14631  balance0.mul(balance1) */\n      swap2\n      swap1\n      0xffffffff\n      and\n      jump\t// in\n    tag_476:\n        /* \"contracts/TenkStablePair.sol\":14602:14631  return balance0.mul(balance1) */\n      swap1\n      pop\n        /* \"contracts/TenkStablePair.sol\":14225:14637  function _k(uint balance0, uint balance1) internal view returns (uint) {\r... */\n    tag_461:\n      swap3\n      swap2\n      pop\n      pop\n      jump\t// out\n        /* \"libraries/SafeMath.sol\":433:575  function mul(uint x, uint y) internal pure returns (uint z) {\r... */\n    tag_239:\n        /* \"libraries/SafeMath.sol\":485:491  uint z */\n      0x00\n        /* \"libraries/SafeMath.sol\":517:518  0 */\n      dup1\n        /* \"libraries/SafeMath.sol\":512:513  y */\n      dup3\n        /* \"libraries/SafeMath.sol\":512:518  y == 0 */\n      eq\n        /* \"libraries/SafeMath.sol\":512:542  y == 0 || (z = x * y) / y == x */\n      dup1\n      tag_478\n      jumpi\n      pop\n        /* \"libraries/SafeMath.sol\":541:542  x */\n      dup3\n        /* \"libraries/SafeMath.sol\":536:537  y */\n      dup3\n        /* \"libraries/SafeMath.sol\":531:532  y */\n      dup4\n        /* \"libraries/SafeMath.sol\":527:528  x */\n      dup6\n        /* \"libraries/SafeMath.sol\":527:532  x * y */\n      mul\n        /* \"libraries/SafeMath.sol\":523:532  z = x * y */\n      swap3\n      pop\n      dup3\n        /* \"libraries/SafeMath.sol\":522:537  (z = x * y) / y */\n      dup2\n      tag_479\n      jumpi\n      invalid\n    tag_479:\n      div\n        /* \"libraries/SafeMath.sol\":522:542  (z = x * y) / y == x */\n      eq\n        /* \"libraries/SafeMath.sol\":512:542  y == 0 || (z = x * y) / y == x */\n    tag_478:\n        /* \"libraries/SafeMath.sol\":504:567  require(y == 0 || (z = x * y) / y == x, 'ds-math-mul-overflow') */\n      tag_480\n      jumpi\n      mload(0x40)\n      0x08c379a000000000000000000000000000000000000000000000000000000000\n      dup2\n      mstore\n      0x04\n      add\n      dup1\n      dup1\n      0x20\n      add\n      dup3\n      dup2\n      sub\n      dup3\n      mstore\n      0x14\n      dup2\n      mstore\n      0x20\n      add\n      dup1\n      0x64732d6d6174682d6d756c2d6f766572666c6f77000000000000000000000000\n      dup2\n      mstore\n      pop\n      0x20\n      add\n      swap2\n      pop\n      pop\n      mload(0x40)\n      dup1\n      swap2\n      sub\n      swap1\n      revert\n    tag_480:\n        /* \"libraries/SafeMath.sol\":433:575  function mul(uint x, uint y) internal pure returns (uint z) {\r... */\n      swap3\n      swap2\n      pop\n      pop\n      jump\t// out\n        /* \"libraries/Math.sol\":317:620  function sqrt(uint y) internal pure returns (uint z) {\r... */\n    tag_240:\n        /* \"libraries/Math.sol\":362:368  uint z */\n      0x00\n        /* \"libraries/Math.sol\":389:390  3 */\n      0x03\n        /* \"libraries/Math.sol\":385:386  y */\n      dup3\n        /* \"libraries/Math.sol\":385:390  y > 3 */\n      gt\n        /* \"libraries/Math.sol\":381:613  if (y > 3) {\r... */\n      iszero\n      tag_482\n      jumpi\n        /* \"libraries/Math.sol\":411:412  y */\n      dup2\n        /* \"libraries/Math.sol\":407:412  z = y */\n      swap1\n      pop\n        /* \"libraries/Math.sol\":427:433  uint x */\n      0x00\n        /* \"libraries/Math.sol\":444:445  1 */\n      0x01\n        /* \"libraries/Math.sol\":440:441  2 */\n      0x02\n        /* \"libraries/Math.sol\":436:437  y */\n      dup5\n        /* \"libraries/Math.sol\":436:441  y / 2 */\n      dup2\n      tag_483\n      jumpi\n      invalid\n    tag_483:\n      div\n        /* \"libraries/Math.sol\":436:445  y / 2 + 1 */\n      add\n        /* \"libraries/Math.sol\":427:445  uint x = y / 2 + 1 */\n      swap1\n      pop\n        /* \"libraries/Math.sol\":460:552  while (x < z) {\r... */\n    tag_484:\n        /* \"libraries/Math.sol\":471:472  z */\n      dup2\n        /* \"libraries/Math.sol\":467:468  x */\n      dup2\n        /* \"libraries/Math.sol\":467:472  x < z */\n      lt\n        /* \"libraries/Math.sol\":460:552  while (x < z) {\r... */\n      iszero\n      tag_485\n      jumpi\n        /* \"libraries/Math.sol\":497:498  x */\n      dup1\n        /* \"libraries/Math.sol\":493:498  z = x */\n      swap2\n      pop\n        /* \"libraries/Math.sol\":535:536  2 */\n      0x02\n        /* \"libraries/Math.sol\":530:531  x */\n      dup2\n        /* \"libraries/Math.sol\":526:527  x */\n      dup3\n        /* \"libraries/Math.sol\":522:523  y */\n      dup6\n        /* \"libraries/Math.sol\":522:527  y / x */\n      dup2\n      tag_486\n      jumpi\n      invalid\n    tag_486:\n      div\n        /* \"libraries/Math.sol\":522:531  y / x + x */\n      add\n        /* \"libraries/Math.sol\":521:536  (y / x + x) / 2 */\n      dup2\n      tag_487\n      jumpi\n      invalid\n    tag_487:\n      div\n        /* \"libraries/Math.sol\":517:536  x = (y / x + x) / 2 */\n      swap1\n      pop\n        /* \"libraries/Math.sol\":460:552  while (x < z) {\r... */\n      jump(tag_484)\n    tag_485:\n        /* \"libraries/Math.sol\":381:613  if (y > 3) {\r... */\n      pop\n      jump(tag_488)\n    tag_482:\n        /* \"libraries/Math.sol\":578:579  0 */\n      0x00\n        /* \"libraries/Math.sol\":573:574  y */\n      dup3\n        /* \"libraries/Math.sol\":573:579  y != 0 */\n      eq\n        /* \"libraries/Math.sol\":569:613  if (y != 0) {\r... */\n      tag_489\n      jumpi\n        /* \"libraries/Math.sol\":600:601  1 */\n      0x01\n        /* \"libraries/Math.sol\":596:601  z = 1 */\n      swap1\n      pop\n        /* \"libraries/Math.sol\":569:613  if (y != 0) {\r... */\n    tag_489:\n        /* \"libraries/Math.sol\":381:613  if (y > 3) {\r... */\n    tag_488:\n        /* \"libraries/Math.sol\":317:620  function sqrt(uint y) internal pure returns (uint z) {\r... */\n      swap2\n      swap1\n      pop\n      jump\t// out\n        /* \"contracts/TenkERC20.sol\":1394:1595  function _mint(address to, uint value) internal {\r... */\n    tag_242:\n        /* \"contracts/TenkERC20.sol\":1467:1489  totalSupply.add(value) */\n      tag_491\n        /* \"contracts/TenkERC20.sol\":1483:1488  value */\n      dup2\n        /* \"contracts/TenkERC20.sol\":1467:1478  totalSupply */\n      sload(0x00)\n        /* \"contracts/TenkERC20.sol\":1467:1482  totalSupply.add */\n      tag_435\n      swap1\n        /* \"contracts/TenkERC20.sol\":1467:1489  totalSupply.add(value) */\n      swap2\n      swap1\n      0xffffffff\n      and\n      jump\t// in\n    tag_491:\n        /* \"contracts/TenkERC20.sol\":1453:1464  totalSupply */\n      0x00\n        /* \"contracts/TenkERC20.sol\":1453:1489  totalSupply = totalSupply.add(value) */\n      dup2\n      swap1\n      sstore\n      pop\n        /* \"contracts/TenkERC20.sol\":1516:1540  balanceOf[to].add(value) */\n      tag_492\n        /* \"contracts/TenkERC20.sol\":1534:1539  value */\n      dup2\n        /* \"contracts/TenkERC20.sol\":1516:1525  balanceOf */\n      0x01\n        /* \"contracts/TenkERC20.sol\":1516:1529  balanceOf[to] */\n      0x00\n        /* \"contracts/TenkERC20.sol\":1526:1528  to */\n      dup6\n        /* \"contracts/TenkERC20.sol\":1516:1529  balanceOf[to] */\n      0xffffffffffffffffffffffffffffffffffffffff\n      and\n      0xffffffffffffffffffffffffffffffffffffffff\n      and\n      dup2\n      mstore\n      0x20\n      add\n      swap1\n      dup2\n      mstore\n      0x20\n      add\n      0x00\n      keccak256\n      sload\n        /* \"contracts/TenkERC20.sol\":1516:1533  balanceOf[to].add */\n      tag_435\n      swap1\n        /* \"contracts/TenkERC20.sol\":1516:1540  balanceOf[to].add(value) */\n      swap2\n      swap1\n      0xffffffff\n      and\n      jump\t// in\n    tag_492:\n        /* \"contracts/TenkERC20.sol\":1500:1509  balanceOf */\n      0x01\n        /* \"contracts/TenkERC20.sol\":1500:1513  balanceOf[to] */\n      0x00\n        /* \"contracts/TenkERC20.sol\":1510:1512  to */\n      dup5\n        /* \"contracts/TenkERC20.sol\":1500:1513  balanceOf[to] */\n      0xffffffffffffffffffffffffffffffffffffffff\n      and\n      0xffffffffffffffffffffffffffffffffffffffff\n      and\n      dup2\n      mstore\n      0x20\n      add\n      swap1\n      dup2\n      mstore\n      0x20\n      add\n      0x00\n      keccak256\n        /* \"contracts/TenkERC20.sol\":1500:1540  balanceOf[to] = balanceOf[to].add(value) */\n      dup2\n      swap1\n      sstore\n      pop\n        /* \"contracts/TenkERC20.sol\":1577:1579  to */\n      dup2\n        /* \"contracts/TenkERC20.sol\":1556:1587  Transfer(address(0), to, value) */\n      0xffffffffffffffffffffffffffffffffffffffff\n      and\n        /* \"contracts/TenkERC20.sol\":1573:1574  0 */\n      0x00\n        /* \"contracts/TenkERC20.sol\":1556:1587  Transfer(address(0), to, value) */\n      0xffffffffffffffffffffffffffffffffffffffff\n      and\n      0xddf252ad1be2c89b69c2b068fc378daa952ba7f163c4a11628f55a4df523b3ef\n        /* \"contracts/TenkERC20.sol\":1581:1586  value */\n      dup4\n        /* \"contracts/TenkERC20.sol\":1556:1587  Transfer(address(0), to, value) */\n      mload(0x40)\n      dup1\n      dup3\n      dup2\n      mstore\n      0x20\n      add\n      swap2\n      pop\n      pop\n      mload(0x40)\n      dup1\n      swap2\n      sub\n      swap1\n      log3\n        /* \"contracts/TenkERC20.sol\":1394:1595  function _mint(address to, uint value) internal {\r... */\n      pop\n      pop\n      jump\t// out\n        /* \"libraries/Math.sol\":103:199  function min(uint x, uint y) internal pure returns (uint z) {\r... */\n    tag_249:\n        /* \"libraries/Math.sol\":155:161  uint z */\n      0x00\n        /* \"libraries/Math.sol\":182:183  y */\n      dup2\n        /* \"libraries/Math.sol\":178:179  x */\n      dup4\n        /* \"libraries/Math.sol\":178:183  x < y */\n      lt\n        /* \"libraries/Math.sol\":178:191  x < y ? x : y */\n      tag_494\n      jumpi\n        /* \"libraries/Math.sol\":190:191  y */\n      dup2\n        /* \"libraries/Math.sol\":178:191  x < y ? x : y */\n      jump(tag_495)\n    tag_494:\n        /* \"libraries/Math.sol\":186:187  x */\n      dup3\n        /* \"libraries/Math.sol\":178:191  x < y ? x : y */\n    tag_495:\n        /* \"libraries/Math.sol\":174:191  z = x < y ? x : y */\n      swap1\n      pop\n        /* \"libraries/Math.sol\":103:199  function min(uint x, uint y) internal pure returns (uint z) {\r... */\n      swap3\n      swap2\n      pop\n      pop\n      jump\t// out\n        /* \"contracts/TenkStablePair.sol\":4988:5260  function _update(uint balance0, uint balance1) private {\r... */\n    tag_253:\n        /* \"contracts/TenkStablePair.sol\":5078:5081  - 1 */\n      0xffffffffffffffffffffffffffffffffffffffffffffffffffffffffffffffff\n        /* \"contracts/TenkStablePair.sol\":5058:5082  balance0 <= uint112(- 1) */\n      0xffffffffffffffffffffffffffff\n      and\n        /* \"contracts/TenkStablePair.sol\":5058:5066  balance0 */\n      dup3\n        /* \"contracts/TenkStablePair.sol\":5058:5082  balance0 <= uint112(- 1) */\n      gt\n      iszero\n        /* \"contracts/TenkStablePair.sol\":5058:5110  balance0 <= uint112(- 1) && balance1 <= uint112(- 1) */\n      dup1\n      iszero\n      tag_497\n      jumpi\n      pop\n        /* \"contracts/TenkStablePair.sol\":5106:5109  - 1 */\n      0xffffffffffffffffffffffffffffffffffffffffffffffffffffffffffffffff\n        /* \"contracts/TenkStablePair.sol\":5086:5110  balance1 <= uint112(- 1) */\n      0xffffffffffffffffffffffffffff\n      and\n        /* \"contracts/TenkStablePair.sol\":5086:5094  balance1 */\n      dup2\n        /* \"contracts/TenkStablePair.sol\":5086:5110  balance1 <= uint112(- 1) */\n      gt\n      iszero\n        /* \"contracts/TenkStablePair.sol\":5058:5110  balance0 <= uint112(- 1) && balance1 <= uint112(- 1) */\n    tag_497:\n        /* \"contracts/TenkStablePair.sol\":5050:5128  require(balance0 <= uint112(- 1) && balance1 <= uint112(- 1), '10k: OVERFLOW') */\n      tag_498\n      jumpi\n      mload(0x40)\n      0x08c379a000000000000000000000000000000000000000000000000000000000\n      dup2\n      mstore\n      0x04\n      add\n      dup1\n      dup1\n      0x20\n      add\n      dup3\n      dup2\n      sub\n      dup3\n      mstore\n      0x0d\n      dup2\n      mstore\n      0x20\n      add\n      dup1\n      0x31306b3a204f564552464c4f5700000000000000000000000000000000000000\n      dup2\n      mstore\n      pop\n      0x20\n      add\n      swap2\n      pop\n      pop\n      mload(0x40)\n      dup1\n      swap2\n      sub\n      swap1\n      revert\n    tag_498:\n        /* \"contracts/TenkStablePair.sol\":5156:5164  balance0 */\n      dup2\n        /* \"contracts/TenkStablePair.sol\":5137:5145  reserve0 */\n      0x08\n      0x00\n        /* \"contracts/TenkStablePair.sol\":5137:5165  reserve0 = uint112(balance0) */\n      0x0100\n      exp\n      dup2\n      sload\n      dup2\n      0xffffffffffffffffffffffffffff\n      mul\n      not\n      and\n      swap1\n      dup4\n      0xffffffffffffffffffffffffffff\n      and\n      mul\n      or\n      swap1\n      sstore\n      pop\n        /* \"contracts/TenkStablePair.sol\":5191:5199  balance1 */\n      dup1\n        /* \"contracts/TenkStablePair.sol\":5172:5180  reserve1 */\n      0x08\n      0x0e\n        /* \"contracts/TenkStablePair.sol\":5172:5200  reserve1 = uint112(balance1) */\n      0x0100\n      exp\n      dup2\n      sload\n      dup2\n      0xffffffffffffffffffffffffffff\n      mul\n      not\n      and\n      swap1\n      dup4\n      0xffffffffffffffffffffffffffff\n      and\n      mul\n      or\n      swap1\n      sstore\n      pop\n        /* \"contracts/TenkStablePair.sol\":5212:5254  Sync(uint112(balance0), uint112(balance1)) */\n      0x1c411e9a96e071241c2f21f7726b17ae89e3cab4c78be50e062b03a9fffbbad1\n        /* \"contracts/TenkStablePair.sol\":5225:5233  balance0 */\n      dup3\n        /* \"contracts/TenkStablePair.sol\":5244:5252  balance1 */\n      dup3\n        /* \"contracts/TenkStablePair.sol\":5212:5254  Sync(uint112(balance0), uint112(balance1)) */\n      mload(0x40)\n      dup1\n      dup4\n      0xffffffffffffffffffffffffffff\n      and\n      0xffffffffffffffffffffffffffff\n      and\n      dup2\n      mstore\n      0x20\n      add\n      dup3\n      0xffffffffffffffffffffffffffff\n      and\n      0xffffffffffffffffffffffffffff\n      and\n      dup2\n      mstore\n      0x20\n      add\n      swap3\n      pop\n      pop\n      pop\n      mload(0x40)\n      dup1\n      swap2\n      sub\n      swap1\n      log1\n        /* \"contracts/TenkStablePair.sol\":4988:5260  function _update(uint balance0, uint balance1) private {\r... */\n      pop\n      pop\n      jump\t// out\n        /* \"contracts/TenkERC20.sol\":1603:1812  function _burn(address from, uint value) internal {\r... */\n    tag_277:\n        /* \"contracts/TenkERC20.sol\":1682:1708  balanceOf[from].sub(value) */\n      tag_500\n        /* \"contracts/TenkERC20.sol\":1702:1707  value */\n      dup2\n        /* \"contracts/TenkERC20.sol\":1682:1691  balanceOf */\n      0x01\n        /* \"contracts/TenkERC20.sol\":1682:1697  balanceOf[from] */\n      0x00\n        /* \"contracts/TenkERC20.sol\":1692:1696  from */\n      dup6\n        /* \"contracts/TenkERC20.sol\":1682:1697  balanceOf[from] */\n      0xffffffffffffffffffffffffffffffffffffffff\n      and\n      0xffffffffffffffffffffffffffffffffffffffff\n      and\n      dup2\n      mstore\n      0x20\n      add\n      swap1\n      dup2\n      mstore\n      0x20\n      add\n      0x00\n      keccak256\n      sload\n        /* \"contracts/TenkERC20.sol\":1682:1701  balanceOf[from].sub */\n      tag_173\n      swap1\n        /* \"contracts/TenkERC20.sol\":1682:1708  balanceOf[from].sub(value) */\n      swap2\n      swap1\n      0xffffffff\n      and\n      jump\t// in\n    tag_500:\n        /* \"contracts/TenkERC20.sol\":1664:1673  balanceOf */\n      0x01\n        /* \"contracts/TenkERC20.sol\":1664:1679  balanceOf[from] */\n      0x00\n        /* \"contracts/TenkERC20.sol\":1674:1678  from */\n      dup5\n        /* \"contracts/TenkERC20.sol\":1664:1679  balanceOf[from] */\n      0xffffffffffffffffffffffffffffffffffffffff\n      and\n      0xffffffffffffffffffffffffffffffffffffffff\n      and\n      dup2\n      mstore\n      0x20\n      add\n      swap1\n      dup2\n      mstore\n      0x20\n      add\n      0x00\n      keccak256\n        /* \"contracts/TenkERC20.sol\":1664:1708  balanceOf[from] = balanceOf[from].sub(value) */\n      dup2\n      swap1\n      sstore\n      pop\n        /* \"contracts/TenkERC20.sol\":1733:1755  totalSupply.sub(value) */\n      tag_501\n        /* \"contracts/TenkERC20.sol\":1749:1754  value */\n      dup2\n        /* \"contracts/TenkERC20.sol\":1733:1744  totalSupply */\n      sload(0x00)\n        /* \"contracts/TenkERC20.sol\":1733:1748  totalSupply.sub */\n      tag_173\n      swap1\n        /* \"contracts/TenkERC20.sol\":1733:1755  totalSupply.sub(value) */\n      swap2\n      swap1\n      0xffffffff\n      and\n      jump\t// in\n    tag_501:\n        /* \"contracts/TenkERC20.sol\":1719:1730  totalSupply */\n      0x00\n        /* \"contracts/TenkERC20.sol\":1719:1755  totalSupply = totalSupply.sub(value) */\n      dup2\n      swap1\n      sstore\n      pop\n        /* \"contracts/TenkERC20.sol\":1794:1795  0 */\n      0x00\n        /* \"contracts/TenkERC20.sol\":1771:1804  Transfer(from, address(0), value) */\n      0xffffffffffffffffffffffffffffffffffffffff\n      and\n        /* \"contracts/TenkERC20.sol\":1780:1784  from */\n      dup3\n        /* \"contracts/TenkERC20.sol\":1771:1804  Transfer(from, address(0), value) */\n      0xffffffffffffffffffffffffffffffffffffffff\n      and\n      0xddf252ad1be2c89b69c2b068fc378daa952ba7f163c4a11628f55a4df523b3ef\n        /* \"contracts/TenkERC20.sol\":1798:1803  value */\n      dup4\n        /* \"contracts/TenkERC20.sol\":1771:1804  Transfer(from, address(0), value) */\n      mload(0x40)\n      dup1\n      dup3\n      dup2\n      mstore\n      0x20\n      add\n      swap2\n      pop\n      pop\n      mload(0x40)\n      dup1\n      swap2\n      sub\n      swap1\n      log3\n        /* \"contracts/TenkERC20.sol\":1603:1812  function _burn(address from, uint value) internal {\r... */\n      pop\n      pop\n      jump\t// out\n        /* \"contracts/TenkStablePair.sol\":1930:2201  function _safeTransfer(address token, address to, uint value) private {\r... */\n    tag_279:\n        /* \"contracts/TenkStablePair.sol\":2008:2020  bool success */\n      0x00\n        /* \"contracts/TenkStablePair.sol\":2022:2039  bytes memory data */\n      0x60\n        /* \"contracts/TenkStablePair.sol\":2043:2048  token */\n      dup5\n        /* \"contracts/TenkStablePair.sol\":2043:2053  token.call */\n      0xffffffffffffffffffffffffffffffffffffffff\n      and\n        /* \"contracts/TenkStablePair.sol\":457:491  bytes('transfer(address,uint256)') */\n      mload(0x40)\n      dup1\n      0x40\n      add\n      0x40\n      mstore\n      dup1\n      0x19\n      dup2\n      mstore\n      0x20\n      add\n      0x7472616e7366657228616464726573732c75696e743235362900000000000000\n      dup2\n      mstore\n      pop\n        /* \"contracts/TenkStablePair.sol\":447:492  keccak256(bytes('transfer(address,uint256)')) */\n      dup1\n      mload\n      swap1\n      0x20\n      add\n      keccak256\n        /* \"contracts/TenkStablePair.sol\":2087:2089  to */\n      dup6\n        /* \"contracts/TenkStablePair.sol\":2091:2096  value */\n      dup6\n        /* \"contracts/TenkStablePair.sol\":2054:2097  abi.encodeWithSelector(SELECTOR, to, value) */\n      add(0x24, mload(0x40))\n      dup1\n      dup4\n      0xffffffffffffffffffffffffffffffffffffffff\n      and\n      0xffffffffffffffffffffffffffffffffffffffff\n      and\n      dup2\n      mstore\n      0x20\n      add\n      dup3\n      dup2\n      mstore\n      0x20\n      add\n      swap3\n      pop\n      pop\n      pop\n      mload(0x40)\n        /* \"--CODEGEN--\":49:53   */\n      0x20\n        /* \"--CODEGEN--\":39:46   */\n      dup2\n        /* \"--CODEGEN--\":30:37   */\n      dup4\n        /* \"--CODEGEN--\":26:47   */\n      sub\n        /* \"--CODEGEN--\":22:54   */\n      sub\n        /* \"--CODEGEN--\":13:20   */\n      dup2\n        /* \"--CODEGEN--\":6:55   */\n      mstore\n        /* \"contracts/TenkStablePair.sol\":2054:2097  abi.encodeWithSelector(SELECTOR, to, value) */\n      swap1\n      0x40\n      mstore\n      swap1\n      not(0xffffffffffffffffffffffffffffffffffffffffffffffffffffffff)\n      and\n        /* \"--CODEGEN--\":38:42   */\n      0x20\n        /* \"--CODEGEN--\":29:36   */\n      dup3\n        /* \"--CODEGEN--\":25:43   */\n      add\n        /* \"--CODEGEN--\":67:77   */\n      dup1\n        /* \"--CODEGEN--\":61:78   */\n      mload\n        /* \"--CODEGEN--\":96:154   */\n      0xffffffffffffffffffffffffffffffffffffffffffffffffffffffff\n        /* \"--CODEGEN--\":199:207   */\n      dup4\n        /* \"--CODEGEN--\":192:196   */\n      dup2\n        /* \"--CODEGEN--\":186:190   */\n      dup4\n        /* \"--CODEGEN--\":182:197   */\n      and\n        /* \"--CODEGEN--\":179:208   */\n      or\n        /* \"--CODEGEN--\":167:177   */\n      dup4\n        /* \"--CODEGEN--\":160:209   */\n      mstore\n        /* \"--CODEGEN--\":0:215   */\n      pop\n      pop\n      pop\n        /* \"contracts/TenkStablePair.sol\":2054:2097  abi.encodeWithSelector(SELECTOR, to, value) */\n      pop\n        /* \"contracts/TenkStablePair.sol\":2043:2098  token.call(abi.encodeWithSelector(SELECTOR, to, value)) */\n      mload(0x40)\n      dup1\n      dup3\n      dup1\n      mload\n      swap1\n      0x20\n      add\n      swap1\n      dup1\n      dup4\n      dup4\n        /* \"--CODEGEN--\":36:189   */\n    tag_503:\n        /* \"--CODEGEN--\":66:68   */\n      0x20\n        /* \"--CODEGEN--\":61:64   */\n      dup4\n        /* \"--CODEGEN--\":58:69   */\n      lt\n        /* \"--CODEGEN--\":36:189   */\n      tag_505\n      jumpi\n        /* \"--CODEGEN--\":182:185   */\n      dup1\n        /* \"--CODEGEN--\":176:186   */\n      mload\n        /* \"--CODEGEN--\":171:174   */\n      dup3\n        /* \"--CODEGEN--\":164:187   */\n      mstore\n        /* \"--CODEGEN--\":98:100   */\n      0x20\n        /* \"--CODEGEN--\":93:96   */\n      dup3\n        /* \"--CODEGEN--\":89:101   */\n      add\n        /* \"--CODEGEN--\":82:101   */\n      swap2\n      pop\n        /* \"--CODEGEN--\":123:125   */\n      0x20\n        /* \"--CODEGEN--\":118:121   */\n      dup2\n        /* \"--CODEGEN--\":114:126   */\n      add\n        /* \"--CODEGEN--\":107:126   */\n      swap1\n      pop\n        /* \"--CODEGEN--\":148:150   */\n      0x20\n        /* \"--CODEGEN--\":143:146   */\n      dup4\n        /* \"--CODEGEN--\":139:151   */\n      sub\n        /* \"--CODEGEN--\":132:151   */\n      swap3\n      pop\n        /* \"--CODEGEN--\":36:189   */\n      jump(tag_503)\n    tag_505:\n        /* \"--CODEGEN--\":274:275   */\n      0x01\n        /* \"--CODEGEN--\":267:270   */\n      dup4\n        /* \"--CODEGEN--\":263:265   */\n      0x20\n        /* \"--CODEGEN--\":259:271   */\n      sub\n        /* \"--CODEGEN--\":254:257   */\n      0x0100\n        /* \"--CODEGEN--\":250:272   */\n      exp\n        /* \"--CODEGEN--\":246:276   */\n      sub\n        /* \"--CODEGEN--\":315:319   */\n      dup1\n        /* \"--CODEGEN--\":311:320   */\n      not\n        /* \"--CODEGEN--\":305:308   */\n      dup3\n        /* \"--CODEGEN--\":299:309   */\n      mload\n        /* \"--CODEGEN--\":295:321   */\n      and\n        /* \"--CODEGEN--\":356:360   */\n      dup2\n        /* \"--CODEGEN--\":350:353   */\n      dup5\n        /* \"--CODEGEN--\":344:354   */\n      mload\n        /* \"--CODEGEN--\":340:361   */\n      and\n        /* \"--CODEGEN--\":389:396   */\n      dup1\n        /* \"--CODEGEN--\":380:387   */\n      dup3\n        /* \"--CODEGEN--\":377:397   */\n      or\n        /* \"--CODEGEN--\":372:375   */\n      dup6\n        /* \"--CODEGEN--\":365:398   */\n      mstore\n        /* \"--CODEGEN--\":3:402   */\n      pop\n      pop\n      pop\n        /* \"contracts/TenkStablePair.sol\":2043:2098  token.call(abi.encodeWithSelector(SELECTOR, to, value)) */\n      pop\n      pop\n      pop\n      swap1\n      pop\n      add\n      swap2\n      pop\n      pop\n      0x00\n      mload(0x40)\n      dup1\n      dup4\n      sub\n      dup2\n      0x00\n      dup7\n      gas\n      call\n      swap2\n      pop\n      pop\n      returndatasize\n        /* \"--CODEGEN--\":14:15   */\n      dup1\n        /* \"--CODEGEN--\":21:22   */\n      0x00\n        /* \"--CODEGEN--\":16:47   */\n      dup2\n      eq\n      tag_507\n      jumpi\n        /* \"--CODEGEN--\":75:79   */\n      0x40\n        /* \"--CODEGEN--\":69:80   */\n      mload\n        /* \"--CODEGEN--\":64:80   */\n      swap2\n      pop\n        /* \"--CODEGEN--\":144:148   */\n      0x1f\n        /* \"--CODEGEN--\":140:149   */\n      not\n        /* \"--CODEGEN--\":133:137   */\n      0x3f\n        /* \"--CODEGEN--\":115:131   */\n      returndatasize\n        /* \"--CODEGEN--\":111:138   */\n      add\n        /* \"--CODEGEN--\":107:150   */\n      and\n        /* \"--CODEGEN--\":104:105   */\n      dup3\n        /* \"--CODEGEN--\":100:151   */\n      add\n        /* \"--CODEGEN--\":94:98   */\n      0x40\n        /* \"--CODEGEN--\":87:152   */\n      mstore\n        /* \"--CODEGEN--\":169:185   */\n      returndatasize\n        /* \"--CODEGEN--\":166:167   */\n      dup3\n        /* \"--CODEGEN--\":159:186   */\n      mstore\n        /* \"--CODEGEN--\":225:241   */\n      returndatasize\n        /* \"--CODEGEN--\":222:223   */\n      0x00\n        /* \"--CODEGEN--\":215:219   */\n      0x20\n        /* \"--CODEGEN--\":212:213   */\n      dup5\n        /* \"--CODEGEN--\":208:220   */\n      add\n        /* \"--CODEGEN--\":193:242   */\n      returndatacopy\n        /* \"--CODEGEN--\":7:249   */\n      jump(tag_506)\n        /* \"--CODEGEN--\":16:47   */\n    tag_507:\n        /* \"--CODEGEN--\":36:40   */\n      0x60\n        /* \"--CODEGEN--\":31:40   */\n      swap2\n      pop\n        /* \"--CODEGEN--\":7:249   */\n    tag_506:\n      pop\n        /* \"contracts/TenkStablePair.sol\":2007:2098  (bool success, bytes memory data) = token.call(abi.encodeWithSelector(SELECTOR, to, value)) */\n      swap2\n      pop\n      swap2\n      pop\n        /* \"contracts/TenkStablePair.sol\":2113:2120  success */\n      dup2\n        /* \"contracts/TenkStablePair.sol\":2113:2170  success && (data.length == 0 || abi.decode(data, (bool))) */\n      dup1\n      iszero\n      tag_508\n      jumpi\n      pop\n        /* \"contracts/TenkStablePair.sol\":2140:2141  0 */\n      0x00\n        /* \"contracts/TenkStablePair.sol\":2125:2129  data */\n      dup2\n        /* \"contracts/TenkStablePair.sol\":2125:2136  data.length */\n      mload\n        /* \"contracts/TenkStablePair.sol\":2125:2141  data.length == 0 */\n      eq\n        /* \"contracts/TenkStablePair.sol\":2125:2169  data.length == 0 || abi.decode(data, (bool)) */\n      dup1\n      tag_509\n      jumpi\n      pop\n        /* \"contracts/TenkStablePair.sol\":2156:2160  data */\n      dup1\n        /* \"contracts/TenkStablePair.sol\":2145:2169  abi.decode(data, (bool)) */\n      dup1\n      0x20\n      add\n      swap1\n      mload\n        /* \"--CODEGEN--\":13:15   */\n      0x20\n        /* \"--CODEGEN--\":8:11   */\n      dup2\n        /* \"--CODEGEN--\":5:16   */\n      lt\n        /* \"--CODEGEN--\":2:4   */\n      iszero\n      tag_510\n      jumpi\n        /* \"--CODEGEN--\":29:30   */\n      0x00\n        /* \"--CODEGEN--\":26:27   */\n      dup1\n        /* \"--CODEGEN--\":19:31   */\n      revert\n        /* \"--CODEGEN--\":2:4   */\n    tag_510:\n        /* \"contracts/TenkStablePair.sol\":2145:2169  abi.decode(data, (bool)) */\n      dup2\n      add\n      swap1\n      dup1\n      dup1\n      mload\n      swap1\n      0x20\n      add\n      swap1\n      swap3\n      swap2\n      swap1\n      pop\n      pop\n      pop\n        /* \"contracts/TenkStablePair.sol\":2125:2169  data.length == 0 || abi.decode(data, (bool)) */\n    tag_509:\n        /* \"contracts/TenkStablePair.sol\":2113:2170  success && (data.length == 0 || abi.decode(data, (bool))) */\n    tag_508:\n        /* \"contracts/TenkStablePair.sol\":2105:2195  require(success && (data.length == 0 || abi.decode(data, (bool))), '10k: TRANSFER_FAILED') */\n      tag_511\n      jumpi\n      mload(0x40)\n      0x08c379a000000000000000000000000000000000000000000000000000000000\n      dup2\n      mstore\n      0x04\n      add\n      dup1\n      dup1\n      0x20\n      add\n      dup3\n      dup2\n      sub\n      dup3\n      mstore\n      0x14\n      dup2\n      mstore\n      0x20\n      add\n      dup1\n      0x31306b3a205452414e534645525f4641494c4544000000000000000000000000\n      dup2\n      mstore\n      pop\n      0x20\n      add\n      swap2\n      pop\n      pop\n      mload(0x40)\n      dup1\n      swap2\n      sub\n      swap1\n      revert\n    tag_511:\n        /* \"contracts/TenkStablePair.sol\":1930:2201  function _safeTransfer(address token, address to, uint value) private {\r... */\n      pop\n      pop\n      pop\n      pop\n      pop\n      jump\t// out\n        /* \"contracts/TenkStablePair.sol\":15774:16887  function _getAmountOut(uint amountIn, address tokenIn, uint _reserve0, uint _reserve1, uint feePercent) internal view returns (uint) {\r... */\n    tag_315:\n        /* \"contracts/TenkStablePair.sol\":15901:15905  uint */\n      0x00\n        /* \"contracts/TenkStablePair.sol\":15918:15928  stableSwap */\n      0x0c\n      0x00\n      swap1\n      sload\n      swap1\n      0x0100\n      exp\n      swap1\n      div\n      0xff\n      and\n        /* \"contracts/TenkStablePair.sol\":15914:16882  if (stableSwap) {\r... */\n      iszero\n      tag_513\n      jumpi\n        /* \"contracts/TenkStablePair.sol\":15950:16006  amountIn.sub(amountIn.mul(feePercent) / FEE_DENOMINATOR) */\n      tag_514\n        /* \"contracts/TenkStablePair.sol\":650:656  100000 */\n      0x0186a0\n        /* \"contracts/TenkStablePair.sol\":15963:15987  amountIn.mul(feePercent) */\n      tag_515\n        /* \"contracts/TenkStablePair.sol\":15976:15986  feePercent */\n      dup5\n        /* \"contracts/TenkStablePair.sol\":15963:15971  amountIn */\n      dup10\n        /* \"contracts/TenkStablePair.sol\":15963:15975  amountIn.mul */\n      tag_239\n      swap1\n        /* \"contracts/TenkStablePair.sol\":15963:15987  amountIn.mul(feePercent) */\n      swap2\n      swap1\n      0xffffffff\n      and\n      jump\t// in\n    tag_515:\n        /* \"contracts/TenkStablePair.sol\":15963:16005  amountIn.mul(feePercent) / FEE_DENOMINATOR */\n      dup2\n      tag_516\n      jumpi\n      invalid\n    tag_516:\n      div\n        /* \"contracts/TenkStablePair.sol\":15950:15958  amountIn */\n      dup8\n        /* \"contracts/TenkStablePair.sol\":15950:15962  amountIn.sub */\n      tag_173\n      swap1\n        /* \"contracts/TenkStablePair.sol\":15950:16006  amountIn.sub(amountIn.mul(feePercent) / FEE_DENOMINATOR) */\n      swap2\n      swap1\n      0xffffffff\n      and\n      jump\t// in\n    tag_514:\n        /* \"contracts/TenkStablePair.sol\":15939:16006  amountIn = amountIn.sub(amountIn.mul(feePercent) / FEE_DENOMINATOR) */\n      swap6\n      pop\n        /* \"contracts/TenkStablePair.sol\":16050:16057  uint xy */\n      0x00\n        /* \"contracts/TenkStablePair.sol\":16060:16084  _k(_reserve0, _reserve1) */\n      tag_517\n        /* \"contracts/TenkStablePair.sol\":16063:16072  _reserve0 */\n      dup6\n        /* \"contracts/TenkStablePair.sol\":16074:16083  _reserve1 */\n      dup6\n        /* \"contracts/TenkStablePair.sol\":16060:16062  _k */\n      tag_193\n        /* \"contracts/TenkStablePair.sol\":16060:16084  _k(_reserve0, _reserve1) */\n      jump\t// in\n    tag_517:\n        /* \"contracts/TenkStablePair.sol\":16050:16084  uint xy = _k(_reserve0, _reserve1) */\n      swap1\n      pop\n        /* \"contracts/TenkStablePair.sol\":16124:16144  precisionMultiplier0 */\n      sload(0x09)\n        /* \"contracts/TenkStablePair.sol\":16117:16121  1e18 */\n      0x0de0b6b3a7640000\n        /* \"contracts/TenkStablePair.sol\":16105:16114  _reserve0 */\n      dup7\n        /* \"contracts/TenkStablePair.sol\":16105:16121  _reserve0 * 1e18 */\n      mul\n        /* \"contracts/TenkStablePair.sol\":16105:16144  _reserve0 * 1e18 / precisionMultiplier0 */\n      dup2\n      tag_518\n      jumpi\n      invalid\n    tag_518:\n      div\n        /* \"contracts/TenkStablePair.sol\":16093:16144  _reserve0 = _reserve0 * 1e18 / precisionMultiplier0 */\n      swap5\n      pop\n        /* \"contracts/TenkStablePair.sol\":16184:16204  precisionMultiplier1 */\n      sload(0x0a)\n        /* \"contracts/TenkStablePair.sol\":16177:16181  1e18 */\n      0x0de0b6b3a7640000\n        /* \"contracts/TenkStablePair.sol\":16165:16174  _reserve1 */\n      dup6\n        /* \"contracts/TenkStablePair.sol\":16165:16181  _reserve1 * 1e18 */\n      mul\n        /* \"contracts/TenkStablePair.sol\":16165:16204  _reserve1 * 1e18 / precisionMultiplier1 */\n      dup2\n      tag_519\n      jumpi\n      invalid\n    tag_519:\n      div\n        /* \"contracts/TenkStablePair.sol\":16153:16204  _reserve1 = _reserve1 * 1e18 / precisionMultiplier1 */\n      swap4\n      pop\n        /* \"contracts/TenkStablePair.sol\":16216:16229  uint reserveA */\n      0x00\n        /* \"contracts/TenkStablePair.sol\":16231:16244  uint reserveB */\n      dup1\n        /* \"contracts/TenkStablePair.sol\":16259:16265  token0 */\n      0x06\n      0x00\n      swap1\n      sload\n      swap1\n      0x0100\n      exp\n      swap1\n      div\n      0xffffffffffffffffffffffffffffffffffffffff\n      and\n        /* \"contracts/TenkStablePair.sol\":16248:16265  tokenIn == token0 */\n      0xffffffffffffffffffffffffffffffffffffffff\n      and\n        /* \"contracts/TenkStablePair.sol\":16248:16255  tokenIn */\n      dup9\n        /* \"contracts/TenkStablePair.sol\":16248:16265  tokenIn == token0 */\n      0xffffffffffffffffffffffffffffffffffffffff\n      and\n      eq\n        /* \"contracts/TenkStablePair.sol\":16248:16315  tokenIn == token0 ? (_reserve0, _reserve1) : (_reserve1, _reserve0) */\n      tag_520\n      jumpi\n        /* \"contracts/TenkStablePair.sol\":16294:16303  _reserve1 */\n      dup6\n        /* \"contracts/TenkStablePair.sol\":16305:16314  _reserve0 */\n      dup8\n        /* \"contracts/TenkStablePair.sol\":16248:16315  tokenIn == token0 ? (_reserve0, _reserve1) : (_reserve1, _reserve0) */\n      jump(tag_521)\n    tag_520:\n        /* \"contracts/TenkStablePair.sol\":16269:16278  _reserve0 */\n      dup7\n        /* \"contracts/TenkStablePair.sol\":16280:16289  _reserve1 */\n      dup7\n        /* \"contracts/TenkStablePair.sol\":16248:16315  tokenIn == token0 ? (_reserve0, _reserve1) : (_reserve1, _reserve0) */\n    tag_521:\n        /* \"contracts/TenkStablePair.sol\":16215:16315  (uint reserveA, uint reserveB) = tokenIn == token0 ? (_reserve0, _reserve1) : (_reserve1, _reserve0) */\n      swap2\n      pop\n      swap2\n      pop\n        /* \"contracts/TenkStablePair.sol\":16346:16352  token0 */\n      0x06\n      0x00\n      swap1\n      sload\n      swap1\n      0x0100\n      exp\n      swap1\n      div\n      0xffffffffffffffffffffffffffffffffffffffff\n      and\n        /* \"contracts/TenkStablePair.sol\":16335:16352  tokenIn == token0 */\n      0xffffffffffffffffffffffffffffffffffffffff\n      and\n        /* \"contracts/TenkStablePair.sol\":16335:16342  tokenIn */\n      dup9\n        /* \"contracts/TenkStablePair.sol\":16335:16352  tokenIn == token0 */\n      0xffffffffffffffffffffffffffffffffffffffff\n      and\n      eq\n        /* \"contracts/TenkStablePair.sol\":16335:16434  tokenIn == token0 ? amountIn * 1e18 / precisionMultiplier0 : amountIn * 1e18 / precisionMultiplier1 */\n      tag_522\n      jumpi\n        /* \"contracts/TenkStablePair.sol\":16414:16434  precisionMultiplier1 */\n      sload(0x0a)\n        /* \"contracts/TenkStablePair.sol\":16407:16411  1e18 */\n      0x0de0b6b3a7640000\n        /* \"contracts/TenkStablePair.sol\":16396:16404  amountIn */\n      dup11\n        /* \"contracts/TenkStablePair.sol\":16396:16411  amountIn * 1e18 */\n      mul\n        /* \"contracts/TenkStablePair.sol\":16396:16434  amountIn * 1e18 / precisionMultiplier1 */\n      dup2\n      tag_523\n      jumpi\n      invalid\n    tag_523:\n      div\n        /* \"contracts/TenkStablePair.sol\":16335:16434  tokenIn == token0 ? amountIn * 1e18 / precisionMultiplier0 : amountIn * 1e18 / precisionMultiplier1 */\n      jump(tag_524)\n    tag_522:\n        /* \"contracts/TenkStablePair.sol\":16373:16393  precisionMultiplier0 */\n      sload(0x09)\n        /* \"contracts/TenkStablePair.sol\":16366:16370  1e18 */\n      0x0de0b6b3a7640000\n        /* \"contracts/TenkStablePair.sol\":16355:16363  amountIn */\n      dup11\n        /* \"contracts/TenkStablePair.sol\":16355:16370  amountIn * 1e18 */\n      mul\n        /* \"contracts/TenkStablePair.sol\":16355:16393  amountIn * 1e18 / precisionMultiplier0 */\n      dup2\n      tag_525\n      jumpi\n      invalid\n    tag_525:\n      div\n        /* \"contracts/TenkStablePair.sol\":16335:16434  tokenIn == token0 ? amountIn * 1e18 / precisionMultiplier0 : amountIn * 1e18 / precisionMultiplier1 */\n    tag_524:\n        /* \"contracts/TenkStablePair.sol\":16324:16434  amountIn = tokenIn == token0 ? amountIn * 1e18 / precisionMultiplier0 : amountIn * 1e18 / precisionMultiplier1 */\n      swap9\n      pop\n        /* \"contracts/TenkStablePair.sol\":16443:16449  uint y */\n      0x00\n        /* \"contracts/TenkStablePair.sol\":16463:16504  _get_y(amountIn + reserveA, xy, reserveB) */\n      tag_526\n        /* \"contracts/TenkStablePair.sol\":16481:16489  reserveA */\n      dup4\n        /* \"contracts/TenkStablePair.sol\":16470:16478  amountIn */\n      dup12\n        /* \"contracts/TenkStablePair.sol\":16470:16489  amountIn + reserveA */\n      add\n        /* \"contracts/TenkStablePair.sol\":16491:16493  xy */\n      dup6\n        /* \"contracts/TenkStablePair.sol\":16495:16503  reserveB */\n      dup5\n        /* \"contracts/TenkStablePair.sol\":16463:16469  _get_y */\n      tag_527\n        /* \"contracts/TenkStablePair.sol\":16463:16504  _get_y(amountIn + reserveA, xy, reserveB) */\n      jump\t// in\n    tag_526:\n        /* \"contracts/TenkStablePair.sol\":16452:16460  reserveB */\n      dup3\n        /* \"contracts/TenkStablePair.sol\":16452:16504  reserveB - _get_y(amountIn + reserveA, xy, reserveB) */\n      sub\n        /* \"contracts/TenkStablePair.sol\":16443:16504  uint y = reserveB - _get_y(amountIn + reserveA, xy, reserveB) */\n      swap1\n      pop\n        /* \"contracts/TenkStablePair.sol\":16592:16596  1e18 */\n      0x0de0b6b3a7640000\n        /* \"contracts/TenkStablePair.sol\":16536:16542  token0 */\n      0x06\n      0x00\n      swap1\n      sload\n      swap1\n      0x0100\n      exp\n      swap1\n      div\n      0xffffffffffffffffffffffffffffffffffffffff\n      and\n        /* \"contracts/TenkStablePair.sol\":16525:16542  tokenIn == token0 */\n      0xffffffffffffffffffffffffffffffffffffffff\n      and\n        /* \"contracts/TenkStablePair.sol\":16525:16532  tokenIn */\n      dup11\n        /* \"contracts/TenkStablePair.sol\":16525:16542  tokenIn == token0 */\n      0xffffffffffffffffffffffffffffffffffffffff\n      and\n      eq\n        /* \"contracts/TenkStablePair.sol\":16525:16588  tokenIn == token0 ? precisionMultiplier1 : precisionMultiplier0 */\n      tag_528\n      jumpi\n        /* \"contracts/TenkStablePair.sol\":16568:16588  precisionMultiplier0 */\n      sload(0x09)\n        /* \"contracts/TenkStablePair.sol\":16525:16588  tokenIn == token0 ? precisionMultiplier1 : precisionMultiplier0 */\n      jump(tag_529)\n    tag_528:\n        /* \"contracts/TenkStablePair.sol\":16545:16565  precisionMultiplier1 */\n      sload(0x0a)\n        /* \"contracts/TenkStablePair.sol\":16525:16588  tokenIn == token0 ? precisionMultiplier1 : precisionMultiplier0 */\n    tag_529:\n        /* \"contracts/TenkStablePair.sol\":16520:16521  y */\n      dup3\n        /* \"contracts/TenkStablePair.sol\":16520:16589  y * (tokenIn == token0 ? precisionMultiplier1 : precisionMultiplier0) */\n      mul\n        /* \"contracts/TenkStablePair.sol\":16520:16596  y * (tokenIn == token0 ? precisionMultiplier1 : precisionMultiplier0) / 1e18 */\n      dup2\n      tag_530\n      jumpi\n      invalid\n    tag_530:\n      div\n        /* \"contracts/TenkStablePair.sol\":16513:16596  return y * (tokenIn == token0 ? precisionMultiplier1 : precisionMultiplier0) / 1e18 */\n      swap5\n      pop\n      pop\n      pop\n      pop\n      pop\n      jump(tag_512)\n        /* \"contracts/TenkStablePair.sol\":15914:16882  if (stableSwap) {\r... */\n    tag_513:\n        /* \"contracts/TenkStablePair.sol\":16622:16635  uint reserveA */\n      0x00\n        /* \"contracts/TenkStablePair.sol\":16637:16650  uint reserveB */\n      dup1\n        /* \"contracts/TenkStablePair.sol\":16665:16671  token0 */\n      0x06\n      0x00\n      swap1\n      sload\n      swap1\n      0x0100\n      exp\n      swap1\n      div\n      0xffffffffffffffffffffffffffffffffffffffff\n      and\n        /* \"contracts/TenkStablePair.sol\":16654:16671  tokenIn == token0 */\n      0xffffffffffffffffffffffffffffffffffffffff\n      and\n        /* \"contracts/TenkStablePair.sol\":16654:16661  tokenIn */\n      dup8\n        /* \"contracts/TenkStablePair.sol\":16654:16671  tokenIn == token0 */\n      0xffffffffffffffffffffffffffffffffffffffff\n      and\n      eq\n        /* \"contracts/TenkStablePair.sol\":16654:16721  tokenIn == token0 ? (_reserve0, _reserve1) : (_reserve1, _reserve0) */\n      tag_532\n      jumpi\n        /* \"contracts/TenkStablePair.sol\":16700:16709  _reserve1 */\n      dup5\n        /* \"contracts/TenkStablePair.sol\":16711:16720  _reserve0 */\n      dup7\n        /* \"contracts/TenkStablePair.sol\":16654:16721  tokenIn == token0 ? (_reserve0, _reserve1) : (_reserve1, _reserve0) */\n      jump(tag_533)\n    tag_532:\n        /* \"contracts/TenkStablePair.sol\":16675:16684  _reserve0 */\n      dup6\n        /* \"contracts/TenkStablePair.sol\":16686:16695  _reserve1 */\n      dup6\n        /* \"contracts/TenkStablePair.sol\":16654:16721  tokenIn == token0 ? (_reserve0, _reserve1) : (_reserve1, _reserve0) */\n    tag_533:\n        /* \"contracts/TenkStablePair.sol\":16621:16721  (uint reserveA, uint reserveB) = tokenIn == token0 ? (_reserve0, _reserve1) : (_reserve1, _reserve0) */\n      swap2\n      pop\n      swap2\n      pop\n        /* \"contracts/TenkStablePair.sol\":16741:16786  amountIn.mul(FEE_DENOMINATOR.sub(feePercent)) */\n      tag_534\n        /* \"contracts/TenkStablePair.sol\":16754:16785  FEE_DENOMINATOR.sub(feePercent) */\n      tag_535\n        /* \"contracts/TenkStablePair.sol\":16774:16784  feePercent */\n      dup6\n        /* \"contracts/TenkStablePair.sol\":650:656  100000 */\n      0x0186a0\n        /* \"contracts/TenkStablePair.sol\":16754:16773  FEE_DENOMINATOR.sub */\n      tag_173\n      swap1\n        /* \"contracts/TenkStablePair.sol\":16754:16785  FEE_DENOMINATOR.sub(feePercent) */\n      swap2\n      swap1\n      0xffffffff\n      and\n      jump\t// in\n    tag_535:\n        /* \"contracts/TenkStablePair.sol\":16741:16749  amountIn */\n      dup10\n        /* \"contracts/TenkStablePair.sol\":16741:16753  amountIn.mul */\n      tag_239\n      swap1\n        /* \"contracts/TenkStablePair.sol\":16741:16786  amountIn.mul(FEE_DENOMINATOR.sub(feePercent)) */\n      swap2\n      swap1\n      0xffffffff\n      and\n      jump\t// in\n    tag_534:\n        /* \"contracts/TenkStablePair.sol\":16730:16786  amountIn = amountIn.mul(FEE_DENOMINATOR.sub(feePercent)) */\n      swap8\n      pop\n        /* \"contracts/TenkStablePair.sol\":16830:16873  reserveA.mul(FEE_DENOMINATOR).add(amountIn) */\n      tag_536\n        /* \"contracts/TenkStablePair.sol\":16864:16872  amountIn */\n      dup9\n        /* \"contracts/TenkStablePair.sol\":16830:16859  reserveA.mul(FEE_DENOMINATOR) */\n      tag_537\n        /* \"contracts/TenkStablePair.sol\":650:656  100000 */\n      0x0186a0\n        /* \"contracts/TenkStablePair.sol\":16830:16838  reserveA */\n      dup6\n        /* \"contracts/TenkStablePair.sol\":16830:16842  reserveA.mul */\n      tag_239\n      swap1\n        /* \"contracts/TenkStablePair.sol\":16830:16859  reserveA.mul(FEE_DENOMINATOR) */\n      swap2\n      swap1\n      0xffffffff\n      and\n      jump\t// in\n    tag_537:\n        /* \"contracts/TenkStablePair.sol\":16830:16863  reserveA.mul(FEE_DENOMINATOR).add */\n      tag_435\n      swap1\n        /* \"contracts/TenkStablePair.sol\":16830:16873  reserveA.mul(FEE_DENOMINATOR).add(amountIn) */\n      swap2\n      swap1\n      0xffffffff\n      and\n      jump\t// in\n    tag_536:\n        /* \"contracts/TenkStablePair.sol\":16803:16825  amountIn.mul(reserveB) */\n      tag_538\n        /* \"contracts/TenkStablePair.sol\":16816:16824  reserveB */\n      dup3\n        /* \"contracts/TenkStablePair.sol\":16803:16811  amountIn */\n      dup11\n        /* \"contracts/TenkStablePair.sol\":16803:16815  amountIn.mul */\n      tag_239\n      swap1\n        /* \"contracts/TenkStablePair.sol\":16803:16825  amountIn.mul(reserveB) */\n      swap2\n      swap1\n      0xffffffff\n      and\n      jump\t// in\n    tag_538:\n        /* \"contracts/TenkStablePair.sol\":16802:16874  (amountIn.mul(reserveB)) / (reserveA.mul(FEE_DENOMINATOR).add(amountIn)) */\n      dup2\n      tag_539\n      jumpi\n      invalid\n    tag_539:\n      div\n        /* \"contracts/TenkStablePair.sol\":16795:16874  return (amountIn.mul(reserveB)) / (reserveA.mul(FEE_DENOMINATOR).add(amountIn)) */\n      swap3\n      pop\n      pop\n      pop\n        /* \"contracts/TenkStablePair.sol\":15774:16887  function _getAmountOut(uint amountIn, address tokenIn, uint _reserve0, uint _reserve1, uint feePercent) internal view returns (uint) {\r... */\n    tag_512:\n      swap6\n      swap5\n      pop\n      pop\n      pop\n      pop\n      pop\n      jump\t// out\n        /* \"libraries/SafeMath.sol\":160:288  function add(uint x, uint y) internal pure returns (uint z) {\r... */\n    tag_435:\n        /* \"libraries/SafeMath.sol\":212:218  uint z */\n      0x00\n        /* \"libraries/SafeMath.sol\":254:255  x */\n      dup3\n        /* \"libraries/SafeMath.sol\":248:249  y */\n      dup3\n        /* \"libraries/SafeMath.sol\":244:245  x */\n      dup5\n        /* \"libraries/SafeMath.sol\":244:249  x + y */\n      add\n        /* \"libraries/SafeMath.sol\":240:249  z = x + y */\n      swap2\n      pop\n      dup2\n        /* \"libraries/SafeMath.sol\":239:255  (z = x + y) >= x */\n      lt\n      iszero\n        /* \"libraries/SafeMath.sol\":231:280  require((z = x + y) >= x, 'ds-math-add-overflow') */\n      tag_541\n      jumpi\n      mload(0x40)\n      0x08c379a000000000000000000000000000000000000000000000000000000000\n      dup2\n      mstore\n      0x04\n      add\n      dup1\n      dup1\n      0x20\n      add\n      dup3\n      dup2\n      sub\n      dup3\n      mstore\n      0x14\n      dup2\n      mstore\n      0x20\n      add\n      dup1\n      0x64732d6d6174682d6164642d6f766572666c6f77000000000000000000000000\n      dup2\n      mstore\n      pop\n      0x20\n      add\n      swap2\n      pop\n      pop\n      mload(0x40)\n      dup1\n      swap2\n      sub\n      swap1\n      revert\n    tag_541:\n        /* \"libraries/SafeMath.sol\":160:288  function add(uint x, uint y) internal pure returns (uint z) {\r... */\n      swap3\n      swap2\n      pop\n      pop\n      jump\t// out\n        /* \"contracts/TenkStablePair.sol\":14643:15193  function _get_y(uint x0, uint xy, uint y) internal pure returns (uint) {\r... */\n    tag_527:\n        /* \"contracts/TenkStablePair.sol\":14708:14712  uint */\n      0x00\n        /* \"contracts/TenkStablePair.sol\":14726:14732  uint i */\n      dup1\n        /* \"contracts/TenkStablePair.sol\":14735:14736  0 */\n      0x00\n        /* \"contracts/TenkStablePair.sol\":14726:14736  uint i = 0 */\n      swap1\n      pop\n        /* \"contracts/TenkStablePair.sol\":14721:15173  for (uint i = 0; i < 255; i++) {\r... */\n    tag_543:\n        /* \"contracts/TenkStablePair.sol\":14742:14745  255 */\n      0xff\n        /* \"contracts/TenkStablePair.sol\":14738:14739  i */\n      dup2\n        /* \"contracts/TenkStablePair.sol\":14738:14745  i < 255 */\n      lt\n        /* \"contracts/TenkStablePair.sol\":14721:15173  for (uint i = 0; i < 255; i++) {\r... */\n      iszero\n      tag_544\n      jumpi\n        /* \"contracts/TenkStablePair.sol\":14761:14772  uint y_prev */\n      0x00\n        /* \"contracts/TenkStablePair.sol\":14775:14776  y */\n      dup4\n        /* \"contracts/TenkStablePair.sol\":14761:14776  uint y_prev = y */\n      swap1\n      pop\n        /* \"contracts/TenkStablePair.sol\":14785:14791  uint k */\n      0x00\n        /* \"contracts/TenkStablePair.sol\":14794:14803  _f(x0, y) */\n      tag_546\n        /* \"contracts/TenkStablePair.sol\":14797:14799  x0 */\n      dup8\n        /* \"contracts/TenkStablePair.sol\":14801:14802  y */\n      dup7\n        /* \"contracts/TenkStablePair.sol\":14794:14796  _f */\n      tag_547\n        /* \"contracts/TenkStablePair.sol\":14794:14803  _f(x0, y) */\n      jump\t// in\n    tag_546:\n        /* \"contracts/TenkStablePair.sol\":14785:14803  uint k = _f(x0, y) */\n      swap1\n      pop\n        /* \"contracts/TenkStablePair.sol\":14820:14822  xy */\n      dup6\n        /* \"contracts/TenkStablePair.sol\":14816:14817  k */\n      dup2\n        /* \"contracts/TenkStablePair.sol\":14816:14822  k < xy */\n      lt\n        /* \"contracts/TenkStablePair.sol\":14812:14988  if (k < xy) {\r... */\n      iszero\n      tag_548\n      jumpi\n        /* \"contracts/TenkStablePair.sol\":14835:14842  uint dy */\n      0x00\n        /* \"contracts/TenkStablePair.sol\":14863:14872  _d(x0, y) */\n      tag_549\n        /* \"contracts/TenkStablePair.sol\":14866:14868  x0 */\n      dup9\n        /* \"contracts/TenkStablePair.sol\":14870:14871  y */\n      dup8\n        /* \"contracts/TenkStablePair.sol\":14863:14865  _d */\n      tag_550\n        /* \"contracts/TenkStablePair.sol\":14863:14872  _d(x0, y) */\n      jump\t// in\n    tag_549:\n        /* \"contracts/TenkStablePair.sol\":14856:14860  1e18 */\n      0x0de0b6b3a7640000\n        /* \"contracts/TenkStablePair.sol\":14851:14852  k */\n      dup4\n        /* \"contracts/TenkStablePair.sol\":14846:14848  xy */\n      dup10\n        /* \"contracts/TenkStablePair.sol\":14846:14852  xy - k */\n      sub\n        /* \"contracts/TenkStablePair.sol\":14845:14860  (xy - k) * 1e18 */\n      mul\n        /* \"contracts/TenkStablePair.sol\":14845:14872  (xy - k) * 1e18 / _d(x0, y) */\n      dup2\n      tag_551\n      jumpi\n      invalid\n    tag_551:\n      div\n        /* \"contracts/TenkStablePair.sol\":14835:14872  uint dy = (xy - k) * 1e18 / _d(x0, y) */\n      swap1\n      pop\n        /* \"contracts/TenkStablePair.sol\":14891:14893  dy */\n      dup1\n        /* \"contracts/TenkStablePair.sol\":14887:14888  y */\n      dup7\n        /* \"contracts/TenkStablePair.sol\":14887:14893  y + dy */\n      add\n        /* \"contracts/TenkStablePair.sol\":14883:14893  y = y + dy */\n      swap6\n      pop\n        /* \"contracts/TenkStablePair.sol\":14812:14988  if (k < xy) {\r... */\n      pop\n      jump(tag_552)\n    tag_548:\n        /* \"contracts/TenkStablePair.sol\":14920:14927  uint dy */\n      0x00\n        /* \"contracts/TenkStablePair.sol\":14948:14957  _d(x0, y) */\n      tag_553\n        /* \"contracts/TenkStablePair.sol\":14951:14953  x0 */\n      dup9\n        /* \"contracts/TenkStablePair.sol\":14955:14956  y */\n      dup8\n        /* \"contracts/TenkStablePair.sol\":14948:14950  _d */\n      tag_550\n        /* \"contracts/TenkStablePair.sol\":14948:14957  _d(x0, y) */\n      jump\t// in\n    tag_553:\n        /* \"contracts/TenkStablePair.sol\":14941:14945  1e18 */\n      0x0de0b6b3a7640000\n        /* \"contracts/TenkStablePair.sol\":14935:14937  xy */\n      dup9\n        /* \"contracts/TenkStablePair.sol\":14931:14932  k */\n      dup5\n        /* \"contracts/TenkStablePair.sol\":14931:14937  k - xy */\n      sub\n        /* \"contracts/TenkStablePair.sol\":14930:14945  (k - xy) * 1e18 */\n      mul\n        /* \"contracts/TenkStablePair.sol\":14930:14957  (k - xy) * 1e18 / _d(x0, y) */\n      dup2\n      tag_554\n      jumpi\n      invalid\n    tag_554:\n      div\n        /* \"contracts/TenkStablePair.sol\":14920:14957  uint dy = (k - xy) * 1e18 / _d(x0, y) */\n      swap1\n      pop\n        /* \"contracts/TenkStablePair.sol\":14976:14978  dy */\n      dup1\n        /* \"contracts/TenkStablePair.sol\":14972:14973  y */\n      dup7\n        /* \"contracts/TenkStablePair.sol\":14972:14978  y - dy */\n      sub\n        /* \"contracts/TenkStablePair.sol\":14968:14978  y = y - dy */\n      swap6\n      pop\n        /* \"contracts/TenkStablePair.sol\":14812:14988  if (k < xy) {\r... */\n      pop\n    tag_552:\n        /* \"contracts/TenkStablePair.sol\":15004:15010  y_prev */\n      dup2\n        /* \"contracts/TenkStablePair.sol\":15000:15001  y */\n      dup6\n        /* \"contracts/TenkStablePair.sol\":15000:15010  y > y_prev */\n      gt\n        /* \"contracts/TenkStablePair.sol\":14996:15166  if (y > y_prev) {\r... */\n      iszero\n      tag_555\n      jumpi\n        /* \"contracts/TenkStablePair.sol\":15041:15042  1 */\n      0x01\n        /* \"contracts/TenkStablePair.sol\":15031:15037  y_prev */\n      dup3\n        /* \"contracts/TenkStablePair.sol\":15027:15028  y */\n      dup7\n        /* \"contracts/TenkStablePair.sol\":15027:15037  y - y_prev */\n      sub\n        /* \"contracts/TenkStablePair.sol\":15027:15042  y - y_prev <= 1 */\n      gt\n        /* \"contracts/TenkStablePair.sol\":15023:15077  if (y - y_prev <= 1) {\r... */\n      tag_556\n      jumpi\n        /* \"contracts/TenkStablePair.sol\":15064:15065  y */\n      dup5\n        /* \"contracts/TenkStablePair.sol\":15057:15065  return y */\n      swap4\n      pop\n      pop\n      pop\n      pop\n      jump(tag_542)\n        /* \"contracts/TenkStablePair.sol\":15023:15077  if (y - y_prev <= 1) {\r... */\n    tag_556:\n        /* \"contracts/TenkStablePair.sol\":14996:15166  if (y > y_prev) {\r... */\n      jump(tag_557)\n    tag_555:\n        /* \"contracts/TenkStablePair.sol\":15121:15122  1 */\n      0x01\n        /* \"contracts/TenkStablePair.sol\":15116:15117  y */\n      dup6\n        /* \"contracts/TenkStablePair.sol\":15107:15113  y_prev */\n      dup4\n        /* \"contracts/TenkStablePair.sol\":15107:15117  y_prev - y */\n      sub\n        /* \"contracts/TenkStablePair.sol\":15107:15122  y_prev - y <= 1 */\n      gt\n        /* \"contracts/TenkStablePair.sol\":15103:15157  if (y_prev - y <= 1) {\r... */\n      tag_558\n      jumpi\n        /* \"contracts/TenkStablePair.sol\":15144:15145  y */\n      dup5\n        /* \"contracts/TenkStablePair.sol\":15137:15145  return y */\n      swap4\n      pop\n      pop\n      pop\n      pop\n      jump(tag_542)\n        /* \"contracts/TenkStablePair.sol\":15103:15157  if (y_prev - y <= 1) {\r... */\n    tag_558:\n        /* \"contracts/TenkStablePair.sol\":14996:15166  if (y > y_prev) {\r... */\n    tag_557:\n        /* \"contracts/TenkStablePair.sol\":14721:15173  for (uint i = 0; i < 255; i++) {\r... */\n      pop\n      pop\n        /* \"contracts/TenkStablePair.sol\":14747:14750  i++ */\n      dup1\n      dup1\n      0x01\n      add\n      swap2\n      pop\n      pop\n        /* \"contracts/TenkStablePair.sol\":14721:15173  for (uint i = 0; i < 255; i++) {\r... */\n      jump(tag_543)\n    tag_544:\n      pop\n        /* \"contracts/TenkStablePair.sol\":15186:15187  y */\n      dup2\n        /* \"contracts/TenkStablePair.sol\":15179:15187  return y */\n      swap1\n      pop\n        /* \"contracts/TenkStablePair.sol\":14643:15193  function _get_y(uint x0, uint xy, uint y) internal pure returns (uint) {\r... */\n    tag_542:\n      swap4\n      swap3\n      pop\n      pop\n      pop\n      jump\t// out\n        /* \"contracts/TenkStablePair.sol\":15199:15356  function _f(uint x0, uint y) internal pure returns (uint) {\r... */\n    tag_547:\n        /* \"contracts/TenkStablePair.sol\":15251:15255  uint */\n      0x00\n        /* \"contracts/TenkStablePair.sol\":15346:15350  1e18 */\n      0x0de0b6b3a7640000\n        /* \"contracts/TenkStablePair.sol\":15342:15343  y */\n      dup3\n        /* \"contracts/TenkStablePair.sol\":15334:15338  1e18 */\n      0x0de0b6b3a7640000\n        /* \"contracts/TenkStablePair.sol\":15329:15331  x0 */\n      dup6\n        /* \"contracts/TenkStablePair.sol\":15322:15326  1e18 */\n      0x0de0b6b3a7640000\n        /* \"contracts/TenkStablePair.sol\":15317:15319  x0 */\n      dup8\n        /* \"contracts/TenkStablePair.sol\":15312:15314  x0 */\n      dup9\n        /* \"contracts/TenkStablePair.sol\":15312:15319  x0 * x0 */\n      mul\n        /* \"contracts/TenkStablePair.sol\":15312:15326  x0 * x0 / 1e18 */\n      dup2\n      tag_560\n      jumpi\n      invalid\n    tag_560:\n      div\n        /* \"contracts/TenkStablePair.sol\":15312:15331  x0 * x0 / 1e18 * x0 */\n      mul\n        /* \"contracts/TenkStablePair.sol\":15312:15338  x0 * x0 / 1e18 * x0 / 1e18 */\n      dup2\n      tag_561\n      jumpi\n      invalid\n    tag_561:\n      div\n        /* \"contracts/TenkStablePair.sol\":15311:15343  (x0 * x0 / 1e18 * x0 / 1e18) * y */\n      mul\n        /* \"contracts/TenkStablePair.sol\":15311:15350  (x0 * x0 / 1e18 * x0 / 1e18) * y / 1e18 */\n      dup2\n      tag_562\n      jumpi\n      invalid\n    tag_562:\n      div\n        /* \"contracts/TenkStablePair.sol\":15304:15308  1e18 */\n      0x0de0b6b3a7640000\n        /* \"contracts/TenkStablePair.sol\":15296:15300  1e18 */\n      dup1\n        /* \"contracts/TenkStablePair.sol\":15292:15293  y */\n      dup5\n        /* \"contracts/TenkStablePair.sol\":15285:15289  1e18 */\n      0x0de0b6b3a7640000\n        /* \"contracts/TenkStablePair.sol\":15281:15282  y */\n      dup7\n        /* \"contracts/TenkStablePair.sol\":15277:15278  y */\n      dup8\n        /* \"contracts/TenkStablePair.sol\":15277:15282  y * y */\n      mul\n        /* \"contracts/TenkStablePair.sol\":15277:15289  y * y / 1e18 */\n      dup2\n      tag_563\n      jumpi\n      invalid\n    tag_563:\n      div\n        /* \"contracts/TenkStablePair.sol\":15277:15293  y * y / 1e18 * y */\n      mul\n        /* \"contracts/TenkStablePair.sol\":15277:15300  y * y / 1e18 * y / 1e18 */\n      dup2\n      tag_564\n      jumpi\n      invalid\n    tag_564:\n      div\n        /* \"contracts/TenkStablePair.sol\":15271:15273  x0 */\n      dup6\n        /* \"contracts/TenkStablePair.sol\":15271:15301  x0 * (y * y / 1e18 * y / 1e18) */\n      mul\n        /* \"contracts/TenkStablePair.sol\":15271:15308  x0 * (y * y / 1e18 * y / 1e18) / 1e18 */\n      dup2\n      tag_565\n      jumpi\n      invalid\n    tag_565:\n      div\n        /* \"contracts/TenkStablePair.sol\":15271:15350  x0 * (y * y / 1e18 * y / 1e18) / 1e18 + (x0 * x0 / 1e18 * x0 / 1e18) * y / 1e18 */\n      add\n        /* \"contracts/TenkStablePair.sol\":15264:15350  return x0 * (y * y / 1e18 * y / 1e18) / 1e18 + (x0 * x0 / 1e18 * x0 / 1e18) * y / 1e18 */\n      swap1\n      pop\n        /* \"contracts/TenkStablePair.sol\":15199:15356  function _f(uint x0, uint y) internal pure returns (uint) {\r... */\n      swap3\n      swap2\n      pop\n      pop\n      jump\t// out\n        /* \"contracts/TenkStablePair.sol\":15362:15501  function _d(uint x0, uint y) internal pure returns (uint) {\r... */\n    tag_550:\n        /* \"contracts/TenkStablePair.sol\":15414:15418  uint */\n      0x00\n        /* \"contracts/TenkStablePair.sol\":15490:15494  1e18 */\n      0x0de0b6b3a7640000\n        /* \"contracts/TenkStablePair.sol\":15485:15487  x0 */\n      dup4\n        /* \"contracts/TenkStablePair.sol\":15478:15482  1e18 */\n      0x0de0b6b3a7640000\n        /* \"contracts/TenkStablePair.sol\":15473:15475  x0 */\n      dup6\n        /* \"contracts/TenkStablePair.sol\":15468:15470  x0 */\n      dup7\n        /* \"contracts/TenkStablePair.sol\":15468:15475  x0 * x0 */\n      mul\n        /* \"contracts/TenkStablePair.sol\":15468:15482  x0 * x0 / 1e18 */\n      dup2\n      tag_567\n      jumpi\n      invalid\n    tag_567:\n      div\n        /* \"contracts/TenkStablePair.sol\":15468:15487  x0 * x0 / 1e18 * x0 */\n      mul\n        /* \"contracts/TenkStablePair.sol\":15468:15494  x0 * x0 / 1e18 * x0 / 1e18 */\n      dup2\n      tag_568\n      jumpi\n      invalid\n    tag_568:\n      div\n        /* \"contracts/TenkStablePair.sol\":15460:15464  1e18 */\n      0x0de0b6b3a7640000\n        /* \"contracts/TenkStablePair.sol\":15452:15456  1e18 */\n      dup1\n        /* \"contracts/TenkStablePair.sol\":15448:15449  y */\n      dup5\n        /* \"contracts/TenkStablePair.sol\":15444:15445  y */\n      dup6\n        /* \"contracts/TenkStablePair.sol\":15444:15449  y * y */\n      mul\n        /* \"contracts/TenkStablePair.sol\":15444:15456  y * y / 1e18 */\n      dup2\n      tag_569\n      jumpi\n      invalid\n    tag_569:\n      div\n        /* \"contracts/TenkStablePair.sol\":15438:15440  x0 */\n      dup6\n        /* \"contracts/TenkStablePair.sol\":15434:15435  3 */\n      0x03\n        /* \"contracts/TenkStablePair.sol\":15434:15440  3 * x0 */\n      mul\n        /* \"contracts/TenkStablePair.sol\":15434:15457  3 * x0 * (y * y / 1e18) */\n      mul\n        /* \"contracts/TenkStablePair.sol\":15434:15464  3 * x0 * (y * y / 1e18) / 1e18 */\n      dup2\n      tag_570\n      jumpi\n      invalid\n    tag_570:\n      div\n        /* \"contracts/TenkStablePair.sol\":15434:15495  3 * x0 * (y * y / 1e18) / 1e18 + (x0 * x0 / 1e18 * x0 / 1e18) */\n      add\n        /* \"contracts/TenkStablePair.sol\":15427:15495  return 3 * x0 * (y * y / 1e18) / 1e18 + (x0 * x0 / 1e18 * x0 / 1e18) */\n      swap1\n      pop\n        /* \"contracts/TenkStablePair.sol\":15362:15501  function _d(uint x0, uint y) internal pure returns (uint) {\r... */\n      swap3\n      swap2\n      pop\n      pop\n      jump\t// out\n        /* \"contracts/TenkStablePair.sol\":263:18101  contract TenkStablePair is I10kStablePair, TenkERC20 {\r... */\n    tag_163:\n      mload(0x40)\n      dup1\n      0x0100\n      add\n      0x40\n      mstore\n      dup1\n      and(0xffffffffffffffffffffffffffffffffffffffff, 0x00)\n      dup2\n      mstore\n      0x20\n      add\n      and(0xffffffffffffffffffffffffffffffffffffffff, 0x00)\n      dup2\n      mstore\n      0x20\n      add\n      0x00\n      dup2\n      mstore\n      0x20\n      add\n      0x00\n      dup2\n      mstore\n      0x20\n      add\n      0x00\n      dup2\n      mstore\n      0x20\n      add\n      0x00\n      dup2\n      mstore\n      0x20\n      add\n      0x00\n      dup2\n      mstore\n      0x20\n      add\n      0x00\n      dup2\n      mstore\n      pop\n      swap1\n      jump\t// out\n    stop\n    data_0e37380231c63dd542c3187103d43bf3dc8feec0b6338e70e8209c96cba47625 31306b3a206f6e6c7920666163746f7279277320736574537461626c654f776e6572\n    data_34ffd81d2bf0b96acae486668fc9d6475667930df09e9039ee8381f9cc8ef0b1 31306b3a206f6e6c7920666163746f7279277320666565416d6f756e744f776e6572\n    data_45baaf65170b7d96ab118754b668eead3e0f148d8a45a6c0a60aec311cfcee2f 31306b3a2066656550657263656e74206d7573746e27742065786365656420746865206d6178696d756d\n    data_640c1a2bcb4b0e819d290be36ffb74fff17dd4659141ae0e8778f67d9638ba4c 31306b3a2066656550657263656e74206d7573746e27742065786365656420746865206d696e696d756d\n    data_8a472e50ec0b760c580c3dc8c62cdcf0fe39bab372eaf2d9e07261f1b72df71d 31306b3a20494e53554646494349454e545f4c49515549444954595f4d494e544544\n    data_a8f5b5742ea4f6d77e3ddeade1d79a13f37f3b0b50626b04c2c56458d8d3d5c7 31306b3a206c697175696469747920726174696f206e6f7420696e697469616c697a6564\n    data_e445a9437cf2a16b4c4a661deca6e9c597ce139bb56e2872aedda20402a5d4d9 31306b3a20494e53554646494349454e545f4c49515549444954595f4255524e4544\n\n    auxdata: 0xa265627a7a72315820ee8f3c6e2f98867d4967ab639c69f698d9aebd73707e24e7ca2713a5fb2ef17e64736f6c63430005100032\n}\n",
				"bytecode": {
					"linkReferences": {},
					"object": "608060405261012c6008601c6101000a81548161ffff021916908361ffff16021790555061012c6008601e6101000a81548161ffff021916908361ffff1602179055506001600d553480156200005457600080fd5b506000469050604051808062005f9260529139605201905060405180910390206040518060400160405280600a81526020017f43616d656c6f74204c5000000000000000000000000000000000000000000000815250805190602001206040518060400160405280600181526020017f3100000000000000000000000000000000000000000000000000000000000000815250805190602001208330604051602001808681526020018581526020018481526020018381526020018273ffffffffffffffffffffffffffffffffffffffff1673ffffffffffffffffffffffffffffffffffffffff16815260200195505050505050604051602081830303815290604052805190602001206003819055505033600560006101000a81548173ffffffffffffffffffffffffffffffffffffffff021916908373ffffffffffffffffffffffffffffffffffffffff160217905550615ddc80620001b66000396000f3fe608060405234801561001057600080fd5b50600436106102485760003560e01c80636a6278421161013b578063ba9a7a56116100b8578063d73792a91161007c578063d73792a914610c9c578063dd62ed3e14610cba578063f140a35a14610d32578063f39ac11f14610d94578063fff6cae914610df857610248565b8063ba9a7a5614610b0d578063bc25cf7714610b2b578063c45a015514610b6f578063d21220a714610bb9578063d505accf14610c0357610248565b806389afcb44116100ff57806389afcb441461098157806395d89b41146109e05780639e548b7f14610a63578063a9059cbb14610a85578063b6200b0714610aeb57610248565b80636a6278421461078e5780636e1fdd7f146107e657806370a08231146108b35780637464fc3d1461090b5780637ecebe001461092957610248565b80633029e5d4116101c95780633ba170771161018d5780633ba170771461069c578063485cc955146106a657806348e5d2601461070a57806362ecec031461074a57806367d817401461077057610248565b80633029e5d4146105ba57806330adf81f1461061e578063313ce5671461063c5780633644e515146106605780633b9f1dc01461067e57610248565b8063158ef93e11610210578063158ef93e146104b057806318160ddd146104d257806323b872dd146104f0578063288e5d02146105765780632fcd16921461059457610248565b8063022c0d9f1461024d57806306fdde03146102fa5780630902f1ac1461037d578063095ea7b3146104005780630dfe168114610466575b600080fd5b6102f86004803603608081101561026357600080fd5b810190808035906020019092919080359060200190929190803573ffffffffffffffffffffffffffffffffffffffff169060200190929190803590602001906401000000008111156102b457600080fd5b8201836020820111156102c657600080fd5b803590602001918460018302840111640100000000831117156102e857600080fd5b9091929391929390505050610e02565b005b610302610f13565b6040518080602001828103825283818151815260200191508051906020019080838360005b83811015610342578082015181840152602081019050610327565b50505050905090810190601f16801561036f5780820380516001836020036101000a031916815260200191505b509250505060405180910390f35b610385610f4c565b60405180856dffffffffffffffffffffffffffff166dffffffffffffffffffffffffffff168152602001846dffffffffffffffffffffffffffff166dffffffffffffffffffffffffffff1681526020018361ffff1661ffff1681526020018261ffff1661ffff16815260200194505050505060405180910390f35b61044c6004803603604081101561041657600080fd5b81019080803573ffffffffffffffffffffffffffffffffffffffff16906020019092919080359060200190929190505050610fbc565b604051808215151515815260200191505060405180910390f35b61046e610fd3565b604051808273ffffffffffffffffffffffffffffffffffffffff1673ffffffffffffffffffffffffffffffffffffffff16815260200191505060405180910390f35b6104b8610ff9565b604051808215151515815260200191505060405180910390f35b6104da61100c565b6040518082815260200191505060405180910390f35b61055c6004803603606081101561050657600080fd5b81019080803573ffffffffffffffffffffffffffffffffffffffff169060200190929190803573ffffffffffffffffffffffffffffffffffffffff16906020019092919080359060200190929190505050611012565b604051808215151515815260200191505060405180910390f35b61057e611248565b6040518082815260200191505060405180910390f35b61059c61124e565b604051808261ffff1661ffff16815260200191505060405180910390f35b61061c600480360360608110156105d057600080fd5b8101908080351515906020019092919080356dffffffffffffffffffffffffffff16906020019092919080356dffffffffffffffffffffffffffff169060200190929190505050611262565b005b61062661174e565b6040518082815260200191505060405180910390f35b610644611775565b604051808260ff1660ff16815260200191505060405180910390f35b61066861177a565b6040518082815260200191505060405180910390f35b610686611780565b6040518082815260200191505060405180910390f35b6106a4611786565b005b610708600480360360408110156106bc57600080fd5b81019080803573ffffffffffffffffffffffffffffffffffffffff169060200190929190803573ffffffffffffffffffffffffffffffffffffffff169060200190929190505050611a1d565b005b6107486004803603604081101561072057600080fd5b81019080803561ffff169060200190929190803561ffff169060200190929190505050611cb4565b005b610752611fcd565b604051808261ffff1661ffff16815260200191505060405180910390f35b610778611fe1565b6040518082815260200191505060405180910390f35b6107d0600480360360208110156107a457600080fd5b81019080803573ffffffffffffffffffffffffffffffffffffffff169060200190929190505050611fe7565b6040518082815260200191505060405180910390f35b6108b1600480360360a08110156107fc57600080fd5b810190808035906020019092919080359060200190929190803573ffffffffffffffffffffffffffffffffffffffff1690602001909291908035906020019064010000000081111561084d57600080fd5b82018360208201111561085f57600080fd5b8035906020019184600183028401116401000000008311171561088157600080fd5b9091929391929390803573ffffffffffffffffffffffffffffffffffffffff16906020019092919050505061248e565b005b6108f5600480360360208110156108c957600080fd5b81019080803573ffffffffffffffffffffffffffffffffffffffff16906020019092919050505061259f565b6040518082815260200191505060405180910390f35b6109136125b7565b6040518082815260200191505060405180910390f35b61096b6004803603602081101561093f57600080fd5b81019080803573ffffffffffffffffffffffffffffffffffffffff1690602001909291905050506125bd565b6040518082815260200191505060405180910390f35b6109c36004803603602081101561099757600080fd5b81019080803573ffffffffffffffffffffffffffffffffffffffff1690602001909291905050506125d5565b604051808381526020018281526020019250505060405180910390f35b6109e8612bb8565b6040518080602001828103825283818151815260200191508051906020019080838360005b83811015610a28578082015181840152602081019050610a0d565b50505050905090810190601f168015610a555780820380516001836020036101000a031916815260200191505b509250505060405180910390f35b610a6b612bf1565b604051808215151515815260200191505060405180910390f35b610ad160048036036040811015610a9b57600080fd5b81019080803573ffffffffffffffffffffffffffffffffffffffff16906020019092919080359060200190929190505050612c04565b604051808215151515815260200191505060405180910390f35b610af3612c1b565b604051808215151515815260200191505060405180910390f35b610b15612c2e565b6040518082815260200191505060405180910390f35b610b6d60048036036020811015610b4157600080fd5b81019080803573ffffffffffffffffffffffffffffffffffffffff169060200190929190505050612c34565b005b610b77612f3b565b604051808273ffffffffffffffffffffffffffffffffffffffff1673ffffffffffffffffffffffffffffffffffffffff16815260200191505060405180910390f35b610bc1612f61565b604051808273ffffffffffffffffffffffffffffffffffffffff1673ffffffffffffffffffffffffffffffffffffffff16815260200191505060405180910390f35b610c9a600480360360e0811015610c1957600080fd5b81019080803573ffffffffffffffffffffffffffffffffffffffff169060200190929190803573ffffffffffffffffffffffffffffffffffffffff1690602001909291908035906020019092919080359060200190929190803560ff1690602001909291908035906020019092919080359060200190929190505050612f87565b005b610ca46132cb565b6040518082815260200191505060405180910390f35b610d1c60048036036040811015610cd057600080fd5b81019080803573ffffffffffffffffffffffffffffffffffffffff169060200190929190803573ffffffffffffffffffffffffffffffffffffffff1690602001909291905050506132d2565b6040518082815260200191505060405180910390f35b610d7e60048036036040811015610d4857600080fd5b8101908080359060200190929190803573ffffffffffffffffffffffffffffffffffffffff1690602001909291905050506132f7565b6040518082815260200191505060405180910390f35b610df660048036036040811015610daa57600080fd5b81019080803573ffffffffffffffffffffffffffffffffffffffff169060200190929190803573ffffffffffffffffffffffffffffffffffffffff1690602001909291905050506133eb565b005b610e00613814565b005b610e0a615c36565b604051806101000160405280600660009054906101000a900473ffffffffffffffffffffffffffffffffffffffff1673ffffffffffffffffffffffffffffffffffffffff168152602001600760009054906101000a900473ffffffffffffffffffffffffffffffffffffffff1673ffffffffffffffffffffffffffffffffffffffff16815260200187815260200186815260200160008152602001600081526020016000815260200160008152509050610f0b818585858080601f016020809104026020016040519081016040528093929190818152602001838380828437600081840152601f19601f820116905080830192505050505050506000613acd565b505050505050565b6040518060400160405280600a81526020017f43616d656c6f74204c500000000000000000000000000000000000000000000081525081565b600080600080600860009054906101000a90046dffffffffffffffffffffffffffff1693506008600e9054906101000a90046dffffffffffffffffffffffffffff1692506008601c9054906101000a900461ffff1691506008601e9054906101000a900461ffff16905090919293565b6000610fc9338484614928565b6001905092915050565b600660009054906101000a900473ffffffffffffffffffffffffffffffffffffffff1681565b600760149054906101000a900460ff1681565b60005481565b60007fffffffffffffffffffffffffffffffffffffffffffffffffffffffffffffffff600260008673ffffffffffffffffffffffffffffffffffffffff1673ffffffffffffffffffffffffffffffffffffffff16815260200190815260200160002060003373ffffffffffffffffffffffffffffffffffffffff1673ffffffffffffffffffffffffffffffffffffffff168152602001908152602001600020541461123257600061114883600260008873ffffffffffffffffffffffffffffffffffffffff1673ffffffffffffffffffffffffffffffffffffffff16815260200190815260200160002060003373ffffffffffffffffffffffffffffffffffffffff1673ffffffffffffffffffffffffffffffffffffffff16815260200190815260200160002054614a1390919063ffffffff16565b905080600260008773ffffffffffffffffffffffffffffffffffffffff1673ffffffffffffffffffffffffffffffffffffffff16815260200190815260200160002060003373ffffffffffffffffffffffffffffffffffffffff1673ffffffffffffffffffffffffffffffffffffffff168152602001908152602001600020819055503373ffffffffffffffffffffffffffffffffffffffff168573ffffffffffffffffffffffffffffffffffffffff167f8c5be1e5ebec7d5bd14f71427d1e84f3dd0314c0f7b2291e5b200ac8c7c3b925836040518082815260200191505060405180910390a3505b61123d848484614a96565b600190509392505050565b600a5481565b6008601e9054906101000a900461ffff1681565b6001600d54146112da576040517f08c379a000000000000000000000000000000000000000000000000000000000815260040180806020018281038252600b8152602001807f31306b3a204c4f434b454400000000000000000000000000000000000000000081525060200191505060405180910390fd5b6000600d81905550600560009054906101000a900473ffffffffffffffffffffffffffffffffffffffff1673ffffffffffffffffffffffffffffffffffffffff1663fc39026a6040518163ffffffff1660e01b815260040160206040518083038186803b15801561134a57600080fd5b505afa15801561135e573d6000803e3d6000fd5b505050506040513d602081101561137457600080fd5b810190808051906020019092919050505073ffffffffffffffffffffffffffffffffffffffff163373ffffffffffffffffffffffffffffffffffffffff1614611408576040517f08c379a0000000000000000000000000000000000000000000000000000000008152600401808060200182810382526022815260200180615ca86022913960400191505060405180910390fd5b600c60019054906101000a900460ff161561148b576040517f08c379a000000000000000000000000000000000000000000000000000000000815260040180806020018281038252600e8152602001807f31306b3a20696d6d757461626c6500000000000000000000000000000000000081525060200191505060405180910390fd5b600c60009054906101000a900460ff1615158315151415611514576040517f08c379a000000000000000000000000000000000000000000000000000000000815260040180806020018281038252600e8152602001807f31306b3a206e6f2075706461746500000000000000000000000000000000000081525060200191505060405180910390fd5b600860009054906101000a90046dffffffffffffffffffffffffffff166dffffffffffffffffffffffffffff16826dffffffffffffffffffffffffffff1614801561159a57506008600e9054906101000a90046dffffffffffffffffffffffffffff166dffffffffffffffffffffffffffff16816dffffffffffffffffffffffffffff16145b61160c576040517f08c379a000000000000000000000000000000000000000000000000000000000815260040180806020018281038252600b8152602001807f31306b3a206661696c656400000000000000000000000000000000000000000081525060200191505060405180910390fd5b6000611650600860009054906101000a90046dffffffffffffffffffffffffffff166008600e9054906101000a90046dffffffffffffffffffffffffffff16614c2a565b90507fb6a86710bde53aa7fb1b3856279e2af5b476d53e2dd0902cf17a0911b5a43a8b600c60009054906101000a900460ff16856040518083151515158152602001821515151581526020019250505060405180910390a183600c60006101000a81548160ff0219169083151502179055508380156116cc5750805b6116d757600061173a565b611739600860009054906101000a90046dffffffffffffffffffffffffffff166dffffffffffffffffffffffffffff166008600e9054906101000a90046dffffffffffffffffffffffffffff166dffffffffffffffffffffffffffff16614e8c565b5b600b81905550506001600d81905550505050565b7f6e71edae12b1b97f4d1f60370fef10105fa2faae0126114a169c64845d6126c960001b81565b601281565b60035481565b60095481565b6001600d54146117fe576040517f08c379a000000000000000000000000000000000000000000000000000000000815260040180806020018281038252600b8152602001807f31306b3a204c4f434b454400000000000000000000000000000000000000000081525060200191505060405180910390fd5b6000600d81905550600560009054906101000a900473ffffffffffffffffffffffffffffffffffffffff1673ffffffffffffffffffffffffffffffffffffffff16638da5cb5b6040518163ffffffff1660e01b815260040160206040518083038186803b15801561186e57600080fd5b505afa158015611882573d6000803e3d6000fd5b505050506040513d602081101561189857600080fd5b810190808051906020019092919050505073ffffffffffffffffffffffffffffffffffffffff163373ffffffffffffffffffffffffffffffffffffffff1614611949576040517f08c379a00000000000000000000000000000000000000000000000000000000081526004018080602001828103825260198152602001807f31306b3a206f6e6c7920666163746f72792773206f776e65720000000000000081525060200191505060405180910390fd5b600c60019054906101000a900460ff16156119cc576040517f08c379a00000000000000000000000000000000000000000000000000000000081526004018080602001828103825260168152602001807f31306b3a20616c726561647920696d6d757461626c650000000000000000000081525060200191505060405180910390fd5b6001600c60016101000a81548160ff0219169083151502179055507f09122c41ae733a4d7740324d50e35fbd6ee85be3c1312a45596d8045150ab2f260405160405180910390a16001600d81905550565b600560009054906101000a900473ffffffffffffffffffffffffffffffffffffffff1673ffffffffffffffffffffffffffffffffffffffff163373ffffffffffffffffffffffffffffffffffffffff16148015611a875750600760149054906101000a900460ff16155b611af9576040517f08c379a000000000000000000000000000000000000000000000000000000000815260040180806020018281038252600e8152602001807f31306b3a20464f5242494444454e00000000000000000000000000000000000081525060200191505060405180910390fd5b81600660006101000a81548173ffffffffffffffffffffffffffffffffffffffff021916908373ffffffffffffffffffffffffffffffffffffffff16021790555080600760006101000a81548173ffffffffffffffffffffffffffffffffffffffff021916908373ffffffffffffffffffffffffffffffffffffffff1602179055508173ffffffffffffffffffffffffffffffffffffffff1663313ce5676040518163ffffffff1660e01b815260040160206040518083038186803b158015611bc157600080fd5b505afa158015611bd5573d6000803e3d6000fd5b505050506040513d6020811015611beb57600080fd5b810190808051906020019092919050505060ff16600a0a6009819055508073ffffffffffffffffffffffffffffffffffffffff1663313ce5676040518163ffffffff1660e01b815260040160206040518083038186803b158015611c4e57600080fd5b505afa158015611c62573d6000803e3d6000fd5b505050506040513d6020811015611c7857600080fd5b810190808051906020019092919050505060ff16600a0a600a819055506001600760146101000a81548160ff0219169083151502179055505050565b6001600d5414611d2c576040517f08c379a000000000000000000000000000000000000000000000000000000000815260040180806020018281038252600b8152602001807f31306b3a204c4f434b454400000000000000000000000000000000000000000081525060200191505060405180910390fd5b6000600d81905550600560009054906101000a900473ffffffffffffffffffffffffffffffffffffffff1673ffffffffffffffffffffffffffffffffffffffff16634c2177156040518163ffffffff1660e01b815260040160206040518083038186803b158015611d9c57600080fd5b505afa158015611db0573d6000803e3d6000fd5b505050506040513d6020811015611dc657600080fd5b810190808051906020019092919050505073ffffffffffffffffffffffffffffffffffffffff163373ffffffffffffffffffffffffffffffffffffffff1614611e5a576040517f08c379a0000000000000000000000000000000000000000000000000000000008152600401808060200182810382526022815260200180615cca6022913960400191505060405180910390fd5b6107d08261ffff1611158015611e7657506107d08161ffff1611155b611ecb576040517f08c379a000000000000000000000000000000000000000000000000000000000815260040180806020018281038252602a815260200180615cec602a913960400191505060405180910390fd5b60008261ffff16118015611ee3575060008161ffff16115b611f38576040517f08c379a000000000000000000000000000000000000000000000000000000000815260040180806020018281038252602a815260200180615d16602a913960400191505060405180910390fd5b816008601c6101000a81548161ffff021916908361ffff160217905550806008601e6101000a81548161ffff021916908361ffff1602179055507fa4877b8ecb5a00ba277e4bceeeb187a669e7113649774dfbea05c259ce27f17b8282604051808361ffff1661ffff1681526020018261ffff1661ffff1681526020019250505060405180910390a16001600d819055505050565b6008601c9054906101000a900461ffff1681565b6107d081565b60006001600d5414612061576040517f08c379a000000000000000000000000000000000000000000000000000000000815260040180806020018281038252600b8152602001807f31306b3a204c4f434b454400000000000000000000000000000000000000000081525060200191505060405180910390fd5b6000600d81905550600080612074610f4c565b5050915091506000600660009054906101000a900473ffffffffffffffffffffffffffffffffffffffff1673ffffffffffffffffffffffffffffffffffffffff166370a08231306040518263ffffffff1660e01b8152600401808273ffffffffffffffffffffffffffffffffffffffff1673ffffffffffffffffffffffffffffffffffffffff16815260200191505060206040518083038186803b15801561211b57600080fd5b505afa15801561212f573d6000803e3d6000fd5b505050506040513d602081101561214557600080fd5b810190808051906020019092919050505090506000600760009054906101000a900473ffffffffffffffffffffffffffffffffffffffff1673ffffffffffffffffffffffffffffffffffffffff166370a08231306040518263ffffffff1660e01b8152600401808273ffffffffffffffffffffffffffffffffffffffff1673ffffffffffffffffffffffffffffffffffffffff16815260200191505060206040518083038186803b1580156121f957600080fd5b505afa15801561220d573d6000803e3d6000fd5b505050506040513d602081101561222357600080fd5b81019080805190602001909291905050509050600061225b856dffffffffffffffffffffffffffff1684614a1390919063ffffffff16565b90506000612282856dffffffffffffffffffffffffffff1684614a1390919063ffffffff16565b905060006122908787614c2a565b905060008054905060008114156122e4576122d06103e86122c26122bd8688614fc790919063ffffffff16565b61505c565b614a1390919063ffffffff16565b98506122df60006103e86150be565b612347565b612344886dffffffffffffffffffffffffffff1661230b8387614fc790919063ffffffff16565b8161231257fe5b04886dffffffffffffffffffffffffffff166123378487614fc790919063ffffffff16565b8161233e57fe5b046151d8565b98505b600089116123a0576040517f08c379a0000000000000000000000000000000000000000000000000000000008152600401808060200182810382526022815260200180615d406022913960400191505060405180910390fd5b6123aa8a8a6150be565b6123b486866151f1565b81156124235761241c600860009054906101000a90046dffffffffffffffffffffffffffff166dffffffffffffffffffffffffffff166008600e9054906101000a90046dffffffffffffffffffffffffffff166dffffffffffffffffffffffffffff16614e8c565b600b819055505b3373ffffffffffffffffffffffffffffffffffffffff167f4c209b5fc8ad50758f13e2e1088ba56a560dff690a1c6fef26394f4c03821c4f8585604051808381526020018281526020019250505060405180910390a250505050505050506001600d81905550919050565b612496615c36565b604051806101000160405280600660009054906101000a900473ffffffffffffffffffffffffffffffffffffffff1673ffffffffffffffffffffffffffffffffffffffff168152602001600760009054906101000a900473ffffffffffffffffffffffffffffffffffffffff1673ffffffffffffffffffffffffffffffffffffffff16815260200188815260200187815260200160008152602001600081526020016000815260200160008152509050612596818686868080601f016020809104026020016040519081016040528093929190818152602001838380828437600081840152601f19601f8201169050808301925050505050505085613acd565b50505050505050565b60016020528060005260406000206000915090505481565b600b5481565b60046020528060005260406000206000915090505481565b6000806001600d5414612650576040517f08c379a000000000000000000000000000000000000000000000000000000000815260040180806020018281038252600b8152602001807f31306b3a204c4f434b454400000000000000000000000000000000000000000081525060200191505060405180910390fd5b6000600d81905550600080612663610f4c565b5050915091506000600660009054906101000a900473ffffffffffffffffffffffffffffffffffffffff1690506000600760009054906101000a900473ffffffffffffffffffffffffffffffffffffffff16905060008273ffffffffffffffffffffffffffffffffffffffff166370a08231306040518263ffffffff1660e01b8152600401808273ffffffffffffffffffffffffffffffffffffffff1673ffffffffffffffffffffffffffffffffffffffff16815260200191505060206040518083038186803b15801561273657600080fd5b505afa15801561274a573d6000803e3d6000fd5b505050506040513d602081101561276057600080fd5b8101908080519060200190929190505050905060008273ffffffffffffffffffffffffffffffffffffffff166370a08231306040518263ffffffff1660e01b8152600401808273ffffffffffffffffffffffffffffffffffffffff1673ffffffffffffffffffffffffffffffffffffffff16815260200191505060206040518083038186803b1580156127f257600080fd5b505afa158015612806573d6000803e3d6000fd5b505050506040513d602081101561281c57600080fd5b810190808051906020019092919050505090506000600160003073ffffffffffffffffffffffffffffffffffffffff1673ffffffffffffffffffffffffffffffffffffffff168152602001908152602001600020549050600061287f8888614c2a565b90506000805490508061289b8685614fc790919063ffffffff16565b816128a257fe5b049a50806128b98585614fc790919063ffffffff16565b816128c057fe5b04995060008b1180156128d3575060008a115b612928576040517f08c379a0000000000000000000000000000000000000000000000000000000008152600401808060200182810382526022815260200180615d866022913960400191505060405180910390fd5b61293230846153c0565b61293d878d8d6154da565b612948868d8c6154da565b8673ffffffffffffffffffffffffffffffffffffffff166370a08231306040518263ffffffff1660e01b8152600401808273ffffffffffffffffffffffffffffffffffffffff1673ffffffffffffffffffffffffffffffffffffffff16815260200191505060206040518083038186803b1580156129c557600080fd5b505afa1580156129d9573d6000803e3d6000fd5b505050506040513d60208110156129ef57600080fd5b810190808051906020019092919050505094508573ffffffffffffffffffffffffffffffffffffffff166370a08231306040518263ffffffff1660e01b8152600401808273ffffffffffffffffffffffffffffffffffffffff1673ffffffffffffffffffffffffffffffffffffffff16815260200191505060206040518083038186803b158015612a7f57600080fd5b505afa158015612a93573d6000803e3d6000fd5b505050506040513d6020811015612aa957600080fd5b81019080805190602001909291905050509350612ac685856151f1565b8115612b3557612b2e600860009054906101000a90046dffffffffffffffffffffffffffff166dffffffffffffffffffffffffffff166008600e9054906101000a90046dffffffffffffffffffffffffffff166dffffffffffffffffffffffffffff16614e8c565b600b819055505b8b73ffffffffffffffffffffffffffffffffffffffff163373ffffffffffffffffffffffffffffffffffffffff167fdccd412f0b1252819cb1fd330b93224ca42612892bb3f4f789976e6d819364968d8d604051808381526020018281526020019250505060405180910390a35050505050505050506001600d81905550915091565b6040518060400160405280600781526020017f434d4c542d4c500000000000000000000000000000000000000000000000000081525081565b600c60009054906101000a900460ff1681565b6000612c11338484614a96565b6001905092915050565b600c60019054906101000a900460ff1681565b6103e881565b6001600d5414612cac576040517f08c379a000000000000000000000000000000000000000000000000000000000815260040180806020018281038252600b8152602001807f31306b3a204c4f434b454400000000000000000000000000000000000000000081525060200191505060405180910390fd5b6000600d819055506000600660009054906101000a900473ffffffffffffffffffffffffffffffffffffffff1690506000600760009054906101000a900473ffffffffffffffffffffffffffffffffffffffff169050612e028284612dfd600860009054906101000a90046dffffffffffffffffffffffffffff166dffffffffffffffffffffffffffff168673ffffffffffffffffffffffffffffffffffffffff166370a08231306040518263ffffffff1660e01b8152600401808273ffffffffffffffffffffffffffffffffffffffff1673ffffffffffffffffffffffffffffffffffffffff16815260200191505060206040518083038186803b158015612db457600080fd5b505afa158015612dc8573d6000803e3d6000fd5b505050506040513d6020811015612dde57600080fd5b8101908080519060200190929190505050614a1390919063ffffffff16565b6154da565b612f028184612efd6008600e9054906101000a90046dffffffffffffffffffffffffffff166dffffffffffffffffffffffffffff168573ffffffffffffffffffffffffffffffffffffffff166370a08231306040518263ffffffff1660e01b8152600401808273ffffffffffffffffffffffffffffffffffffffff1673ffffffffffffffffffffffffffffffffffffffff16815260200191505060206040518083038186803b158015612eb457600080fd5b505afa158015612ec8573d6000803e3d6000fd5b505050506040513d6020811015612ede57600080fd5b8101908080519060200190929190505050614a1390919063ffffffff16565b6154da565b7f21ad22495c9c75cd1c94756f91824e779c0c8a8e168b267c790df464fe056b7960405160405180910390a150506001600d8190555050565b600560009054906101000a900473ffffffffffffffffffffffffffffffffffffffff1681565b600760009054906101000a900473ffffffffffffffffffffffffffffffffffffffff1681565b42841015612ffd576040517f08c379a00000000000000000000000000000000000000000000000000000000081526004018080602001828103825260128152602001807f556e697377617056323a2045585049524544000000000000000000000000000081525060200191505060405180910390fd5b60006003547f6e71edae12b1b97f4d1f60370fef10105fa2faae0126114a169c64845d6126c960001b898989600460008e73ffffffffffffffffffffffffffffffffffffffff1673ffffffffffffffffffffffffffffffffffffffff1681526020019081526020016000206000815480929190600101919050558a604051602001808781526020018673ffffffffffffffffffffffffffffffffffffffff1673ffffffffffffffffffffffffffffffffffffffff1681526020018573ffffffffffffffffffffffffffffffffffffffff1673ffffffffffffffffffffffffffffffffffffffff16815260200184815260200183815260200182815260200196505050505050506040516020818303038152906040528051906020012060405160200180807f190100000000000000000000000000000000000000000000000000000000000081525060020183815260200182815260200192505050604051602081830303815290604052805190602001209050600060018286868660405160008152602001604052604051808581526020018460ff1660ff1681526020018381526020018281526020019450505050506020604051602081039080840390855afa1580156131cf573d6000803e3d6000fd5b505050602060405103519050600073ffffffffffffffffffffffffffffffffffffffff168173ffffffffffffffffffffffffffffffffffffffff161415801561324357508873ffffffffffffffffffffffffffffffffffffffff168173ffffffffffffffffffffffffffffffffffffffff16145b6132b5576040517f08c379a000000000000000000000000000000000000000000000000000000000815260040180806020018281038252601c8152602001807f556e697377617056323a20494e56414c49445f5349474e41545552450000000081525060200191505060405180910390fd5b6132c0898989614928565b505050505050505050565b620186a081565b6002602052816000526040600020602052806000526040600020600091509150505481565b600080600660009054906101000a900473ffffffffffffffffffffffffffffffffffffffff1673ffffffffffffffffffffffffffffffffffffffff168373ffffffffffffffffffffffffffffffffffffffff1614613365576008601e9054906101000a900461ffff16613377565b6008601c9054906101000a900461ffff165b90506133e28484600860009054906101000a90046dffffffffffffffffffffffffffff166dffffffffffffffffffffffffffff166008600e9054906101000a90046dffffffffffffffffffffffffffff166dffffffffffffffffffffffffffff168561ffff16615727565b91505092915050565b6001600d5414613463576040517f08c379a000000000000000000000000000000000000000000000000000000000815260040180806020018281038252600b8152602001807f31306b3a204c4f434b454400000000000000000000000000000000000000000081525060200191505060405180910390fd5b6000600d81905550600560009054906101000a900473ffffffffffffffffffffffffffffffffffffffff1673ffffffffffffffffffffffffffffffffffffffff16638da5cb5b6040518163ffffffff1660e01b815260040160206040518083038186803b1580156134d357600080fd5b505afa1580156134e7573d6000803e3d6000fd5b505050506040513d60208110156134fd57600080fd5b810190808051906020019092919050505073ffffffffffffffffffffffffffffffffffffffff163373ffffffffffffffffffffffffffffffffffffffff16146135ae576040517f08c379a00000000000000000000000000000000000000000000000000000000081526004018080602001828103825260198152602001807f31306b3a206f6e6c7920666163746f72792773206f776e65720000000000000081525060200191505060405180910390fd5b600660009054906101000a900473ffffffffffffffffffffffffffffffffffffffff1673ffffffffffffffffffffffffffffffffffffffff168273ffffffffffffffffffffffffffffffffffffffff161415801561365a5750600760009054906101000a900473ffffffffffffffffffffffffffffffffffffffff1673ffffffffffffffffffffffffffffffffffffffff168273ffffffffffffffffffffffffffffffffffffffff1614155b6136cc576040517f08c379a00000000000000000000000000000000000000000000000000000000081526004018080602001828103825260128152602001807f31306b3a20696e76616c696420746f6b656e000000000000000000000000000081525060200191505060405180910390fd5b61378e82828473ffffffffffffffffffffffffffffffffffffffff166370a08231306040518263ffffffff1660e01b8152600401808273ffffffffffffffffffffffffffffffffffffffff1673ffffffffffffffffffffffffffffffffffffffff16815260200191505060206040518083038186803b15801561374e57600080fd5b505afa158015613762573d6000803e3d6000fd5b505050506040513d602081101561377857600080fd5b81019080805190602001909291905050506154da565b8173ffffffffffffffffffffffffffffffffffffffff167f368a9dc863ecb94b5ba32a682e26295b10d9c2666fad7d785ebdf262c3c5241382604051808273ffffffffffffffffffffffffffffffffffffffff1673ffffffffffffffffffffffffffffffffffffffff16815260200191505060405180910390a26001600d819055505050565b6001600d541461388c576040517f08c379a000000000000000000000000000000000000000000000000000000000815260040180806020018281038252600b8152602001807f31306b3a204c4f434b454400000000000000000000000000000000000000000081525060200191505060405180910390fd5b6000600d819055506000600660009054906101000a900473ffffffffffffffffffffffffffffffffffffffff1673ffffffffffffffffffffffffffffffffffffffff166370a08231306040518263ffffffff1660e01b8152600401808273ffffffffffffffffffffffffffffffffffffffff1673ffffffffffffffffffffffffffffffffffffffff16815260200191505060206040518083038186803b15801561393557600080fd5b505afa158015613949573d6000803e3d6000fd5b505050506040513d602081101561395f57600080fd5b810190808051906020019092919050505090506000600760009054906101000a900473ffffffffffffffffffffffffffffffffffffffff1673ffffffffffffffffffffffffffffffffffffffff166370a08231306040518263ffffffff1660e01b8152600401808273ffffffffffffffffffffffffffffffffffffffff1673ffffffffffffffffffffffffffffffffffffffff16815260200191505060206040518083038186803b158015613a1357600080fd5b505afa158015613a27573d6000803e3d6000fd5b505050506040513d6020811015613a3d57600080fd5b8101908080519060200190929190505050905060008214158015613a62575060008114155b613ab7576040517f08c379a0000000000000000000000000000000000000000000000000000000008152600401808060200182810382526024815260200180615d626024913960400191505060405180910390fd5b613ac182826151f1565b50506001600d81905550565b6001600d5414613b45576040517f08c379a000000000000000000000000000000000000000000000000000000000815260040180806020018281038252600b8152602001807f31306b3a204c4f434b454400000000000000000000000000000000000000000081525060200191505060405180910390fd5b6000600d81905550600084604001511180613b64575060008460600151115b613bd6576040517f08c379a000000000000000000000000000000000000000000000000000000000815260040180806020018281038252601f8152602001807f31306b3a20494e53554646494349454e545f4f55545055545f414d4f554e540081525060200191505060405180910390fd5b600080600080613be4610f4c565b9350935093509350836dffffffffffffffffffffffffffff168860400151108015613c225750826dffffffffffffffffffffffffffff168860600151105b613c94576040517f08c379a000000000000000000000000000000000000000000000000000000000815260040180806020018281038252601b8152602001807f31306b3a20494e53554646494349454e545f4c4951554944495459000000000081525060200191505060405180910390fd5b876000015173ffffffffffffffffffffffffffffffffffffffff168773ffffffffffffffffffffffffffffffffffffffff1614158015613d045750876020015173ffffffffffffffffffffffffffffffffffffffff168773ffffffffffffffffffffffffffffffffffffffff1614155b613d76576040517f08c379a000000000000000000000000000000000000000000000000000000000815260040180806020018281038252600f8152602001807f31306b3a20494e56414c49445f544f000000000000000000000000000000000081525060200191505060405180910390fd5b600088604001511115613d9757613d968860000151888a604001516154da565b5b600088606001511115613db857613db78860200151888a606001516154da565b5b600086511115613edf578673ffffffffffffffffffffffffffffffffffffffff166310d1e85c338a604001518b606001518a6040518563ffffffff1660e01b8152600401808573ffffffffffffffffffffffffffffffffffffffff1673ffffffffffffffffffffffffffffffffffffffff16815260200184815260200183815260200180602001828103825283818151815260200191508051906020019080838360005b83811015613e77578082015181840152602081019050613e5c565b50505050905090810190601f168015613ea45780820380516001836020036101000a031916815260200191505b5095505050505050600060405180830381600087803b158015613ec657600080fd5b505af1158015613eda573d6000803e3d6000fd5b505050505b876000015173ffffffffffffffffffffffffffffffffffffffff166370a08231306040518263ffffffff1660e01b8152600401808273ffffffffffffffffffffffffffffffffffffffff1673ffffffffffffffffffffffffffffffffffffffff16815260200191505060206040518083038186803b158015613f6057600080fd5b505afa158015613f74573d6000803e3d6000fd5b505050506040513d6020811015613f8a57600080fd5b8101908080519060200190929190505050886080018181525050876020015173ffffffffffffffffffffffffffffffffffffffff166370a08231306040518263ffffffff1660e01b8152600401808273ffffffffffffffffffffffffffffffffffffffff1673ffffffffffffffffffffffffffffffffffffffff16815260200191505060206040518083038186803b15801561402557600080fd5b505afa158015614039573d6000803e3d6000fd5b505050506040513d602081101561404f57600080fd5b81019080805190602001909291905050508860a001818152505060008860400151856dffffffffffffffffffffffffffff16038960800151116140935760006140b1565b8860400151856dffffffffffffffffffffffffffff16038960800151035b905060008960600151856dffffffffffffffffffffffffffff16038a60a00151116140dd5760006140fb565b8960600151856dffffffffffffffffffffffffffff16038a60a00151035b9050600082118061410c5750600081115b61417e576040517f08c379a000000000000000000000000000000000000000000000000000000000815260040180806020018281038252601e8152602001807f31306b3a20494e53554646494349454e545f494e5055545f414d4f554e54000081525060200191505060405180910390fd5b620186a06141998561ffff1684614fc790919063ffffffff16565b816141a057fe5b048a60c0018181525050620186a06141c58461ffff1683614fc790919063ffffffff16565b816141cc57fe5b048a60e0018181525050600080905060008073ffffffffffffffffffffffffffffffffffffffff168973ffffffffffffffffffffffffffffffffffffffff1614156142185760006142f3565b600560009054906101000a900473ffffffffffffffffffffffffffffffffffffffff1673ffffffffffffffffffffffffffffffffffffffff16637183d47c8a6040518263ffffffff1660e01b8152600401808273ffffffffffffffffffffffffffffffffffffffff1673ffffffffffffffffffffffffffffffffffffffff16815260200191505060206040518083038186803b1580156142b757600080fd5b505afa1580156142cb573d6000803e3d6000fd5b505050506040513d60208110156142e157600080fd5b81019080805190602001909291905050505b905060008111156143e5576000841115614371576002620186a00a6143378761ffff166143298488614fc790919063ffffffff16565b614fc790919063ffffffff16565b8161433e57fe5b049150614358828d60c00151614a1390919063ffffffff16565b8c60c00181815250506143708c600001518a846154da565b5b60008311156143e4576002620186a00a6143aa8661ffff1661439c8487614fc790919063ffffffff16565b614fc790919063ffffffff16565b816143b157fe5b0491506143cb828d60e00151614a1390919063ffffffff16565b8c60e00181815250506143e38c602001518a846154da565b5b5b600c60009054906101000a900460ff16156145f557600080600560009054906101000a900473ffffffffffffffffffffffffffffffffffffffff1673ffffffffffffffffffffffffffffffffffffffff1663995b5aae6040518163ffffffff1660e01b8152600401604080518083038186803b15801561446457600080fd5b505afa158015614478573d6000803e3d6000fd5b505050506040513d604081101561448e57600080fd5b81019080805190602001909291908051906020019092919050505091509150600073ffffffffffffffffffffffffffffffffffffffff168173ffffffffffffffffffffffffffffffffffffffff16146145f257614509826144fb85620186a0614a1390919063ffffffff16565b614fc790919063ffffffff16565b9150600086111561457e576003620186a00a6145448961ffff16614536858a614fc790919063ffffffff16565b614fc790919063ffffffff16565b8161454b57fe5b049350614565848f60c00151614a1390919063ffffffff16565b8e60c001818152505061457d8e6000015182866154da565b5b60008511156145f1576003620186a00a6145b78861ffff166145a98589614fc790919063ffffffff16565b614fc790919063ffffffff16565b816145be57fe5b0493506145d8848f60e00151614a1390919063ffffffff16565b8e60e00181815250506145f08e6020015182866154da565b5b5b50505b60008411156146c4578b6000015173ffffffffffffffffffffffffffffffffffffffff166370a08231306040518263ffffffff1660e01b8152600401808273ffffffffffffffffffffffffffffffffffffffff1673ffffffffffffffffffffffffffffffffffffffff16815260200191505060206040518083038186803b15801561467f57600080fd5b505afa158015614693573d6000803e3d6000fd5b505050506040513d60208110156146a957600080fd5b81019080805190602001909291905050508c60800181815250505b6000831115614793578b6020015173ffffffffffffffffffffffffffffffffffffffff166370a08231306040518263ffffffff1660e01b8152600401808273ffffffffffffffffffffffffffffffffffffffff1673ffffffffffffffffffffffffffffffffffffffff16815260200191505060206040518083038186803b15801561474e57600080fd5b505afa158015614762573d6000803e3d6000fd5b505050506040513d602081101561477857600080fd5b81019080805190602001909291905050508c60a00181815250505b505060006147b28b60c001518c60800151614a1390919063ffffffff16565b905060006147d18c60e001518d60a00151614a1390919063ffffffff16565b90506147fd886dffffffffffffffffffffffffffff16886dffffffffffffffffffffffffffff16614e8c565b6148078383614e8c565b101561487b576040517f08c379a00000000000000000000000000000000000000000000000000000000081526004018080602001828103825260068152602001807f31306b3a204b000000000000000000000000000000000000000000000000000081525060200191505060405180910390fd5b505061488f8a608001518b60a001516151f1565b8873ffffffffffffffffffffffffffffffffffffffff163373ffffffffffffffffffffffffffffffffffffffff167fd78ad95fa46c994b6551d0da85fc275fe613ce37657fb8d5e3d130840159d82284848e604001518f606001516040518085815260200184815260200183815260200182815260200194505050505060405180910390a35050505050506001600d8190555050505050565b80600260008573ffffffffffffffffffffffffffffffffffffffff1673ffffffffffffffffffffffffffffffffffffffff16815260200190815260200160002060008473ffffffffffffffffffffffffffffffffffffffff1673ffffffffffffffffffffffffffffffffffffffff168152602001908152602001600020819055508173ffffffffffffffffffffffffffffffffffffffff168373ffffffffffffffffffffffffffffffffffffffff167f8c5be1e5ebec7d5bd14f71427d1e84f3dd0314c0f7b2291e5b200ac8c7c3b925836040518082815260200191505060405180910390a3505050565b6000828284039150811115614a90576040517f08c379a00000000000000000000000000000000000000000000000000000000081526004018080602001828103825260158152602001807f64732d6d6174682d7375622d756e646572666c6f77000000000000000000000081525060200191505060405180910390fd5b92915050565b614ae881600160008673ffffffffffffffffffffffffffffffffffffffff1673ffffffffffffffffffffffffffffffffffffffff16815260200190815260200160002054614a1390919063ffffffff16565b600160008573ffffffffffffffffffffffffffffffffffffffff1673ffffffffffffffffffffffffffffffffffffffff16815260200190815260200160002081905550614b7d81600160008573ffffffffffffffffffffffffffffffffffffffff1673ffffffffffffffffffffffffffffffffffffffff16815260200190815260200160002054615a1190919063ffffffff16565b600160008473ffffffffffffffffffffffffffffffffffffffff1673ffffffffffffffffffffffffffffffffffffffff168152602001908152602001600020819055508173ffffffffffffffffffffffffffffffffffffffff168373ffffffffffffffffffffffffffffffffffffffff167fddf252ad1be2c89b69c2b068fc378daa952ba7f163c4a11628f55a4df523b3ef836040518082815260200191505060405180910390a3505050565b6000600c60009054906101000a900460ff1615614c4a5760009050614e86565b600080600560009054906101000a900473ffffffffffffffffffffffffffffffffffffffff1673ffffffffffffffffffffffffffffffffffffffff1663995b5aae6040518163ffffffff1660e01b8152600401604080518083038186803b158015614cb457600080fd5b505afa158015614cc8573d6000803e3d6000fd5b505050506040513d6040811015614cde57600080fd5b81019080805190602001909291908051906020019092919050505091509150600073ffffffffffffffffffffffffffffffffffffffff168173ffffffffffffffffffffffffffffffffffffffff16141592506000600b5490508315614e705760008114614e6b576000614d79614d74886dffffffffffffffffffffffffffff16886dffffffffffffffffffffffffffff16614e8c565b61505c565b90506000614d868361505c565b905080821115614e68576000614dc5606487614daf6064620186a0614fc790919063ffffffff16565b81614db657fe5b04614a1390919063ffffffff16565b90506000614e036064614df5614de48688614a1390919063ffffffff16565b600054614fc790919063ffffffff16565b614fc790919063ffffffff16565b90506000614e3f614e1e606486614fc790919063ffffffff16565b614e318588614fc790919063ffffffff16565b615a1190919063ffffffff16565b90506000818381614e4c57fe5b0490506000811115614e6357614e6288826150be565b5b505050505b50505b614e82565b60008114614e81576000600b819055505b5b5050505b92915050565b6000600c60009054906101000a900460ff1615614fab576000600954614ec3670de0b6b3a764000086614fc790919063ffffffff16565b81614eca57fe5b0490506000600a54614eed670de0b6b3a764000086614fc790919063ffffffff16565b81614ef457fe5b0490506000670de0b6b3a7640000614f158385614fc790919063ffffffff16565b81614f1c57fe5b0490506000614f7a670de0b6b3a7640000614f408586614fc790919063ffffffff16565b81614f4757fe5b04670de0b6b3a7640000614f648788614fc790919063ffffffff16565b81614f6b57fe5b04615a1190919063ffffffff16565b9050670de0b6b3a7640000614f988284614fc790919063ffffffff16565b81614f9f57fe5b04945050505050614fc1565b614fbe8284614fc790919063ffffffff16565b90505b92915050565b600080821480614fe45750828283850292508281614fe157fe5b04145b615056576040517f08c379a00000000000000000000000000000000000000000000000000000000081526004018080602001828103825260148152602001807f64732d6d6174682d6d756c2d6f766572666c6f7700000000000000000000000081525060200191505060405180910390fd5b92915050565b600060038211156150ab57819050600060016002848161507857fe5b040190505b818110156150a55780915060028182858161509457fe5b04018161509d57fe5b04905061507d565b506150b9565b600082146150b857600190505b5b919050565b6150d381600054615a1190919063ffffffff16565b60008190555061512b81600160008573ffffffffffffffffffffffffffffffffffffffff1673ffffffffffffffffffffffffffffffffffffffff16815260200190815260200160002054615a1190919063ffffffff16565b600160008473ffffffffffffffffffffffffffffffffffffffff1673ffffffffffffffffffffffffffffffffffffffff168152602001908152602001600020819055508173ffffffffffffffffffffffffffffffffffffffff16600073ffffffffffffffffffffffffffffffffffffffff167fddf252ad1be2c89b69c2b068fc378daa952ba7f163c4a11628f55a4df523b3ef836040518082815260200191505060405180910390a35050565b60008183106151e757816151e9565b825b905092915050565b7fffffffffffffffffffffffffffffffffffffffffffffffffffffffffffffffff6dffffffffffffffffffffffffffff16821115801561526157507fffffffffffffffffffffffffffffffffffffffffffffffffffffffffffffffff6dffffffffffffffffffffffffffff168111155b6152d3576040517f08c379a000000000000000000000000000000000000000000000000000000000815260040180806020018281038252600d8152602001807f31306b3a204f564552464c4f570000000000000000000000000000000000000081525060200191505060405180910390fd5b81600860006101000a8154816dffffffffffffffffffffffffffff02191690836dffffffffffffffffffffffffffff160217905550806008600e6101000a8154816dffffffffffffffffffffffffffff02191690836dffffffffffffffffffffffffffff1602179055507f1c411e9a96e071241c2f21f7726b17ae89e3cab4c78be50e062b03a9fffbbad1828260405180836dffffffffffffffffffffffffffff166dffffffffffffffffffffffffffff168152602001826dffffffffffffffffffffffffffff166dffffffffffffffffffffffffffff1681526020019250505060405180910390a15050565b61541281600160008573ffffffffffffffffffffffffffffffffffffffff1673ffffffffffffffffffffffffffffffffffffffff16815260200190815260200160002054614a1390919063ffffffff16565b600160008473ffffffffffffffffffffffffffffffffffffffff1673ffffffffffffffffffffffffffffffffffffffff1681526020019081526020016000208190555061546a81600054614a1390919063ffffffff16565b600081905550600073ffffffffffffffffffffffffffffffffffffffff168273ffffffffffffffffffffffffffffffffffffffff167fddf252ad1be2c89b69c2b068fc378daa952ba7f163c4a11628f55a4df523b3ef836040518082815260200191505060405180910390a35050565b600060608473ffffffffffffffffffffffffffffffffffffffff166040518060400160405280601981526020017f7472616e7366657228616464726573732c75696e743235362900000000000000815250805190602001208585604051602401808373ffffffffffffffffffffffffffffffffffffffff1673ffffffffffffffffffffffffffffffffffffffff16815260200182815260200192505050604051602081830303815290604052907bffffffffffffffffffffffffffffffffffffffffffffffffffffffff19166020820180517bffffffffffffffffffffffffffffffffffffffffffffffffffffffff83818316178352505050506040518082805190602001908083835b6020831061560757805182526020820191506020810190506020830392506155e4565b6001836020036101000a0380198251168184511680821785525050505050509050019150506000604051808303816000865af19150503d8060008114615669576040519150601f19603f3d011682016040523d82523d6000602084013e61566e565b606091505b50915091508180156156ae57506000815114806156ad575080806020019051602081101561569b57600080fd5b81019080805190602001909291905050505b5b615720576040517f08c379a00000000000000000000000000000000000000000000000000000000081526004018080602001828103825260148152602001807f31306b3a205452414e534645525f4641494c454400000000000000000000000081525060200191505060405180910390fd5b5050505050565b6000600c60009054906101000a900460ff16156159305761576f620186a06157588489614fc790919063ffffffff16565b8161575f57fe5b0487614a1390919063ffffffff16565b9550600061577d8585614e8c565b9050600954670de0b6b3a764000086028161579457fe5b049450600a54670de0b6b3a76400008502816157ac57fe5b049350600080600660009054906101000a900473ffffffffffffffffffffffffffffffffffffffff1673ffffffffffffffffffffffffffffffffffffffff168873ffffffffffffffffffffffffffffffffffffffff161461580e578587615811565b86865b91509150600660009054906101000a900473ffffffffffffffffffffffffffffffffffffffff1673ffffffffffffffffffffffffffffffffffffffff168873ffffffffffffffffffffffffffffffffffffffff161461588557600a54670de0b6b3a76400008a028161587f57fe5b0461589c565b600954670de0b6b3a76400008a028161589a57fe5b045b985060006158ad838b018584615a94565b82039050670de0b6b3a7640000600660009054906101000a900473ffffffffffffffffffffffffffffffffffffffff1673ffffffffffffffffffffffffffffffffffffffff168a73ffffffffffffffffffffffffffffffffffffffff16146159175760095461591b565b600a545b82028161592457fe5b04945050505050615a08565b600080600660009054906101000a900473ffffffffffffffffffffffffffffffffffffffff1673ffffffffffffffffffffffffffffffffffffffff168773ffffffffffffffffffffffffffffffffffffffff161461598f578486615992565b85855b915091506159be6159af85620186a0614a1390919063ffffffff16565b89614fc790919063ffffffff16565b97506159e8886159da620186a085614fc790919063ffffffff16565b615a1190919063ffffffff16565b6159fb828a614fc790919063ffffffff16565b81615a0257fe5b04925050505b95945050505050565b6000828284019150811015615a8e576040517f08c379a00000000000000000000000000000000000000000000000000000000081526004018080602001828103825260148152602001807f64732d6d6174682d6164642d6f766572666c6f7700000000000000000000000081525060200191505060405180910390fd5b92915050565b600080600090505b60ff811015615b5f5760008390506000615ab68786615b6b565b905085811015615aee576000615acc8887615be2565b670de0b6b3a76400008389030281615ae057fe5b049050808601955050615b18565b6000615afa8887615be2565b670de0b6b3a76400008884030281615b0e57fe5b0490508086039550505b81851115615b3a57600182860311615b3557849350505050615b64565b615b50565b600185830311615b4f57849350505050615b64565b5b50508080600101915050615a9c565b508190505b9392505050565b6000670de0b6b3a764000082670de0b6b3a764000085670de0b6b3a764000087880281615b9457fe5b040281615b9d57fe5b040281615ba657fe5b04670de0b6b3a76400008084670de0b6b3a764000086870281615bc557fe5b040281615bce57fe5b04850281615bd857fe5b0401905092915050565b6000670de0b6b3a764000083670de0b6b3a764000085860281615c0157fe5b040281615c0a57fe5b04670de0b6b3a76400008084850281615c1f57fe5b04856003020281615c2c57fe5b0401905092915050565b604051806101000160405280600073ffffffffffffffffffffffffffffffffffffffff168152602001600073ffffffffffffffffffffffffffffffffffffffff168152602001600081526020016000815260200160008152602001600081526020016000815260200160008152509056fe31306b3a206f6e6c7920666163746f7279277320736574537461626c654f776e657231306b3a206f6e6c7920666163746f7279277320666565416d6f756e744f776e657231306b3a2066656550657263656e74206d7573746e27742065786365656420746865206d6178696d756d31306b3a2066656550657263656e74206d7573746e27742065786365656420746865206d696e696d756d31306b3a20494e53554646494349454e545f4c49515549444954595f4d494e54454431306b3a206c697175696469747920726174696f206e6f7420696e697469616c697a656431306b3a20494e53554646494349454e545f4c49515549444954595f4255524e4544a265627a7a72315820ee8f3c6e2f98867d4967ab639c69f698d9aebd73707e24e7ca2713a5fb2ef17e64736f6c63430005100032454950373132446f6d61696e28737472696e67206e616d652c737472696e672076657273696f6e2c75696e7432353620636861696e49642c6164647265737320766572696679696e67436f6e747261637429",
					"opcodes": "PUSH1 0x80 PUSH1 0x40 MSTORE PUSH2 0x12C PUSH1 0x8 PUSH1 0x1C PUSH2 0x100 EXP DUP2 SLOAD DUP2 PUSH2 0xFFFF MUL NOT AND SWAP1 DUP4 PUSH2 0xFFFF AND MUL OR SWAP1 SSTORE POP PUSH2 0x12C PUSH1 0x8 PUSH1 0x1E PUSH2 0x100 EXP DUP2 SLOAD DUP2 PUSH2 0xFFFF MUL NOT AND SWAP1 DUP4 PUSH2 0xFFFF AND MUL OR SWAP1 SSTORE POP PUSH1 0x1 PUSH1 0xD SSTORE CALLVALUE DUP1 ISZERO PUSH3 0x54 JUMPI PUSH1 0x0 DUP1 REVERT JUMPDEST POP PUSH1 0x0 CHAINID SWAP1 POP PUSH1 0x40 MLOAD DUP1 DUP1 PUSH3 0x5F92 PUSH1 0x52 SWAP2 CODECOPY PUSH1 0x52 ADD SWAP1 POP PUSH1 0x40 MLOAD DUP1 SWAP2 SUB SWAP1 KECCAK256 PUSH1 0x40 MLOAD DUP1 PUSH1 0x40 ADD PUSH1 0x40 MSTORE DUP1 PUSH1 0xA DUP2 MSTORE PUSH1 0x20 ADD PUSH32 0x43616D656C6F74204C5000000000000000000000000000000000000000000000 DUP2 MSTORE POP DUP1 MLOAD SWAP1 PUSH1 0x20 ADD KECCAK256 PUSH1 0x40 MLOAD DUP1 PUSH1 0x40 ADD PUSH1 0x40 MSTORE DUP1 PUSH1 0x1 DUP2 MSTORE PUSH1 0x20 ADD PUSH32 0x3100000000000000000000000000000000000000000000000000000000000000 DUP2 MSTORE POP DUP1 MLOAD SWAP1 PUSH1 0x20 ADD KECCAK256 DUP4 ADDRESS PUSH1 0x40 MLOAD PUSH1 0x20 ADD DUP1 DUP7 DUP2 MSTORE PUSH1 0x20 ADD DUP6 DUP2 MSTORE PUSH1 0x20 ADD DUP5 DUP2 MSTORE PUSH1 0x20 ADD DUP4 DUP2 MSTORE PUSH1 0x20 ADD DUP3 PUSH20 0xFFFFFFFFFFFFFFFFFFFFFFFFFFFFFFFFFFFFFFFF AND PUSH20 0xFFFFFFFFFFFFFFFFFFFFFFFFFFFFFFFFFFFFFFFF AND DUP2 MSTORE PUSH1 0x20 ADD SWAP6 POP POP POP POP POP POP PUSH1 0x40 MLOAD PUSH1 0x20 DUP2 DUP4 SUB SUB DUP2 MSTORE SWAP1 PUSH1 0x40 MSTORE DUP1 MLOAD SWAP1 PUSH1 0x20 ADD KECCAK256 PUSH1 0x3 DUP2 SWAP1 SSTORE POP POP CALLER PUSH1 0x5 PUSH1 0x0 PUSH2 0x100 EXP DUP2 SLOAD DUP2 PUSH20 0xFFFFFFFFFFFFFFFFFFFFFFFFFFFFFFFFFFFFFFFF MUL NOT AND SWAP1 DUP4 PUSH20 0xFFFFFFFFFFFFFFFFFFFFFFFFFFFFFFFFFFFFFFFF AND MUL OR SWAP1 SSTORE POP PUSH2 0x5DDC DUP1 PUSH3 0x1B6 PUSH1 0x0 CODECOPY PUSH1 0x0 RETURN INVALID PUSH1 0x80 PUSH1 0x40 MSTORE CALLVALUE DUP1 ISZERO PUSH2 0x10 JUMPI PUSH1 0x0 DUP1 REVERT JUMPDEST POP PUSH1 0x4 CALLDATASIZE LT PUSH2 0x248 JUMPI PUSH1 0x0 CALLDATALOAD PUSH1 0xE0 SHR DUP1 PUSH4 0x6A627842 GT PUSH2 0x13B JUMPI DUP1 PUSH4 0xBA9A7A56 GT PUSH2 0xB8 JUMPI DUP1 PUSH4 0xD73792A9 GT PUSH2 0x7C JUMPI DUP1 PUSH4 0xD73792A9 EQ PUSH2 0xC9C JUMPI DUP1 PUSH4 0xDD62ED3E EQ PUSH2 0xCBA JUMPI DUP1 PUSH4 0xF140A35A EQ PUSH2 0xD32 JUMPI DUP1 PUSH4 0xF39AC11F EQ PUSH2 0xD94 JUMPI DUP1 PUSH4 0xFFF6CAE9 EQ PUSH2 0xDF8 JUMPI PUSH2 0x248 JUMP JUMPDEST DUP1 PUSH4 0xBA9A7A56 EQ PUSH2 0xB0D JUMPI DUP1 PUSH4 0xBC25CF77 EQ PUSH2 0xB2B JUMPI DUP1 PUSH4 0xC45A0155 EQ PUSH2 0xB6F JUMPI DUP1 PUSH4 0xD21220A7 EQ PUSH2 0xBB9 JUMPI DUP1 PUSH4 0xD505ACCF EQ PUSH2 0xC03 JUMPI PUSH2 0x248 JUMP JUMPDEST DUP1 PUSH4 0x89AFCB44 GT PUSH2 0xFF JUMPI DUP1 PUSH4 0x89AFCB44 EQ PUSH2 0x981 JUMPI DUP1 PUSH4 0x95D89B41 EQ PUSH2 0x9E0 JUMPI DUP1 PUSH4 0x9E548B7F EQ PUSH2 0xA63 JUMPI DUP1 PUSH4 0xA9059CBB EQ PUSH2 0xA85 JUMPI DUP1 PUSH4 0xB6200B07 EQ PUSH2 0xAEB JUMPI PUSH2 0x248 JUMP JUMPDEST DUP1 PUSH4 0x6A627842 EQ PUSH2 0x78E JUMPI DUP1 PUSH4 0x6E1FDD7F EQ PUSH2 0x7E6 JUMPI DUP1 PUSH4 0x70A08231 EQ PUSH2 0x8B3 JUMPI DUP1 PUSH4 0x7464FC3D EQ PUSH2 0x90B JUMPI DUP1 PUSH4 0x7ECEBE00 EQ PUSH2 0x929 JUMPI PUSH2 0x248 JUMP JUMPDEST DUP1 PUSH4 0x3029E5D4 GT PUSH2 0x1C9 JUMPI DUP1 PUSH4 0x3BA17077 GT PUSH2 0x18D JUMPI DUP1 PUSH4 0x3BA17077 EQ PUSH2 0x69C JUMPI DUP1 PUSH4 0x485CC955 EQ PUSH2 0x6A6 JUMPI DUP1 PUSH4 0x48E5D260 EQ PUSH2 0x70A JUMPI DUP1 PUSH4 0x62ECEC03 EQ PUSH2 0x74A JUMPI DUP1 PUSH4 0x67D81740 EQ PUSH2 0x770 JUMPI PUSH2 0x248 JUMP JUMPDEST DUP1 PUSH4 0x3029E5D4 EQ PUSH2 0x5BA JUMPI DUP1 PUSH4 0x30ADF81F EQ PUSH2 0x61E JUMPI DUP1 PUSH4 0x313CE567 EQ PUSH2 0x63C JUMPI DUP1 PUSH4 0x3644E515 EQ PUSH2 0x660 JUMPI DUP1 PUSH4 0x3B9F1DC0 EQ PUSH2 0x67E JUMPI PUSH2 0x248 JUMP JUMPDEST DUP1 PUSH4 0x158EF93E GT PUSH2 0x210 JUMPI DUP1 PUSH4 0x158EF93E EQ PUSH2 0x4B0 JUMPI DUP1 PUSH4 0x18160DDD EQ PUSH2 0x4D2 JUMPI DUP1 PUSH4 0x23B872DD EQ PUSH2 0x4F0 JUMPI DUP1 PUSH4 0x288E5D02 EQ PUSH2 0x576 JUMPI DUP1 PUSH4 0x2FCD1692 EQ PUSH2 0x594 JUMPI PUSH2 0x248 JUMP JUMPDEST DUP1 PUSH4 0x22C0D9F EQ PUSH2 0x24D JUMPI DUP1 PUSH4 0x6FDDE03 EQ PUSH2 0x2FA JUMPI DUP1 PUSH4 0x902F1AC EQ PUSH2 0x37D JUMPI DUP1 PUSH4 0x95EA7B3 EQ PUSH2 0x400 JUMPI DUP1 PUSH4 0xDFE1681 EQ PUSH2 0x466 JUMPI JUMPDEST PUSH1 0x0 DUP1 REVERT JUMPDEST PUSH2 0x2F8 PUSH1 0x4 DUP1 CALLDATASIZE SUB PUSH1 0x80 DUP2 LT ISZERO PUSH2 0x263 JUMPI PUSH1 0x0 DUP1 REVERT JUMPDEST DUP2 ADD SWAP1 DUP1 DUP1 CALLDATALOAD SWAP1 PUSH1 0x20 ADD SWAP1 SWAP3 SWAP2 SWAP1 DUP1 CALLDATALOAD SWAP1 PUSH1 0x20 ADD SWAP1 SWAP3 SWAP2 SWAP1 DUP1 CALLDATALOAD PUSH20 0xFFFFFFFFFFFFFFFFFFFFFFFFFFFFFFFFFFFFFFFF AND SWAP1 PUSH1 0x20 ADD SWAP1 SWAP3 SWAP2 SWAP1 DUP1 CALLDATALOAD SWAP1 PUSH1 0x20 ADD SWAP1 PUSH5 0x100000000 DUP2 GT ISZERO PUSH2 0x2B4 JUMPI PUSH1 0x0 DUP1 REVERT JUMPDEST DUP3 ADD DUP4 PUSH1 0x20 DUP3 ADD GT ISZERO PUSH2 0x2C6 JUMPI PUSH1 0x0 DUP1 REVERT JUMPDEST DUP1 CALLDATALOAD SWAP1 PUSH1 0x20 ADD SWAP2 DUP5 PUSH1 0x1 DUP4 MUL DUP5 ADD GT PUSH5 0x100000000 DUP4 GT OR ISZERO PUSH2 0x2E8 JUMPI PUSH1 0x0 DUP1 REVERT JUMPDEST SWAP1 SWAP2 SWAP3 SWAP4 SWAP2 SWAP3 SWAP4 SWAP1 POP POP POP PUSH2 0xE02 JUMP JUMPDEST STOP JUMPDEST PUSH2 0x302 PUSH2 0xF13 JUMP JUMPDEST PUSH1 0x40 MLOAD DUP1 DUP1 PUSH1 0x20 ADD DUP3 DUP2 SUB DUP3 MSTORE DUP4 DUP2 DUP2 MLOAD DUP2 MSTORE PUSH1 0x20 ADD SWAP2 POP DUP1 MLOAD SWAP1 PUSH1 0x20 ADD SWAP1 DUP1 DUP4 DUP4 PUSH1 0x0 JUMPDEST DUP4 DUP2 LT ISZERO PUSH2 0x342 JUMPI DUP1 DUP3 ADD MLOAD DUP2 DUP5 ADD MSTORE PUSH1 0x20 DUP2 ADD SWAP1 POP PUSH2 0x327 JUMP JUMPDEST POP POP POP POP SWAP1 POP SWAP1 DUP2 ADD SWAP1 PUSH1 0x1F AND DUP1 ISZERO PUSH2 0x36F JUMPI DUP1 DUP3 SUB DUP1 MLOAD PUSH1 0x1 DUP4 PUSH1 0x20 SUB PUSH2 0x100 EXP SUB NOT AND DUP2 MSTORE PUSH1 0x20 ADD SWAP2 POP JUMPDEST POP SWAP3 POP POP POP PUSH1 0x40 MLOAD DUP1 SWAP2 SUB SWAP1 RETURN JUMPDEST PUSH2 0x385 PUSH2 0xF4C JUMP JUMPDEST PUSH1 0x40 MLOAD DUP1 DUP6 PUSH14 0xFFFFFFFFFFFFFFFFFFFFFFFFFFFF AND PUSH14 0xFFFFFFFFFFFFFFFFFFFFFFFFFFFF AND DUP2 MSTORE PUSH1 0x20 ADD DUP5 PUSH14 0xFFFFFFFFFFFFFFFFFFFFFFFFFFFF AND PUSH14 0xFFFFFFFFFFFFFFFFFFFFFFFFFFFF AND DUP2 MSTORE PUSH1 0x20 ADD DUP4 PUSH2 0xFFFF AND PUSH2 0xFFFF AND DUP2 MSTORE PUSH1 0x20 ADD DUP3 PUSH2 0xFFFF AND PUSH2 0xFFFF AND DUP2 MSTORE PUSH1 0x20 ADD SWAP5 POP POP POP POP POP PUSH1 0x40 MLOAD DUP1 SWAP2 SUB SWAP1 RETURN JUMPDEST PUSH2 0x44C PUSH1 0x4 DUP1 CALLDATASIZE SUB PUSH1 0x40 DUP2 LT ISZERO PUSH2 0x416 JUMPI PUSH1 0x0 DUP1 REVERT JUMPDEST DUP2 ADD SWAP1 DUP1 DUP1 CALLDATALOAD PUSH20 0xFFFFFFFFFFFFFFFFFFFFFFFFFFFFFFFFFFFFFFFF AND SWAP1 PUSH1 0x20 ADD SWAP1 SWAP3 SWAP2 SWAP1 DUP1 CALLDATALOAD SWAP1 PUSH1 0x20 ADD SWAP1 SWAP3 SWAP2 SWAP1 POP POP POP PUSH2 0xFBC JUMP JUMPDEST PUSH1 0x40 MLOAD DUP1 DUP3 ISZERO ISZERO ISZERO ISZERO DUP2 MSTORE PUSH1 0x20 ADD SWAP2 POP POP PUSH1 0x40 MLOAD DUP1 SWAP2 SUB SWAP1 RETURN JUMPDEST PUSH2 0x46E PUSH2 0xFD3 JUMP JUMPDEST PUSH1 0x40 MLOAD DUP1 DUP3 PUSH20 0xFFFFFFFFFFFFFFFFFFFFFFFFFFFFFFFFFFFFFFFF AND PUSH20 0xFFFFFFFFFFFFFFFFFFFFFFFFFFFFFFFFFFFFFFFF AND DUP2 MSTORE PUSH1 0x20 ADD SWAP2 POP POP PUSH1 0x40 MLOAD DUP1 SWAP2 SUB SWAP1 RETURN JUMPDEST PUSH2 0x4B8 PUSH2 0xFF9 JUMP JUMPDEST PUSH1 0x40 MLOAD DUP1 DUP3 ISZERO ISZERO ISZERO ISZERO DUP2 MSTORE PUSH1 0x20 ADD SWAP2 POP POP PUSH1 0x40 MLOAD DUP1 SWAP2 SUB SWAP1 RETURN JUMPDEST PUSH2 0x4DA PUSH2 0x100C JUMP JUMPDEST PUSH1 0x40 MLOAD DUP1 DUP3 DUP2 MSTORE PUSH1 0x20 ADD SWAP2 POP POP PUSH1 0x40 MLOAD DUP1 SWAP2 SUB SWAP1 RETURN JUMPDEST PUSH2 0x55C PUSH1 0x4 DUP1 CALLDATASIZE SUB PUSH1 0x60 DUP2 LT ISZERO PUSH2 0x506 JUMPI PUSH1 0x0 DUP1 REVERT JUMPDEST DUP2 ADD SWAP1 DUP1 DUP1 CALLDATALOAD PUSH20 0xFFFFFFFFFFFFFFFFFFFFFFFFFFFFFFFFFFFFFFFF AND SWAP1 PUSH1 0x20 ADD SWAP1 SWAP3 SWAP2 SWAP1 DUP1 CALLDATALOAD PUSH20 0xFFFFFFFFFFFFFFFFFFFFFFFFFFFFFFFFFFFFFFFF AND SWAP1 PUSH1 0x20 ADD SWAP1 SWAP3 SWAP2 SWAP1 DUP1 CALLDATALOAD SWAP1 PUSH1 0x20 ADD SWAP1 SWAP3 SWAP2 SWAP1 POP POP POP PUSH2 0x1012 JUMP JUMPDEST PUSH1 0x40 MLOAD DUP1 DUP3 ISZERO ISZERO ISZERO ISZERO DUP2 MSTORE PUSH1 0x20 ADD SWAP2 POP POP PUSH1 0x40 MLOAD DUP1 SWAP2 SUB SWAP1 RETURN JUMPDEST PUSH2 0x57E PUSH2 0x1248 JUMP JUMPDEST PUSH1 0x40 MLOAD DUP1 DUP3 DUP2 MSTORE PUSH1 0x20 ADD SWAP2 POP POP PUSH1 0x40 MLOAD DUP1 SWAP2 SUB SWAP1 RETURN JUMPDEST PUSH2 0x59C PUSH2 0x124E JUMP JUMPDEST PUSH1 0x40 MLOAD DUP1 DUP3 PUSH2 0xFFFF AND PUSH2 0xFFFF AND DUP2 MSTORE PUSH1 0x20 ADD SWAP2 POP POP PUSH1 0x40 MLOAD DUP1 SWAP2 SUB SWAP1 RETURN JUMPDEST PUSH2 0x61C PUSH1 0x4 DUP1 CALLDATASIZE SUB PUSH1 0x60 DUP2 LT ISZERO PUSH2 0x5D0 JUMPI PUSH1 0x0 DUP1 REVERT JUMPDEST DUP2 ADD SWAP1 DUP1 DUP1 CALLDATALOAD ISZERO ISZERO SWAP1 PUSH1 0x20 ADD SWAP1 SWAP3 SWAP2 SWAP1 DUP1 CALLDATALOAD PUSH14 0xFFFFFFFFFFFFFFFFFFFFFFFFFFFF AND SWAP1 PUSH1 0x20 ADD SWAP1 SWAP3 SWAP2 SWAP1 DUP1 CALLDATALOAD PUSH14 0xFFFFFFFFFFFFFFFFFFFFFFFFFFFF AND SWAP1 PUSH1 0x20 ADD SWAP1 SWAP3 SWAP2 SWAP1 POP POP POP PUSH2 0x1262 JUMP JUMPDEST STOP JUMPDEST PUSH2 0x626 PUSH2 0x174E JUMP JUMPDEST PUSH1 0x40 MLOAD DUP1 DUP3 DUP2 MSTORE PUSH1 0x20 ADD SWAP2 POP POP PUSH1 0x40 MLOAD DUP1 SWAP2 SUB SWAP1 RETURN JUMPDEST PUSH2 0x644 PUSH2 0x1775 JUMP JUMPDEST PUSH1 0x40 MLOAD DUP1 DUP3 PUSH1 0xFF AND PUSH1 0xFF AND DUP2 MSTORE PUSH1 0x20 ADD SWAP2 POP POP PUSH1 0x40 MLOAD DUP1 SWAP2 SUB SWAP1 RETURN JUMPDEST PUSH2 0x668 PUSH2 0x177A JUMP JUMPDEST PUSH1 0x40 MLOAD DUP1 DUP3 DUP2 MSTORE PUSH1 0x20 ADD SWAP2 POP POP PUSH1 0x40 MLOAD DUP1 SWAP2 SUB SWAP1 RETURN JUMPDEST PUSH2 0x686 PUSH2 0x1780 JUMP JUMPDEST PUSH1 0x40 MLOAD DUP1 DUP3 DUP2 MSTORE PUSH1 0x20 ADD SWAP2 POP POP PUSH1 0x40 MLOAD DUP1 SWAP2 SUB SWAP1 RETURN JUMPDEST PUSH2 0x6A4 PUSH2 0x1786 JUMP JUMPDEST STOP JUMPDEST PUSH2 0x708 PUSH1 0x4 DUP1 CALLDATASIZE SUB PUSH1 0x40 DUP2 LT ISZERO PUSH2 0x6BC JUMPI PUSH1 0x0 DUP1 REVERT JUMPDEST DUP2 ADD SWAP1 DUP1 DUP1 CALLDATALOAD PUSH20 0xFFFFFFFFFFFFFFFFFFFFFFFFFFFFFFFFFFFFFFFF AND SWAP1 PUSH1 0x20 ADD SWAP1 SWAP3 SWAP2 SWAP1 DUP1 CALLDATALOAD PUSH20 0xFFFFFFFFFFFFFFFFFFFFFFFFFFFFFFFFFFFFFFFF AND SWAP1 PUSH1 0x20 ADD SWAP1 SWAP3 SWAP2 SWAP1 POP POP POP PUSH2 0x1A1D JUMP JUMPDEST STOP JUMPDEST PUSH2 0x748 PUSH1 0x4 DUP1 CALLDATASIZE SUB PUSH1 0x40 DUP2 LT ISZERO PUSH2 0x720 JUMPI PUSH1 0x0 DUP1 REVERT JUMPDEST DUP2 ADD SWAP1 DUP1 DUP1 CALLDATALOAD PUSH2 0xFFFF AND SWAP1 PUSH1 0x20 ADD SWAP1 SWAP3 SWAP2 SWAP1 DUP1 CALLDATALOAD PUSH2 0xFFFF AND SWAP1 PUSH1 0x20 ADD SWAP1 SWAP3 SWAP2 SWAP1 POP POP POP PUSH2 0x1CB4 JUMP JUMPDEST STOP JUMPDEST PUSH2 0x752 PUSH2 0x1FCD JUMP JUMPDEST PUSH1 0x40 MLOAD DUP1 DUP3 PUSH2 0xFFFF AND PUSH2 0xFFFF AND DUP2 MSTORE PUSH1 0x20 ADD SWAP2 POP POP PUSH1 0x40 MLOAD DUP1 SWAP2 SUB SWAP1 RETURN JUMPDEST PUSH2 0x778 PUSH2 0x1FE1 JUMP JUMPDEST PUSH1 0x40 MLOAD DUP1 DUP3 DUP2 MSTORE PUSH1 0x20 ADD SWAP2 POP POP PUSH1 0x40 MLOAD DUP1 SWAP2 SUB SWAP1 RETURN JUMPDEST PUSH2 0x7D0 PUSH1 0x4 DUP1 CALLDATASIZE SUB PUSH1 0x20 DUP2 LT ISZERO PUSH2 0x7A4 JUMPI PUSH1 0x0 DUP1 REVERT JUMPDEST DUP2 ADD SWAP1 DUP1 DUP1 CALLDATALOAD PUSH20 0xFFFFFFFFFFFFFFFFFFFFFFFFFFFFFFFFFFFFFFFF AND SWAP1 PUSH1 0x20 ADD SWAP1 SWAP3 SWAP2 SWAP1 POP POP POP PUSH2 0x1FE7 JUMP JUMPDEST PUSH1 0x40 MLOAD DUP1 DUP3 DUP2 MSTORE PUSH1 0x20 ADD SWAP2 POP POP PUSH1 0x40 MLOAD DUP1 SWAP2 SUB SWAP1 RETURN JUMPDEST PUSH2 0x8B1 PUSH1 0x4 DUP1 CALLDATASIZE SUB PUSH1 0xA0 DUP2 LT ISZERO PUSH2 0x7FC JUMPI PUSH1 0x0 DUP1 REVERT JUMPDEST DUP2 ADD SWAP1 DUP1 DUP1 CALLDATALOAD SWAP1 PUSH1 0x20 ADD SWAP1 SWAP3 SWAP2 SWAP1 DUP1 CALLDATALOAD SWAP1 PUSH1 0x20 ADD SWAP1 SWAP3 SWAP2 SWAP1 DUP1 CALLDATALOAD PUSH20 0xFFFFFFFFFFFFFFFFFFFFFFFFFFFFFFFFFFFFFFFF AND SWAP1 PUSH1 0x20 ADD SWAP1 SWAP3 SWAP2 SWAP1 DUP1 CALLDATALOAD SWAP1 PUSH1 0x20 ADD SWAP1 PUSH5 0x100000000 DUP2 GT ISZERO PUSH2 0x84D JUMPI PUSH1 0x0 DUP1 REVERT JUMPDEST DUP3 ADD DUP4 PUSH1 0x20 DUP3 ADD GT ISZERO PUSH2 0x85F JUMPI PUSH1 0x0 DUP1 REVERT JUMPDEST DUP1 CALLDATALOAD SWAP1 PUSH1 0x20 ADD SWAP2 DUP5 PUSH1 0x1 DUP4 MUL DUP5 ADD GT PUSH5 0x100000000 DUP4 GT OR ISZERO PUSH2 0x881 JUMPI PUSH1 0x0 DUP1 REVERT JUMPDEST SWAP1 SWAP2 SWAP3 SWAP4 SWAP2 SWAP3 SWAP4 SWAP1 DUP1 CALLDATALOAD PUSH20 0xFFFFFFFFFFFFFFFFFFFFFFFFFFFFFFFFFFFFFFFF AND SWAP1 PUSH1 0x20 ADD SWAP1 SWAP3 SWAP2 SWAP1 POP POP POP PUSH2 0x248E JUMP JUMPDEST STOP JUMPDEST PUSH2 0x8F5 PUSH1 0x4 DUP1 CALLDATASIZE SUB PUSH1 0x20 DUP2 LT ISZERO PUSH2 0x8C9 JUMPI PUSH1 0x0 DUP1 REVERT JUMPDEST DUP2 ADD SWAP1 DUP1 DUP1 CALLDATALOAD PUSH20 0xFFFFFFFFFFFFFFFFFFFFFFFFFFFFFFFFFFFFFFFF AND SWAP1 PUSH1 0x20 ADD SWAP1 SWAP3 SWAP2 SWAP1 POP POP POP PUSH2 0x259F JUMP JUMPDEST PUSH1 0x40 MLOAD DUP1 DUP3 DUP2 MSTORE PUSH1 0x20 ADD SWAP2 POP POP PUSH1 0x40 MLOAD DUP1 SWAP2 SUB SWAP1 RETURN JUMPDEST PUSH2 0x913 PUSH2 0x25B7 JUMP JUMPDEST PUSH1 0x40 MLOAD DUP1 DUP3 DUP2 MSTORE PUSH1 0x20 ADD SWAP2 POP POP PUSH1 0x40 MLOAD DUP1 SWAP2 SUB SWAP1 RETURN JUMPDEST PUSH2 0x96B PUSH1 0x4 DUP1 CALLDATASIZE SUB PUSH1 0x20 DUP2 LT ISZERO PUSH2 0x93F JUMPI PUSH1 0x0 DUP1 REVERT JUMPDEST DUP2 ADD SWAP1 DUP1 DUP1 CALLDATALOAD PUSH20 0xFFFFFFFFFFFFFFFFFFFFFFFFFFFFFFFFFFFFFFFF AND SWAP1 PUSH1 0x20 ADD SWAP1 SWAP3 SWAP2 SWAP1 POP POP POP PUSH2 0x25BD JUMP JUMPDEST PUSH1 0x40 MLOAD DUP1 DUP3 DUP2 MSTORE PUSH1 0x20 ADD SWAP2 POP POP PUSH1 0x40 MLOAD DUP1 SWAP2 SUB SWAP1 RETURN JUMPDEST PUSH2 0x9C3 PUSH1 0x4 DUP1 CALLDATASIZE SUB PUSH1 0x20 DUP2 LT ISZERO PUSH2 0x997 JUMPI PUSH1 0x0 DUP1 REVERT JUMPDEST DUP2 ADD SWAP1 DUP1 DUP1 CALLDATALOAD PUSH20 0xFFFFFFFFFFFFFFFFFFFFFFFFFFFFFFFFFFFFFFFF AND SWAP1 PUSH1 0x20 ADD SWAP1 SWAP3 SWAP2 SWAP1 POP POP POP PUSH2 0x25D5 JUMP JUMPDEST PUSH1 0x40 MLOAD DUP1 DUP4 DUP2 MSTORE PUSH1 0x20 ADD DUP3 DUP2 MSTORE PUSH1 0x20 ADD SWAP3 POP POP POP PUSH1 0x40 MLOAD DUP1 SWAP2 SUB SWAP1 RETURN JUMPDEST PUSH2 0x9E8 PUSH2 0x2BB8 JUMP JUMPDEST PUSH1 0x40 MLOAD DUP1 DUP1 PUSH1 0x20 ADD DUP3 DUP2 SUB DUP3 MSTORE DUP4 DUP2 DUP2 MLOAD DUP2 MSTORE PUSH1 0x20 ADD SWAP2 POP DUP1 MLOAD SWAP1 PUSH1 0x20 ADD SWAP1 DUP1 DUP4 DUP4 PUSH1 0x0 JUMPDEST DUP4 DUP2 LT ISZERO PUSH2 0xA28 JUMPI DUP1 DUP3 ADD MLOAD DUP2 DUP5 ADD MSTORE PUSH1 0x20 DUP2 ADD SWAP1 POP PUSH2 0xA0D JUMP JUMPDEST POP POP POP POP SWAP1 POP SWAP1 DUP2 ADD SWAP1 PUSH1 0x1F AND DUP1 ISZERO PUSH2 0xA55 JUMPI DUP1 DUP3 SUB DUP1 MLOAD PUSH1 0x1 DUP4 PUSH1 0x20 SUB PUSH2 0x100 EXP SUB NOT AND DUP2 MSTORE PUSH1 0x20 ADD SWAP2 POP JUMPDEST POP SWAP3 POP POP POP PUSH1 0x40 MLOAD DUP1 SWAP2 SUB SWAP1 RETURN JUMPDEST PUSH2 0xA6B PUSH2 0x2BF1 JUMP JUMPDEST PUSH1 0x40 MLOAD DUP1 DUP3 ISZERO ISZERO ISZERO ISZERO DUP2 MSTORE PUSH1 0x20 ADD SWAP2 POP POP PUSH1 0x40 MLOAD DUP1 SWAP2 SUB SWAP1 RETURN JUMPDEST PUSH2 0xAD1 PUSH1 0x4 DUP1 CALLDATASIZE SUB PUSH1 0x40 DUP2 LT ISZERO PUSH2 0xA9B JUMPI PUSH1 0x0 DUP1 REVERT JUMPDEST DUP2 ADD SWAP1 DUP1 DUP1 CALLDATALOAD PUSH20 0xFFFFFFFFFFFFFFFFFFFFFFFFFFFFFFFFFFFFFFFF AND SWAP1 PUSH1 0x20 ADD SWAP1 SWAP3 SWAP2 SWAP1 DUP1 CALLDATALOAD SWAP1 PUSH1 0x20 ADD SWAP1 SWAP3 SWAP2 SWAP1 POP POP POP PUSH2 0x2C04 JUMP JUMPDEST PUSH1 0x40 MLOAD DUP1 DUP3 ISZERO ISZERO ISZERO ISZERO DUP2 MSTORE PUSH1 0x20 ADD SWAP2 POP POP PUSH1 0x40 MLOAD DUP1 SWAP2 SUB SWAP1 RETURN JUMPDEST PUSH2 0xAF3 PUSH2 0x2C1B JUMP JUMPDEST PUSH1 0x40 MLOAD DUP1 DUP3 ISZERO ISZERO ISZERO ISZERO DUP2 MSTORE PUSH1 0x20 ADD SWAP2 POP POP PUSH1 0x40 MLOAD DUP1 SWAP2 SUB SWAP1 RETURN JUMPDEST PUSH2 0xB15 PUSH2 0x2C2E JUMP JUMPDEST PUSH1 0x40 MLOAD DUP1 DUP3 DUP2 MSTORE PUSH1 0x20 ADD SWAP2 POP POP PUSH1 0x40 MLOAD DUP1 SWAP2 SUB SWAP1 RETURN JUMPDEST PUSH2 0xB6D PUSH1 0x4 DUP1 CALLDATASIZE SUB PUSH1 0x20 DUP2 LT ISZERO PUSH2 0xB41 JUMPI PUSH1 0x0 DUP1 REVERT JUMPDEST DUP2 ADD SWAP1 DUP1 DUP1 CALLDATALOAD PUSH20 0xFFFFFFFFFFFFFFFFFFFFFFFFFFFFFFFFFFFFFFFF AND SWAP1 PUSH1 0x20 ADD SWAP1 SWAP3 SWAP2 SWAP1 POP POP POP PUSH2 0x2C34 JUMP JUMPDEST STOP JUMPDEST PUSH2 0xB77 PUSH2 0x2F3B JUMP JUMPDEST PUSH1 0x40 MLOAD DUP1 DUP3 PUSH20 0xFFFFFFFFFFFFFFFFFFFFFFFFFFFFFFFFFFFFFFFF AND PUSH20 0xFFFFFFFFFFFFFFFFFFFFFFFFFFFFFFFFFFFFFFFF AND DUP2 MSTORE PUSH1 0x20 ADD SWAP2 POP POP PUSH1 0x40 MLOAD DUP1 SWAP2 SUB SWAP1 RETURN JUMPDEST PUSH2 0xBC1 PUSH2 0x2F61 JUMP JUMPDEST PUSH1 0x40 MLOAD DUP1 DUP3 PUSH20 0xFFFFFFFFFFFFFFFFFFFFFFFFFFFFFFFFFFFFFFFF AND PUSH20 0xFFFFFFFFFFFFFFFFFFFFFFFFFFFFFFFFFFFFFFFF AND DUP2 MSTORE PUSH1 0x20 ADD SWAP2 POP POP PUSH1 0x40 MLOAD DUP1 SWAP2 SUB SWAP1 RETURN JUMPDEST PUSH2 0xC9A PUSH1 0x4 DUP1 CALLDATASIZE SUB PUSH1 0xE0 DUP2 LT ISZERO PUSH2 0xC19 JUMPI PUSH1 0x0 DUP1 REVERT JUMPDEST DUP2 ADD SWAP1 DUP1 DUP1 CALLDATALOAD PUSH20 0xFFFFFFFFFFFFFFFFFFFFFFFFFFFFFFFFFFFFFFFF AND SWAP1 PUSH1 0x20 ADD SWAP1 SWAP3 SWAP2 SWAP1 DUP1 CALLDATALOAD PUSH20 0xFFFFFFFFFFFFFFFFFFFFFFFFFFFFFFFFFFFFFFFF AND SWAP1 PUSH1 0x20 ADD SWAP1 SWAP3 SWAP2 SWAP1 DUP1 CALLDATALOAD SWAP1 PUSH1 0x20 ADD SWAP1 SWAP3 SWAP2 SWAP1 DUP1 CALLDATALOAD SWAP1 PUSH1 0x20 ADD SWAP1 SWAP3 SWAP2 SWAP1 DUP1 CALLDATALOAD PUSH1 0xFF AND SWAP1 PUSH1 0x20 ADD SWAP1 SWAP3 SWAP2 SWAP1 DUP1 CALLDATALOAD SWAP1 PUSH1 0x20 ADD SWAP1 SWAP3 SWAP2 SWAP1 DUP1 CALLDATALOAD SWAP1 PUSH1 0x20 ADD SWAP1 SWAP3 SWAP2 SWAP1 POP POP POP PUSH2 0x2F87 JUMP JUMPDEST STOP JUMPDEST PUSH2 0xCA4 PUSH2 0x32CB JUMP JUMPDEST PUSH1 0x40 MLOAD DUP1 DUP3 DUP2 MSTORE PUSH1 0x20 ADD SWAP2 POP POP PUSH1 0x40 MLOAD DUP1 SWAP2 SUB SWAP1 RETURN JUMPDEST PUSH2 0xD1C PUSH1 0x4 DUP1 CALLDATASIZE SUB PUSH1 0x40 DUP2 LT ISZERO PUSH2 0xCD0 JUMPI PUSH1 0x0 DUP1 REVERT JUMPDEST DUP2 ADD SWAP1 DUP1 DUP1 CALLDATALOAD PUSH20 0xFFFFFFFFFFFFFFFFFFFFFFFFFFFFFFFFFFFFFFFF AND SWAP1 PUSH1 0x20 ADD SWAP1 SWAP3 SWAP2 SWAP1 DUP1 CALLDATALOAD PUSH20 0xFFFFFFFFFFFFFFFFFFFFFFFFFFFFFFFFFFFFFFFF AND SWAP1 PUSH1 0x20 ADD SWAP1 SWAP3 SWAP2 SWAP1 POP POP POP PUSH2 0x32D2 JUMP JUMPDEST PUSH1 0x40 MLOAD DUP1 DUP3 DUP2 MSTORE PUSH1 0x20 ADD SWAP2 POP POP PUSH1 0x40 MLOAD DUP1 SWAP2 SUB SWAP1 RETURN JUMPDEST PUSH2 0xD7E PUSH1 0x4 DUP1 CALLDATASIZE SUB PUSH1 0x40 DUP2 LT ISZERO PUSH2 0xD48 JUMPI PUSH1 0x0 DUP1 REVERT JUMPDEST DUP2 ADD SWAP1 DUP1 DUP1 CALLDATALOAD SWAP1 PUSH1 0x20 ADD SWAP1 SWAP3 SWAP2 SWAP1 DUP1 CALLDATALOAD PUSH20 0xFFFFFFFFFFFFFFFFFFFFFFFFFFFFFFFFFFFFFFFF AND SWAP1 PUSH1 0x20 ADD SWAP1 SWAP3 SWAP2 SWAP1 POP POP POP PUSH2 0x32F7 JUMP JUMPDEST PUSH1 0x40 MLOAD DUP1 DUP3 DUP2 MSTORE PUSH1 0x20 ADD SWAP2 POP POP PUSH1 0x40 MLOAD DUP1 SWAP2 SUB SWAP1 RETURN JUMPDEST PUSH2 0xDF6 PUSH1 0x4 DUP1 CALLDATASIZE SUB PUSH1 0x40 DUP2 LT ISZERO PUSH2 0xDAA JUMPI PUSH1 0x0 DUP1 REVERT JUMPDEST DUP2 ADD SWAP1 DUP1 DUP1 CALLDATALOAD PUSH20 0xFFFFFFFFFFFFFFFFFFFFFFFFFFFFFFFFFFFFFFFF AND SWAP1 PUSH1 0x20 ADD SWAP1 SWAP3 SWAP2 SWAP1 DUP1 CALLDATALOAD PUSH20 0xFFFFFFFFFFFFFFFFFFFFFFFFFFFFFFFFFFFFFFFF AND SWAP1 PUSH1 0x20 ADD SWAP1 SWAP3 SWAP2 SWAP1 POP POP POP PUSH2 0x33EB JUMP JUMPDEST STOP JUMPDEST PUSH2 0xE00 PUSH2 0x3814 JUMP JUMPDEST STOP JUMPDEST PUSH2 0xE0A PUSH2 0x5C36 JUMP JUMPDEST PUSH1 0x40 MLOAD DUP1 PUSH2 0x100 ADD PUSH1 0x40 MSTORE DUP1 PUSH1 0x6 PUSH1 0x0 SWAP1 SLOAD SWAP1 PUSH2 0x100 EXP SWAP1 DIV PUSH20 0xFFFFFFFFFFFFFFFFFFFFFFFFFFFFFFFFFFFFFFFF AND PUSH20 0xFFFFFFFFFFFFFFFFFFFFFFFFFFFFFFFFFFFFFFFF AND DUP2 MSTORE PUSH1 0x20 ADD PUSH1 0x7 PUSH1 0x0 SWAP1 SLOAD SWAP1 PUSH2 0x100 EXP SWAP1 DIV PUSH20 0xFFFFFFFFFFFFFFFFFFFFFFFFFFFFFFFFFFFFFFFF AND PUSH20 0xFFFFFFFFFFFFFFFFFFFFFFFFFFFFFFFFFFFFFFFF AND DUP2 MSTORE PUSH1 0x20 ADD DUP8 DUP2 MSTORE PUSH1 0x20 ADD DUP7 DUP2 MSTORE PUSH1 0x20 ADD PUSH1 0x0 DUP2 MSTORE PUSH1 0x20 ADD PUSH1 0x0 DUP2 MSTORE PUSH1 0x20 ADD PUSH1 0x0 DUP2 MSTORE PUSH1 0x20 ADD PUSH1 0x0 DUP2 MSTORE POP SWAP1 POP PUSH2 0xF0B DUP2 DUP6 DUP6 DUP6 DUP1 DUP1 PUSH1 0x1F ADD PUSH1 0x20 DUP1 SWAP2 DIV MUL PUSH1 0x20 ADD PUSH1 0x40 MLOAD SWAP1 DUP2 ADD PUSH1 0x40 MSTORE DUP1 SWAP4 SWAP3 SWAP2 SWAP1 DUP2 DUP2 MSTORE PUSH1 0x20 ADD DUP4 DUP4 DUP1 DUP3 DUP5 CALLDATACOPY PUSH1 0x0 DUP2 DUP5 ADD MSTORE PUSH1 0x1F NOT PUSH1 0x1F DUP3 ADD AND SWAP1 POP DUP1 DUP4 ADD SWAP3 POP POP POP POP POP POP POP PUSH1 0x0 PUSH2 0x3ACD JUMP JUMPDEST POP POP POP POP POP POP JUMP JUMPDEST PUSH1 0x40 MLOAD DUP1 PUSH1 0x40 ADD PUSH1 0x40 MSTORE DUP1 PUSH1 0xA DUP2 MSTORE PUSH1 0x20 ADD PUSH32 0x43616D656C6F74204C5000000000000000000000000000000000000000000000 DUP2 MSTORE POP DUP2 JUMP JUMPDEST PUSH1 0x0 DUP1 PUSH1 0x0 DUP1 PUSH1 0x8 PUSH1 0x0 SWAP1 SLOAD SWAP1 PUSH2 0x100 EXP SWAP1 DIV PUSH14 0xFFFFFFFFFFFFFFFFFFFFFFFFFFFF AND SWAP4 POP PUSH1 0x8 PUSH1 0xE SWAP1 SLOAD SWAP1 PUSH2 0x100 EXP SWAP1 DIV PUSH14 0xFFFFFFFFFFFFFFFFFFFFFFFFFFFF AND SWAP3 POP PUSH1 0x8 PUSH1 0x1C SWAP1 SLOAD SWAP1 PUSH2 0x100 EXP SWAP1 DIV PUSH2 0xFFFF AND SWAP2 POP PUSH1 0x8 PUSH1 0x1E SWAP1 SLOAD SWAP1 PUSH2 0x100 EXP SWAP1 DIV PUSH2 0xFFFF AND SWAP1 POP SWAP1 SWAP2 SWAP3 SWAP4 JUMP JUMPDEST PUSH1 0x0 PUSH2 0xFC9 CALLER DUP5 DUP5 PUSH2 0x4928 JUMP JUMPDEST PUSH1 0x1 SWAP1 POP SWAP3 SWAP2 POP POP JUMP JUMPDEST PUSH1 0x6 PUSH1 0x0 SWAP1 SLOAD SWAP1 PUSH2 0x100 EXP SWAP1 DIV PUSH20 0xFFFFFFFFFFFFFFFFFFFFFFFFFFFFFFFFFFFFFFFF AND DUP2 JUMP JUMPDEST PUSH1 0x7 PUSH1 0x14 SWAP1 SLOAD SWAP1 PUSH2 0x100 EXP SWAP1 DIV PUSH1 0xFF AND DUP2 JUMP JUMPDEST PUSH1 0x0 SLOAD DUP2 JUMP JUMPDEST PUSH1 0x0 PUSH32 0xFFFFFFFFFFFFFFFFFFFFFFFFFFFFFFFFFFFFFFFFFFFFFFFFFFFFFFFFFFFFFFFF PUSH1 0x2 PUSH1 0x0 DUP7 PUSH20 0xFFFFFFFFFFFFFFFFFFFFFFFFFFFFFFFFFFFFFFFF AND PUSH20 0xFFFFFFFFFFFFFFFFFFFFFFFFFFFFFFFFFFFFFFFF AND DUP2 MSTORE PUSH1 0x20 ADD SWAP1 DUP2 MSTORE PUSH1 0x20 ADD PUSH1 0x0 KECCAK256 PUSH1 0x0 CALLER PUSH20 0xFFFFFFFFFFFFFFFFFFFFFFFFFFFFFFFFFFFFFFFF AND PUSH20 0xFFFFFFFFFFFFFFFFFFFFFFFFFFFFFFFFFFFFFFFF AND DUP2 MSTORE PUSH1 0x20 ADD SWAP1 DUP2 MSTORE PUSH1 0x20 ADD PUSH1 0x0 KECCAK256 SLOAD EQ PUSH2 0x1232 JUMPI PUSH1 0x0 PUSH2 0x1148 DUP4 PUSH1 0x2 PUSH1 0x0 DUP9 PUSH20 0xFFFFFFFFFFFFFFFFFFFFFFFFFFFFFFFFFFFFFFFF AND PUSH20 0xFFFFFFFFFFFFFFFFFFFFFFFFFFFFFFFFFFFFFFFF AND DUP2 MSTORE PUSH1 0x20 ADD SWAP1 DUP2 MSTORE PUSH1 0x20 ADD PUSH1 0x0 KECCAK256 PUSH1 0x0 CALLER PUSH20 0xFFFFFFFFFFFFFFFFFFFFFFFFFFFFFFFFFFFFFFFF AND PUSH20 0xFFFFFFFFFFFFFFFFFFFFFFFFFFFFFFFFFFFFFFFF AND DUP2 MSTORE PUSH1 0x20 ADD SWAP1 DUP2 MSTORE PUSH1 0x20 ADD PUSH1 0x0 KECCAK256 SLOAD PUSH2 0x4A13 SWAP1 SWAP2 SWAP1 PUSH4 0xFFFFFFFF AND JUMP JUMPDEST SWAP1 POP DUP1 PUSH1 0x2 PUSH1 0x0 DUP8 PUSH20 0xFFFFFFFFFFFFFFFFFFFFFFFFFFFFFFFFFFFFFFFF AND PUSH20 0xFFFFFFFFFFFFFFFFFFFFFFFFFFFFFFFFFFFFFFFF AND DUP2 MSTORE PUSH1 0x20 ADD SWAP1 DUP2 MSTORE PUSH1 0x20 ADD PUSH1 0x0 KECCAK256 PUSH1 0x0 CALLER PUSH20 0xFFFFFFFFFFFFFFFFFFFFFFFFFFFFFFFFFFFFFFFF AND PUSH20 0xFFFFFFFFFFFFFFFFFFFFFFFFFFFFFFFFFFFFFFFF AND DUP2 MSTORE PUSH1 0x20 ADD SWAP1 DUP2 MSTORE PUSH1 0x20 ADD PUSH1 0x0 KECCAK256 DUP2 SWAP1 SSTORE POP CALLER PUSH20 0xFFFFFFFFFFFFFFFFFFFFFFFFFFFFFFFFFFFFFFFF AND DUP6 PUSH20 0xFFFFFFFFFFFFFFFFFFFFFFFFFFFFFFFFFFFFFFFF AND PUSH32 0x8C5BE1E5EBEC7D5BD14F71427D1E84F3DD0314C0F7B2291E5B200AC8C7C3B925 DUP4 PUSH1 0x40 MLOAD DUP1 DUP3 DUP2 MSTORE PUSH1 0x20 ADD SWAP2 POP POP PUSH1 0x40 MLOAD DUP1 SWAP2 SUB SWAP1 LOG3 POP JUMPDEST PUSH2 0x123D DUP5 DUP5 DUP5 PUSH2 0x4A96 JUMP JUMPDEST PUSH1 0x1 SWAP1 POP SWAP4 SWAP3 POP POP POP JUMP JUMPDEST PUSH1 0xA SLOAD DUP2 JUMP JUMPDEST PUSH1 0x8 PUSH1 0x1E SWAP1 SLOAD SWAP1 PUSH2 0x100 EXP SWAP1 DIV PUSH2 0xFFFF AND DUP2 JUMP JUMPDEST PUSH1 0x1 PUSH1 0xD SLOAD EQ PUSH2 0x12DA JUMPI PUSH1 0x40 MLOAD PUSH32 0x8C379A000000000000000000000000000000000000000000000000000000000 DUP2 MSTORE PUSH1 0x4 ADD DUP1 DUP1 PUSH1 0x20 ADD DUP3 DUP2 SUB DUP3 MSTORE PUSH1 0xB DUP2 MSTORE PUSH1 0x20 ADD DUP1 PUSH32 0x31306B3A204C4F434B4544000000000000000000000000000000000000000000 DUP2 MSTORE POP PUSH1 0x20 ADD SWAP2 POP POP PUSH1 0x40 MLOAD DUP1 SWAP2 SUB SWAP1 REVERT JUMPDEST PUSH1 0x0 PUSH1 0xD DUP2 SWAP1 SSTORE POP PUSH1 0x5 PUSH1 0x0 SWAP1 SLOAD SWAP1 PUSH2 0x100 EXP SWAP1 DIV PUSH20 0xFFFFFFFFFFFFFFFFFFFFFFFFFFFFFFFFFFFFFFFF AND PUSH20 0xFFFFFFFFFFFFFFFFFFFFFFFFFFFFFFFFFFFFFFFF AND PUSH4 0xFC39026A PUSH1 0x40 MLOAD DUP2 PUSH4 0xFFFFFFFF AND PUSH1 0xE0 SHL DUP2 MSTORE PUSH1 0x4 ADD PUSH1 0x20 PUSH1 0x40 MLOAD DUP1 DUP4 SUB DUP2 DUP7 DUP1 EXTCODESIZE ISZERO DUP1 ISZERO PUSH2 0x134A JUMPI PUSH1 0x0 DUP1 REVERT JUMPDEST POP GAS STATICCALL ISZERO DUP1 ISZERO PUSH2 0x135E JUMPI RETURNDATASIZE PUSH1 0x0 DUP1 RETURNDATACOPY RETURNDATASIZE PUSH1 0x0 REVERT JUMPDEST POP POP POP POP PUSH1 0x40 MLOAD RETURNDATASIZE PUSH1 0x20 DUP2 LT ISZERO PUSH2 0x1374 JUMPI PUSH1 0x0 DUP1 REVERT JUMPDEST DUP2 ADD SWAP1 DUP1 DUP1 MLOAD SWAP1 PUSH1 0x20 ADD SWAP1 SWAP3 SWAP2 SWAP1 POP POP POP PUSH20 0xFFFFFFFFFFFFFFFFFFFFFFFFFFFFFFFFFFFFFFFF AND CALLER PUSH20 0xFFFFFFFFFFFFFFFFFFFFFFFFFFFFFFFFFFFFFFFF AND EQ PUSH2 0x1408 JUMPI PUSH1 0x40 MLOAD PUSH32 0x8C379A000000000000000000000000000000000000000000000000000000000 DUP2 MSTORE PUSH1 0x4 ADD DUP1 DUP1 PUSH1 0x20 ADD DUP3 DUP2 SUB DUP3 MSTORE PUSH1 0x22 DUP2 MSTORE PUSH1 0x20 ADD DUP1 PUSH2 0x5CA8 PUSH1 0x22 SWAP2 CODECOPY PUSH1 0x40 ADD SWAP2 POP POP PUSH1 0x40 MLOAD DUP1 SWAP2 SUB SWAP1 REVERT JUMPDEST PUSH1 0xC PUSH1 0x1 SWAP1 SLOAD SWAP1 PUSH2 0x100 EXP SWAP1 DIV PUSH1 0xFF AND ISZERO PUSH2 0x148B JUMPI PUSH1 0x40 MLOAD PUSH32 0x8C379A000000000000000000000000000000000000000000000000000000000 DUP2 MSTORE PUSH1 0x4 ADD DUP1 DUP1 PUSH1 0x20 ADD DUP3 DUP2 SUB DUP3 MSTORE PUSH1 0xE DUP2 MSTORE PUSH1 0x20 ADD DUP1 PUSH32 0x31306B3A20696D6D757461626C65000000000000000000000000000000000000 DUP2 MSTORE POP PUSH1 0x20 ADD SWAP2 POP POP PUSH1 0x40 MLOAD DUP1 SWAP2 SUB SWAP1 REVERT JUMPDEST PUSH1 0xC PUSH1 0x0 SWAP1 SLOAD SWAP1 PUSH2 0x100 EXP SWAP1 DIV PUSH1 0xFF AND ISZERO ISZERO DUP4 ISZERO ISZERO EQ ISZERO PUSH2 0x1514 JUMPI PUSH1 0x40 MLOAD PUSH32 0x8C379A000000000000000000000000000000000000000000000000000000000 DUP2 MSTORE PUSH1 0x4 ADD DUP1 DUP1 PUSH1 0x20 ADD DUP3 DUP2 SUB DUP3 MSTORE PUSH1 0xE DUP2 MSTORE PUSH1 0x20 ADD DUP1 PUSH32 0x31306B3A206E6F20757064617465000000000000000000000000000000000000 DUP2 MSTORE POP PUSH1 0x20 ADD SWAP2 POP POP PUSH1 0x40 MLOAD DUP1 SWAP2 SUB SWAP1 REVERT JUMPDEST PUSH1 0x8 PUSH1 0x0 SWAP1 SLOAD SWAP1 PUSH2 0x100 EXP SWAP1 DIV PUSH14 0xFFFFFFFFFFFFFFFFFFFFFFFFFFFF AND PUSH14 0xFFFFFFFFFFFFFFFFFFFFFFFFFFFF AND DUP3 PUSH14 0xFFFFFFFFFFFFFFFFFFFFFFFFFFFF AND EQ DUP1 ISZERO PUSH2 0x159A JUMPI POP PUSH1 0x8 PUSH1 0xE SWAP1 SLOAD SWAP1 PUSH2 0x100 EXP SWAP1 DIV PUSH14 0xFFFFFFFFFFFFFFFFFFFFFFFFFFFF AND PUSH14 0xFFFFFFFFFFFFFFFFFFFFFFFFFFFF AND DUP2 PUSH14 0xFFFFFFFFFFFFFFFFFFFFFFFFFFFF AND EQ JUMPDEST PUSH2 0x160C JUMPI PUSH1 0x40 MLOAD PUSH32 0x8C379A000000000000000000000000000000000000000000000000000000000 DUP2 MSTORE PUSH1 0x4 ADD DUP1 DUP1 PUSH1 0x20 ADD DUP3 DUP2 SUB DUP3 MSTORE PUSH1 0xB DUP2 MSTORE PUSH1 0x20 ADD DUP1 PUSH32 0x31306B3A206661696C6564000000000000000000000000000000000000000000 DUP2 MSTORE POP PUSH1 0x20 ADD SWAP2 POP POP PUSH1 0x40 MLOAD DUP1 SWAP2 SUB SWAP1 REVERT JUMPDEST PUSH1 0x0 PUSH2 0x1650 PUSH1 0x8 PUSH1 0x0 SWAP1 SLOAD SWAP1 PUSH2 0x100 EXP SWAP1 DIV PUSH14 0xFFFFFFFFFFFFFFFFFFFFFFFFFFFF AND PUSH1 0x8 PUSH1 0xE SWAP1 SLOAD SWAP1 PUSH2 0x100 EXP SWAP1 DIV PUSH14 0xFFFFFFFFFFFFFFFFFFFFFFFFFFFF AND PUSH2 0x4C2A JUMP JUMPDEST SWAP1 POP PUSH32 0xB6A86710BDE53AA7FB1B3856279E2AF5B476D53E2DD0902CF17A0911B5A43A8B PUSH1 0xC PUSH1 0x0 SWAP1 SLOAD SWAP1 PUSH2 0x100 EXP SWAP1 DIV PUSH1 0xFF AND DUP6 PUSH1 0x40 MLOAD DUP1 DUP4 ISZERO ISZERO ISZERO ISZERO DUP2 MSTORE PUSH1 0x20 ADD DUP3 ISZERO ISZERO ISZERO ISZERO DUP2 MSTORE PUSH1 0x20 ADD SWAP3 POP POP POP PUSH1 0x40 MLOAD DUP1 SWAP2 SUB SWAP1 LOG1 DUP4 PUSH1 0xC PUSH1 0x0 PUSH2 0x100 EXP DUP2 SLOAD DUP2 PUSH1 0xFF MUL NOT AND SWAP1 DUP4 ISZERO ISZERO MUL OR SWAP1 SSTORE POP DUP4 DUP1 ISZERO PUSH2 0x16CC JUMPI POP DUP1 JUMPDEST PUSH2 0x16D7 JUMPI PUSH1 0x0 PUSH2 0x173A JUMP JUMPDEST PUSH2 0x1739 PUSH1 0x8 PUSH1 0x0 SWAP1 SLOAD SWAP1 PUSH2 0x100 EXP SWAP1 DIV PUSH14 0xFFFFFFFFFFFFFFFFFFFFFFFFFFFF AND PUSH14 0xFFFFFFFFFFFFFFFFFFFFFFFFFFFF AND PUSH1 0x8 PUSH1 0xE SWAP1 SLOAD SWAP1 PUSH2 0x100 EXP SWAP1 DIV PUSH14 0xFFFFFFFFFFFFFFFFFFFFFFFFFFFF AND PUSH14 0xFFFFFFFFFFFFFFFFFFFFFFFFFFFF AND PUSH2 0x4E8C JUMP JUMPDEST JUMPDEST PUSH1 0xB DUP2 SWAP1 SSTORE POP POP PUSH1 0x1 PUSH1 0xD DUP2 SWAP1 SSTORE POP POP POP POP JUMP JUMPDEST PUSH32 0x6E71EDAE12B1B97F4D1F60370FEF10105FA2FAAE0126114A169C64845D6126C9 PUSH1 0x0 SHL DUP2 JUMP JUMPDEST PUSH1 0x12 DUP2 JUMP JUMPDEST PUSH1 0x3 SLOAD DUP2 JUMP JUMPDEST PUSH1 0x9 SLOAD DUP2 JUMP JUMPDEST PUSH1 0x1 PUSH1 0xD SLOAD EQ PUSH2 0x17FE JUMPI PUSH1 0x40 MLOAD PUSH32 0x8C379A000000000000000000000000000000000000000000000000000000000 DUP2 MSTORE PUSH1 0x4 ADD DUP1 DUP1 PUSH1 0x20 ADD DUP3 DUP2 SUB DUP3 MSTORE PUSH1 0xB DUP2 MSTORE PUSH1 0x20 ADD DUP1 PUSH32 0x31306B3A204C4F434B4544000000000000000000000000000000000000000000 DUP2 MSTORE POP PUSH1 0x20 ADD SWAP2 POP POP PUSH1 0x40 MLOAD DUP1 SWAP2 SUB SWAP1 REVERT JUMPDEST PUSH1 0x0 PUSH1 0xD DUP2 SWAP1 SSTORE POP PUSH1 0x5 PUSH1 0x0 SWAP1 SLOAD SWAP1 PUSH2 0x100 EXP SWAP1 DIV PUSH20 0xFFFFFFFFFFFFFFFFFFFFFFFFFFFFFFFFFFFFFFFF AND PUSH20 0xFFFFFFFFFFFFFFFFFFFFFFFFFFFFFFFFFFFFFFFF AND PUSH4 0x8DA5CB5B PUSH1 0x40 MLOAD DUP2 PUSH4 0xFFFFFFFF AND PUSH1 0xE0 SHL DUP2 MSTORE PUSH1 0x4 ADD PUSH1 0x20 PUSH1 0x40 MLOAD DUP1 DUP4 SUB DUP2 DUP7 DUP1 EXTCODESIZE ISZERO DUP1 ISZERO PUSH2 0x186E JUMPI PUSH1 0x0 DUP1 REVERT JUMPDEST POP GAS STATICCALL ISZERO DUP1 ISZERO PUSH2 0x1882 JUMPI RETURNDATASIZE PUSH1 0x0 DUP1 RETURNDATACOPY RETURNDATASIZE PUSH1 0x0 REVERT JUMPDEST POP POP POP POP PUSH1 0x40 MLOAD RETURNDATASIZE PUSH1 0x20 DUP2 LT ISZERO PUSH2 0x1898 JUMPI PUSH1 0x0 DUP1 REVERT JUMPDEST DUP2 ADD SWAP1 DUP1 DUP1 MLOAD SWAP1 PUSH1 0x20 ADD SWAP1 SWAP3 SWAP2 SWAP1 POP POP POP PUSH20 0xFFFFFFFFFFFFFFFFFFFFFFFFFFFFFFFFFFFFFFFF AND CALLER PUSH20 0xFFFFFFFFFFFFFFFFFFFFFFFFFFFFFFFFFFFFFFFF AND EQ PUSH2 0x1949 JUMPI PUSH1 0x40 MLOAD PUSH32 0x8C379A000000000000000000000000000000000000000000000000000000000 DUP2 MSTORE PUSH1 0x4 ADD DUP1 DUP1 PUSH1 0x20 ADD DUP3 DUP2 SUB DUP3 MSTORE PUSH1 0x19 DUP2 MSTORE PUSH1 0x20 ADD DUP1 PUSH32 0x31306B3A206F6E6C7920666163746F72792773206F776E657200000000000000 DUP2 MSTORE POP PUSH1 0x20 ADD SWAP2 POP POP PUSH1 0x40 MLOAD DUP1 SWAP2 SUB SWAP1 REVERT JUMPDEST PUSH1 0xC PUSH1 0x1 SWAP1 SLOAD SWAP1 PUSH2 0x100 EXP SWAP1 DIV PUSH1 0xFF AND ISZERO PUSH2 0x19CC JUMPI PUSH1 0x40 MLOAD PUSH32 0x8C379A000000000000000000000000000000000000000000000000000000000 DUP2 MSTORE PUSH1 0x4 ADD DUP1 DUP1 PUSH1 0x20 ADD DUP3 DUP2 SUB DUP3 MSTORE PUSH1 0x16 DUP2 MSTORE PUSH1 0x20 ADD DUP1 PUSH32 0x31306B3A20616C726561647920696D6D757461626C6500000000000000000000 DUP2 MSTORE POP PUSH1 0x20 ADD SWAP2 POP POP PUSH1 0x40 MLOAD DUP1 SWAP2 SUB SWAP1 REVERT JUMPDEST PUSH1 0x1 PUSH1 0xC PUSH1 0x1 PUSH2 0x100 EXP DUP2 SLOAD DUP2 PUSH1 0xFF MUL NOT AND SWAP1 DUP4 ISZERO ISZERO MUL OR SWAP1 SSTORE POP PUSH32 0x9122C41AE733A4D7740324D50E35FBD6EE85BE3C1312A45596D8045150AB2F2 PUSH1 0x40 MLOAD PUSH1 0x40 MLOAD DUP1 SWAP2 SUB SWAP1 LOG1 PUSH1 0x1 PUSH1 0xD DUP2 SWAP1 SSTORE POP JUMP JUMPDEST PUSH1 0x5 PUSH1 0x0 SWAP1 SLOAD SWAP1 PUSH2 0x100 EXP SWAP1 DIV PUSH20 0xFFFFFFFFFFFFFFFFFFFFFFFFFFFFFFFFFFFFFFFF AND PUSH20 0xFFFFFFFFFFFFFFFFFFFFFFFFFFFFFFFFFFFFFFFF AND CALLER PUSH20 0xFFFFFFFFFFFFFFFFFFFFFFFFFFFFFFFFFFFFFFFF AND EQ DUP1 ISZERO PUSH2 0x1A87 JUMPI POP PUSH1 0x7 PUSH1 0x14 SWAP1 SLOAD SWAP1 PUSH2 0x100 EXP SWAP1 DIV PUSH1 0xFF AND ISZERO JUMPDEST PUSH2 0x1AF9 JUMPI PUSH1 0x40 MLOAD PUSH32 0x8C379A000000000000000000000000000000000000000000000000000000000 DUP2 MSTORE PUSH1 0x4 ADD DUP1 DUP1 PUSH1 0x20 ADD DUP3 DUP2 SUB DUP3 MSTORE PUSH1 0xE DUP2 MSTORE PUSH1 0x20 ADD DUP1 PUSH32 0x31306B3A20464F5242494444454E000000000000000000000000000000000000 DUP2 MSTORE POP PUSH1 0x20 ADD SWAP2 POP POP PUSH1 0x40 MLOAD DUP1 SWAP2 SUB SWAP1 REVERT JUMPDEST DUP2 PUSH1 0x6 PUSH1 0x0 PUSH2 0x100 EXP DUP2 SLOAD DUP2 PUSH20 0xFFFFFFFFFFFFFFFFFFFFFFFFFFFFFFFFFFFFFFFF MUL NOT AND SWAP1 DUP4 PUSH20 0xFFFFFFFFFFFFFFFFFFFFFFFFFFFFFFFFFFFFFFFF AND MUL OR SWAP1 SSTORE POP DUP1 PUSH1 0x7 PUSH1 0x0 PUSH2 0x100 EXP DUP2 SLOAD DUP2 PUSH20 0xFFFFFFFFFFFFFFFFFFFFFFFFFFFFFFFFFFFFFFFF MUL NOT AND SWAP1 DUP4 PUSH20 0xFFFFFFFFFFFFFFFFFFFFFFFFFFFFFFFFFFFFFFFF AND MUL OR SWAP1 SSTORE POP DUP2 PUSH20 0xFFFFFFFFFFFFFFFFFFFFFFFFFFFFFFFFFFFFFFFF AND PUSH4 0x313CE567 PUSH1 0x40 MLOAD DUP2 PUSH4 0xFFFFFFFF AND PUSH1 0xE0 SHL DUP2 MSTORE PUSH1 0x4 ADD PUSH1 0x20 PUSH1 0x40 MLOAD DUP1 DUP4 SUB DUP2 DUP7 DUP1 EXTCODESIZE ISZERO DUP1 ISZERO PUSH2 0x1BC1 JUMPI PUSH1 0x0 DUP1 REVERT JUMPDEST POP GAS STATICCALL ISZERO DUP1 ISZERO PUSH2 0x1BD5 JUMPI RETURNDATASIZE PUSH1 0x0 DUP1 RETURNDATACOPY RETURNDATASIZE PUSH1 0x0 REVERT JUMPDEST POP POP POP POP PUSH1 0x40 MLOAD RETURNDATASIZE PUSH1 0x20 DUP2 LT ISZERO PUSH2 0x1BEB JUMPI PUSH1 0x0 DUP1 REVERT JUMPDEST DUP2 ADD SWAP1 DUP1 DUP1 MLOAD SWAP1 PUSH1 0x20 ADD SWAP1 SWAP3 SWAP2 SWAP1 POP POP POP PUSH1 0xFF AND PUSH1 0xA EXP PUSH1 0x9 DUP2 SWAP1 SSTORE POP DUP1 PUSH20 0xFFFFFFFFFFFFFFFFFFFFFFFFFFFFFFFFFFFFFFFF AND PUSH4 0x313CE567 PUSH1 0x40 MLOAD DUP2 PUSH4 0xFFFFFFFF AND PUSH1 0xE0 SHL DUP2 MSTORE PUSH1 0x4 ADD PUSH1 0x20 PUSH1 0x40 MLOAD DUP1 DUP4 SUB DUP2 DUP7 DUP1 EXTCODESIZE ISZERO DUP1 ISZERO PUSH2 0x1C4E JUMPI PUSH1 0x0 DUP1 REVERT JUMPDEST POP GAS STATICCALL ISZERO DUP1 ISZERO PUSH2 0x1C62 JUMPI RETURNDATASIZE PUSH1 0x0 DUP1 RETURNDATACOPY RETURNDATASIZE PUSH1 0x0 REVERT JUMPDEST POP POP POP POP PUSH1 0x40 MLOAD RETURNDATASIZE PUSH1 0x20 DUP2 LT ISZERO PUSH2 0x1C78 JUMPI PUSH1 0x0 DUP1 REVERT JUMPDEST DUP2 ADD SWAP1 DUP1 DUP1 MLOAD SWAP1 PUSH1 0x20 ADD SWAP1 SWAP3 SWAP2 SWAP1 POP POP POP PUSH1 0xFF AND PUSH1 0xA EXP PUSH1 0xA DUP2 SWAP1 SSTORE POP PUSH1 0x1 PUSH1 0x7 PUSH1 0x14 PUSH2 0x100 EXP DUP2 SLOAD DUP2 PUSH1 0xFF MUL NOT AND SWAP1 DUP4 ISZERO ISZERO MUL OR SWAP1 SSTORE POP POP POP JUMP JUMPDEST PUSH1 0x1 PUSH1 0xD SLOAD EQ PUSH2 0x1D2C JUMPI PUSH1 0x40 MLOAD PUSH32 0x8C379A000000000000000000000000000000000000000000000000000000000 DUP2 MSTORE PUSH1 0x4 ADD DUP1 DUP1 PUSH1 0x20 ADD DUP3 DUP2 SUB DUP3 MSTORE PUSH1 0xB DUP2 MSTORE PUSH1 0x20 ADD DUP1 PUSH32 0x31306B3A204C4F434B4544000000000000000000000000000000000000000000 DUP2 MSTORE POP PUSH1 0x20 ADD SWAP2 POP POP PUSH1 0x40 MLOAD DUP1 SWAP2 SUB SWAP1 REVERT JUMPDEST PUSH1 0x0 PUSH1 0xD DUP2 SWAP1 SSTORE POP PUSH1 0x5 PUSH1 0x0 SWAP1 SLOAD SWAP1 PUSH2 0x100 EXP SWAP1 DIV PUSH20 0xFFFFFFFFFFFFFFFFFFFFFFFFFFFFFFFFFFFFFFFF AND PUSH20 0xFFFFFFFFFFFFFFFFFFFFFFFFFFFFFFFFFFFFFFFF AND PUSH4 0x4C217715 PUSH1 0x40 MLOAD DUP2 PUSH4 0xFFFFFFFF AND PUSH1 0xE0 SHL DUP2 MSTORE PUSH1 0x4 ADD PUSH1 0x20 PUSH1 0x40 MLOAD DUP1 DUP4 SUB DUP2 DUP7 DUP1 EXTCODESIZE ISZERO DUP1 ISZERO PUSH2 0x1D9C JUMPI PUSH1 0x0 DUP1 REVERT JUMPDEST POP GAS STATICCALL ISZERO DUP1 ISZERO PUSH2 0x1DB0 JUMPI RETURNDATASIZE PUSH1 0x0 DUP1 RETURNDATACOPY RETURNDATASIZE PUSH1 0x0 REVERT JUMPDEST POP POP POP POP PUSH1 0x40 MLOAD RETURNDATASIZE PUSH1 0x20 DUP2 LT ISZERO PUSH2 0x1DC6 JUMPI PUSH1 0x0 DUP1 REVERT JUMPDEST DUP2 ADD SWAP1 DUP1 DUP1 MLOAD SWAP1 PUSH1 0x20 ADD SWAP1 SWAP3 SWAP2 SWAP1 POP POP POP PUSH20 0xFFFFFFFFFFFFFFFFFFFFFFFFFFFFFFFFFFFFFFFF AND CALLER PUSH20 0xFFFFFFFFFFFFFFFFFFFFFFFFFFFFFFFFFFFFFFFF AND EQ PUSH2 0x1E5A JUMPI PUSH1 0x40 MLOAD PUSH32 0x8C379A000000000000000000000000000000000000000000000000000000000 DUP2 MSTORE PUSH1 0x4 ADD DUP1 DUP1 PUSH1 0x20 ADD DUP3 DUP2 SUB DUP3 MSTORE PUSH1 0x22 DUP2 MSTORE PUSH1 0x20 ADD DUP1 PUSH2 0x5CCA PUSH1 0x22 SWAP2 CODECOPY PUSH1 0x40 ADD SWAP2 POP POP PUSH1 0x40 MLOAD DUP1 SWAP2 SUB SWAP1 REVERT JUMPDEST PUSH2 0x7D0 DUP3 PUSH2 0xFFFF AND GT ISZERO DUP1 ISZERO PUSH2 0x1E76 JUMPI POP PUSH2 0x7D0 DUP2 PUSH2 0xFFFF AND GT ISZERO JUMPDEST PUSH2 0x1ECB JUMPI PUSH1 0x40 MLOAD PUSH32 0x8C379A000000000000000000000000000000000000000000000000000000000 DUP2 MSTORE PUSH1 0x4 ADD DUP1 DUP1 PUSH1 0x20 ADD DUP3 DUP2 SUB DUP3 MSTORE PUSH1 0x2A DUP2 MSTORE PUSH1 0x20 ADD DUP1 PUSH2 0x5CEC PUSH1 0x2A SWAP2 CODECOPY PUSH1 0x40 ADD SWAP2 POP POP PUSH1 0x40 MLOAD DUP1 SWAP2 SUB SWAP1 REVERT JUMPDEST PUSH1 0x0 DUP3 PUSH2 0xFFFF AND GT DUP1 ISZERO PUSH2 0x1EE3 JUMPI POP PUSH1 0x0 DUP2 PUSH2 0xFFFF AND GT JUMPDEST PUSH2 0x1F38 JUMPI PUSH1 0x40 MLOAD PUSH32 0x8C379A000000000000000000000000000000000000000000000000000000000 DUP2 MSTORE PUSH1 0x4 ADD DUP1 DUP1 PUSH1 0x20 ADD DUP3 DUP2 SUB DUP3 MSTORE PUSH1 0x2A DUP2 MSTORE PUSH1 0x20 ADD DUP1 PUSH2 0x5D16 PUSH1 0x2A SWAP2 CODECOPY PUSH1 0x40 ADD SWAP2 POP POP PUSH1 0x40 MLOAD DUP1 SWAP2 SUB SWAP1 REVERT JUMPDEST DUP2 PUSH1 0x8 PUSH1 0x1C PUSH2 0x100 EXP DUP2 SLOAD DUP2 PUSH2 0xFFFF MUL NOT AND SWAP1 DUP4 PUSH2 0xFFFF AND MUL OR SWAP1 SSTORE POP DUP1 PUSH1 0x8 PUSH1 0x1E PUSH2 0x100 EXP DUP2 SLOAD DUP2 PUSH2 0xFFFF MUL NOT AND SWAP1 DUP4 PUSH2 0xFFFF AND MUL OR SWAP1 SSTORE POP PUSH32 0xA4877B8ECB5A00BA277E4BCEEEB187A669E7113649774DFBEA05C259CE27F17B DUP3 DUP3 PUSH1 0x40 MLOAD DUP1 DUP4 PUSH2 0xFFFF AND PUSH2 0xFFFF AND DUP2 MSTORE PUSH1 0x20 ADD DUP3 PUSH2 0xFFFF AND PUSH2 0xFFFF AND DUP2 MSTORE PUSH1 0x20 ADD SWAP3 POP POP POP PUSH1 0x40 MLOAD DUP1 SWAP2 SUB SWAP1 LOG1 PUSH1 0x1 PUSH1 0xD DUP2 SWAP1 SSTORE POP POP POP JUMP JUMPDEST PUSH1 0x8 PUSH1 0x1C SWAP1 SLOAD SWAP1 PUSH2 0x100 EXP SWAP1 DIV PUSH2 0xFFFF AND DUP2 JUMP JUMPDEST PUSH2 0x7D0 DUP2 JUMP JUMPDEST PUSH1 0x0 PUSH1 0x1 PUSH1 0xD SLOAD EQ PUSH2 0x2061 JUMPI PUSH1 0x40 MLOAD PUSH32 0x8C379A000000000000000000000000000000000000000000000000000000000 DUP2 MSTORE PUSH1 0x4 ADD DUP1 DUP1 PUSH1 0x20 ADD DUP3 DUP2 SUB DUP3 MSTORE PUSH1 0xB DUP2 MSTORE PUSH1 0x20 ADD DUP1 PUSH32 0x31306B3A204C4F434B4544000000000000000000000000000000000000000000 DUP2 MSTORE POP PUSH1 0x20 ADD SWAP2 POP POP PUSH1 0x40 MLOAD DUP1 SWAP2 SUB SWAP1 REVERT JUMPDEST PUSH1 0x0 PUSH1 0xD DUP2 SWAP1 SSTORE POP PUSH1 0x0 DUP1 PUSH2 0x2074 PUSH2 0xF4C JUMP JUMPDEST POP POP SWAP2 POP SWAP2 POP PUSH1 0x0 PUSH1 0x6 PUSH1 0x0 SWAP1 SLOAD SWAP1 PUSH2 0x100 EXP SWAP1 DIV PUSH20 0xFFFFFFFFFFFFFFFFFFFFFFFFFFFFFFFFFFFFFFFF AND PUSH20 0xFFFFFFFFFFFFFFFFFFFFFFFFFFFFFFFFFFFFFFFF AND PUSH4 0x70A08231 ADDRESS PUSH1 0x40 MLOAD DUP3 PUSH4 0xFFFFFFFF AND PUSH1 0xE0 SHL DUP2 MSTORE PUSH1 0x4 ADD DUP1 DUP3 PUSH20 0xFFFFFFFFFFFFFFFFFFFFFFFFFFFFFFFFFFFFFFFF AND PUSH20 0xFFFFFFFFFFFFFFFFFFFFFFFFFFFFFFFFFFFFFFFF AND DUP2 MSTORE PUSH1 0x20 ADD SWAP2 POP POP PUSH1 0x20 PUSH1 0x40 MLOAD DUP1 DUP4 SUB DUP2 DUP7 DUP1 EXTCODESIZE ISZERO DUP1 ISZERO PUSH2 0x211B JUMPI PUSH1 0x0 DUP1 REVERT JUMPDEST POP GAS STATICCALL ISZERO DUP1 ISZERO PUSH2 0x212F JUMPI RETURNDATASIZE PUSH1 0x0 DUP1 RETURNDATACOPY RETURNDATASIZE PUSH1 0x0 REVERT JUMPDEST POP POP POP POP PUSH1 0x40 MLOAD RETURNDATASIZE PUSH1 0x20 DUP2 LT ISZERO PUSH2 0x2145 JUMPI PUSH1 0x0 DUP1 REVERT JUMPDEST DUP2 ADD SWAP1 DUP1 DUP1 MLOAD SWAP1 PUSH1 0x20 ADD SWAP1 SWAP3 SWAP2 SWAP1 POP POP POP SWAP1 POP PUSH1 0x0 PUSH1 0x7 PUSH1 0x0 SWAP1 SLOAD SWAP1 PUSH2 0x100 EXP SWAP1 DIV PUSH20 0xFFFFFFFFFFFFFFFFFFFFFFFFFFFFFFFFFFFFFFFF AND PUSH20 0xFFFFFFFFFFFFFFFFFFFFFFFFFFFFFFFFFFFFFFFF AND PUSH4 0x70A08231 ADDRESS PUSH1 0x40 MLOAD DUP3 PUSH4 0xFFFFFFFF AND PUSH1 0xE0 SHL DUP2 MSTORE PUSH1 0x4 ADD DUP1 DUP3 PUSH20 0xFFFFFFFFFFFFFFFFFFFFFFFFFFFFFFFFFFFFFFFF AND PUSH20 0xFFFFFFFFFFFFFFFFFFFFFFFFFFFFFFFFFFFFFFFF AND DUP2 MSTORE PUSH1 0x20 ADD SWAP2 POP POP PUSH1 0x20 PUSH1 0x40 MLOAD DUP1 DUP4 SUB DUP2 DUP7 DUP1 EXTCODESIZE ISZERO DUP1 ISZERO PUSH2 0x21F9 JUMPI PUSH1 0x0 DUP1 REVERT JUMPDEST POP GAS STATICCALL ISZERO DUP1 ISZERO PUSH2 0x220D JUMPI RETURNDATASIZE PUSH1 0x0 DUP1 RETURNDATACOPY RETURNDATASIZE PUSH1 0x0 REVERT JUMPDEST POP POP POP POP PUSH1 0x40 MLOAD RETURNDATASIZE PUSH1 0x20 DUP2 LT ISZERO PUSH2 0x2223 JUMPI PUSH1 0x0 DUP1 REVERT JUMPDEST DUP2 ADD SWAP1 DUP1 DUP1 MLOAD SWAP1 PUSH1 0x20 ADD SWAP1 SWAP3 SWAP2 SWAP1 POP POP POP SWAP1 POP PUSH1 0x0 PUSH2 0x225B DUP6 PUSH14 0xFFFFFFFFFFFFFFFFFFFFFFFFFFFF AND DUP5 PUSH2 0x4A13 SWAP1 SWAP2 SWAP1 PUSH4 0xFFFFFFFF AND JUMP JUMPDEST SWAP1 POP PUSH1 0x0 PUSH2 0x2282 DUP6 PUSH14 0xFFFFFFFFFFFFFFFFFFFFFFFFFFFF AND DUP5 PUSH2 0x4A13 SWAP1 SWAP2 SWAP1 PUSH4 0xFFFFFFFF AND JUMP JUMPDEST SWAP1 POP PUSH1 0x0 PUSH2 0x2290 DUP8 DUP8 PUSH2 0x4C2A JUMP JUMPDEST SWAP1 POP PUSH1 0x0 DUP1 SLOAD SWAP1 POP PUSH1 0x0 DUP2 EQ ISZERO PUSH2 0x22E4 JUMPI PUSH2 0x22D0 PUSH2 0x3E8 PUSH2 0x22C2 PUSH2 0x22BD DUP7 DUP9 PUSH2 0x4FC7 SWAP1 SWAP2 SWAP1 PUSH4 0xFFFFFFFF AND JUMP JUMPDEST PUSH2 0x505C JUMP JUMPDEST PUSH2 0x4A13 SWAP1 SWAP2 SWAP1 PUSH4 0xFFFFFFFF AND JUMP JUMPDEST SWAP9 POP PUSH2 0x22DF PUSH1 0x0 PUSH2 0x3E8 PUSH2 0x50BE JUMP JUMPDEST PUSH2 0x2347 JUMP JUMPDEST PUSH2 0x2344 DUP9 PUSH14 0xFFFFFFFFFFFFFFFFFFFFFFFFFFFF AND PUSH2 0x230B DUP4 DUP8 PUSH2 0x4FC7 SWAP1 SWAP2 SWAP1 PUSH4 0xFFFFFFFF AND JUMP JUMPDEST DUP2 PUSH2 0x2312 JUMPI INVALID JUMPDEST DIV DUP9 PUSH14 0xFFFFFFFFFFFFFFFFFFFFFFFFFFFF AND PUSH2 0x2337 DUP5 DUP8 PUSH2 0x4FC7 SWAP1 SWAP2 SWAP1 PUSH4 0xFFFFFFFF AND JUMP JUMPDEST DUP2 PUSH2 0x233E JUMPI INVALID JUMPDEST DIV PUSH2 0x51D8 JUMP JUMPDEST SWAP9 POP JUMPDEST PUSH1 0x0 DUP10 GT PUSH2 0x23A0 JUMPI PUSH1 0x40 MLOAD PUSH32 0x8C379A000000000000000000000000000000000000000000000000000000000 DUP2 MSTORE PUSH1 0x4 ADD DUP1 DUP1 PUSH1 0x20 ADD DUP3 DUP2 SUB DUP3 MSTORE PUSH1 0x22 DUP2 MSTORE PUSH1 0x20 ADD DUP1 PUSH2 0x5D40 PUSH1 0x22 SWAP2 CODECOPY PUSH1 0x40 ADD SWAP2 POP POP PUSH1 0x40 MLOAD DUP1 SWAP2 SUB SWAP1 REVERT JUMPDEST PUSH2 0x23AA DUP11 DUP11 PUSH2 0x50BE JUMP JUMPDEST PUSH2 0x23B4 DUP7 DUP7 PUSH2 0x51F1 JUMP JUMPDEST DUP2 ISZERO PUSH2 0x2423 JUMPI PUSH2 0x241C PUSH1 0x8 PUSH1 0x0 SWAP1 SLOAD SWAP1 PUSH2 0x100 EXP SWAP1 DIV PUSH14 0xFFFFFFFFFFFFFFFFFFFFFFFFFFFF AND PUSH14 0xFFFFFFFFFFFFFFFFFFFFFFFFFFFF AND PUSH1 0x8 PUSH1 0xE SWAP1 SLOAD SWAP1 PUSH2 0x100 EXP SWAP1 DIV PUSH14 0xFFFFFFFFFFFFFFFFFFFFFFFFFFFF AND PUSH14 0xFFFFFFFFFFFFFFFFFFFFFFFFFFFF AND PUSH2 0x4E8C JUMP JUMPDEST PUSH1 0xB DUP2 SWAP1 SSTORE POP JUMPDEST CALLER PUSH20 0xFFFFFFFFFFFFFFFFFFFFFFFFFFFFFFFFFFFFFFFF AND PUSH32 0x4C209B5FC8AD50758F13E2E1088BA56A560DFF690A1C6FEF26394F4C03821C4F DUP6 DUP6 PUSH1 0x40 MLOAD DUP1 DUP4 DUP2 MSTORE PUSH1 0x20 ADD DUP3 DUP2 MSTORE PUSH1 0x20 ADD SWAP3 POP POP POP PUSH1 0x40 MLOAD DUP1 SWAP2 SUB SWAP1 LOG2 POP POP POP POP POP POP POP POP PUSH1 0x1 PUSH1 0xD DUP2 SWAP1 SSTORE POP SWAP2 SWAP1 POP JUMP JUMPDEST PUSH2 0x2496 PUSH2 0x5C36 JUMP JUMPDEST PUSH1 0x40 MLOAD DUP1 PUSH2 0x100 ADD PUSH1 0x40 MSTORE DUP1 PUSH1 0x6 PUSH1 0x0 SWAP1 SLOAD SWAP1 PUSH2 0x100 EXP SWAP1 DIV PUSH20 0xFFFFFFFFFFFFFFFFFFFFFFFFFFFFFFFFFFFFFFFF AND PUSH20 0xFFFFFFFFFFFFFFFFFFFFFFFFFFFFFFFFFFFFFFFF AND DUP2 MSTORE PUSH1 0x20 ADD PUSH1 0x7 PUSH1 0x0 SWAP1 SLOAD SWAP1 PUSH2 0x100 EXP SWAP1 DIV PUSH20 0xFFFFFFFFFFFFFFFFFFFFFFFFFFFFFFFFFFFFFFFF AND PUSH20 0xFFFFFFFFFFFFFFFFFFFFFFFFFFFFFFFFFFFFFFFF AND DUP2 MSTORE PUSH1 0x20 ADD DUP9 DUP2 MSTORE PUSH1 0x20 ADD DUP8 DUP2 MSTORE PUSH1 0x20 ADD PUSH1 0x0 DUP2 MSTORE PUSH1 0x20 ADD PUSH1 0x0 DUP2 MSTORE PUSH1 0x20 ADD PUSH1 0x0 DUP2 MSTORE PUSH1 0x20 ADD PUSH1 0x0 DUP2 MSTORE POP SWAP1 POP PUSH2 0x2596 DUP2 DUP7 DUP7 DUP7 DUP1 DUP1 PUSH1 0x1F ADD PUSH1 0x20 DUP1 SWAP2 DIV MUL PUSH1 0x20 ADD PUSH1 0x40 MLOAD SWAP1 DUP2 ADD PUSH1 0x40 MSTORE DUP1 SWAP4 SWAP3 SWAP2 SWAP1 DUP2 DUP2 MSTORE PUSH1 0x20 ADD DUP4 DUP4 DUP1 DUP3 DUP5 CALLDATACOPY PUSH1 0x0 DUP2 DUP5 ADD MSTORE PUSH1 0x1F NOT PUSH1 0x1F DUP3 ADD AND SWAP1 POP DUP1 DUP4 ADD SWAP3 POP POP POP POP POP POP POP DUP6 PUSH2 0x3ACD JUMP JUMPDEST POP POP POP POP POP POP POP JUMP JUMPDEST PUSH1 0x1 PUSH1 0x20 MSTORE DUP1 PUSH1 0x0 MSTORE PUSH1 0x40 PUSH1 0x0 KECCAK256 PUSH1 0x0 SWAP2 POP SWAP1 POP SLOAD DUP2 JUMP JUMPDEST PUSH1 0xB SLOAD DUP2 JUMP JUMPDEST PUSH1 0x4 PUSH1 0x20 MSTORE DUP1 PUSH1 0x0 MSTORE PUSH1 0x40 PUSH1 0x0 KECCAK256 PUSH1 0x0 SWAP2 POP SWAP1 POP SLOAD DUP2 JUMP JUMPDEST PUSH1 0x0 DUP1 PUSH1 0x1 PUSH1 0xD SLOAD EQ PUSH2 0x2650 JUMPI PUSH1 0x40 MLOAD PUSH32 0x8C379A000000000000000000000000000000000000000000000000000000000 DUP2 MSTORE PUSH1 0x4 ADD DUP1 DUP1 PUSH1 0x20 ADD DUP3 DUP2 SUB DUP3 MSTORE PUSH1 0xB DUP2 MSTORE PUSH1 0x20 ADD DUP1 PUSH32 0x31306B3A204C4F434B4544000000000000000000000000000000000000000000 DUP2 MSTORE POP PUSH1 0x20 ADD SWAP2 POP POP PUSH1 0x40 MLOAD DUP1 SWAP2 SUB SWAP1 REVERT JUMPDEST PUSH1 0x0 PUSH1 0xD DUP2 SWAP1 SSTORE POP PUSH1 0x0 DUP1 PUSH2 0x2663 PUSH2 0xF4C JUMP JUMPDEST POP POP SWAP2 POP SWAP2 POP PUSH1 0x0 PUSH1 0x6 PUSH1 0x0 SWAP1 SLOAD SWAP1 PUSH2 0x100 EXP SWAP1 DIV PUSH20 0xFFFFFFFFFFFFFFFFFFFFFFFFFFFFFFFFFFFFFFFF AND SWAP1 POP PUSH1 0x0 PUSH1 0x7 PUSH1 0x0 SWAP1 SLOAD SWAP1 PUSH2 0x100 EXP SWAP1 DIV PUSH20 0xFFFFFFFFFFFFFFFFFFFFFFFFFFFFFFFFFFFFFFFF AND SWAP1 POP PUSH1 0x0 DUP3 PUSH20 0xFFFFFFFFFFFFFFFFFFFFFFFFFFFFFFFFFFFFFFFF AND PUSH4 0x70A08231 ADDRESS PUSH1 0x40 MLOAD DUP3 PUSH4 0xFFFFFFFF AND PUSH1 0xE0 SHL DUP2 MSTORE PUSH1 0x4 ADD DUP1 DUP3 PUSH20 0xFFFFFFFFFFFFFFFFFFFFFFFFFFFFFFFFFFFFFFFF AND PUSH20 0xFFFFFFFFFFFFFFFFFFFFFFFFFFFFFFFFFFFFFFFF AND DUP2 MSTORE PUSH1 0x20 ADD SWAP2 POP POP PUSH1 0x20 PUSH1 0x40 MLOAD DUP1 DUP4 SUB DUP2 DUP7 DUP1 EXTCODESIZE ISZERO DUP1 ISZERO PUSH2 0x2736 JUMPI PUSH1 0x0 DUP1 REVERT JUMPDEST POP GAS STATICCALL ISZERO DUP1 ISZERO PUSH2 0x274A JUMPI RETURNDATASIZE PUSH1 0x0 DUP1 RETURNDATACOPY RETURNDATASIZE PUSH1 0x0 REVERT JUMPDEST POP POP POP POP PUSH1 0x40 MLOAD RETURNDATASIZE PUSH1 0x20 DUP2 LT ISZERO PUSH2 0x2760 JUMPI PUSH1 0x0 DUP1 REVERT JUMPDEST DUP2 ADD SWAP1 DUP1 DUP1 MLOAD SWAP1 PUSH1 0x20 ADD SWAP1 SWAP3 SWAP2 SWAP1 POP POP POP SWAP1 POP PUSH1 0x0 DUP3 PUSH20 0xFFFFFFFFFFFFFFFFFFFFFFFFFFFFFFFFFFFFFFFF AND PUSH4 0x70A08231 ADDRESS PUSH1 0x40 MLOAD DUP3 PUSH4 0xFFFFFFFF AND PUSH1 0xE0 SHL DUP2 MSTORE PUSH1 0x4 ADD DUP1 DUP3 PUSH20 0xFFFFFFFFFFFFFFFFFFFFFFFFFFFFFFFFFFFFFFFF AND PUSH20 0xFFFFFFFFFFFFFFFFFFFFFFFFFFFFFFFFFFFFFFFF AND DUP2 MSTORE PUSH1 0x20 ADD SWAP2 POP POP PUSH1 0x20 PUSH1 0x40 MLOAD DUP1 DUP4 SUB DUP2 DUP7 DUP1 EXTCODESIZE ISZERO DUP1 ISZERO PUSH2 0x27F2 JUMPI PUSH1 0x0 DUP1 REVERT JUMPDEST POP GAS STATICCALL ISZERO DUP1 ISZERO PUSH2 0x2806 JUMPI RETURNDATASIZE PUSH1 0x0 DUP1 RETURNDATACOPY RETURNDATASIZE PUSH1 0x0 REVERT JUMPDEST POP POP POP POP PUSH1 0x40 MLOAD RETURNDATASIZE PUSH1 0x20 DUP2 LT ISZERO PUSH2 0x281C JUMPI PUSH1 0x0 DUP1 REVERT JUMPDEST DUP2 ADD SWAP1 DUP1 DUP1 MLOAD SWAP1 PUSH1 0x20 ADD SWAP1 SWAP3 SWAP2 SWAP1 POP POP POP SWAP1 POP PUSH1 0x0 PUSH1 0x1 PUSH1 0x0 ADDRESS PUSH20 0xFFFFFFFFFFFFFFFFFFFFFFFFFFFFFFFFFFFFFFFF AND PUSH20 0xFFFFFFFFFFFFFFFFFFFFFFFFFFFFFFFFFFFFFFFF AND DUP2 MSTORE PUSH1 0x20 ADD SWAP1 DUP2 MSTORE PUSH1 0x20 ADD PUSH1 0x0 KECCAK256 SLOAD SWAP1 POP PUSH1 0x0 PUSH2 0x287F DUP9 DUP9 PUSH2 0x4C2A JUMP JUMPDEST SWAP1 POP PUSH1 0x0 DUP1 SLOAD SWAP1 POP DUP1 PUSH2 0x289B DUP7 DUP6 PUSH2 0x4FC7 SWAP1 SWAP2 SWAP1 PUSH4 0xFFFFFFFF AND JUMP JUMPDEST DUP2 PUSH2 0x28A2 JUMPI INVALID JUMPDEST DIV SWAP11 POP DUP1 PUSH2 0x28B9 DUP6 DUP6 PUSH2 0x4FC7 SWAP1 SWAP2 SWAP1 PUSH4 0xFFFFFFFF AND JUMP JUMPDEST DUP2 PUSH2 0x28C0 JUMPI INVALID JUMPDEST DIV SWAP10 POP PUSH1 0x0 DUP12 GT DUP1 ISZERO PUSH2 0x28D3 JUMPI POP PUSH1 0x0 DUP11 GT JUMPDEST PUSH2 0x2928 JUMPI PUSH1 0x40 MLOAD PUSH32 0x8C379A000000000000000000000000000000000000000000000000000000000 DUP2 MSTORE PUSH1 0x4 ADD DUP1 DUP1 PUSH1 0x20 ADD DUP3 DUP2 SUB DUP3 MSTORE PUSH1 0x22 DUP2 MSTORE PUSH1 0x20 ADD DUP1 PUSH2 0x5D86 PUSH1 0x22 SWAP2 CODECOPY PUSH1 0x40 ADD SWAP2 POP POP PUSH1 0x40 MLOAD DUP1 SWAP2 SUB SWAP1 REVERT JUMPDEST PUSH2 0x2932 ADDRESS DUP5 PUSH2 0x53C0 JUMP JUMPDEST PUSH2 0x293D DUP8 DUP14 DUP14 PUSH2 0x54DA JUMP JUMPDEST PUSH2 0x2948 DUP7 DUP14 DUP13 PUSH2 0x54DA JUMP JUMPDEST DUP7 PUSH20 0xFFFFFFFFFFFFFFFFFFFFFFFFFFFFFFFFFFFFFFFF AND PUSH4 0x70A08231 ADDRESS PUSH1 0x40 MLOAD DUP3 PUSH4 0xFFFFFFFF AND PUSH1 0xE0 SHL DUP2 MSTORE PUSH1 0x4 ADD DUP1 DUP3 PUSH20 0xFFFFFFFFFFFFFFFFFFFFFFFFFFFFFFFFFFFFFFFF AND PUSH20 0xFFFFFFFFFFFFFFFFFFFFFFFFFFFFFFFFFFFFFFFF AND DUP2 MSTORE PUSH1 0x20 ADD SWAP2 POP POP PUSH1 0x20 PUSH1 0x40 MLOAD DUP1 DUP4 SUB DUP2 DUP7 DUP1 EXTCODESIZE ISZERO DUP1 ISZERO PUSH2 0x29C5 JUMPI PUSH1 0x0 DUP1 REVERT JUMPDEST POP GAS STATICCALL ISZERO DUP1 ISZERO PUSH2 0x29D9 JUMPI RETURNDATASIZE PUSH1 0x0 DUP1 RETURNDATACOPY RETURNDATASIZE PUSH1 0x0 REVERT JUMPDEST POP POP POP POP PUSH1 0x40 MLOAD RETURNDATASIZE PUSH1 0x20 DUP2 LT ISZERO PUSH2 0x29EF JUMPI PUSH1 0x0 DUP1 REVERT JUMPDEST DUP2 ADD SWAP1 DUP1 DUP1 MLOAD SWAP1 PUSH1 0x20 ADD SWAP1 SWAP3 SWAP2 SWAP1 POP POP POP SWAP5 POP DUP6 PUSH20 0xFFFFFFFFFFFFFFFFFFFFFFFFFFFFFFFFFFFFFFFF AND PUSH4 0x70A08231 ADDRESS PUSH1 0x40 MLOAD DUP3 PUSH4 0xFFFFFFFF AND PUSH1 0xE0 SHL DUP2 MSTORE PUSH1 0x4 ADD DUP1 DUP3 PUSH20 0xFFFFFFFFFFFFFFFFFFFFFFFFFFFFFFFFFFFFFFFF AND PUSH20 0xFFFFFFFFFFFFFFFFFFFFFFFFFFFFFFFFFFFFFFFF AND DUP2 MSTORE PUSH1 0x20 ADD SWAP2 POP POP PUSH1 0x20 PUSH1 0x40 MLOAD DUP1 DUP4 SUB DUP2 DUP7 DUP1 EXTCODESIZE ISZERO DUP1 ISZERO PUSH2 0x2A7F JUMPI PUSH1 0x0 DUP1 REVERT JUMPDEST POP GAS STATICCALL ISZERO DUP1 ISZERO PUSH2 0x2A93 JUMPI RETURNDATASIZE PUSH1 0x0 DUP1 RETURNDATACOPY RETURNDATASIZE PUSH1 0x0 REVERT JUMPDEST POP POP POP POP PUSH1 0x40 MLOAD RETURNDATASIZE PUSH1 0x20 DUP2 LT ISZERO PUSH2 0x2AA9 JUMPI PUSH1 0x0 DUP1 REVERT JUMPDEST DUP2 ADD SWAP1 DUP1 DUP1 MLOAD SWAP1 PUSH1 0x20 ADD SWAP1 SWAP3 SWAP2 SWAP1 POP POP POP SWAP4 POP PUSH2 0x2AC6 DUP6 DUP6 PUSH2 0x51F1 JUMP JUMPDEST DUP2 ISZERO PUSH2 0x2B35 JUMPI PUSH2 0x2B2E PUSH1 0x8 PUSH1 0x0 SWAP1 SLOAD SWAP1 PUSH2 0x100 EXP SWAP1 DIV PUSH14 0xFFFFFFFFFFFFFFFFFFFFFFFFFFFF AND PUSH14 0xFFFFFFFFFFFFFFFFFFFFFFFFFFFF AND PUSH1 0x8 PUSH1 0xE SWAP1 SLOAD SWAP1 PUSH2 0x100 EXP SWAP1 DIV PUSH14 0xFFFFFFFFFFFFFFFFFFFFFFFFFFFF AND PUSH14 0xFFFFFFFFFFFFFFFFFFFFFFFFFFFF AND PUSH2 0x4E8C JUMP JUMPDEST PUSH1 0xB DUP2 SWAP1 SSTORE POP JUMPDEST DUP12 PUSH20 0xFFFFFFFFFFFFFFFFFFFFFFFFFFFFFFFFFFFFFFFF AND CALLER PUSH20 0xFFFFFFFFFFFFFFFFFFFFFFFFFFFFFFFFFFFFFFFF AND PUSH32 0xDCCD412F0B1252819CB1FD330B93224CA42612892BB3F4F789976E6D81936496 DUP14 DUP14 PUSH1 0x40 MLOAD DUP1 DUP4 DUP2 MSTORE PUSH1 0x20 ADD DUP3 DUP2 MSTORE PUSH1 0x20 ADD SWAP3 POP POP POP PUSH1 0x40 MLOAD DUP1 SWAP2 SUB SWAP1 LOG3 POP POP POP POP POP POP POP POP POP PUSH1 0x1 PUSH1 0xD DUP2 SWAP1 SSTORE POP SWAP2 POP SWAP2 JUMP JUMPDEST PUSH1 0x40 MLOAD DUP1 PUSH1 0x40 ADD PUSH1 0x40 MSTORE DUP1 PUSH1 0x7 DUP2 MSTORE PUSH1 0x20 ADD PUSH32 0x434D4C542D4C5000000000000000000000000000000000000000000000000000 DUP2 MSTORE POP DUP2 JUMP JUMPDEST PUSH1 0xC PUSH1 0x0 SWAP1 SLOAD SWAP1 PUSH2 0x100 EXP SWAP1 DIV PUSH1 0xFF AND DUP2 JUMP JUMPDEST PUSH1 0x0 PUSH2 0x2C11 CALLER DUP5 DUP5 PUSH2 0x4A96 JUMP JUMPDEST PUSH1 0x1 SWAP1 POP SWAP3 SWAP2 POP POP JUMP JUMPDEST PUSH1 0xC PUSH1 0x1 SWAP1 SLOAD SWAP1 PUSH2 0x100 EXP SWAP1 DIV PUSH1 0xFF AND DUP2 JUMP JUMPDEST PUSH2 0x3E8 DUP2 JUMP JUMPDEST PUSH1 0x1 PUSH1 0xD SLOAD EQ PUSH2 0x2CAC JUMPI PUSH1 0x40 MLOAD PUSH32 0x8C379A000000000000000000000000000000000000000000000000000000000 DUP2 MSTORE PUSH1 0x4 ADD DUP1 DUP1 PUSH1 0x20 ADD DUP3 DUP2 SUB DUP3 MSTORE PUSH1 0xB DUP2 MSTORE PUSH1 0x20 ADD DUP1 PUSH32 0x31306B3A204C4F434B4544000000000000000000000000000000000000000000 DUP2 MSTORE POP PUSH1 0x20 ADD SWAP2 POP POP PUSH1 0x40 MLOAD DUP1 SWAP2 SUB SWAP1 REVERT JUMPDEST PUSH1 0x0 PUSH1 0xD DUP2 SWAP1 SSTORE POP PUSH1 0x0 PUSH1 0x6 PUSH1 0x0 SWAP1 SLOAD SWAP1 PUSH2 0x100 EXP SWAP1 DIV PUSH20 0xFFFFFFFFFFFFFFFFFFFFFFFFFFFFFFFFFFFFFFFF AND SWAP1 POP PUSH1 0x0 PUSH1 0x7 PUSH1 0x0 SWAP1 SLOAD SWAP1 PUSH2 0x100 EXP SWAP1 DIV PUSH20 0xFFFFFFFFFFFFFFFFFFFFFFFFFFFFFFFFFFFFFFFF AND SWAP1 POP PUSH2 0x2E02 DUP3 DUP5 PUSH2 0x2DFD PUSH1 0x8 PUSH1 0x0 SWAP1 SLOAD SWAP1 PUSH2 0x100 EXP SWAP1 DIV PUSH14 0xFFFFFFFFFFFFFFFFFFFFFFFFFFFF AND PUSH14 0xFFFFFFFFFFFFFFFFFFFFFFFFFFFF AND DUP7 PUSH20 0xFFFFFFFFFFFFFFFFFFFFFFFFFFFFFFFFFFFFFFFF AND PUSH4 0x70A08231 ADDRESS PUSH1 0x40 MLOAD DUP3 PUSH4 0xFFFFFFFF AND PUSH1 0xE0 SHL DUP2 MSTORE PUSH1 0x4 ADD DUP1 DUP3 PUSH20 0xFFFFFFFFFFFFFFFFFFFFFFFFFFFFFFFFFFFFFFFF AND PUSH20 0xFFFFFFFFFFFFFFFFFFFFFFFFFFFFFFFFFFFFFFFF AND DUP2 MSTORE PUSH1 0x20 ADD SWAP2 POP POP PUSH1 0x20 PUSH1 0x40 MLOAD DUP1 DUP4 SUB DUP2 DUP7 DUP1 EXTCODESIZE ISZERO DUP1 ISZERO PUSH2 0x2DB4 JUMPI PUSH1 0x0 DUP1 REVERT JUMPDEST POP GAS STATICCALL ISZERO DUP1 ISZERO PUSH2 0x2DC8 JUMPI RETURNDATASIZE PUSH1 0x0 DUP1 RETURNDATACOPY RETURNDATASIZE PUSH1 0x0 REVERT JUMPDEST POP POP POP POP PUSH1 0x40 MLOAD RETURNDATASIZE PUSH1 0x20 DUP2 LT ISZERO PUSH2 0x2DDE JUMPI PUSH1 0x0 DUP1 REVERT JUMPDEST DUP2 ADD SWAP1 DUP1 DUP1 MLOAD SWAP1 PUSH1 0x20 ADD SWAP1 SWAP3 SWAP2 SWAP1 POP POP POP PUSH2 0x4A13 SWAP1 SWAP2 SWAP1 PUSH4 0xFFFFFFFF AND JUMP JUMPDEST PUSH2 0x54DA JUMP JUMPDEST PUSH2 0x2F02 DUP2 DUP5 PUSH2 0x2EFD PUSH1 0x8 PUSH1 0xE SWAP1 SLOAD SWAP1 PUSH2 0x100 EXP SWAP1 DIV PUSH14 0xFFFFFFFFFFFFFFFFFFFFFFFFFFFF AND PUSH14 0xFFFFFFFFFFFFFFFFFFFFFFFFFFFF AND DUP6 PUSH20 0xFFFFFFFFFFFFFFFFFFFFFFFFFFFFFFFFFFFFFFFF AND PUSH4 0x70A08231 ADDRESS PUSH1 0x40 MLOAD DUP3 PUSH4 0xFFFFFFFF AND PUSH1 0xE0 SHL DUP2 MSTORE PUSH1 0x4 ADD DUP1 DUP3 PUSH20 0xFFFFFFFFFFFFFFFFFFFFFFFFFFFFFFFFFFFFFFFF AND PUSH20 0xFFFFFFFFFFFFFFFFFFFFFFFFFFFFFFFFFFFFFFFF AND DUP2 MSTORE PUSH1 0x20 ADD SWAP2 POP POP PUSH1 0x20 PUSH1 0x40 MLOAD DUP1 DUP4 SUB DUP2 DUP7 DUP1 EXTCODESIZE ISZERO DUP1 ISZERO PUSH2 0x2EB4 JUMPI PUSH1 0x0 DUP1 REVERT JUMPDEST POP GAS STATICCALL ISZERO DUP1 ISZERO PUSH2 0x2EC8 JUMPI RETURNDATASIZE PUSH1 0x0 DUP1 RETURNDATACOPY RETURNDATASIZE PUSH1 0x0 REVERT JUMPDEST POP POP POP POP PUSH1 0x40 MLOAD RETURNDATASIZE PUSH1 0x20 DUP2 LT ISZERO PUSH2 0x2EDE JUMPI PUSH1 0x0 DUP1 REVERT JUMPDEST DUP2 ADD SWAP1 DUP1 DUP1 MLOAD SWAP1 PUSH1 0x20 ADD SWAP1 SWAP3 SWAP2 SWAP1 POP POP POP PUSH2 0x4A13 SWAP1 SWAP2 SWAP1 PUSH4 0xFFFFFFFF AND JUMP JUMPDEST PUSH2 0x54DA JUMP JUMPDEST PUSH32 0x21AD22495C9C75CD1C94756F91824E779C0C8A8E168B267C790DF464FE056B79 PUSH1 0x40 MLOAD PUSH1 0x40 MLOAD DUP1 SWAP2 SUB SWAP1 LOG1 POP POP PUSH1 0x1 PUSH1 0xD DUP2 SWAP1 SSTORE POP POP JUMP JUMPDEST PUSH1 0x5 PUSH1 0x0 SWAP1 SLOAD SWAP1 PUSH2 0x100 EXP SWAP1 DIV PUSH20 0xFFFFFFFFFFFFFFFFFFFFFFFFFFFFFFFFFFFFFFFF AND DUP2 JUMP JUMPDEST PUSH1 0x7 PUSH1 0x0 SWAP1 SLOAD SWAP1 PUSH2 0x100 EXP SWAP1 DIV PUSH20 0xFFFFFFFFFFFFFFFFFFFFFFFFFFFFFFFFFFFFFFFF AND DUP2 JUMP JUMPDEST TIMESTAMP DUP5 LT ISZERO PUSH2 0x2FFD JUMPI PUSH1 0x40 MLOAD PUSH32 0x8C379A000000000000000000000000000000000000000000000000000000000 DUP2 MSTORE PUSH1 0x4 ADD DUP1 DUP1 PUSH1 0x20 ADD DUP3 DUP2 SUB DUP3 MSTORE PUSH1 0x12 DUP2 MSTORE PUSH1 0x20 ADD DUP1 PUSH32 0x556E697377617056323A20455850495245440000000000000000000000000000 DUP2 MSTORE POP PUSH1 0x20 ADD SWAP2 POP POP PUSH1 0x40 MLOAD DUP1 SWAP2 SUB SWAP1 REVERT JUMPDEST PUSH1 0x0 PUSH1 0x3 SLOAD PUSH32 0x6E71EDAE12B1B97F4D1F60370FEF10105FA2FAAE0126114A169C64845D6126C9 PUSH1 0x0 SHL DUP10 DUP10 DUP10 PUSH1 0x4 PUSH1 0x0 DUP15 PUSH20 0xFFFFFFFFFFFFFFFFFFFFFFFFFFFFFFFFFFFFFFFF AND PUSH20 0xFFFFFFFFFFFFFFFFFFFFFFFFFFFFFFFFFFFFFFFF AND DUP2 MSTORE PUSH1 0x20 ADD SWAP1 DUP2 MSTORE PUSH1 0x20 ADD PUSH1 0x0 KECCAK256 PUSH1 0x0 DUP2 SLOAD DUP1 SWAP3 SWAP2 SWAP1 PUSH1 0x1 ADD SWAP2 SWAP1 POP SSTORE DUP11 PUSH1 0x40 MLOAD PUSH1 0x20 ADD DUP1 DUP8 DUP2 MSTORE PUSH1 0x20 ADD DUP7 PUSH20 0xFFFFFFFFFFFFFFFFFFFFFFFFFFFFFFFFFFFFFFFF AND PUSH20 0xFFFFFFFFFFFFFFFFFFFFFFFFFFFFFFFFFFFFFFFF AND DUP2 MSTORE PUSH1 0x20 ADD DUP6 PUSH20 0xFFFFFFFFFFFFFFFFFFFFFFFFFFFFFFFFFFFFFFFF AND PUSH20 0xFFFFFFFFFFFFFFFFFFFFFFFFFFFFFFFFFFFFFFFF AND DUP2 MSTORE PUSH1 0x20 ADD DUP5 DUP2 MSTORE PUSH1 0x20 ADD DUP4 DUP2 MSTORE PUSH1 0x20 ADD DUP3 DUP2 MSTORE PUSH1 0x20 ADD SWAP7 POP POP POP POP POP POP POP PUSH1 0x40 MLOAD PUSH1 0x20 DUP2 DUP4 SUB SUB DUP2 MSTORE SWAP1 PUSH1 0x40 MSTORE DUP1 MLOAD SWAP1 PUSH1 0x20 ADD KECCAK256 PUSH1 0x40 MLOAD PUSH1 0x20 ADD DUP1 DUP1 PUSH32 0x1901000000000000000000000000000000000000000000000000000000000000 DUP2 MSTORE POP PUSH1 0x2 ADD DUP4 DUP2 MSTORE PUSH1 0x20 ADD DUP3 DUP2 MSTORE PUSH1 0x20 ADD SWAP3 POP POP POP PUSH1 0x40 MLOAD PUSH1 0x20 DUP2 DUP4 SUB SUB DUP2 MSTORE SWAP1 PUSH1 0x40 MSTORE DUP1 MLOAD SWAP1 PUSH1 0x20 ADD KECCAK256 SWAP1 POP PUSH1 0x0 PUSH1 0x1 DUP3 DUP7 DUP7 DUP7 PUSH1 0x40 MLOAD PUSH1 0x0 DUP2 MSTORE PUSH1 0x20 ADD PUSH1 0x40 MSTORE PUSH1 0x40 MLOAD DUP1 DUP6 DUP2 MSTORE PUSH1 0x20 ADD DUP5 PUSH1 0xFF AND PUSH1 0xFF AND DUP2 MSTORE PUSH1 0x20 ADD DUP4 DUP2 MSTORE PUSH1 0x20 ADD DUP3 DUP2 MSTORE PUSH1 0x20 ADD SWAP5 POP POP POP POP POP PUSH1 0x20 PUSH1 0x40 MLOAD PUSH1 0x20 DUP2 SUB SWAP1 DUP1 DUP5 SUB SWAP1 DUP6 GAS STATICCALL ISZERO DUP1 ISZERO PUSH2 0x31CF JUMPI RETURNDATASIZE PUSH1 0x0 DUP1 RETURNDATACOPY RETURNDATASIZE PUSH1 0x0 REVERT JUMPDEST POP POP POP PUSH1 0x20 PUSH1 0x40 MLOAD SUB MLOAD SWAP1 POP PUSH1 0x0 PUSH20 0xFFFFFFFFFFFFFFFFFFFFFFFFFFFFFFFFFFFFFFFF AND DUP2 PUSH20 0xFFFFFFFFFFFFFFFFFFFFFFFFFFFFFFFFFFFFFFFF AND EQ ISZERO DUP1 ISZERO PUSH2 0x3243 JUMPI POP DUP9 PUSH20 0xFFFFFFFFFFFFFFFFFFFFFFFFFFFFFFFFFFFFFFFF AND DUP2 PUSH20 0xFFFFFFFFFFFFFFFFFFFFFFFFFFFFFFFFFFFFFFFF AND EQ JUMPDEST PUSH2 0x32B5 JUMPI PUSH1 0x40 MLOAD PUSH32 0x8C379A000000000000000000000000000000000000000000000000000000000 DUP2 MSTORE PUSH1 0x4 ADD DUP1 DUP1 PUSH1 0x20 ADD DUP3 DUP2 SUB DUP3 MSTORE PUSH1 0x1C DUP2 MSTORE PUSH1 0x20 ADD DUP1 PUSH32 0x556E697377617056323A20494E56414C49445F5349474E415455524500000000 DUP2 MSTORE POP PUSH1 0x20 ADD SWAP2 POP POP PUSH1 0x40 MLOAD DUP1 SWAP2 SUB SWAP1 REVERT JUMPDEST PUSH2 0x32C0 DUP10 DUP10 DUP10 PUSH2 0x4928 JUMP JUMPDEST POP POP POP POP POP POP POP POP POP JUMP JUMPDEST PUSH3 0x186A0 DUP2 JUMP JUMPDEST PUSH1 0x2 PUSH1 0x20 MSTORE DUP2 PUSH1 0x0 MSTORE PUSH1 0x40 PUSH1 0x0 KECCAK256 PUSH1 0x20 MSTORE DUP1 PUSH1 0x0 MSTORE PUSH1 0x40 PUSH1 0x0 KECCAK256 PUSH1 0x0 SWAP2 POP SWAP2 POP POP SLOAD DUP2 JUMP JUMPDEST PUSH1 0x0 DUP1 PUSH1 0x6 PUSH1 0x0 SWAP1 SLOAD SWAP1 PUSH2 0x100 EXP SWAP1 DIV PUSH20 0xFFFFFFFFFFFFFFFFFFFFFFFFFFFFFFFFFFFFFFFF AND PUSH20 0xFFFFFFFFFFFFFFFFFFFFFFFFFFFFFFFFFFFFFFFF AND DUP4 PUSH20 0xFFFFFFFFFFFFFFFFFFFFFFFFFFFFFFFFFFFFFFFF AND EQ PUSH2 0x3365 JUMPI PUSH1 0x8 PUSH1 0x1E SWAP1 SLOAD SWAP1 PUSH2 0x100 EXP SWAP1 DIV PUSH2 0xFFFF AND PUSH2 0x3377 JUMP JUMPDEST PUSH1 0x8 PUSH1 0x1C SWAP1 SLOAD SWAP1 PUSH2 0x100 EXP SWAP1 DIV PUSH2 0xFFFF AND JUMPDEST SWAP1 POP PUSH2 0x33E2 DUP5 DUP5 PUSH1 0x8 PUSH1 0x0 SWAP1 SLOAD SWAP1 PUSH2 0x100 EXP SWAP1 DIV PUSH14 0xFFFFFFFFFFFFFFFFFFFFFFFFFFFF AND PUSH14 0xFFFFFFFFFFFFFFFFFFFFFFFFFFFF AND PUSH1 0x8 PUSH1 0xE SWAP1 SLOAD SWAP1 PUSH2 0x100 EXP SWAP1 DIV PUSH14 0xFFFFFFFFFFFFFFFFFFFFFFFFFFFF AND PUSH14 0xFFFFFFFFFFFFFFFFFFFFFFFFFFFF AND DUP6 PUSH2 0xFFFF AND PUSH2 0x5727 JUMP JUMPDEST SWAP2 POP POP SWAP3 SWAP2 POP POP JUMP JUMPDEST PUSH1 0x1 PUSH1 0xD SLOAD EQ PUSH2 0x3463 JUMPI PUSH1 0x40 MLOAD PUSH32 0x8C379A000000000000000000000000000000000000000000000000000000000 DUP2 MSTORE PUSH1 0x4 ADD DUP1 DUP1 PUSH1 0x20 ADD DUP3 DUP2 SUB DUP3 MSTORE PUSH1 0xB DUP2 MSTORE PUSH1 0x20 ADD DUP1 PUSH32 0x31306B3A204C4F434B4544000000000000000000000000000000000000000000 DUP2 MSTORE POP PUSH1 0x20 ADD SWAP2 POP POP PUSH1 0x40 MLOAD DUP1 SWAP2 SUB SWAP1 REVERT JUMPDEST PUSH1 0x0 PUSH1 0xD DUP2 SWAP1 SSTORE POP PUSH1 0x5 PUSH1 0x0 SWAP1 SLOAD SWAP1 PUSH2 0x100 EXP SWAP1 DIV PUSH20 0xFFFFFFFFFFFFFFFFFFFFFFFFFFFFFFFFFFFFFFFF AND PUSH20 0xFFFFFFFFFFFFFFFFFFFFFFFFFFFFFFFFFFFFFFFF AND PUSH4 0x8DA5CB5B PUSH1 0x40 MLOAD DUP2 PUSH4 0xFFFFFFFF AND PUSH1 0xE0 SHL DUP2 MSTORE PUSH1 0x4 ADD PUSH1 0x20 PUSH1 0x40 MLOAD DUP1 DUP4 SUB DUP2 DUP7 DUP1 EXTCODESIZE ISZERO DUP1 ISZERO PUSH2 0x34D3 JUMPI PUSH1 0x0 DUP1 REVERT JUMPDEST POP GAS STATICCALL ISZERO DUP1 ISZERO PUSH2 0x34E7 JUMPI RETURNDATASIZE PUSH1 0x0 DUP1 RETURNDATACOPY RETURNDATASIZE PUSH1 0x0 REVERT JUMPDEST POP POP POP POP PUSH1 0x40 MLOAD RETURNDATASIZE PUSH1 0x20 DUP2 LT ISZERO PUSH2 0x34FD JUMPI PUSH1 0x0 DUP1 REVERT JUMPDEST DUP2 ADD SWAP1 DUP1 DUP1 MLOAD SWAP1 PUSH1 0x20 ADD SWAP1 SWAP3 SWAP2 SWAP1 POP POP POP PUSH20 0xFFFFFFFFFFFFFFFFFFFFFFFFFFFFFFFFFFFFFFFF AND CALLER PUSH20 0xFFFFFFFFFFFFFFFFFFFFFFFFFFFFFFFFFFFFFFFF AND EQ PUSH2 0x35AE JUMPI PUSH1 0x40 MLOAD PUSH32 0x8C379A000000000000000000000000000000000000000000000000000000000 DUP2 MSTORE PUSH1 0x4 ADD DUP1 DUP1 PUSH1 0x20 ADD DUP3 DUP2 SUB DUP3 MSTORE PUSH1 0x19 DUP2 MSTORE PUSH1 0x20 ADD DUP1 PUSH32 0x31306B3A206F6E6C7920666163746F72792773206F776E657200000000000000 DUP2 MSTORE POP PUSH1 0x20 ADD SWAP2 POP POP PUSH1 0x40 MLOAD DUP1 SWAP2 SUB SWAP1 REVERT JUMPDEST PUSH1 0x6 PUSH1 0x0 SWAP1 SLOAD SWAP1 PUSH2 0x100 EXP SWAP1 DIV PUSH20 0xFFFFFFFFFFFFFFFFFFFFFFFFFFFFFFFFFFFFFFFF AND PUSH20 0xFFFFFFFFFFFFFFFFFFFFFFFFFFFFFFFFFFFFFFFF AND DUP3 PUSH20 0xFFFFFFFFFFFFFFFFFFFFFFFFFFFFFFFFFFFFFFFF AND EQ ISZERO DUP1 ISZERO PUSH2 0x365A JUMPI POP PUSH1 0x7 PUSH1 0x0 SWAP1 SLOAD SWAP1 PUSH2 0x100 EXP SWAP1 DIV PUSH20 0xFFFFFFFFFFFFFFFFFFFFFFFFFFFFFFFFFFFFFFFF AND PUSH20 0xFFFFFFFFFFFFFFFFFFFFFFFFFFFFFFFFFFFFFFFF AND DUP3 PUSH20 0xFFFFFFFFFFFFFFFFFFFFFFFFFFFFFFFFFFFFFFFF AND EQ ISZERO JUMPDEST PUSH2 0x36CC JUMPI PUSH1 0x40 MLOAD PUSH32 0x8C379A000000000000000000000000000000000000000000000000000000000 DUP2 MSTORE PUSH1 0x4 ADD DUP1 DUP1 PUSH1 0x20 ADD DUP3 DUP2 SUB DUP3 MSTORE PUSH1 0x12 DUP2 MSTORE PUSH1 0x20 ADD DUP1 PUSH32 0x31306B3A20696E76616C696420746F6B656E0000000000000000000000000000 DUP2 MSTORE POP PUSH1 0x20 ADD SWAP2 POP POP PUSH1 0x40 MLOAD DUP1 SWAP2 SUB SWAP1 REVERT JUMPDEST PUSH2 0x378E DUP3 DUP3 DUP5 PUSH20 0xFFFFFFFFFFFFFFFFFFFFFFFFFFFFFFFFFFFFFFFF AND PUSH4 0x70A08231 ADDRESS PUSH1 0x40 MLOAD DUP3 PUSH4 0xFFFFFFFF AND PUSH1 0xE0 SHL DUP2 MSTORE PUSH1 0x4 ADD DUP1 DUP3 PUSH20 0xFFFFFFFFFFFFFFFFFFFFFFFFFFFFFFFFFFFFFFFF AND PUSH20 0xFFFFFFFFFFFFFFFFFFFFFFFFFFFFFFFFFFFFFFFF AND DUP2 MSTORE PUSH1 0x20 ADD SWAP2 POP POP PUSH1 0x20 PUSH1 0x40 MLOAD DUP1 DUP4 SUB DUP2 DUP7 DUP1 EXTCODESIZE ISZERO DUP1 ISZERO PUSH2 0x374E JUMPI PUSH1 0x0 DUP1 REVERT JUMPDEST POP GAS STATICCALL ISZERO DUP1 ISZERO PUSH2 0x3762 JUMPI RETURNDATASIZE PUSH1 0x0 DUP1 RETURNDATACOPY RETURNDATASIZE PUSH1 0x0 REVERT JUMPDEST POP POP POP POP PUSH1 0x40 MLOAD RETURNDATASIZE PUSH1 0x20 DUP2 LT ISZERO PUSH2 0x3778 JUMPI PUSH1 0x0 DUP1 REVERT JUMPDEST DUP2 ADD SWAP1 DUP1 DUP1 MLOAD SWAP1 PUSH1 0x20 ADD SWAP1 SWAP3 SWAP2 SWAP1 POP POP POP PUSH2 0x54DA JUMP JUMPDEST DUP2 PUSH20 0xFFFFFFFFFFFFFFFFFFFFFFFFFFFFFFFFFFFFFFFF AND PUSH32 0x368A9DC863ECB94B5BA32A682E26295B10D9C2666FAD7D785EBDF262C3C52413 DUP3 PUSH1 0x40 MLOAD DUP1 DUP3 PUSH20 0xFFFFFFFFFFFFFFFFFFFFFFFFFFFFFFFFFFFFFFFF AND PUSH20 0xFFFFFFFFFFFFFFFFFFFFFFFFFFFFFFFFFFFFFFFF AND DUP2 MSTORE PUSH1 0x20 ADD SWAP2 POP POP PUSH1 0x40 MLOAD DUP1 SWAP2 SUB SWAP1 LOG2 PUSH1 0x1 PUSH1 0xD DUP2 SWAP1 SSTORE POP POP POP JUMP JUMPDEST PUSH1 0x1 PUSH1 0xD SLOAD EQ PUSH2 0x388C JUMPI PUSH1 0x40 MLOAD PUSH32 0x8C379A000000000000000000000000000000000000000000000000000000000 DUP2 MSTORE PUSH1 0x4 ADD DUP1 DUP1 PUSH1 0x20 ADD DUP3 DUP2 SUB DUP3 MSTORE PUSH1 0xB DUP2 MSTORE PUSH1 0x20 ADD DUP1 PUSH32 0x31306B3A204C4F434B4544000000000000000000000000000000000000000000 DUP2 MSTORE POP PUSH1 0x20 ADD SWAP2 POP POP PUSH1 0x40 MLOAD DUP1 SWAP2 SUB SWAP1 REVERT JUMPDEST PUSH1 0x0 PUSH1 0xD DUP2 SWAP1 SSTORE POP PUSH1 0x0 PUSH1 0x6 PUSH1 0x0 SWAP1 SLOAD SWAP1 PUSH2 0x100 EXP SWAP1 DIV PUSH20 0xFFFFFFFFFFFFFFFFFFFFFFFFFFFFFFFFFFFFFFFF AND PUSH20 0xFFFFFFFFFFFFFFFFFFFFFFFFFFFFFFFFFFFFFFFF AND PUSH4 0x70A08231 ADDRESS PUSH1 0x40 MLOAD DUP3 PUSH4 0xFFFFFFFF AND PUSH1 0xE0 SHL DUP2 MSTORE PUSH1 0x4 ADD DUP1 DUP3 PUSH20 0xFFFFFFFFFFFFFFFFFFFFFFFFFFFFFFFFFFFFFFFF AND PUSH20 0xFFFFFFFFFFFFFFFFFFFFFFFFFFFFFFFFFFFFFFFF AND DUP2 MSTORE PUSH1 0x20 ADD SWAP2 POP POP PUSH1 0x20 PUSH1 0x40 MLOAD DUP1 DUP4 SUB DUP2 DUP7 DUP1 EXTCODESIZE ISZERO DUP1 ISZERO PUSH2 0x3935 JUMPI PUSH1 0x0 DUP1 REVERT JUMPDEST POP GAS STATICCALL ISZERO DUP1 ISZERO PUSH2 0x3949 JUMPI RETURNDATASIZE PUSH1 0x0 DUP1 RETURNDATACOPY RETURNDATASIZE PUSH1 0x0 REVERT JUMPDEST POP POP POP POP PUSH1 0x40 MLOAD RETURNDATASIZE PUSH1 0x20 DUP2 LT ISZERO PUSH2 0x395F JUMPI PUSH1 0x0 DUP1 REVERT JUMPDEST DUP2 ADD SWAP1 DUP1 DUP1 MLOAD SWAP1 PUSH1 0x20 ADD SWAP1 SWAP3 SWAP2 SWAP1 POP POP POP SWAP1 POP PUSH1 0x0 PUSH1 0x7 PUSH1 0x0 SWAP1 SLOAD SWAP1 PUSH2 0x100 EXP SWAP1 DIV PUSH20 0xFFFFFFFFFFFFFFFFFFFFFFFFFFFFFFFFFFFFFFFF AND PUSH20 0xFFFFFFFFFFFFFFFFFFFFFFFFFFFFFFFFFFFFFFFF AND PUSH4 0x70A08231 ADDRESS PUSH1 0x40 MLOAD DUP3 PUSH4 0xFFFFFFFF AND PUSH1 0xE0 SHL DUP2 MSTORE PUSH1 0x4 ADD DUP1 DUP3 PUSH20 0xFFFFFFFFFFFFFFFFFFFFFFFFFFFFFFFFFFFFFFFF AND PUSH20 0xFFFFFFFFFFFFFFFFFFFFFFFFFFFFFFFFFFFFFFFF AND DUP2 MSTORE PUSH1 0x20 ADD SWAP2 POP POP PUSH1 0x20 PUSH1 0x40 MLOAD DUP1 DUP4 SUB DUP2 DUP7 DUP1 EXTCODESIZE ISZERO DUP1 ISZERO PUSH2 0x3A13 JUMPI PUSH1 0x0 DUP1 REVERT JUMPDEST POP GAS STATICCALL ISZERO DUP1 ISZERO PUSH2 0x3A27 JUMPI RETURNDATASIZE PUSH1 0x0 DUP1 RETURNDATACOPY RETURNDATASIZE PUSH1 0x0 REVERT JUMPDEST POP POP POP POP PUSH1 0x40 MLOAD RETURNDATASIZE PUSH1 0x20 DUP2 LT ISZERO PUSH2 0x3A3D JUMPI PUSH1 0x0 DUP1 REVERT JUMPDEST DUP2 ADD SWAP1 DUP1 DUP1 MLOAD SWAP1 PUSH1 0x20 ADD SWAP1 SWAP3 SWAP2 SWAP1 POP POP POP SWAP1 POP PUSH1 0x0 DUP3 EQ ISZERO DUP1 ISZERO PUSH2 0x3A62 JUMPI POP PUSH1 0x0 DUP2 EQ ISZERO JUMPDEST PUSH2 0x3AB7 JUMPI PUSH1 0x40 MLOAD PUSH32 0x8C379A000000000000000000000000000000000000000000000000000000000 DUP2 MSTORE PUSH1 0x4 ADD DUP1 DUP1 PUSH1 0x20 ADD DUP3 DUP2 SUB DUP3 MSTORE PUSH1 0x24 DUP2 MSTORE PUSH1 0x20 ADD DUP1 PUSH2 0x5D62 PUSH1 0x24 SWAP2 CODECOPY PUSH1 0x40 ADD SWAP2 POP POP PUSH1 0x40 MLOAD DUP1 SWAP2 SUB SWAP1 REVERT JUMPDEST PUSH2 0x3AC1 DUP3 DUP3 PUSH2 0x51F1 JUMP JUMPDEST POP POP PUSH1 0x1 PUSH1 0xD DUP2 SWAP1 SSTORE POP JUMP JUMPDEST PUSH1 0x1 PUSH1 0xD SLOAD EQ PUSH2 0x3B45 JUMPI PUSH1 0x40 MLOAD PUSH32 0x8C379A000000000000000000000000000000000000000000000000000000000 DUP2 MSTORE PUSH1 0x4 ADD DUP1 DUP1 PUSH1 0x20 ADD DUP3 DUP2 SUB DUP3 MSTORE PUSH1 0xB DUP2 MSTORE PUSH1 0x20 ADD DUP1 PUSH32 0x31306B3A204C4F434B4544000000000000000000000000000000000000000000 DUP2 MSTORE POP PUSH1 0x20 ADD SWAP2 POP POP PUSH1 0x40 MLOAD DUP1 SWAP2 SUB SWAP1 REVERT JUMPDEST PUSH1 0x0 PUSH1 0xD DUP2 SWAP1 SSTORE POP PUSH1 0x0 DUP5 PUSH1 0x40 ADD MLOAD GT DUP1 PUSH2 0x3B64 JUMPI POP PUSH1 0x0 DUP5 PUSH1 0x60 ADD MLOAD GT JUMPDEST PUSH2 0x3BD6 JUMPI PUSH1 0x40 MLOAD PUSH32 0x8C379A000000000000000000000000000000000000000000000000000000000 DUP2 MSTORE PUSH1 0x4 ADD DUP1 DUP1 PUSH1 0x20 ADD DUP3 DUP2 SUB DUP3 MSTORE PUSH1 0x1F DUP2 MSTORE PUSH1 0x20 ADD DUP1 PUSH32 0x31306B3A20494E53554646494349454E545F4F55545055545F414D4F554E5400 DUP2 MSTORE POP PUSH1 0x20 ADD SWAP2 POP POP PUSH1 0x40 MLOAD DUP1 SWAP2 SUB SWAP1 REVERT JUMPDEST PUSH1 0x0 DUP1 PUSH1 0x0 DUP1 PUSH2 0x3BE4 PUSH2 0xF4C JUMP JUMPDEST SWAP4 POP SWAP4 POP SWAP4 POP SWAP4 POP DUP4 PUSH14 0xFFFFFFFFFFFFFFFFFFFFFFFFFFFF AND DUP9 PUSH1 0x40 ADD MLOAD LT DUP1 ISZERO PUSH2 0x3C22 JUMPI POP DUP3 PUSH14 0xFFFFFFFFFFFFFFFFFFFFFFFFFFFF AND DUP9 PUSH1 0x60 ADD MLOAD LT JUMPDEST PUSH2 0x3C94 JUMPI PUSH1 0x40 MLOAD PUSH32 0x8C379A000000000000000000000000000000000000000000000000000000000 DUP2 MSTORE PUSH1 0x4 ADD DUP1 DUP1 PUSH1 0x20 ADD DUP3 DUP2 SUB DUP3 MSTORE PUSH1 0x1B DUP2 MSTORE PUSH1 0x20 ADD DUP1 PUSH32 0x31306B3A20494E53554646494349454E545F4C49515549444954590000000000 DUP2 MSTORE POP PUSH1 0x20 ADD SWAP2 POP POP PUSH1 0x40 MLOAD DUP1 SWAP2 SUB SWAP1 REVERT JUMPDEST DUP8 PUSH1 0x0 ADD MLOAD PUSH20 0xFFFFFFFFFFFFFFFFFFFFFFFFFFFFFFFFFFFFFFFF AND DUP8 PUSH20 0xFFFFFFFFFFFFFFFFFFFFFFFFFFFFFFFFFFFFFFFF AND EQ ISZERO DUP1 ISZERO PUSH2 0x3D04 JUMPI POP DUP8 PUSH1 0x20 ADD MLOAD PUSH20 0xFFFFFFFFFFFFFFFFFFFFFFFFFFFFFFFFFFFFFFFF AND DUP8 PUSH20 0xFFFFFFFFFFFFFFFFFFFFFFFFFFFFFFFFFFFFFFFF AND EQ ISZERO JUMPDEST PUSH2 0x3D76 JUMPI PUSH1 0x40 MLOAD PUSH32 0x8C379A000000000000000000000000000000000000000000000000000000000 DUP2 MSTORE PUSH1 0x4 ADD DUP1 DUP1 PUSH1 0x20 ADD DUP3 DUP2 SUB DUP3 MSTORE PUSH1 0xF DUP2 MSTORE PUSH1 0x20 ADD DUP1 PUSH32 0x31306B3A20494E56414C49445F544F0000000000000000000000000000000000 DUP2 MSTORE POP PUSH1 0x20 ADD SWAP2 POP POP PUSH1 0x40 MLOAD DUP1 SWAP2 SUB SWAP1 REVERT JUMPDEST PUSH1 0x0 DUP9 PUSH1 0x40 ADD MLOAD GT ISZERO PUSH2 0x3D97 JUMPI PUSH2 0x3D96 DUP9 PUSH1 0x0 ADD MLOAD DUP9 DUP11 PUSH1 0x40 ADD MLOAD PUSH2 0x54DA JUMP JUMPDEST JUMPDEST PUSH1 0x0 DUP9 PUSH1 0x60 ADD MLOAD GT ISZERO PUSH2 0x3DB8 JUMPI PUSH2 0x3DB7 DUP9 PUSH1 0x20 ADD MLOAD DUP9 DUP11 PUSH1 0x60 ADD MLOAD PUSH2 0x54DA JUMP JUMPDEST JUMPDEST PUSH1 0x0 DUP7 MLOAD GT ISZERO PUSH2 0x3EDF JUMPI DUP7 PUSH20 0xFFFFFFFFFFFFFFFFFFFFFFFFFFFFFFFFFFFFFFFF AND PUSH4 0x10D1E85C CALLER DUP11 PUSH1 0x40 ADD MLOAD DUP12 PUSH1 0x60 ADD MLOAD DUP11 PUSH1 0x40 MLOAD DUP6 PUSH4 0xFFFFFFFF AND PUSH1 0xE0 SHL DUP2 MSTORE PUSH1 0x4 ADD DUP1 DUP6 PUSH20 0xFFFFFFFFFFFFFFFFFFFFFFFFFFFFFFFFFFFFFFFF AND PUSH20 0xFFFFFFFFFFFFFFFFFFFFFFFFFFFFFFFFFFFFFFFF AND DUP2 MSTORE PUSH1 0x20 ADD DUP5 DUP2 MSTORE PUSH1 0x20 ADD DUP4 DUP2 MSTORE PUSH1 0x20 ADD DUP1 PUSH1 0x20 ADD DUP3 DUP2 SUB DUP3 MSTORE DUP4 DUP2 DUP2 MLOAD DUP2 MSTORE PUSH1 0x20 ADD SWAP2 POP DUP1 MLOAD SWAP1 PUSH1 0x20 ADD SWAP1 DUP1 DUP4 DUP4 PUSH1 0x0 JUMPDEST DUP4 DUP2 LT ISZERO PUSH2 0x3E77 JUMPI DUP1 DUP3 ADD MLOAD DUP2 DUP5 ADD MSTORE PUSH1 0x20 DUP2 ADD SWAP1 POP PUSH2 0x3E5C JUMP JUMPDEST POP POP POP POP SWAP1 POP SWAP1 DUP2 ADD SWAP1 PUSH1 0x1F AND DUP1 ISZERO PUSH2 0x3EA4 JUMPI DUP1 DUP3 SUB DUP1 MLOAD PUSH1 0x1 DUP4 PUSH1 0x20 SUB PUSH2 0x100 EXP SUB NOT AND DUP2 MSTORE PUSH1 0x20 ADD SWAP2 POP JUMPDEST POP SWAP6 POP POP POP POP POP POP PUSH1 0x0 PUSH1 0x40 MLOAD DUP1 DUP4 SUB DUP2 PUSH1 0x0 DUP8 DUP1 EXTCODESIZE ISZERO DUP1 ISZERO PUSH2 0x3EC6 JUMPI PUSH1 0x0 DUP1 REVERT JUMPDEST POP GAS CALL ISZERO DUP1 ISZERO PUSH2 0x3EDA JUMPI RETURNDATASIZE PUSH1 0x0 DUP1 RETURNDATACOPY RETURNDATASIZE PUSH1 0x0 REVERT JUMPDEST POP POP POP POP JUMPDEST DUP8 PUSH1 0x0 ADD MLOAD PUSH20 0xFFFFFFFFFFFFFFFFFFFFFFFFFFFFFFFFFFFFFFFF AND PUSH4 0x70A08231 ADDRESS PUSH1 0x40 MLOAD DUP3 PUSH4 0xFFFFFFFF AND PUSH1 0xE0 SHL DUP2 MSTORE PUSH1 0x4 ADD DUP1 DUP3 PUSH20 0xFFFFFFFFFFFFFFFFFFFFFFFFFFFFFFFFFFFFFFFF AND PUSH20 0xFFFFFFFFFFFFFFFFFFFFFFFFFFFFFFFFFFFFFFFF AND DUP2 MSTORE PUSH1 0x20 ADD SWAP2 POP POP PUSH1 0x20 PUSH1 0x40 MLOAD DUP1 DUP4 SUB DUP2 DUP7 DUP1 EXTCODESIZE ISZERO DUP1 ISZERO PUSH2 0x3F60 JUMPI PUSH1 0x0 DUP1 REVERT JUMPDEST POP GAS STATICCALL ISZERO DUP1 ISZERO PUSH2 0x3F74 JUMPI RETURNDATASIZE PUSH1 0x0 DUP1 RETURNDATACOPY RETURNDATASIZE PUSH1 0x0 REVERT JUMPDEST POP POP POP POP PUSH1 0x40 MLOAD RETURNDATASIZE PUSH1 0x20 DUP2 LT ISZERO PUSH2 0x3F8A JUMPI PUSH1 0x0 DUP1 REVERT JUMPDEST DUP2 ADD SWAP1 DUP1 DUP1 MLOAD SWAP1 PUSH1 0x20 ADD SWAP1 SWAP3 SWAP2 SWAP1 POP POP POP DUP9 PUSH1 0x80 ADD DUP2 DUP2 MSTORE POP POP DUP8 PUSH1 0x20 ADD MLOAD PUSH20 0xFFFFFFFFFFFFFFFFFFFFFFFFFFFFFFFFFFFFFFFF AND PUSH4 0x70A08231 ADDRESS PUSH1 0x40 MLOAD DUP3 PUSH4 0xFFFFFFFF AND PUSH1 0xE0 SHL DUP2 MSTORE PUSH1 0x4 ADD DUP1 DUP3 PUSH20 0xFFFFFFFFFFFFFFFFFFFFFFFFFFFFFFFFFFFFFFFF AND PUSH20 0xFFFFFFFFFFFFFFFFFFFFFFFFFFFFFFFFFFFFFFFF AND DUP2 MSTORE PUSH1 0x20 ADD SWAP2 POP POP PUSH1 0x20 PUSH1 0x40 MLOAD DUP1 DUP4 SUB DUP2 DUP7 DUP1 EXTCODESIZE ISZERO DUP1 ISZERO PUSH2 0x4025 JUMPI PUSH1 0x0 DUP1 REVERT JUMPDEST POP GAS STATICCALL ISZERO DUP1 ISZERO PUSH2 0x4039 JUMPI RETURNDATASIZE PUSH1 0x0 DUP1 RETURNDATACOPY RETURNDATASIZE PUSH1 0x0 REVERT JUMPDEST POP POP POP POP PUSH1 0x40 MLOAD RETURNDATASIZE PUSH1 0x20 DUP2 LT ISZERO PUSH2 0x404F JUMPI PUSH1 0x0 DUP1 REVERT JUMPDEST DUP2 ADD SWAP1 DUP1 DUP1 MLOAD SWAP1 PUSH1 0x20 ADD SWAP1 SWAP3 SWAP2 SWAP1 POP POP POP DUP9 PUSH1 0xA0 ADD DUP2 DUP2 MSTORE POP POP PUSH1 0x0 DUP9 PUSH1 0x40 ADD MLOAD DUP6 PUSH14 0xFFFFFFFFFFFFFFFFFFFFFFFFFFFF AND SUB DUP10 PUSH1 0x80 ADD MLOAD GT PUSH2 0x4093 JUMPI PUSH1 0x0 PUSH2 0x40B1 JUMP JUMPDEST DUP9 PUSH1 0x40 ADD MLOAD DUP6 PUSH14 0xFFFFFFFFFFFFFFFFFFFFFFFFFFFF AND SUB DUP10 PUSH1 0x80 ADD MLOAD SUB JUMPDEST SWAP1 POP PUSH1 0x0 DUP10 PUSH1 0x60 ADD MLOAD DUP6 PUSH14 0xFFFFFFFFFFFFFFFFFFFFFFFFFFFF AND SUB DUP11 PUSH1 0xA0 ADD MLOAD GT PUSH2 0x40DD JUMPI PUSH1 0x0 PUSH2 0x40FB JUMP JUMPDEST DUP10 PUSH1 0x60 ADD MLOAD DUP6 PUSH14 0xFFFFFFFFFFFFFFFFFFFFFFFFFFFF AND SUB DUP11 PUSH1 0xA0 ADD MLOAD SUB JUMPDEST SWAP1 POP PUSH1 0x0 DUP3 GT DUP1 PUSH2 0x410C JUMPI POP PUSH1 0x0 DUP2 GT JUMPDEST PUSH2 0x417E JUMPI PUSH1 0x40 MLOAD PUSH32 0x8C379A000000000000000000000000000000000000000000000000000000000 DUP2 MSTORE PUSH1 0x4 ADD DUP1 DUP1 PUSH1 0x20 ADD DUP3 DUP2 SUB DUP3 MSTORE PUSH1 0x1E DUP2 MSTORE PUSH1 0x20 ADD DUP1 PUSH32 0x31306B3A20494E53554646494349454E545F494E5055545F414D4F554E540000 DUP2 MSTORE POP PUSH1 0x20 ADD SWAP2 POP POP PUSH1 0x40 MLOAD DUP1 SWAP2 SUB SWAP1 REVERT JUMPDEST PUSH3 0x186A0 PUSH2 0x4199 DUP6 PUSH2 0xFFFF AND DUP5 PUSH2 0x4FC7 SWAP1 SWAP2 SWAP1 PUSH4 0xFFFFFFFF AND JUMP JUMPDEST DUP2 PUSH2 0x41A0 JUMPI INVALID JUMPDEST DIV DUP11 PUSH1 0xC0 ADD DUP2 DUP2 MSTORE POP POP PUSH3 0x186A0 PUSH2 0x41C5 DUP5 PUSH2 0xFFFF AND DUP4 PUSH2 0x4FC7 SWAP1 SWAP2 SWAP1 PUSH4 0xFFFFFFFF AND JUMP JUMPDEST DUP2 PUSH2 0x41CC JUMPI INVALID JUMPDEST DIV DUP11 PUSH1 0xE0 ADD DUP2 DUP2 MSTORE POP POP PUSH1 0x0 DUP1 SWAP1 POP PUSH1 0x0 DUP1 PUSH20 0xFFFFFFFFFFFFFFFFFFFFFFFFFFFFFFFFFFFFFFFF AND DUP10 PUSH20 0xFFFFFFFFFFFFFFFFFFFFFFFFFFFFFFFFFFFFFFFF AND EQ ISZERO PUSH2 0x4218 JUMPI PUSH1 0x0 PUSH2 0x42F3 JUMP JUMPDEST PUSH1 0x5 PUSH1 0x0 SWAP1 SLOAD SWAP1 PUSH2 0x100 EXP SWAP1 DIV PUSH20 0xFFFFFFFFFFFFFFFFFFFFFFFFFFFFFFFFFFFFFFFF AND PUSH20 0xFFFFFFFFFFFFFFFFFFFFFFFFFFFFFFFFFFFFFFFF AND PUSH4 0x7183D47C DUP11 PUSH1 0x40 MLOAD DUP3 PUSH4 0xFFFFFFFF AND PUSH1 0xE0 SHL DUP2 MSTORE PUSH1 0x4 ADD DUP1 DUP3 PUSH20 0xFFFFFFFFFFFFFFFFFFFFFFFFFFFFFFFFFFFFFFFF AND PUSH20 0xFFFFFFFFFFFFFFFFFFFFFFFFFFFFFFFFFFFFFFFF AND DUP2 MSTORE PUSH1 0x20 ADD SWAP2 POP POP PUSH1 0x20 PUSH1 0x40 MLOAD DUP1 DUP4 SUB DUP2 DUP7 DUP1 EXTCODESIZE ISZERO DUP1 ISZERO PUSH2 0x42B7 JUMPI PUSH1 0x0 DUP1 REVERT JUMPDEST POP GAS STATICCALL ISZERO DUP1 ISZERO PUSH2 0x42CB JUMPI RETURNDATASIZE PUSH1 0x0 DUP1 RETURNDATACOPY RETURNDATASIZE PUSH1 0x0 REVERT JUMPDEST POP POP POP POP PUSH1 0x40 MLOAD RETURNDATASIZE PUSH1 0x20 DUP2 LT ISZERO PUSH2 0x42E1 JUMPI PUSH1 0x0 DUP1 REVERT JUMPDEST DUP2 ADD SWAP1 DUP1 DUP1 MLOAD SWAP1 PUSH1 0x20 ADD SWAP1 SWAP3 SWAP2 SWAP1 POP POP POP JUMPDEST SWAP1 POP PUSH1 0x0 DUP2 GT ISZERO PUSH2 0x43E5 JUMPI PUSH1 0x0 DUP5 GT ISZERO PUSH2 0x4371 JUMPI PUSH1 0x2 PUSH3 0x186A0 EXP PUSH2 0x4337 DUP8 PUSH2 0xFFFF AND PUSH2 0x4329 DUP5 DUP9 PUSH2 0x4FC7 SWAP1 SWAP2 SWAP1 PUSH4 0xFFFFFFFF AND JUMP JUMPDEST PUSH2 0x4FC7 SWAP1 SWAP2 SWAP1 PUSH4 0xFFFFFFFF AND JUMP JUMPDEST DUP2 PUSH2 0x433E JUMPI INVALID JUMPDEST DIV SWAP2 POP PUSH2 0x4358 DUP3 DUP14 PUSH1 0xC0 ADD MLOAD PUSH2 0x4A13 SWAP1 SWAP2 SWAP1 PUSH4 0xFFFFFFFF AND JUMP JUMPDEST DUP13 PUSH1 0xC0 ADD DUP2 DUP2 MSTORE POP POP PUSH2 0x4370 DUP13 PUSH1 0x0 ADD MLOAD DUP11 DUP5 PUSH2 0x54DA JUMP JUMPDEST JUMPDEST PUSH1 0x0 DUP4 GT ISZERO PUSH2 0x43E4 JUMPI PUSH1 0x2 PUSH3 0x186A0 EXP PUSH2 0x43AA DUP7 PUSH2 0xFFFF AND PUSH2 0x439C DUP5 DUP8 PUSH2 0x4FC7 SWAP1 SWAP2 SWAP1 PUSH4 0xFFFFFFFF AND JUMP JUMPDEST PUSH2 0x4FC7 SWAP1 SWAP2 SWAP1 PUSH4 0xFFFFFFFF AND JUMP JUMPDEST DUP2 PUSH2 0x43B1 JUMPI INVALID JUMPDEST DIV SWAP2 POP PUSH2 0x43CB DUP3 DUP14 PUSH1 0xE0 ADD MLOAD PUSH2 0x4A13 SWAP1 SWAP2 SWAP1 PUSH4 0xFFFFFFFF AND JUMP JUMPDEST DUP13 PUSH1 0xE0 ADD DUP2 DUP2 MSTORE POP POP PUSH2 0x43E3 DUP13 PUSH1 0x20 ADD MLOAD DUP11 DUP5 PUSH2 0x54DA JUMP JUMPDEST JUMPDEST JUMPDEST PUSH1 0xC PUSH1 0x0 SWAP1 SLOAD SWAP1 PUSH2 0x100 EXP SWAP1 DIV PUSH1 0xFF AND ISZERO PUSH2 0x45F5 JUMPI PUSH1 0x0 DUP1 PUSH1 0x5 PUSH1 0x0 SWAP1 SLOAD SWAP1 PUSH2 0x100 EXP SWAP1 DIV PUSH20 0xFFFFFFFFFFFFFFFFFFFFFFFFFFFFFFFFFFFFFFFF AND PUSH20 0xFFFFFFFFFFFFFFFFFFFFFFFFFFFFFFFFFFFFFFFF AND PUSH4 0x995B5AAE PUSH1 0x40 MLOAD DUP2 PUSH4 0xFFFFFFFF AND PUSH1 0xE0 SHL DUP2 MSTORE PUSH1 0x4 ADD PUSH1 0x40 DUP1 MLOAD DUP1 DUP4 SUB DUP2 DUP7 DUP1 EXTCODESIZE ISZERO DUP1 ISZERO PUSH2 0x4464 JUMPI PUSH1 0x0 DUP1 REVERT JUMPDEST POP GAS STATICCALL ISZERO DUP1 ISZERO PUSH2 0x4478 JUMPI RETURNDATASIZE PUSH1 0x0 DUP1 RETURNDATACOPY RETURNDATASIZE PUSH1 0x0 REVERT JUMPDEST POP POP POP POP PUSH1 0x40 MLOAD RETURNDATASIZE PUSH1 0x40 DUP2 LT ISZERO PUSH2 0x448E JUMPI PUSH1 0x0 DUP1 REVERT JUMPDEST DUP2 ADD SWAP1 DUP1 DUP1 MLOAD SWAP1 PUSH1 0x20 ADD SWAP1 SWAP3 SWAP2 SWAP1 DUP1 MLOAD SWAP1 PUSH1 0x20 ADD SWAP1 SWAP3 SWAP2 SWAP1 POP POP POP SWAP2 POP SWAP2 POP PUSH1 0x0 PUSH20 0xFFFFFFFFFFFFFFFFFFFFFFFFFFFFFFFFFFFFFFFF AND DUP2 PUSH20 0xFFFFFFFFFFFFFFFFFFFFFFFFFFFFFFFFFFFFFFFF AND EQ PUSH2 0x45F2 JUMPI PUSH2 0x4509 DUP3 PUSH2 0x44FB DUP6 PUSH3 0x186A0 PUSH2 0x4A13 SWAP1 SWAP2 SWAP1 PUSH4 0xFFFFFFFF AND JUMP JUMPDEST PUSH2 0x4FC7 SWAP1 SWAP2 SWAP1 PUSH4 0xFFFFFFFF AND JUMP JUMPDEST SWAP2 POP PUSH1 0x0 DUP7 GT ISZERO PUSH2 0x457E JUMPI PUSH1 0x3 PUSH3 0x186A0 EXP PUSH2 0x4544 DUP10 PUSH2 0xFFFF AND PUSH2 0x4536 DUP6 DUP11 PUSH2 0x4FC7 SWAP1 SWAP2 SWAP1 PUSH4 0xFFFFFFFF AND JUMP JUMPDEST PUSH2 0x4FC7 SWAP1 SWAP2 SWAP1 PUSH4 0xFFFFFFFF AND JUMP JUMPDEST DUP2 PUSH2 0x454B JUMPI INVALID JUMPDEST DIV SWAP4 POP PUSH2 0x4565 DUP5 DUP16 PUSH1 0xC0 ADD MLOAD PUSH2 0x4A13 SWAP1 SWAP2 SWAP1 PUSH4 0xFFFFFFFF AND JUMP JUMPDEST DUP15 PUSH1 0xC0 ADD DUP2 DUP2 MSTORE POP POP PUSH2 0x457D DUP15 PUSH1 0x0 ADD MLOAD DUP3 DUP7 PUSH2 0x54DA JUMP JUMPDEST JUMPDEST PUSH1 0x0 DUP6 GT ISZERO PUSH2 0x45F1 JUMPI PUSH1 0x3 PUSH3 0x186A0 EXP PUSH2 0x45B7 DUP9 PUSH2 0xFFFF AND PUSH2 0x45A9 DUP6 DUP10 PUSH2 0x4FC7 SWAP1 SWAP2 SWAP1 PUSH4 0xFFFFFFFF AND JUMP JUMPDEST PUSH2 0x4FC7 SWAP1 SWAP2 SWAP1 PUSH4 0xFFFFFFFF AND JUMP JUMPDEST DUP2 PUSH2 0x45BE JUMPI INVALID JUMPDEST DIV SWAP4 POP PUSH2 0x45D8 DUP5 DUP16 PUSH1 0xE0 ADD MLOAD PUSH2 0x4A13 SWAP1 SWAP2 SWAP1 PUSH4 0xFFFFFFFF AND JUMP JUMPDEST DUP15 PUSH1 0xE0 ADD DUP2 DUP2 MSTORE POP POP PUSH2 0x45F0 DUP15 PUSH1 0x20 ADD MLOAD DUP3 DUP7 PUSH2 0x54DA JUMP JUMPDEST JUMPDEST JUMPDEST POP POP JUMPDEST PUSH1 0x0 DUP5 GT ISZERO PUSH2 0x46C4 JUMPI DUP12 PUSH1 0x0 ADD MLOAD PUSH20 0xFFFFFFFFFFFFFFFFFFFFFFFFFFFFFFFFFFFFFFFF AND PUSH4 0x70A08231 ADDRESS PUSH1 0x40 MLOAD DUP3 PUSH4 0xFFFFFFFF AND PUSH1 0xE0 SHL DUP2 MSTORE PUSH1 0x4 ADD DUP1 DUP3 PUSH20 0xFFFFFFFFFFFFFFFFFFFFFFFFFFFFFFFFFFFFFFFF AND PUSH20 0xFFFFFFFFFFFFFFFFFFFFFFFFFFFFFFFFFFFFFFFF AND DUP2 MSTORE PUSH1 0x20 ADD SWAP2 POP POP PUSH1 0x20 PUSH1 0x40 MLOAD DUP1 DUP4 SUB DUP2 DUP7 DUP1 EXTCODESIZE ISZERO DUP1 ISZERO PUSH2 0x467F JUMPI PUSH1 0x0 DUP1 REVERT JUMPDEST POP GAS STATICCALL ISZERO DUP1 ISZERO PUSH2 0x4693 JUMPI RETURNDATASIZE PUSH1 0x0 DUP1 RETURNDATACOPY RETURNDATASIZE PUSH1 0x0 REVERT JUMPDEST POP POP POP POP PUSH1 0x40 MLOAD RETURNDATASIZE PUSH1 0x20 DUP2 LT ISZERO PUSH2 0x46A9 JUMPI PUSH1 0x0 DUP1 REVERT JUMPDEST DUP2 ADD SWAP1 DUP1 DUP1 MLOAD SWAP1 PUSH1 0x20 ADD SWAP1 SWAP3 SWAP2 SWAP1 POP POP POP DUP13 PUSH1 0x80 ADD DUP2 DUP2 MSTORE POP POP JUMPDEST PUSH1 0x0 DUP4 GT ISZERO PUSH2 0x4793 JUMPI DUP12 PUSH1 0x20 ADD MLOAD PUSH20 0xFFFFFFFFFFFFFFFFFFFFFFFFFFFFFFFFFFFFFFFF AND PUSH4 0x70A08231 ADDRESS PUSH1 0x40 MLOAD DUP3 PUSH4 0xFFFFFFFF AND PUSH1 0xE0 SHL DUP2 MSTORE PUSH1 0x4 ADD DUP1 DUP3 PUSH20 0xFFFFFFFFFFFFFFFFFFFFFFFFFFFFFFFFFFFFFFFF AND PUSH20 0xFFFFFFFFFFFFFFFFFFFFFFFFFFFFFFFFFFFFFFFF AND DUP2 MSTORE PUSH1 0x20 ADD SWAP2 POP POP PUSH1 0x20 PUSH1 0x40 MLOAD DUP1 DUP4 SUB DUP2 DUP7 DUP1 EXTCODESIZE ISZERO DUP1 ISZERO PUSH2 0x474E JUMPI PUSH1 0x0 DUP1 REVERT JUMPDEST POP GAS STATICCALL ISZERO DUP1 ISZERO PUSH2 0x4762 JUMPI RETURNDATASIZE PUSH1 0x0 DUP1 RETURNDATACOPY RETURNDATASIZE PUSH1 0x0 REVERT JUMPDEST POP POP POP POP PUSH1 0x40 MLOAD RETURNDATASIZE PUSH1 0x20 DUP2 LT ISZERO PUSH2 0x4778 JUMPI PUSH1 0x0 DUP1 REVERT JUMPDEST DUP2 ADD SWAP1 DUP1 DUP1 MLOAD SWAP1 PUSH1 0x20 ADD SWAP1 SWAP3 SWAP2 SWAP1 POP POP POP DUP13 PUSH1 0xA0 ADD DUP2 DUP2 MSTORE POP POP JUMPDEST POP POP PUSH1 0x0 PUSH2 0x47B2 DUP12 PUSH1 0xC0 ADD MLOAD DUP13 PUSH1 0x80 ADD MLOAD PUSH2 0x4A13 SWAP1 SWAP2 SWAP1 PUSH4 0xFFFFFFFF AND JUMP JUMPDEST SWAP1 POP PUSH1 0x0 PUSH2 0x47D1 DUP13 PUSH1 0xE0 ADD MLOAD DUP14 PUSH1 0xA0 ADD MLOAD PUSH2 0x4A13 SWAP1 SWAP2 SWAP1 PUSH4 0xFFFFFFFF AND JUMP JUMPDEST SWAP1 POP PUSH2 0x47FD DUP9 PUSH14 0xFFFFFFFFFFFFFFFFFFFFFFFFFFFF AND DUP9 PUSH14 0xFFFFFFFFFFFFFFFFFFFFFFFFFFFF AND PUSH2 0x4E8C JUMP JUMPDEST PUSH2 0x4807 DUP4 DUP4 PUSH2 0x4E8C JUMP JUMPDEST LT ISZERO PUSH2 0x487B JUMPI PUSH1 0x40 MLOAD PUSH32 0x8C379A000000000000000000000000000000000000000000000000000000000 DUP2 MSTORE PUSH1 0x4 ADD DUP1 DUP1 PUSH1 0x20 ADD DUP3 DUP2 SUB DUP3 MSTORE PUSH1 0x6 DUP2 MSTORE PUSH1 0x20 ADD DUP1 PUSH32 0x31306B3A204B0000000000000000000000000000000000000000000000000000 DUP2 MSTORE POP PUSH1 0x20 ADD SWAP2 POP POP PUSH1 0x40 MLOAD DUP1 SWAP2 SUB SWAP1 REVERT JUMPDEST POP POP PUSH2 0x488F DUP11 PUSH1 0x80 ADD MLOAD DUP12 PUSH1 0xA0 ADD MLOAD PUSH2 0x51F1 JUMP JUMPDEST DUP9 PUSH20 0xFFFFFFFFFFFFFFFFFFFFFFFFFFFFFFFFFFFFFFFF AND CALLER PUSH20 0xFFFFFFFFFFFFFFFFFFFFFFFFFFFFFFFFFFFFFFFF AND PUSH32 0xD78AD95FA46C994B6551D0DA85FC275FE613CE37657FB8D5E3D130840159D822 DUP5 DUP5 DUP15 PUSH1 0x40 ADD MLOAD DUP16 PUSH1 0x60 ADD MLOAD PUSH1 0x40 MLOAD DUP1 DUP6 DUP2 MSTORE PUSH1 0x20 ADD DUP5 DUP2 MSTORE PUSH1 0x20 ADD DUP4 DUP2 MSTORE PUSH1 0x20 ADD DUP3 DUP2 MSTORE PUSH1 0x20 ADD SWAP5 POP POP POP POP POP PUSH1 0x40 MLOAD DUP1 SWAP2 SUB SWAP1 LOG3 POP POP POP POP POP POP PUSH1 0x1 PUSH1 0xD DUP2 SWAP1 SSTORE POP POP POP POP POP JUMP JUMPDEST DUP1 PUSH1 0x2 PUSH1 0x0 DUP6 PUSH20 0xFFFFFFFFFFFFFFFFFFFFFFFFFFFFFFFFFFFFFFFF AND PUSH20 0xFFFFFFFFFFFFFFFFFFFFFFFFFFFFFFFFFFFFFFFF AND DUP2 MSTORE PUSH1 0x20 ADD SWAP1 DUP2 MSTORE PUSH1 0x20 ADD PUSH1 0x0 KECCAK256 PUSH1 0x0 DUP5 PUSH20 0xFFFFFFFFFFFFFFFFFFFFFFFFFFFFFFFFFFFFFFFF AND PUSH20 0xFFFFFFFFFFFFFFFFFFFFFFFFFFFFFFFFFFFFFFFF AND DUP2 MSTORE PUSH1 0x20 ADD SWAP1 DUP2 MSTORE PUSH1 0x20 ADD PUSH1 0x0 KECCAK256 DUP2 SWAP1 SSTORE POP DUP2 PUSH20 0xFFFFFFFFFFFFFFFFFFFFFFFFFFFFFFFFFFFFFFFF AND DUP4 PUSH20 0xFFFFFFFFFFFFFFFFFFFFFFFFFFFFFFFFFFFFFFFF AND PUSH32 0x8C5BE1E5EBEC7D5BD14F71427D1E84F3DD0314C0F7B2291E5B200AC8C7C3B925 DUP4 PUSH1 0x40 MLOAD DUP1 DUP3 DUP2 MSTORE PUSH1 0x20 ADD SWAP2 POP POP PUSH1 0x40 MLOAD DUP1 SWAP2 SUB SWAP1 LOG3 POP POP POP JUMP JUMPDEST PUSH1 0x0 DUP3 DUP3 DUP5 SUB SWAP2 POP DUP2 GT ISZERO PUSH2 0x4A90 JUMPI PUSH1 0x40 MLOAD PUSH32 0x8C379A000000000000000000000000000000000000000000000000000000000 DUP2 MSTORE PUSH1 0x4 ADD DUP1 DUP1 PUSH1 0x20 ADD DUP3 DUP2 SUB DUP3 MSTORE PUSH1 0x15 DUP2 MSTORE PUSH1 0x20 ADD DUP1 PUSH32 0x64732D6D6174682D7375622D756E646572666C6F770000000000000000000000 DUP2 MSTORE POP PUSH1 0x20 ADD SWAP2 POP POP PUSH1 0x40 MLOAD DUP1 SWAP2 SUB SWAP1 REVERT JUMPDEST SWAP3 SWAP2 POP POP JUMP JUMPDEST PUSH2 0x4AE8 DUP2 PUSH1 0x1 PUSH1 0x0 DUP7 PUSH20 0xFFFFFFFFFFFFFFFFFFFFFFFFFFFFFFFFFFFFFFFF AND PUSH20 0xFFFFFFFFFFFFFFFFFFFFFFFFFFFFFFFFFFFFFFFF AND DUP2 MSTORE PUSH1 0x20 ADD SWAP1 DUP2 MSTORE PUSH1 0x20 ADD PUSH1 0x0 KECCAK256 SLOAD PUSH2 0x4A13 SWAP1 SWAP2 SWAP1 PUSH4 0xFFFFFFFF AND JUMP JUMPDEST PUSH1 0x1 PUSH1 0x0 DUP6 PUSH20 0xFFFFFFFFFFFFFFFFFFFFFFFFFFFFFFFFFFFFFFFF AND PUSH20 0xFFFFFFFFFFFFFFFFFFFFFFFFFFFFFFFFFFFFFFFF AND DUP2 MSTORE PUSH1 0x20 ADD SWAP1 DUP2 MSTORE PUSH1 0x20 ADD PUSH1 0x0 KECCAK256 DUP2 SWAP1 SSTORE POP PUSH2 0x4B7D DUP2 PUSH1 0x1 PUSH1 0x0 DUP6 PUSH20 0xFFFFFFFFFFFFFFFFFFFFFFFFFFFFFFFFFFFFFFFF AND PUSH20 0xFFFFFFFFFFFFFFFFFFFFFFFFFFFFFFFFFFFFFFFF AND DUP2 MSTORE PUSH1 0x20 ADD SWAP1 DUP2 MSTORE PUSH1 0x20 ADD PUSH1 0x0 KECCAK256 SLOAD PUSH2 0x5A11 SWAP1 SWAP2 SWAP1 PUSH4 0xFFFFFFFF AND JUMP JUMPDEST PUSH1 0x1 PUSH1 0x0 DUP5 PUSH20 0xFFFFFFFFFFFFFFFFFFFFFFFFFFFFFFFFFFFFFFFF AND PUSH20 0xFFFFFFFFFFFFFFFFFFFFFFFFFFFFFFFFFFFFFFFF AND DUP2 MSTORE PUSH1 0x20 ADD SWAP1 DUP2 MSTORE PUSH1 0x20 ADD PUSH1 0x0 KECCAK256 DUP2 SWAP1 SSTORE POP DUP2 PUSH20 0xFFFFFFFFFFFFFFFFFFFFFFFFFFFFFFFFFFFFFFFF AND DUP4 PUSH20 0xFFFFFFFFFFFFFFFFFFFFFFFFFFFFFFFFFFFFFFFF AND PUSH32 0xDDF252AD1BE2C89B69C2B068FC378DAA952BA7F163C4A11628F55A4DF523B3EF DUP4 PUSH1 0x40 MLOAD DUP1 DUP3 DUP2 MSTORE PUSH1 0x20 ADD SWAP2 POP POP PUSH1 0x40 MLOAD DUP1 SWAP2 SUB SWAP1 LOG3 POP POP POP JUMP JUMPDEST PUSH1 0x0 PUSH1 0xC PUSH1 0x0 SWAP1 SLOAD SWAP1 PUSH2 0x100 EXP SWAP1 DIV PUSH1 0xFF AND ISZERO PUSH2 0x4C4A JUMPI PUSH1 0x0 SWAP1 POP PUSH2 0x4E86 JUMP JUMPDEST PUSH1 0x0 DUP1 PUSH1 0x5 PUSH1 0x0 SWAP1 SLOAD SWAP1 PUSH2 0x100 EXP SWAP1 DIV PUSH20 0xFFFFFFFFFFFFFFFFFFFFFFFFFFFFFFFFFFFFFFFF AND PUSH20 0xFFFFFFFFFFFFFFFFFFFFFFFFFFFFFFFFFFFFFFFF AND PUSH4 0x995B5AAE PUSH1 0x40 MLOAD DUP2 PUSH4 0xFFFFFFFF AND PUSH1 0xE0 SHL DUP2 MSTORE PUSH1 0x4 ADD PUSH1 0x40 DUP1 MLOAD DUP1 DUP4 SUB DUP2 DUP7 DUP1 EXTCODESIZE ISZERO DUP1 ISZERO PUSH2 0x4CB4 JUMPI PUSH1 0x0 DUP1 REVERT JUMPDEST POP GAS STATICCALL ISZERO DUP1 ISZERO PUSH2 0x4CC8 JUMPI RETURNDATASIZE PUSH1 0x0 DUP1 RETURNDATACOPY RETURNDATASIZE PUSH1 0x0 REVERT JUMPDEST POP POP POP POP PUSH1 0x40 MLOAD RETURNDATASIZE PUSH1 0x40 DUP2 LT ISZERO PUSH2 0x4CDE JUMPI PUSH1 0x0 DUP1 REVERT JUMPDEST DUP2 ADD SWAP1 DUP1 DUP1 MLOAD SWAP1 PUSH1 0x20 ADD SWAP1 SWAP3 SWAP2 SWAP1 DUP1 MLOAD SWAP1 PUSH1 0x20 ADD SWAP1 SWAP3 SWAP2 SWAP1 POP POP POP SWAP2 POP SWAP2 POP PUSH1 0x0 PUSH20 0xFFFFFFFFFFFFFFFFFFFFFFFFFFFFFFFFFFFFFFFF AND DUP2 PUSH20 0xFFFFFFFFFFFFFFFFFFFFFFFFFFFFFFFFFFFFFFFF AND EQ ISZERO SWAP3 POP PUSH1 0x0 PUSH1 0xB SLOAD SWAP1 POP DUP4 ISZERO PUSH2 0x4E70 JUMPI PUSH1 0x0 DUP2 EQ PUSH2 0x4E6B JUMPI PUSH1 0x0 PUSH2 0x4D79 PUSH2 0x4D74 DUP9 PUSH14 0xFFFFFFFFFFFFFFFFFFFFFFFFFFFF AND DUP9 PUSH14 0xFFFFFFFFFFFFFFFFFFFFFFFFFFFF AND PUSH2 0x4E8C JUMP JUMPDEST PUSH2 0x505C JUMP JUMPDEST SWAP1 POP PUSH1 0x0 PUSH2 0x4D86 DUP4 PUSH2 0x505C JUMP JUMPDEST SWAP1 POP DUP1 DUP3 GT ISZERO PUSH2 0x4E68 JUMPI PUSH1 0x0 PUSH2 0x4DC5 PUSH1 0x64 DUP8 PUSH2 0x4DAF PUSH1 0x64 PUSH3 0x186A0 PUSH2 0x4FC7 SWAP1 SWAP2 SWAP1 PUSH4 0xFFFFFFFF AND JUMP JUMPDEST DUP2 PUSH2 0x4DB6 JUMPI INVALID JUMPDEST DIV PUSH2 0x4A13 SWAP1 SWAP2 SWAP1 PUSH4 0xFFFFFFFF AND JUMP JUMPDEST SWAP1 POP PUSH1 0x0 PUSH2 0x4E03 PUSH1 0x64 PUSH2 0x4DF5 PUSH2 0x4DE4 DUP7 DUP9 PUSH2 0x4A13 SWAP1 SWAP2 SWAP1 PUSH4 0xFFFFFFFF AND JUMP JUMPDEST PUSH1 0x0 SLOAD PUSH2 0x4FC7 SWAP1 SWAP2 SWAP1 PUSH4 0xFFFFFFFF AND JUMP JUMPDEST PUSH2 0x4FC7 SWAP1 SWAP2 SWAP1 PUSH4 0xFFFFFFFF AND JUMP JUMPDEST SWAP1 POP PUSH1 0x0 PUSH2 0x4E3F PUSH2 0x4E1E PUSH1 0x64 DUP7 PUSH2 0x4FC7 SWAP1 SWAP2 SWAP1 PUSH4 0xFFFFFFFF AND JUMP JUMPDEST PUSH2 0x4E31 DUP6 DUP9 PUSH2 0x4FC7 SWAP1 SWAP2 SWAP1 PUSH4 0xFFFFFFFF AND JUMP JUMPDEST PUSH2 0x5A11 SWAP1 SWAP2 SWAP1 PUSH4 0xFFFFFFFF AND JUMP JUMPDEST SWAP1 POP PUSH1 0x0 DUP2 DUP4 DUP2 PUSH2 0x4E4C JUMPI INVALID JUMPDEST DIV SWAP1 POP PUSH1 0x0 DUP2 GT ISZERO PUSH2 0x4E63 JUMPI PUSH2 0x4E62 DUP9 DUP3 PUSH2 0x50BE JUMP JUMPDEST JUMPDEST POP POP POP POP JUMPDEST POP POP JUMPDEST PUSH2 0x4E82 JUMP JUMPDEST PUSH1 0x0 DUP2 EQ PUSH2 0x4E81 JUMPI PUSH1 0x0 PUSH1 0xB DUP2 SWAP1 SSTORE POP JUMPDEST JUMPDEST POP POP POP JUMPDEST SWAP3 SWAP2 POP POP JUMP JUMPDEST PUSH1 0x0 PUSH1 0xC PUSH1 0x0 SWAP1 SLOAD SWAP1 PUSH2 0x100 EXP SWAP1 DIV PUSH1 0xFF AND ISZERO PUSH2 0x4FAB JUMPI PUSH1 0x0 PUSH1 0x9 SLOAD PUSH2 0x4EC3 PUSH8 0xDE0B6B3A7640000 DUP7 PUSH2 0x4FC7 SWAP1 SWAP2 SWAP1 PUSH4 0xFFFFFFFF AND JUMP JUMPDEST DUP2 PUSH2 0x4ECA JUMPI INVALID JUMPDEST DIV SWAP1 POP PUSH1 0x0 PUSH1 0xA SLOAD PUSH2 0x4EED PUSH8 0xDE0B6B3A7640000 DUP7 PUSH2 0x4FC7 SWAP1 SWAP2 SWAP1 PUSH4 0xFFFFFFFF AND JUMP JUMPDEST DUP2 PUSH2 0x4EF4 JUMPI INVALID JUMPDEST DIV SWAP1 POP PUSH1 0x0 PUSH8 0xDE0B6B3A7640000 PUSH2 0x4F15 DUP4 DUP6 PUSH2 0x4FC7 SWAP1 SWAP2 SWAP1 PUSH4 0xFFFFFFFF AND JUMP JUMPDEST DUP2 PUSH2 0x4F1C JUMPI INVALID JUMPDEST DIV SWAP1 POP PUSH1 0x0 PUSH2 0x4F7A PUSH8 0xDE0B6B3A7640000 PUSH2 0x4F40 DUP6 DUP7 PUSH2 0x4FC7 SWAP1 SWAP2 SWAP1 PUSH4 0xFFFFFFFF AND JUMP JUMPDEST DUP2 PUSH2 0x4F47 JUMPI INVALID JUMPDEST DIV PUSH8 0xDE0B6B3A7640000 PUSH2 0x4F64 DUP8 DUP9 PUSH2 0x4FC7 SWAP1 SWAP2 SWAP1 PUSH4 0xFFFFFFFF AND JUMP JUMPDEST DUP2 PUSH2 0x4F6B JUMPI INVALID JUMPDEST DIV PUSH2 0x5A11 SWAP1 SWAP2 SWAP1 PUSH4 0xFFFFFFFF AND JUMP JUMPDEST SWAP1 POP PUSH8 0xDE0B6B3A7640000 PUSH2 0x4F98 DUP3 DUP5 PUSH2 0x4FC7 SWAP1 SWAP2 SWAP1 PUSH4 0xFFFFFFFF AND JUMP JUMPDEST DUP2 PUSH2 0x4F9F JUMPI INVALID JUMPDEST DIV SWAP5 POP POP POP POP POP PUSH2 0x4FC1 JUMP JUMPDEST PUSH2 0x4FBE DUP3 DUP5 PUSH2 0x4FC7 SWAP1 SWAP2 SWAP1 PUSH4 0xFFFFFFFF AND JUMP JUMPDEST SWAP1 POP JUMPDEST SWAP3 SWAP2 POP POP JUMP JUMPDEST PUSH1 0x0 DUP1 DUP3 EQ DUP1 PUSH2 0x4FE4 JUMPI POP DUP3 DUP3 DUP4 DUP6 MUL SWAP3 POP DUP3 DUP2 PUSH2 0x4FE1 JUMPI INVALID JUMPDEST DIV EQ JUMPDEST PUSH2 0x5056 JUMPI PUSH1 0x40 MLOAD PUSH32 0x8C379A000000000000000000000000000000000000000000000000000000000 DUP2 MSTORE PUSH1 0x4 ADD DUP1 DUP1 PUSH1 0x20 ADD DUP3 DUP2 SUB DUP3 MSTORE PUSH1 0x14 DUP2 MSTORE PUSH1 0x20 ADD DUP1 PUSH32 0x64732D6D6174682D6D756C2D6F766572666C6F77000000000000000000000000 DUP2 MSTORE POP PUSH1 0x20 ADD SWAP2 POP POP PUSH1 0x40 MLOAD DUP1 SWAP2 SUB SWAP1 REVERT JUMPDEST SWAP3 SWAP2 POP POP JUMP JUMPDEST PUSH1 0x0 PUSH1 0x3 DUP3 GT ISZERO PUSH2 0x50AB JUMPI DUP2 SWAP1 POP PUSH1 0x0 PUSH1 0x1 PUSH1 0x2 DUP5 DUP2 PUSH2 0x5078 JUMPI INVALID JUMPDEST DIV ADD SWAP1 POP JUMPDEST DUP2 DUP2 LT ISZERO PUSH2 0x50A5 JUMPI DUP1 SWAP2 POP PUSH1 0x2 DUP2 DUP3 DUP6 DUP2 PUSH2 0x5094 JUMPI INVALID JUMPDEST DIV ADD DUP2 PUSH2 0x509D JUMPI INVALID JUMPDEST DIV SWAP1 POP PUSH2 0x507D JUMP JUMPDEST POP PUSH2 0x50B9 JUMP JUMPDEST PUSH1 0x0 DUP3 EQ PUSH2 0x50B8 JUMPI PUSH1 0x1 SWAP1 POP JUMPDEST JUMPDEST SWAP2 SWAP1 POP JUMP JUMPDEST PUSH2 0x50D3 DUP2 PUSH1 0x0 SLOAD PUSH2 0x5A11 SWAP1 SWAP2 SWAP1 PUSH4 0xFFFFFFFF AND JUMP JUMPDEST PUSH1 0x0 DUP2 SWAP1 SSTORE POP PUSH2 0x512B DUP2 PUSH1 0x1 PUSH1 0x0 DUP6 PUSH20 0xFFFFFFFFFFFFFFFFFFFFFFFFFFFFFFFFFFFFFFFF AND PUSH20 0xFFFFFFFFFFFFFFFFFFFFFFFFFFFFFFFFFFFFFFFF AND DUP2 MSTORE PUSH1 0x20 ADD SWAP1 DUP2 MSTORE PUSH1 0x20 ADD PUSH1 0x0 KECCAK256 SLOAD PUSH2 0x5A11 SWAP1 SWAP2 SWAP1 PUSH4 0xFFFFFFFF AND JUMP JUMPDEST PUSH1 0x1 PUSH1 0x0 DUP5 PUSH20 0xFFFFFFFFFFFFFFFFFFFFFFFFFFFFFFFFFFFFFFFF AND PUSH20 0xFFFFFFFFFFFFFFFFFFFFFFFFFFFFFFFFFFFFFFFF AND DUP2 MSTORE PUSH1 0x20 ADD SWAP1 DUP2 MSTORE PUSH1 0x20 ADD PUSH1 0x0 KECCAK256 DUP2 SWAP1 SSTORE POP DUP2 PUSH20 0xFFFFFFFFFFFFFFFFFFFFFFFFFFFFFFFFFFFFFFFF AND PUSH1 0x0 PUSH20 0xFFFFFFFFFFFFFFFFFFFFFFFFFFFFFFFFFFFFFFFF AND PUSH32 0xDDF252AD1BE2C89B69C2B068FC378DAA952BA7F163C4A11628F55A4DF523B3EF DUP4 PUSH1 0x40 MLOAD DUP1 DUP3 DUP2 MSTORE PUSH1 0x20 ADD SWAP2 POP POP PUSH1 0x40 MLOAD DUP1 SWAP2 SUB SWAP1 LOG3 POP POP JUMP JUMPDEST PUSH1 0x0 DUP2 DUP4 LT PUSH2 0x51E7 JUMPI DUP2 PUSH2 0x51E9 JUMP JUMPDEST DUP3 JUMPDEST SWAP1 POP SWAP3 SWAP2 POP POP JUMP JUMPDEST PUSH32 0xFFFFFFFFFFFFFFFFFFFFFFFFFFFFFFFFFFFFFFFFFFFFFFFFFFFFFFFFFFFFFFFF PUSH14 0xFFFFFFFFFFFFFFFFFFFFFFFFFFFF AND DUP3 GT ISZERO DUP1 ISZERO PUSH2 0x5261 JUMPI POP PUSH32 0xFFFFFFFFFFFFFFFFFFFFFFFFFFFFFFFFFFFFFFFFFFFFFFFFFFFFFFFFFFFFFFFF PUSH14 0xFFFFFFFFFFFFFFFFFFFFFFFFFFFF AND DUP2 GT ISZERO JUMPDEST PUSH2 0x52D3 JUMPI PUSH1 0x40 MLOAD PUSH32 0x8C379A000000000000000000000000000000000000000000000000000000000 DUP2 MSTORE PUSH1 0x4 ADD DUP1 DUP1 PUSH1 0x20 ADD DUP3 DUP2 SUB DUP3 MSTORE PUSH1 0xD DUP2 MSTORE PUSH1 0x20 ADD DUP1 PUSH32 0x31306B3A204F564552464C4F5700000000000000000000000000000000000000 DUP2 MSTORE POP PUSH1 0x20 ADD SWAP2 POP POP PUSH1 0x40 MLOAD DUP1 SWAP2 SUB SWAP1 REVERT JUMPDEST DUP2 PUSH1 0x8 PUSH1 0x0 PUSH2 0x100 EXP DUP2 SLOAD DUP2 PUSH14 0xFFFFFFFFFFFFFFFFFFFFFFFFFFFF MUL NOT AND SWAP1 DUP4 PUSH14 0xFFFFFFFFFFFFFFFFFFFFFFFFFFFF AND MUL OR SWAP1 SSTORE POP DUP1 PUSH1 0x8 PUSH1 0xE PUSH2 0x100 EXP DUP2 SLOAD DUP2 PUSH14 0xFFFFFFFFFFFFFFFFFFFFFFFFFFFF MUL NOT AND SWAP1 DUP4 PUSH14 0xFFFFFFFFFFFFFFFFFFFFFFFFFFFF AND MUL OR SWAP1 SSTORE POP PUSH32 0x1C411E9A96E071241C2F21F7726B17AE89E3CAB4C78BE50E062B03A9FFFBBAD1 DUP3 DUP3 PUSH1 0x40 MLOAD DUP1 DUP4 PUSH14 0xFFFFFFFFFFFFFFFFFFFFFFFFFFFF AND PUSH14 0xFFFFFFFFFFFFFFFFFFFFFFFFFFFF AND DUP2 MSTORE PUSH1 0x20 ADD DUP3 PUSH14 0xFFFFFFFFFFFFFFFFFFFFFFFFFFFF AND PUSH14 0xFFFFFFFFFFFFFFFFFFFFFFFFFFFF AND DUP2 MSTORE PUSH1 0x20 ADD SWAP3 POP POP POP PUSH1 0x40 MLOAD DUP1 SWAP2 SUB SWAP1 LOG1 POP POP JUMP JUMPDEST PUSH2 0x5412 DUP2 PUSH1 0x1 PUSH1 0x0 DUP6 PUSH20 0xFFFFFFFFFFFFFFFFFFFFFFFFFFFFFFFFFFFFFFFF AND PUSH20 0xFFFFFFFFFFFFFFFFFFFFFFFFFFFFFFFFFFFFFFFF AND DUP2 MSTORE PUSH1 0x20 ADD SWAP1 DUP2 MSTORE PUSH1 0x20 ADD PUSH1 0x0 KECCAK256 SLOAD PUSH2 0x4A13 SWAP1 SWAP2 SWAP1 PUSH4 0xFFFFFFFF AND JUMP JUMPDEST PUSH1 0x1 PUSH1 0x0 DUP5 PUSH20 0xFFFFFFFFFFFFFFFFFFFFFFFFFFFFFFFFFFFFFFFF AND PUSH20 0xFFFFFFFFFFFFFFFFFFFFFFFFFFFFFFFFFFFFFFFF AND DUP2 MSTORE PUSH1 0x20 ADD SWAP1 DUP2 MSTORE PUSH1 0x20 ADD PUSH1 0x0 KECCAK256 DUP2 SWAP1 SSTORE POP PUSH2 0x546A DUP2 PUSH1 0x0 SLOAD PUSH2 0x4A13 SWAP1 SWAP2 SWAP1 PUSH4 0xFFFFFFFF AND JUMP JUMPDEST PUSH1 0x0 DUP2 SWAP1 SSTORE POP PUSH1 0x0 PUSH20 0xFFFFFFFFFFFFFFFFFFFFFFFFFFFFFFFFFFFFFFFF AND DUP3 PUSH20 0xFFFFFFFFFFFFFFFFFFFFFFFFFFFFFFFFFFFFFFFF AND PUSH32 0xDDF252AD1BE2C89B69C2B068FC378DAA952BA7F163C4A11628F55A4DF523B3EF DUP4 PUSH1 0x40 MLOAD DUP1 DUP3 DUP2 MSTORE PUSH1 0x20 ADD SWAP2 POP POP PUSH1 0x40 MLOAD DUP1 SWAP2 SUB SWAP1 LOG3 POP POP JUMP JUMPDEST PUSH1 0x0 PUSH1 0x60 DUP5 PUSH20 0xFFFFFFFFFFFFFFFFFFFFFFFFFFFFFFFFFFFFFFFF AND PUSH1 0x40 MLOAD DUP1 PUSH1 0x40 ADD PUSH1 0x40 MSTORE DUP1 PUSH1 0x19 DUP2 MSTORE PUSH1 0x20 ADD PUSH32 0x7472616E7366657228616464726573732C75696E743235362900000000000000 DUP2 MSTORE POP DUP1 MLOAD SWAP1 PUSH1 0x20 ADD KECCAK256 DUP6 DUP6 PUSH1 0x40 MLOAD PUSH1 0x24 ADD DUP1 DUP4 PUSH20 0xFFFFFFFFFFFFFFFFFFFFFFFFFFFFFFFFFFFFFFFF AND PUSH20 0xFFFFFFFFFFFFFFFFFFFFFFFFFFFFFFFFFFFFFFFF AND DUP2 MSTORE PUSH1 0x20 ADD DUP3 DUP2 MSTORE PUSH1 0x20 ADD SWAP3 POP POP POP PUSH1 0x40 MLOAD PUSH1 0x20 DUP2 DUP4 SUB SUB DUP2 MSTORE SWAP1 PUSH1 0x40 MSTORE SWAP1 PUSH28 0xFFFFFFFFFFFFFFFFFFFFFFFFFFFFFFFFFFFFFFFFFFFFFFFFFFFFFFFF NOT AND PUSH1 0x20 DUP3 ADD DUP1 MLOAD PUSH28 0xFFFFFFFFFFFFFFFFFFFFFFFFFFFFFFFFFFFFFFFFFFFFFFFFFFFFFFFF DUP4 DUP2 DUP4 AND OR DUP4 MSTORE POP POP POP POP PUSH1 0x40 MLOAD DUP1 DUP3 DUP1 MLOAD SWAP1 PUSH1 0x20 ADD SWAP1 DUP1 DUP4 DUP4 JUMPDEST PUSH1 0x20 DUP4 LT PUSH2 0x5607 JUMPI DUP1 MLOAD DUP3 MSTORE PUSH1 0x20 DUP3 ADD SWAP2 POP PUSH1 0x20 DUP2 ADD SWAP1 POP PUSH1 0x20 DUP4 SUB SWAP3 POP PUSH2 0x55E4 JUMP JUMPDEST PUSH1 0x1 DUP4 PUSH1 0x20 SUB PUSH2 0x100 EXP SUB DUP1 NOT DUP3 MLOAD AND DUP2 DUP5 MLOAD AND DUP1 DUP3 OR DUP6 MSTORE POP POP POP POP POP POP SWAP1 POP ADD SWAP2 POP POP PUSH1 0x0 PUSH1 0x40 MLOAD DUP1 DUP4 SUB DUP2 PUSH1 0x0 DUP7 GAS CALL SWAP2 POP POP RETURNDATASIZE DUP1 PUSH1 0x0 DUP2 EQ PUSH2 0x5669 JUMPI PUSH1 0x40 MLOAD SWAP2 POP PUSH1 0x1F NOT PUSH1 0x3F RETURNDATASIZE ADD AND DUP3 ADD PUSH1 0x40 MSTORE RETURNDATASIZE DUP3 MSTORE RETURNDATASIZE PUSH1 0x0 PUSH1 0x20 DUP5 ADD RETURNDATACOPY PUSH2 0x566E JUMP JUMPDEST PUSH1 0x60 SWAP2 POP JUMPDEST POP SWAP2 POP SWAP2 POP DUP2 DUP1 ISZERO PUSH2 0x56AE JUMPI POP PUSH1 0x0 DUP2 MLOAD EQ DUP1 PUSH2 0x56AD JUMPI POP DUP1 DUP1 PUSH1 0x20 ADD SWAP1 MLOAD PUSH1 0x20 DUP2 LT ISZERO PUSH2 0x569B JUMPI PUSH1 0x0 DUP1 REVERT JUMPDEST DUP2 ADD SWAP1 DUP1 DUP1 MLOAD SWAP1 PUSH1 0x20 ADD SWAP1 SWAP3 SWAP2 SWAP1 POP POP POP JUMPDEST JUMPDEST PUSH2 0x5720 JUMPI PUSH1 0x40 MLOAD PUSH32 0x8C379A000000000000000000000000000000000000000000000000000000000 DUP2 MSTORE PUSH1 0x4 ADD DUP1 DUP1 PUSH1 0x20 ADD DUP3 DUP2 SUB DUP3 MSTORE PUSH1 0x14 DUP2 MSTORE PUSH1 0x20 ADD DUP1 PUSH32 0x31306B3A205452414E534645525F4641494C4544000000000000000000000000 DUP2 MSTORE POP PUSH1 0x20 ADD SWAP2 POP POP PUSH1 0x40 MLOAD DUP1 SWAP2 SUB SWAP1 REVERT JUMPDEST POP POP POP POP POP JUMP JUMPDEST PUSH1 0x0 PUSH1 0xC PUSH1 0x0 SWAP1 SLOAD SWAP1 PUSH2 0x100 EXP SWAP1 DIV PUSH1 0xFF AND ISZERO PUSH2 0x5930 JUMPI PUSH2 0x576F PUSH3 0x186A0 PUSH2 0x5758 DUP5 DUP10 PUSH2 0x4FC7 SWAP1 SWAP2 SWAP1 PUSH4 0xFFFFFFFF AND JUMP JUMPDEST DUP2 PUSH2 0x575F JUMPI INVALID JUMPDEST DIV DUP8 PUSH2 0x4A13 SWAP1 SWAP2 SWAP1 PUSH4 0xFFFFFFFF AND JUMP JUMPDEST SWAP6 POP PUSH1 0x0 PUSH2 0x577D DUP6 DUP6 PUSH2 0x4E8C JUMP JUMPDEST SWAP1 POP PUSH1 0x9 SLOAD PUSH8 0xDE0B6B3A7640000 DUP7 MUL DUP2 PUSH2 0x5794 JUMPI INVALID JUMPDEST DIV SWAP5 POP PUSH1 0xA SLOAD PUSH8 0xDE0B6B3A7640000 DUP6 MUL DUP2 PUSH2 0x57AC JUMPI INVALID JUMPDEST DIV SWAP4 POP PUSH1 0x0 DUP1 PUSH1 0x6 PUSH1 0x0 SWAP1 SLOAD SWAP1 PUSH2 0x100 EXP SWAP1 DIV PUSH20 0xFFFFFFFFFFFFFFFFFFFFFFFFFFFFFFFFFFFFFFFF AND PUSH20 0xFFFFFFFFFFFFFFFFFFFFFFFFFFFFFFFFFFFFFFFF AND DUP9 PUSH20 0xFFFFFFFFFFFFFFFFFFFFFFFFFFFFFFFFFFFFFFFF AND EQ PUSH2 0x580E JUMPI DUP6 DUP8 PUSH2 0x5811 JUMP JUMPDEST DUP7 DUP7 JUMPDEST SWAP2 POP SWAP2 POP PUSH1 0x6 PUSH1 0x0 SWAP1 SLOAD SWAP1 PUSH2 0x100 EXP SWAP1 DIV PUSH20 0xFFFFFFFFFFFFFFFFFFFFFFFFFFFFFFFFFFFFFFFF AND PUSH20 0xFFFFFFFFFFFFFFFFFFFFFFFFFFFFFFFFFFFFFFFF AND DUP9 PUSH20 0xFFFFFFFFFFFFFFFFFFFFFFFFFFFFFFFFFFFFFFFF AND EQ PUSH2 0x5885 JUMPI PUSH1 0xA SLOAD PUSH8 0xDE0B6B3A7640000 DUP11 MUL DUP2 PUSH2 0x587F JUMPI INVALID JUMPDEST DIV PUSH2 0x589C JUMP JUMPDEST PUSH1 0x9 SLOAD PUSH8 0xDE0B6B3A7640000 DUP11 MUL DUP2 PUSH2 0x589A JUMPI INVALID JUMPDEST DIV JUMPDEST SWAP9 POP PUSH1 0x0 PUSH2 0x58AD DUP4 DUP12 ADD DUP6 DUP5 PUSH2 0x5A94 JUMP JUMPDEST DUP3 SUB SWAP1 POP PUSH8 0xDE0B6B3A7640000 PUSH1 0x6 PUSH1 0x0 SWAP1 SLOAD SWAP1 PUSH2 0x100 EXP SWAP1 DIV PUSH20 0xFFFFFFFFFFFFFFFFFFFFFFFFFFFFFFFFFFFFFFFF AND PUSH20 0xFFFFFFFFFFFFFFFFFFFFFFFFFFFFFFFFFFFFFFFF AND DUP11 PUSH20 0xFFFFFFFFFFFFFFFFFFFFFFFFFFFFFFFFFFFFFFFF AND EQ PUSH2 0x5917 JUMPI PUSH1 0x9 SLOAD PUSH2 0x591B JUMP JUMPDEST PUSH1 0xA SLOAD JUMPDEST DUP3 MUL DUP2 PUSH2 0x5924 JUMPI INVALID JUMPDEST DIV SWAP5 POP POP POP POP POP PUSH2 0x5A08 JUMP JUMPDEST PUSH1 0x0 DUP1 PUSH1 0x6 PUSH1 0x0 SWAP1 SLOAD SWAP1 PUSH2 0x100 EXP SWAP1 DIV PUSH20 0xFFFFFFFFFFFFFFFFFFFFFFFFFFFFFFFFFFFFFFFF AND PUSH20 0xFFFFFFFFFFFFFFFFFFFFFFFFFFFFFFFFFFFFFFFF AND DUP8 PUSH20 0xFFFFFFFFFFFFFFFFFFFFFFFFFFFFFFFFFFFFFFFF AND EQ PUSH2 0x598F JUMPI DUP5 DUP7 PUSH2 0x5992 JUMP JUMPDEST DUP6 DUP6 JUMPDEST SWAP2 POP SWAP2 POP PUSH2 0x59BE PUSH2 0x59AF DUP6 PUSH3 0x186A0 PUSH2 0x4A13 SWAP1 SWAP2 SWAP1 PUSH4 0xFFFFFFFF AND JUMP JUMPDEST DUP10 PUSH2 0x4FC7 SWAP1 SWAP2 SWAP1 PUSH4 0xFFFFFFFF AND JUMP JUMPDEST SWAP8 POP PUSH2 0x59E8 DUP9 PUSH2 0x59DA PUSH3 0x186A0 DUP6 PUSH2 0x4FC7 SWAP1 SWAP2 SWAP1 PUSH4 0xFFFFFFFF AND JUMP JUMPDEST PUSH2 0x5A11 SWAP1 SWAP2 SWAP1 PUSH4 0xFFFFFFFF AND JUMP JUMPDEST PUSH2 0x59FB DUP3 DUP11 PUSH2 0x4FC7 SWAP1 SWAP2 SWAP1 PUSH4 0xFFFFFFFF AND JUMP JUMPDEST DUP2 PUSH2 0x5A02 JUMPI INVALID JUMPDEST DIV SWAP3 POP POP POP JUMPDEST SWAP6 SWAP5 POP POP POP POP POP JUMP JUMPDEST PUSH1 0x0 DUP3 DUP3 DUP5 ADD SWAP2 POP DUP2 LT ISZERO PUSH2 0x5A8E JUMPI PUSH1 0x40 MLOAD PUSH32 0x8C379A000000000000000000000000000000000000000000000000000000000 DUP2 MSTORE PUSH1 0x4 ADD DUP1 DUP1 PUSH1 0x20 ADD DUP3 DUP2 SUB DUP3 MSTORE PUSH1 0x14 DUP2 MSTORE PUSH1 0x20 ADD DUP1 PUSH32 0x64732D6D6174682D6164642D6F766572666C6F77000000000000000000000000 DUP2 MSTORE POP PUSH1 0x20 ADD SWAP2 POP POP PUSH1 0x40 MLOAD DUP1 SWAP2 SUB SWAP1 REVERT JUMPDEST SWAP3 SWAP2 POP POP JUMP JUMPDEST PUSH1 0x0 DUP1 PUSH1 0x0 SWAP1 POP JUMPDEST PUSH1 0xFF DUP2 LT ISZERO PUSH2 0x5B5F JUMPI PUSH1 0x0 DUP4 SWAP1 POP PUSH1 0x0 PUSH2 0x5AB6 DUP8 DUP7 PUSH2 0x5B6B JUMP JUMPDEST SWAP1 POP DUP6 DUP2 LT ISZERO PUSH2 0x5AEE JUMPI PUSH1 0x0 PUSH2 0x5ACC DUP9 DUP8 PUSH2 0x5BE2 JUMP JUMPDEST PUSH8 0xDE0B6B3A7640000 DUP4 DUP10 SUB MUL DUP2 PUSH2 0x5AE0 JUMPI INVALID JUMPDEST DIV SWAP1 POP DUP1 DUP7 ADD SWAP6 POP POP PUSH2 0x5B18 JUMP JUMPDEST PUSH1 0x0 PUSH2 0x5AFA DUP9 DUP8 PUSH2 0x5BE2 JUMP JUMPDEST PUSH8 0xDE0B6B3A7640000 DUP9 DUP5 SUB MUL DUP2 PUSH2 0x5B0E JUMPI INVALID JUMPDEST DIV SWAP1 POP DUP1 DUP7 SUB SWAP6 POP POP JUMPDEST DUP2 DUP6 GT ISZERO PUSH2 0x5B3A JUMPI PUSH1 0x1 DUP3 DUP7 SUB GT PUSH2 0x5B35 JUMPI DUP5 SWAP4 POP POP POP POP PUSH2 0x5B64 JUMP JUMPDEST PUSH2 0x5B50 JUMP JUMPDEST PUSH1 0x1 DUP6 DUP4 SUB GT PUSH2 0x5B4F JUMPI DUP5 SWAP4 POP POP POP POP PUSH2 0x5B64 JUMP JUMPDEST JUMPDEST POP POP DUP1 DUP1 PUSH1 0x1 ADD SWAP2 POP POP PUSH2 0x5A9C JUMP JUMPDEST POP DUP2 SWAP1 POP JUMPDEST SWAP4 SWAP3 POP POP POP JUMP JUMPDEST PUSH1 0x0 PUSH8 0xDE0B6B3A7640000 DUP3 PUSH8 0xDE0B6B3A7640000 DUP6 PUSH8 0xDE0B6B3A7640000 DUP8 DUP9 MUL DUP2 PUSH2 0x5B94 JUMPI INVALID JUMPDEST DIV MUL DUP2 PUSH2 0x5B9D JUMPI INVALID JUMPDEST DIV MUL DUP2 PUSH2 0x5BA6 JUMPI INVALID JUMPDEST DIV PUSH8 0xDE0B6B3A7640000 DUP1 DUP5 PUSH8 0xDE0B6B3A7640000 DUP7 DUP8 MUL DUP2 PUSH2 0x5BC5 JUMPI INVALID JUMPDEST DIV MUL DUP2 PUSH2 0x5BCE JUMPI INVALID JUMPDEST DIV DUP6 MUL DUP2 PUSH2 0x5BD8 JUMPI INVALID JUMPDEST DIV ADD SWAP1 POP SWAP3 SWAP2 POP POP JUMP JUMPDEST PUSH1 0x0 PUSH8 0xDE0B6B3A7640000 DUP4 PUSH8 0xDE0B6B3A7640000 DUP6 DUP7 MUL DUP2 PUSH2 0x5C01 JUMPI INVALID JUMPDEST DIV MUL DUP2 PUSH2 0x5C0A JUMPI INVALID JUMPDEST DIV PUSH8 0xDE0B6B3A7640000 DUP1 DUP5 DUP6 MUL DUP2 PUSH2 0x5C1F JUMPI INVALID JUMPDEST DIV DUP6 PUSH1 0x3 MUL MUL DUP2 PUSH2 0x5C2C JUMPI INVALID JUMPDEST DIV ADD SWAP1 POP SWAP3 SWAP2 POP POP JUMP JUMPDEST PUSH1 0x40 MLOAD DUP1 PUSH2 0x100 ADD PUSH1 0x40 MSTORE DUP1 PUSH1 0x0 PUSH20 0xFFFFFFFFFFFFFFFFFFFFFFFFFFFFFFFFFFFFFFFF AND DUP2 MSTORE PUSH1 0x20 ADD PUSH1 0x0 PUSH20 0xFFFFFFFFFFFFFFFFFFFFFFFFFFFFFFFFFFFFFFFF AND DUP2 MSTORE PUSH1 0x20 ADD PUSH1 0x0 DUP2 MSTORE PUSH1 0x20 ADD PUSH1 0x0 DUP2 MSTORE PUSH1 0x20 ADD PUSH1 0x0 DUP2 MSTORE PUSH1 0x20 ADD PUSH1 0x0 DUP2 MSTORE PUSH1 0x20 ADD PUSH1 0x0 DUP2 MSTORE PUSH1 0x20 ADD PUSH1 0x0 DUP2 MSTORE POP SWAP1 JUMP INVALID BALANCE ADDRESS PUSH12 0x3A206F6E6C7920666163746F PUSH19 0x79277320736574537461626C654F776E657231 ADDRESS PUSH12 0x3A206F6E6C7920666163746F PUSH19 0x79277320666565416D6F756E744F776E657231 ADDRESS PUSH12 0x3A2066656550657263656E74 KECCAK256 PUSH14 0x7573746E27742065786365656420 PUSH21 0x6865206D6178696D756D31306B3A20666565506572 PUSH4 0x656E7420 PUSH14 0x7573746E27742065786365656420 PUSH21 0x6865206D696E696D756D31306B3A20494E53554646 0x49 NUMBER 0x49 GASLIMIT 0x4E SLOAD 0x5F 0x4C 0x49 MLOAD SSTORE 0x49 DIFFICULTY 0x49 SLOAD MSIZE 0x5F 0x4D 0x49 0x4E SLOAD GASLIMIT DIFFICULTY BALANCE ADDRESS PUSH12 0x3A206C697175696469747920 PUSH19 0x6174696F206E6F7420696E697469616C697A65 PUSH5 0x31306B3A20 0x49 0x4E MSTORE8 SSTORE CHAINID CHAINID 0x49 NUMBER 0x49 GASLIMIT 0x4E SLOAD 0x5F 0x4C 0x49 MLOAD SSTORE 0x49 DIFFICULTY 0x49 SLOAD MSIZE 0x5F TIMESTAMP SSTORE MSTORE 0x4E GASLIMIT DIFFICULTY LOG2 PUSH6 0x627A7A723158 KECCAK256 0xEE DUP16 EXTCODECOPY PUSH15 0x2F98867D4967AB639C69F698D9AEBD PUSH20 0x707E24E7CA2713A5FB2EF17E64736F6C63430005 LT STOP ORIGIN GASLIMIT 0x49 POP CALLDATACOPY BALANCE ORIGIN DIFFICULTY PUSH16 0x6D61696E28737472696E67206E616D65 0x2C PUSH20 0x7472696E672076657273696F6E2C75696E743235 CALLDATASIZE KECCAK256 PUSH4 0x6861696E 0x49 PUSH5 0x2C61646472 PUSH6 0x737320766572 PUSH10 0x6679696E67436F6E7472 PUSH2 0x6374 0x29 "
				},
				"gasEstimates": {
					"creation": {
						"codeDepositCost": "4805600",
						"executionCost": "infinite",
						"totalCost": "infinite"
					},
					"external": {
						"DOMAIN_SEPARATOR()": "1117",
						"FEE_DENOMINATOR()": "249",
						"MAX_FEE_PERCENT()": "338",
						"MINIMUM_LIQUIDITY()": "250",
						"PERMIT_TYPEHASH()": "279",
						"allowance(address,address)": "1333",
						"approve(address,uint256)": "22521",
						"balanceOf(address)": "1259",
						"burn(address)": "infinite",
						"decimals()": "307",
						"drainWrongToken(address,address)": "infinite",
						"factory()": "1142",
						"getAmountOut(uint256,address)": "infinite",
						"getReserves()": "3948",
						"initialize(address,address)": "infinite",
						"initialized()": "1149",
						"kLast()": "1117",
						"mint(address)": "infinite",
						"name()": "infinite",
						"nonces(address)": "1303",
						"pairTypeImmutable()": "1236",
						"permit(address,address,uint256,uint256,uint8,bytes32,bytes32)": "infinite",
						"precisionMultiplier0()": "1139",
						"precisionMultiplier1()": "1117",
						"setFeePercent(uint16,uint16)": "infinite",
						"setPairTypeImmutable()": "infinite",
						"setStableSwap(bool,uint112,uint112)": "infinite",
						"skim(address)": "infinite",
						"stableSwap()": "1142",
						"swap(uint256,uint256,address,bytes)": "infinite",
						"swap(uint256,uint256,address,bytes,address)": "infinite",
						"symbol()": "infinite",
						"sync()": "infinite",
						"token0()": "1188",
						"token0FeePercent()": "1214",
						"token1()": "1164",
						"token1FeePercent()": "1237",
						"totalSupply()": "1073",
						"transfer(address,uint256)": "infinite",
						"transferFrom(address,address,uint256)": "infinite"
					},
					"internal": {
						"_d(uint256,uint256)": "176",
						"_f(uint256,uint256)": "234",
						"_getAmountOut(uint256,address,uint256,uint256,uint256)": "infinite",
						"_get_y(uint256,uint256,uint256)": "infinite",
						"_k(uint256,uint256)": "infinite",
						"_mintFee(uint112,uint112)": "infinite",
						"_safeTransfer(address,address,uint256)": "infinite",
						"_swap(struct TenkStablePair.TokensData memory,address,bytes memory,address)": "infinite",
						"_update(uint256,uint256)": "infinite"
					}
				},
				"methodIdentifiers": {
					"DOMAIN_SEPARATOR()": "3644e515",
					"FEE_DENOMINATOR()": "d73792a9",
					"MAX_FEE_PERCENT()": "67d81740",
					"MINIMUM_LIQUIDITY()": "ba9a7a56",
					"PERMIT_TYPEHASH()": "30adf81f",
					"allowance(address,address)": "dd62ed3e",
					"approve(address,uint256)": "095ea7b3",
					"balanceOf(address)": "70a08231",
					"burn(address)": "89afcb44",
					"decimals()": "313ce567",
					"drainWrongToken(address,address)": "f39ac11f",
					"factory()": "c45a0155",
					"getAmountOut(uint256,address)": "f140a35a",
					"getReserves()": "0902f1ac",
					"initialize(address,address)": "485cc955",
					"initialized()": "158ef93e",
					"kLast()": "7464fc3d",
					"mint(address)": "6a627842",
					"name()": "06fdde03",
					"nonces(address)": "7ecebe00",
					"pairTypeImmutable()": "b6200b07",
					"permit(address,address,uint256,uint256,uint8,bytes32,bytes32)": "d505accf",
					"precisionMultiplier0()": "3b9f1dc0",
					"precisionMultiplier1()": "288e5d02",
					"setFeePercent(uint16,uint16)": "48e5d260",
					"setPairTypeImmutable()": "3ba17077",
					"setStableSwap(bool,uint112,uint112)": "3029e5d4",
					"skim(address)": "bc25cf77",
					"stableSwap()": "9e548b7f",
					"swap(uint256,uint256,address,bytes)": "022c0d9f",
					"swap(uint256,uint256,address,bytes,address)": "6e1fdd7f",
					"symbol()": "95d89b41",
					"sync()": "fff6cae9",
					"token0()": "0dfe1681",
					"token0FeePercent()": "62ecec03",
					"token1()": "d21220a7",
					"token1FeePercent()": "2fcd1692",
					"totalSupply()": "18160ddd",
					"transfer(address,uint256)": "a9059cbb",
					"transferFrom(address,address,uint256)": "23b872dd"
				}
			},
			"storageLayout": {
				"storage": [
					{
						"astId": 19,
						"contract": "contracts/TenkStablePair.sol:TenkStablePair",
						"label": "totalSupply",
						"offset": 0,
						"slot": "0",
						"type": "t_uint256"
					},
					{
						"astId": 23,
						"contract": "contracts/TenkStablePair.sol:TenkStablePair",
						"label": "balanceOf",
						"offset": 0,
						"slot": "1",
						"type": "t_mapping(t_address,t_uint256)"
					},
					{
						"astId": 29,
						"contract": "contracts/TenkStablePair.sol:TenkStablePair",
						"label": "allowance",
						"offset": 0,
						"slot": "2",
						"type": "t_mapping(t_address,t_mapping(t_address,t_uint256))"
					},
					{
						"astId": 31,
						"contract": "contracts/TenkStablePair.sol:TenkStablePair",
						"label": "DOMAIN_SEPARATOR",
						"offset": 0,
						"slot": "3",
						"type": "t_bytes32"
					},
					{
						"astId": 38,
						"contract": "contracts/TenkStablePair.sol:TenkStablePair",
						"label": "nonces",
						"offset": 0,
						"slot": "4",
						"type": "t_mapping(t_address,t_uint256)"
					},
					{
						"astId": 426,
						"contract": "contracts/TenkStablePair.sol:TenkStablePair",
						"label": "factory",
						"offset": 0,
						"slot": "5",
						"type": "t_address"
					},
					{
						"astId": 428,
						"contract": "contracts/TenkStablePair.sol:TenkStablePair",
						"label": "token0",
						"offset": 0,
						"slot": "6",
						"type": "t_address"
					},
					{
						"astId": 430,
						"contract": "contracts/TenkStablePair.sol:TenkStablePair",
						"label": "token1",
						"offset": 0,
						"slot": "7",
						"type": "t_address"
					},
					{
						"astId": 432,
						"contract": "contracts/TenkStablePair.sol:TenkStablePair",
						"label": "initialized",
						"offset": 20,
						"slot": "7",
						"type": "t_bool"
					},
					{
						"astId": 440,
						"contract": "contracts/TenkStablePair.sol:TenkStablePair",
						"label": "reserve0",
						"offset": 0,
						"slot": "8",
						"type": "t_uint112"
					},
					{
						"astId": 442,
						"contract": "contracts/TenkStablePair.sol:TenkStablePair",
						"label": "reserve1",
						"offset": 14,
						"slot": "8",
						"type": "t_uint112"
					},
					{
						"astId": 445,
						"contract": "contracts/TenkStablePair.sol:TenkStablePair",
						"label": "token0FeePercent",
						"offset": 28,
						"slot": "8",
						"type": "t_uint16"
					},
					{
						"astId": 448,
						"contract": "contracts/TenkStablePair.sol:TenkStablePair",
						"label": "token1FeePercent",
						"offset": 30,
						"slot": "8",
						"type": "t_uint16"
					},
					{
						"astId": 450,
						"contract": "contracts/TenkStablePair.sol:TenkStablePair",
						"label": "precisionMultiplier0",
						"offset": 0,
						"slot": "9",
						"type": "t_uint256"
					},
					{
						"astId": 452,
						"contract": "contracts/TenkStablePair.sol:TenkStablePair",
						"label": "precisionMultiplier1",
						"offset": 0,
						"slot": "10",
						"type": "t_uint256"
					},
					{
						"astId": 454,
						"contract": "contracts/TenkStablePair.sol:TenkStablePair",
						"label": "kLast",
						"offset": 0,
						"slot": "11",
						"type": "t_uint256"
					},
					{
						"astId": 456,
						"contract": "contracts/TenkStablePair.sol:TenkStablePair",
						"label": "stableSwap",
						"offset": 0,
						"slot": "12",
						"type": "t_bool"
					},
					{
						"astId": 458,
						"contract": "contracts/TenkStablePair.sol:TenkStablePair",
						"label": "pairTypeImmutable",
						"offset": 1,
						"slot": "12",
						"type": "t_bool"
					},
					{
						"astId": 461,
						"contract": "contracts/TenkStablePair.sol:TenkStablePair",
						"label": "unlocked",
						"offset": 0,
						"slot": "13",
						"type": "t_uint256"
					}
				],
				"types": {
					"t_address": {
						"encoding": "inplace",
						"label": "address",
						"numberOfBytes": "20"
					},
					"t_bool": {
						"encoding": "inplace",
						"label": "bool",
						"numberOfBytes": "1"
					},
					"t_bytes32": {
						"encoding": "inplace",
						"label": "bytes32",
						"numberOfBytes": "32"
					},
					"t_mapping(t_address,t_mapping(t_address,t_uint256))": {
						"encoding": "mapping",
						"key": "t_address",
						"label": "mapping(address => mapping(address => uint256))",
						"numberOfBytes": "32",
						"value": "t_mapping(t_address,t_uint256)"
					},
					"t_mapping(t_address,t_uint256)": {
						"encoding": "mapping",
						"key": "t_address",
						"label": "mapping(address => uint256)",
						"numberOfBytes": "32",
						"value": "t_uint256"
					},
					"t_uint112": {
						"encoding": "inplace",
						"label": "uint112",
						"numberOfBytes": "14"
					},
					"t_uint16": {
						"encoding": "inplace",
						"label": "uint16",
						"numberOfBytes": "2"
					},
					"t_uint256": {
						"encoding": "inplace",
						"label": "uint256",
						"numberOfBytes": "32"
					}
				}
			},
			"userdoc": {
				"methods": {}
			}
		}
	}
}